{
  "contractName": "Boadroom",
  "abi": [
    {
      "anonymous": false,
      "inputs": [
        {
          "indexed": true,
          "internalType": "address",
          "name": "executor",
          "type": "address"
        },
        {
          "indexed": false,
          "internalType": "uint256",
          "name": "at",
          "type": "uint256"
        }
      ],
      "name": "Initialized",
      "type": "event"
    },
    {
      "anonymous": false,
      "inputs": [
        {
          "indexed": true,
          "internalType": "address",
          "name": "user",
          "type": "address"
        },
        {
          "indexed": false,
          "internalType": "uint256",
          "name": "reward",
          "type": "uint256"
        }
      ],
      "name": "RewardAdded",
      "type": "event"
    },
    {
      "anonymous": false,
      "inputs": [
        {
          "indexed": true,
          "internalType": "address",
          "name": "user",
          "type": "address"
        },
        {
          "indexed": false,
          "internalType": "uint256",
          "name": "reward",
          "type": "uint256"
        }
      ],
      "name": "RewardPaid",
      "type": "event"
    },
    {
      "anonymous": false,
      "inputs": [
        {
          "indexed": true,
          "internalType": "address",
          "name": "user",
          "type": "address"
        },
        {
          "indexed": false,
          "internalType": "uint256",
          "name": "amount",
          "type": "uint256"
        }
      ],
      "name": "Staked",
      "type": "event"
    },
    {
      "anonymous": false,
      "inputs": [
        {
          "indexed": true,
          "internalType": "address",
          "name": "user",
          "type": "address"
        },
        {
          "indexed": false,
          "internalType": "uint256",
          "name": "amount",
          "type": "uint256"
        }
      ],
      "name": "Withdrawn",
      "type": "event"
    },
    {
      "inputs": [
        {
          "internalType": "address",
          "name": "account",
          "type": "address"
        }
      ],
      "name": "balanceOf",
      "outputs": [
        {
          "internalType": "uint256",
          "name": "",
          "type": "uint256"
        }
      ],
      "stateMutability": "view",
      "type": "function"
    },
    {
      "inputs": [],
      "name": "hamster",
      "outputs": [
        {
          "internalType": "contract IERC20",
          "name": "",
          "type": "address"
        }
      ],
      "stateMutability": "view",
      "type": "function"
    },
    {
      "inputs": [],
      "name": "initialized",
      "outputs": [
        {
          "internalType": "bool",
          "name": "",
          "type": "bool"
        }
      ],
      "stateMutability": "view",
      "type": "function"
    },
    {
      "inputs": [],
      "name": "operator",
      "outputs": [
        {
          "internalType": "address",
          "name": "",
          "type": "address"
        }
      ],
      "stateMutability": "view",
      "type": "function"
    },
    {
      "inputs": [],
      "name": "rewardLockupEpochs",
      "outputs": [
        {
          "internalType": "uint256",
          "name": "",
          "type": "uint256"
        }
      ],
      "stateMutability": "view",
      "type": "function"
    },
    {
      "inputs": [],
      "name": "share",
      "outputs": [
        {
          "internalType": "contract IERC20",
          "name": "",
          "type": "address"
        }
      ],
      "stateMutability": "view",
      "type": "function"
    },
    {
      "inputs": [],
      "name": "totalSupply",
      "outputs": [
        {
          "internalType": "uint256",
          "name": "",
          "type": "uint256"
        }
      ],
      "stateMutability": "view",
      "type": "function"
    },
    {
      "inputs": [],
      "name": "treasury",
      "outputs": [
        {
          "internalType": "contract ITreasury",
          "name": "",
          "type": "address"
        }
      ],
      "stateMutability": "view",
      "type": "function"
    },
    {
      "inputs": [
        {
          "internalType": "uint256",
          "name": "",
          "type": "uint256"
        }
      ],
      "name": "wheelHistory",
      "outputs": [
        {
          "internalType": "uint256",
          "name": "time",
          "type": "uint256"
        },
        {
          "internalType": "uint256",
          "name": "rewardReceived",
          "type": "uint256"
        },
        {
          "internalType": "uint256",
          "name": "rewardPerShare",
          "type": "uint256"
        }
      ],
      "stateMutability": "view",
      "type": "function"
    },
    {
      "inputs": [
        {
          "internalType": "address",
          "name": "",
          "type": "address"
        }
      ],
      "name": "wheels",
      "outputs": [
        {
          "internalType": "uint256",
          "name": "lastSnapshotIndex",
          "type": "uint256"
        },
        {
          "internalType": "uint256",
          "name": "rewardEarned",
          "type": "uint256"
        },
        {
          "internalType": "uint256",
          "name": "epochTimerStart",
          "type": "uint256"
        }
      ],
      "stateMutability": "view",
      "type": "function"
    },
    {
      "inputs": [],
      "name": "withdrawLockupEpochs",
      "outputs": [
        {
          "internalType": "uint256",
          "name": "",
          "type": "uint256"
        }
      ],
      "stateMutability": "view",
      "type": "function"
    },
    {
      "inputs": [
        {
          "internalType": "contract IERC20",
          "name": "_hamster",
          "type": "address"
        },
        {
          "internalType": "contract IERC20",
          "name": "_share",
          "type": "address"
        },
        {
          "internalType": "contract ITreasury",
          "name": "_treasury",
          "type": "address"
        }
      ],
      "name": "initialize",
      "outputs": [],
      "stateMutability": "nonpayable",
      "type": "function"
    },
    {
      "inputs": [
        {
          "internalType": "address",
          "name": "_operator",
          "type": "address"
        }
      ],
      "name": "setOperator",
      "outputs": [],
      "stateMutability": "nonpayable",
      "type": "function"
    },
    {
      "inputs": [
        {
          "internalType": "uint256",
          "name": "_withdrawLockupEpochs",
          "type": "uint256"
        },
        {
          "internalType": "uint256",
          "name": "_rewardLockupEpochs",
          "type": "uint256"
        }
      ],
      "name": "setLockUp",
      "outputs": [],
      "stateMutability": "nonpayable",
      "type": "function"
    },
    {
      "inputs": [],
      "name": "latestSnapshotIndex",
      "outputs": [
        {
          "internalType": "uint256",
          "name": "",
          "type": "uint256"
        }
      ],
      "stateMutability": "view",
      "type": "function"
    },
    {
      "inputs": [
        {
          "internalType": "address",
          "name": "wheel",
          "type": "address"
        }
      ],
      "name": "getLastSnapshotIndexOf",
      "outputs": [
        {
          "internalType": "uint256",
          "name": "",
          "type": "uint256"
        }
      ],
      "stateMutability": "view",
      "type": "function"
    },
    {
      "inputs": [
        {
          "internalType": "address",
          "name": "wheel",
          "type": "address"
        }
      ],
      "name": "canWithdraw",
      "outputs": [
        {
          "internalType": "bool",
          "name": "",
          "type": "bool"
        }
      ],
      "stateMutability": "view",
      "type": "function"
    },
    {
      "inputs": [
        {
          "internalType": "address",
          "name": "wheel",
          "type": "address"
        }
      ],
      "name": "canClaimReward",
      "outputs": [
        {
          "internalType": "bool",
          "name": "",
          "type": "bool"
        }
      ],
      "stateMutability": "view",
      "type": "function"
    },
    {
      "inputs": [],
      "name": "epoch",
      "outputs": [
        {
          "internalType": "uint256",
          "name": "",
          "type": "uint256"
        }
      ],
      "stateMutability": "view",
      "type": "function"
    },
    {
      "inputs": [],
      "name": "nextEpochPoint",
      "outputs": [
        {
          "internalType": "uint256",
          "name": "",
          "type": "uint256"
        }
      ],
      "stateMutability": "view",
      "type": "function"
    },
    {
      "inputs": [],
      "name": "getHamsterPrice",
      "outputs": [
        {
          "internalType": "uint256",
          "name": "",
          "type": "uint256"
        }
      ],
      "stateMutability": "view",
      "type": "function"
    },
    {
      "inputs": [],
      "name": "rewardPerShare",
      "outputs": [
        {
          "internalType": "uint256",
          "name": "",
          "type": "uint256"
        }
      ],
      "stateMutability": "view",
      "type": "function"
    },
    {
      "inputs": [
        {
          "internalType": "address",
          "name": "wheel",
          "type": "address"
        }
      ],
      "name": "earned",
      "outputs": [
        {
          "internalType": "uint256",
          "name": "",
          "type": "uint256"
        }
      ],
      "stateMutability": "view",
      "type": "function"
    },
    {
      "inputs": [
        {
          "internalType": "uint256",
          "name": "amount",
          "type": "uint256"
        }
      ],
      "name": "stake",
      "outputs": [],
      "stateMutability": "nonpayable",
      "type": "function"
    },
    {
      "inputs": [
        {
          "internalType": "uint256",
          "name": "amount",
          "type": "uint256"
        }
      ],
      "name": "withdraw",
      "outputs": [],
      "stateMutability": "nonpayable",
      "type": "function"
    },
    {
      "inputs": [],
      "name": "exit",
      "outputs": [],
      "stateMutability": "nonpayable",
      "type": "function"
    },
    {
      "inputs": [],
      "name": "claimReward",
      "outputs": [],
      "stateMutability": "nonpayable",
      "type": "function"
    },
    {
      "inputs": [
        {
          "internalType": "uint256",
          "name": "amount",
          "type": "uint256"
        }
      ],
      "name": "allocateSeigniorage",
      "outputs": [],
      "stateMutability": "nonpayable",
      "type": "function"
    },
    {
      "inputs": [
        {
          "internalType": "contract IERC20",
          "name": "_token",
          "type": "address"
        },
        {
          "internalType": "uint256",
          "name": "_amount",
          "type": "uint256"
        },
        {
          "internalType": "address",
          "name": "_to",
          "type": "address"
        }
      ],
      "name": "governanceRecoverUnsupported",
      "outputs": [],
      "stateMutability": "nonpayable",
      "type": "function"
    }
  ],
  "bytecode": "0x60806040526004805460ff60a01b1916905534801561001d57600080fd5b506127a98061002d6000396000f3fe608060405234801561001057600080fd5b50600436106101ce5760003560e01c8063570ca73511610104578063a8d5fd65116100a2578063c5967c2611610071578063c5967c2614610509578063d893a08614610511578063e9fad8ee14610519578063eb97070214610521576101ce565b8063a8d5fd6514610481578063b3ab15fb14610489578063b88a802f146104bc578063c0c53b8b146104c4576101ce565b8063714b4658116100de578063714b46581461040c578063900cf0cf1461043f57806397ffe1d714610447578063a694fc3a14610464576101ce565b8063570ca735146103c957806361d027b3146103d157806370a08231146103d9576101ce565b80631e85cd651161017157806334cadd121161014b57806334cadd12146103455780633f9e3f0414610376578063446a2ec81461037e57806354575af414610386576101ce565b80631e85cd65146102fb5780632e1a7d4d146103035780632ffaaa0914610322576101ce565b806311aafe3d116101ad57806311aafe3d14610267578063158ef93e146102b857806318160ddd146102c057806319262d30146102c8576101ce565b80628cc262146101d3578063022ba18d14610218578063046335d014610220575b600080fd5b610206600480360360208110156101e957600080fd5b503573ffffffffffffffffffffffffffffffffffffffff1661053e565b60408051918252519081900360200190f35b6102066105cc565b6102536004803603602081101561023657600080fd5b503573ffffffffffffffffffffffffffffffffffffffff166105d2565b604080519115158252519081900360200190f35b61029a6004803603602081101561027d57600080fd5b503573ffffffffffffffffffffffffffffffffffffffff166106a6565b60408051938452602084019290925282820152519081900360600190f35b6102536106c7565b6102066106e8565b610253600480360360208110156102de57600080fd5b503573ffffffffffffffffffffffffffffffffffffffff166106ee565b6102066107ba565b6103206004803603602081101561031957600080fd5b50356107c0565b005b6103206004803603604081101561033857600080fd5b5080359060200135610bae565b61034d610c8f565b6040805173ffffffffffffffffffffffffffffffffffffffff9092168252519081900360200190f35b610206610cab565b610206610cc1565b6103206004803603606081101561039c57600080fd5b5073ffffffffffffffffffffffffffffffffffffffff813581169160208101359160409091013516610cd4565b61034d610e7e565b61034d610e9a565b610206600480360360208110156103ef57600080fd5b503573ffffffffffffffffffffffffffffffffffffffff16610eb6565b6102066004803603602081101561042257600080fd5b503573ffffffffffffffffffffffffffffffffffffffff16610ede565b610206610f06565b6103206004803603602081101561045d57600080fd5b5035610fa2565b6103206004803603602081101561047a57600080fd5b5035611340565b61034d611665565b6103206004803603602081101561049f57600080fd5b503573ffffffffffffffffffffffffffffffffffffffff16611681565b610320611738565b610320600480360360608110156104da57600080fd5b5073ffffffffffffffffffffffffffffffffffffffff8135811691602081013582169160409091013516611a24565b610206611c54565b610206611cbf565b610320611d2a565b61029a6004803603602081101561053757600080fd5b5035611d3d565b600080610549611d6d565b604001519050600061055a84611dc5565b60409081015173ffffffffffffffffffffffffffffffffffffffff86166000908152600760205291909120600101549091506105c4906105be670de0b6b3a76400006105b86105a98787611e20565b6105b28a610eb6565b90611e9c565b90611f16565b90611f97565b949350505050565b600a5481565b600654604080517f900cf0cf000000000000000000000000000000000000000000000000000000008152905160009273ffffffffffffffffffffffffffffffffffffffff169163900cf0cf916004808301926020929190829003018186803b15801561063d57600080fd5b505afa158015610651573d6000803e3d6000fd5b505050506040513d602081101561066757600080fd5b5051600a5473ffffffffffffffffffffffffffffffffffffffff841660009081526007602052604090206002015461069e91611f97565b111592915050565b60076020526000908152604090208054600182015460029092015490919083565b60045474010000000000000000000000000000000000000000900460ff1681565b60015490565b600654604080517f900cf0cf000000000000000000000000000000000000000000000000000000008152905160009273ffffffffffffffffffffffffffffffffffffffff169163900cf0cf916004808301926020929190829003018186803b15801561075957600080fd5b505afa15801561076d573d6000803e3d6000fd5b505050506040513d602081101561078357600080fd5b505160095473ffffffffffffffffffffffffffffffffffffffff841660009081526007602052604090206002015461069e91611f97565b60095481565b6107c861200b565b1561081e576040517f08c379a000000000000000000000000000000000000000000000000000000000815260040180806020018281038252602681526020018061274e6026913960400191505060405180910390fd5b61082661202c565b1561087c576040517f08c379a000000000000000000000000000000000000000000000000000000000815260040180806020018281038252602681526020018061274e6026913960400191505060405180910390fd5b600061088733610eb6565b116108dd576040517f08c379a00000000000000000000000000000000000000000000000000000000081526004018080602001828103825260268152602001806125df6026913960400191505060405180910390fd5b338015610991576108ec612599565b5073ffffffffffffffffffffffffffffffffffffffff811660009081526007602090815260409182902082516060810184528154815260018201549281019290925260020154918101919091526109428261053e565b602082015261094f610cab565b815273ffffffffffffffffffffffffffffffffffffffff8216600090815260076020908152604091829020835181559083015160018201559101516002909101555b60008211610a0057604080517f08c379a000000000000000000000000000000000000000000000000000000000815260206004820152601f60248201527f48616d73746572576865656c3a2043616e6e6f74207769746864726177203000604482015290519081900360640190fd5b600660009054906101000a900473ffffffffffffffffffffffffffffffffffffffff1673ffffffffffffffffffffffffffffffffffffffff1663900cf0cf6040518163ffffffff1660e01b815260040160206040518083038186803b158015610a6857600080fd5b505afa158015610a7c573d6000803e3d6000fd5b505050506040513d6020811015610a9257600080fd5b505160095433600090815260076020526040902060020154610ab391611f97565b1115610b0a576040517f08c379a00000000000000000000000000000000000000000000000000000000081526004018080602001828103825260268152602001806126386026913960400191505060405180910390fd5b610b12611738565b610b1b8261204d565b60408051838152905133917f7084f5476618d8e60b11ef0d7d3f06914655adb8793e28ff7f018d4c76d505d5919081900360200190a25050436000908152600360209081526040808320328452909152808220805460017fffffffffffffffffffffffffffffffffffffffffffffffffffffffffffffff0091821681179092553384529190922080549091169091179055565b60045473ffffffffffffffffffffffffffffffffffffffff163314610c1e576040517f08c379a000000000000000000000000000000000000000000000000000000000815260040180806020018281038252602881526020018061267f6028913960400191505060405180910390fd5b808210158015610c2f575060388211155b610c84576040517f08c379a00000000000000000000000000000000000000000000000000000000081526004018080602001828103825260238152602001806126c86023913960400191505060405180910390fd5b600991909155600a55565b60055473ffffffffffffffffffffffffffffffffffffffff1681565b600854600090610cbc906001611e20565b905090565b6000610ccb611d6d565b60400151905090565b60045473ffffffffffffffffffffffffffffffffffffffff163314610d44576040517f08c379a000000000000000000000000000000000000000000000000000000000815260040180806020018281038252602881526020018061267f6028913960400191505060405180910390fd5b60055473ffffffffffffffffffffffffffffffffffffffff84811691161415610dce57604080517f08c379a000000000000000000000000000000000000000000000000000000000815260206004820152600760248201527f68616d7374657200000000000000000000000000000000000000000000000000604482015290519081900360640190fd5b60005473ffffffffffffffffffffffffffffffffffffffff84811691161415610e5857604080517f08c379a000000000000000000000000000000000000000000000000000000000815260206004820152600560248201527f7368617265000000000000000000000000000000000000000000000000000000604482015290519081900360640190fd5b610e7973ffffffffffffffffffffffffffffffffffffffff84168284612104565b505050565b60045473ffffffffffffffffffffffffffffffffffffffff1681565b60065473ffffffffffffffffffffffffffffffffffffffff1681565b73ffffffffffffffffffffffffffffffffffffffff1660009081526002602052604090205490565b73ffffffffffffffffffffffffffffffffffffffff1660009081526007602052604090205490565b600654604080517f900cf0cf000000000000000000000000000000000000000000000000000000008152905160009273ffffffffffffffffffffffffffffffffffffffff169163900cf0cf916004808301926020929190829003018186803b158015610f7157600080fd5b505afa158015610f85573d6000803e3d6000fd5b505050506040513d6020811015610f9b57600080fd5b5051905090565b610faa61200b565b15611000576040517f08c379a000000000000000000000000000000000000000000000000000000000815260040180806020018281038252602681526020018061274e6026913960400191505060405180910390fd5b61100861202c565b1561105e576040517f08c379a000000000000000000000000000000000000000000000000000000000815260040180806020018281038252602681526020018061274e6026913960400191505060405180910390fd5b60045473ffffffffffffffffffffffffffffffffffffffff1633146110ce576040517f08c379a000000000000000000000000000000000000000000000000000000000815260040180806020018281038252602881526020018061267f6028913960400191505060405180910390fd5b6000811161113d57604080517f08c379a000000000000000000000000000000000000000000000000000000000815260206004820152601f60248201527f48616d73746572576865656c3a2043616e6e6f7420616c6c6f63617465203000604482015290519081900360640190fd5b60006111476106e8565b1161119d576040517f08c379a00000000000000000000000000000000000000000000000000000000081526004018080602001828103825260338152602001806126056033913960400191505060405180910390fd5b60006111a7611d6d565b60400151905060006111d66111cf6111bd6106e8565b6105b886670de0b6b3a7640000611e9c565b8390611f97565b90506111e0612599565b5060408051606081018252438152602081018581529181018381526008805460018101825560009190915282517ff3f7a9fe364faab93b216da50a3214154f22a0a2b415b23a84c8169e8b636ee360039092029182015592517ff3f7a9fe364faab93b216da50a3214154f22a0a2b415b23a84c8169e8b636ee4840155517ff3f7a9fe364faab93b216da50a3214154f22a0a2b415b23a84c8169e8b636ee5909201919091556005546112ab9073ffffffffffffffffffffffffffffffffffffffff16333087612191565b60408051858152905133917fac24935fd910bc682b5ccb1a07b718cadf8cf2f6d1404c4f3ddc3662dae40e29919081900360200190a25050436000908152600360209081526040808320328452909152808220805460017fffffffffffffffffffffffffffffffffffffffffffffffffffffffffffffff00918216811790925533845291909220805490911690911790555050565b61134861200b565b1561139e576040517f08c379a000000000000000000000000000000000000000000000000000000000815260040180806020018281038252602681526020018061274e6026913960400191505060405180910390fd5b6113a661202c565b156113fc576040517f08c379a000000000000000000000000000000000000000000000000000000000815260040180806020018281038252602681526020018061274e6026913960400191505060405180910390fd5b3380156114b05761140b612599565b5073ffffffffffffffffffffffffffffffffffffffff811660009081526007602090815260409182902082516060810184528154815260018201549281019290925260020154918101919091526114618261053e565b602082015261146e610cab565b815273ffffffffffffffffffffffffffffffffffffffff8216600090815260076020908152604091829020835181559083015160018201559101516002909101555b6000821161151f57604080517f08c379a000000000000000000000000000000000000000000000000000000000815260206004820152601c60248201527f48616d73746572576865656c3a2043616e6e6f74207374616b65203000000000604482015290519081900360640190fd5b6115288261222c565b600660009054906101000a900473ffffffffffffffffffffffffffffffffffffffff1673ffffffffffffffffffffffffffffffffffffffff1663900cf0cf6040518163ffffffff1660e01b815260040160206040518083038186803b15801561159057600080fd5b505afa1580156115a4573d6000803e3d6000fd5b505050506040513d60208110156115ba57600080fd5b505133600081815260076020908152604091829020600201939093558051858152905191927f9e71bc8eea02a63969f509818f2dafb9254532904319f9dbda79b67bd34a5f3d92918290030190a25050436000908152600360209081526040808320328452909152808220805460017fffffffffffffffffffffffffffffffffffffffffffffffffffffffffffffff0091821681179092553384529190922080549091169091179055565b60005473ffffffffffffffffffffffffffffffffffffffff1681565b60045473ffffffffffffffffffffffffffffffffffffffff1633146116f1576040517f08c379a000000000000000000000000000000000000000000000000000000000815260040180806020018281038252602881526020018061267f6028913960400191505060405180910390fd5b600480547fffffffffffffffffffffffff00000000000000000000000000000000000000001673ffffffffffffffffffffffffffffffffffffffff92909216919091179055565b3380156117ec57611747612599565b5073ffffffffffffffffffffffffffffffffffffffff8116600090815260076020908152604091829020825160608101845281548152600182015492810192909252600201549181019190915261179d8261053e565b60208201526117aa610cab565b815273ffffffffffffffffffffffffffffffffffffffff8216600090815260076020908152604091829020835181559083015160018201559101516002909101555b336000908152600760205260409020600101548015611a2057600660009054906101000a900473ffffffffffffffffffffffffffffffffffffffff1673ffffffffffffffffffffffffffffffffffffffff1663900cf0cf6040518163ffffffff1660e01b815260040160206040518083038186803b15801561186d57600080fd5b505afa158015611881573d6000803e3d6000fd5b505050506040513d602081101561189757600080fd5b5051600a54336000908152600760205260409020600201546118b891611f97565b111561190f576040517f08c379a00000000000000000000000000000000000000000000000000000000081526004018080602001828103825260248152602001806125bb6024913960400191505060405180910390fd5b600660009054906101000a900473ffffffffffffffffffffffffffffffffffffffff1673ffffffffffffffffffffffffffffffffffffffff1663900cf0cf6040518163ffffffff1660e01b815260040160206040518083038186803b15801561197757600080fd5b505afa15801561198b573d6000803e3d6000fd5b505050506040513d60208110156119a157600080fd5b505133600081815260076020526040812060028101939093556001909201919091556005546119e99173ffffffffffffffffffffffffffffffffffffffff9091169083612104565b60408051828152905133917fe2403640ba68fed3a2f88b7557551d1993f84b99bb10ff833f0cf8db0c5e0486919081900360200190a25b5050565b60045474010000000000000000000000000000000000000000900460ff1615611a98576040517f08c379a000000000000000000000000000000000000000000000000000000000815260040180806020018281038252602181526020018061265e6021913960400191505060405180910390fd5b6005805473ffffffffffffffffffffffffffffffffffffffff8086167fffffffffffffffffffffffff000000000000000000000000000000000000000092831617909255600080548584169083161790556006805492841692909116919091179055611b02612599565b50604080516060810182524380825260006020808401828152848601838152600880546001810182559452855160039485027ff3f7a9fe364faab93b216da50a3214154f22a0a2b415b23a84c8169e8b636ee381019190915591517ff3f7a9fe364faab93b216da50a3214154f22a0a2b415b23a84c8169e8b636ee4830155517ff3f7a9fe364faab93b216da50a3214154f22a0a2b415b23a84c8169e8b636ee5909101556006600955600a91909155600480547fffffffffffffffffffffffff00000000000000000000000000000000000000007fffffffffffffffffffffff00ffffffffffffffffffffffffffffffffffffffff90911674010000000000000000000000000000000000000000171633908117909155845192835293519293927f25ff68dd81b34665b5ba7e553ee5511bf6812e12adb4a7e2c0d9e26b3099ce799281900390910190a250505050565b600654604080517fc5967c26000000000000000000000000000000000000000000000000000000008152905160009273ffffffffffffffffffffffffffffffffffffffff169163c5967c26916004808301926020929190829003018186803b158015610f7157600080fd5b600654604080517fd893a086000000000000000000000000000000000000000000000000000000008152905160009273ffffffffffffffffffffffffffffffffffffffff169163d893a086916004808301926020929190829003018186803b158015610f7157600080fd5b611d3b611d3633610eb6565b6107c0565b565b60088181548110611d4a57fe5b600091825260209091206003909102018054600182015460029092015490925083565b611d75612599565b6008611d7f610cab565b81548110611d8957fe5b90600052602060002090600302016040518060600160405290816000820154815260200160018201548152602001600282015481525050905090565b611dcd612599565b6008611dd883610ede565b81548110611de257fe5b906000526020600020906003020160405180606001604052908160008201548152602001600182015481526020016002820154815250509050919050565b600082821115611e9157604080517f08c379a000000000000000000000000000000000000000000000000000000000815260206004820152601e60248201527f536166654d6174683a207375627472616374696f6e206f766572666c6f770000604482015290519081900360640190fd5b508082035b92915050565b600082611eab57506000611e96565b82820282848281611eb857fe5b0414611f0f576040517f08c379a00000000000000000000000000000000000000000000000000000000081526004018080602001828103825260218152602001806126a76021913960400191505060405180910390fd5b9392505050565b6000808211611f8657604080517f08c379a000000000000000000000000000000000000000000000000000000000815260206004820152601a60248201527f536166654d6174683a206469766973696f6e206279207a65726f000000000000604482015290519081900360640190fd5b818381611f8f57fe5b049392505050565b600082820183811015611f0f57604080517f08c379a000000000000000000000000000000000000000000000000000000000815260206004820152601b60248201527f536166654d6174683a206164646974696f6e206f766572666c6f770000000000604482015290519081900360640190fd5b43600090815260036020908152604080832032845290915290205460ff1690565b43600090815260036020908152604080832033845290915290205460ff1690565b33600090815260026020526040902054818110156120b6576040517f08c379a00000000000000000000000000000000000000000000000000000000081526004018080602001828103825260398152602001806126eb6039913960400191505060405180910390fd5b6001546120c39083611e20565b6001556120d08183611e20565b336000818152600260205260408120929092559054611a209173ffffffffffffffffffffffffffffffffffffffff90911690845b6040805173ffffffffffffffffffffffffffffffffffffffff8416602482015260448082018490528251808303909101815260649091019091526020810180517bffffffffffffffffffffffffffffffffffffffffffffffffffffffff167fa9059cbb00000000000000000000000000000000000000000000000000000000179052610e79908490612292565b6040805173ffffffffffffffffffffffffffffffffffffffff80861660248301528416604482015260648082018490528251808303909101815260849091019091526020810180517bffffffffffffffffffffffffffffffffffffffffffffffffffffffff167f23b872dd00000000000000000000000000000000000000000000000000000000179052612226908590612292565b50505050565b6001546122399082611f97565b600155336000908152600260205260409020546122569082611f97565b33600081815260026020526040812092909255905461228f9173ffffffffffffffffffffffffffffffffffffffff909116903084612191565b50565b60606122f4826040518060400160405280602081526020017f5361666545524332303a206c6f772d6c6576656c2063616c6c206661696c65648152508573ffffffffffffffffffffffffffffffffffffffff1661236a9092919063ffffffff16565b805190915015610e795780806020019051602081101561231357600080fd5b5051610e79576040517f08c379a000000000000000000000000000000000000000000000000000000000815260040180806020018281038252602a815260200180612724602a913960400191505060405180910390fd5b60606105c484846000858561237e856124d5565b6123e957604080517f08c379a000000000000000000000000000000000000000000000000000000000815260206004820152601d60248201527f416464726573733a2063616c6c20746f206e6f6e2d636f6e7472616374000000604482015290519081900360640190fd5b600060608673ffffffffffffffffffffffffffffffffffffffff1685876040518082805190602001908083835b6020831061245357805182527fffffffffffffffffffffffffffffffffffffffffffffffffffffffffffffffe09092019160209182019101612416565b6001836020036101000a03801982511681845116808217855250505050505090500191505060006040518083038185875af1925050503d80600081146124b5576040519150601f19603f3d011682016040523d82523d6000602084013e6124ba565b606091505b50915091506124ca8282866124db565b979650505050505050565b3b151590565b606083156124ea575081611f0f565b8251156124fa5782518084602001fd5b816040517f08c379a00000000000000000000000000000000000000000000000000000000081526004018080602001828103825283818151815260200191508051906020019080838360005b8381101561255e578181015183820152602001612546565b50505050905090810190601f16801561258b5780820380516001836020036101000a031916815260200191505b509250505060405180910390fd5b6040518060600160405280600081526020016000815260200160008152509056fe48616d73746572576865656c3a207374696c6c20696e20726577617264206c6f636b757048616d73746572576865656c3a2054686520776865656c20646f6573206e6f7420657869737448616d73746572576865656c3a2043616e6e6f7420616c6c6f63617465207768656e20746f74616c537570706c79206973203048616d73746572576865656c3a207374696c6c20696e207769746864726177206c6f636b757048616d73746572576865656c3a20616c726561647920696e697469616c697a656448616d73746572576865656c3a2063616c6c6572206973206e6f7420746865206f70657261746f72536166654d6174683a206d756c7469706c69636174696f6e206f766572666c6f775f77697468647261774c6f636b757045706f6368733a206f7574206f662072616e676548616d73746572576865656c3a20776974686472617720726571756573742067726561746572207468616e207374616b656420616d6f756e745361666545524332303a204552433230206f7065726174696f6e20646964206e6f742073756363656564436f6e747261637447756172643a206f6e6520626c6f636b2c206f6e652066756e6374696f6ea26469706673582212207275cc2e5880e7a1fe71eceb5e45c1bbd1b45946edfd600573d8f8840196378864736f6c634300060c0033",
  "immutableReferences": {},
  "source": "// SPDX-License-Identifier: MIT\r\npragma solidity 0.6.12;\r\n\r\nimport \"@openzeppelin/contracts/token/ERC20/SafeERC20.sol\";\r\nimport \"./ContractGuard.sol\";\r\nimport \"./IBasisAsset.sol\";\r\nimport \"./ITreasury.sol\";\r\n\r\ncontract ShareWrapper {\r\n    using SafeMath for uint256;\r\n    using SafeERC20 for IERC20;\r\n\r\n    IERC20 public share;\r\n    uint256 private _totalSupply;\r\n    mapping(address => uint256) private _balances;\r\n\r\n    function totalSupply() public view returns (uint256) {\r\n        return _totalSupply;\r\n    }\r\n\r\n    function balanceOf(address account) public view returns (uint256) {\r\n        return _balances[account];\r\n    }\r\n\r\n    function stake(uint256 amount) public virtual {\r\n        _totalSupply = _totalSupply.add(amount);\r\n        _balances[msg.sender] = _balances[msg.sender].add(amount);\r\n        share.safeTransferFrom(msg.sender, address(this), amount);\r\n    }\r\n\r\n    function withdraw(uint256 amount) public virtual {\r\n        uint256 hamsterShare = _balances[msg.sender];\r\n        require(\r\n            hamsterShare >= amount,\r\n            \"HamsterWheel: withdraw request greater than staked amount\"\r\n        );\r\n        _totalSupply = _totalSupply.sub(amount);\r\n        _balances[msg.sender] = hamsterShare.sub(amount);\r\n        share.safeTransfer(msg.sender, amount);\r\n    }\r\n}\r\n\r\ncontract Boadroom is ShareWrapper, ContractGuard {\r\n    using SafeERC20 for IERC20;\r\n    using Address for address;\r\n    using SafeMath for uint256;\r\n\r\n    struct Wheelseat {\r\n        uint256 lastSnapshotIndex;\r\n        uint256 rewardEarned;\r\n        uint256 epochTimerStart;\r\n    }\r\n\r\n    struct WheelSnapshot {\r\n        uint256 time;\r\n        uint256 rewardReceived;\r\n        uint256 rewardPerShare;\r\n    }\r\n\r\n    address public operator;\r\n    bool public initialized = false;\r\n    IERC20 public hamster;\r\n    ITreasury public treasury;\r\n    mapping(address => Wheelseat) public wheels;\r\n    WheelSnapshot[] public wheelHistory;\r\n    uint256 public withdrawLockupEpochs;\r\n    uint256 public rewardLockupEpochs;\r\n\r\n    event Initialized(address indexed executor, uint256 at);\r\n    event Staked(address indexed user, uint256 amount);\r\n    event Withdrawn(address indexed user, uint256 amount);\r\n    event RewardPaid(address indexed user, uint256 reward);\r\n    event RewardAdded(address indexed user, uint256 reward);\r\n\r\n    modifier onlyOperator() {\r\n        require(\r\n            operator == msg.sender,\r\n            \"HamsterWheel: caller is not the operator\"\r\n        );\r\n        _;\r\n    }\r\n\r\n    modifier wheelExists() {\r\n        require(\r\n            balanceOf(msg.sender) > 0,\r\n            \"HamsterWheel: The wheel does not exist\"\r\n        );\r\n        _;\r\n    }\r\n\r\n    modifier updateReward(address wheel) {\r\n        if (wheel != address(0)) {\r\n            Wheelseat memory seat = wheels[wheel];\r\n            seat.rewardEarned = earned(wheel);\r\n            seat.lastSnapshotIndex = latestSnapshotIndex();\r\n            wheels[wheel] = seat;\r\n        }\r\n        _;\r\n    }\r\n\r\n    modifier notInitialized() {\r\n        require(!initialized, \"HamsterWheel: already initialized\");\r\n        _;\r\n    }\r\n\r\n    function initialize(\r\n        IERC20 _hamster,\r\n        IERC20 _share,\r\n        ITreasury _treasury\r\n    ) public notInitialized {\r\n        hamster = _hamster;\r\n        share = _share;\r\n        treasury = _treasury;\r\n        WheelSnapshot memory genesisSnapshot = WheelSnapshot({\r\n            time: block.number,\r\n            rewardReceived: 0,\r\n            rewardPerShare: 0\r\n        });\r\n        wheelHistory.push(genesisSnapshot);\r\n        withdrawLockupEpochs = 6;\r\n        rewardLockupEpochs = 3;\r\n        initialized = true;\r\n        operator = msg.sender;\r\n        emit Initialized(msg.sender, block.number);\r\n    }\r\n\r\n    function setOperator(address _operator) external onlyOperator {\r\n        operator = _operator;\r\n    }\r\n\r\n    function setLockUp(\r\n        uint256 _withdrawLockupEpochs,\r\n        uint256 _rewardLockupEpochs\r\n    ) external onlyOperator {\r\n        require(\r\n            _withdrawLockupEpochs >= _rewardLockupEpochs &&\r\n                _withdrawLockupEpochs <= 56,\r\n            \"_withdrawLockupEpochs: out of range\"\r\n        );\r\n        withdrawLockupEpochs = _withdrawLockupEpochs;\r\n        rewardLockupEpochs = _rewardLockupEpochs;\r\n    }\r\n\r\n    function latestSnapshotIndex() public view returns (uint256) {\r\n        return wheelHistory.length.sub(1);\r\n    }\r\n\r\n    function getLatestSnapshot() internal view returns (WheelSnapshot memory) {\r\n        return wheelHistory[latestSnapshotIndex()];\r\n    }\r\n\r\n    function getLastSnapshotIndexOf(address wheel)\r\n        public\r\n        view\r\n        returns (uint256)\r\n    {\r\n        return wheels[wheel].lastSnapshotIndex;\r\n    }\r\n\r\n    function getLastSnapshotOf(address wheel)\r\n        internal\r\n        view\r\n        returns (WheelSnapshot memory)\r\n    {\r\n        return wheelHistory[getLastSnapshotIndexOf(wheel)];\r\n    }\r\n\r\n    function canWithdraw(address wheel) external view returns (bool) {\r\n        return\r\n            wheels[wheel].epochTimerStart.add(withdrawLockupEpochs) <=\r\n            treasury.epoch();\r\n    }\r\n\r\n    function canClaimReward(address wheel) external view returns (bool) {\r\n        return\r\n            wheels[wheel].epochTimerStart.add(rewardLockupEpochs) <=\r\n            treasury.epoch();\r\n    }\r\n\r\n    function epoch() external view returns (uint256) {\r\n        return treasury.epoch();\r\n    }\r\n\r\n    function nextEpochPoint() external view returns (uint256) {\r\n        return treasury.nextEpochPoint();\r\n    }\r\n\r\n    function getHamsterPrice() external view returns (uint256) {\r\n        return treasury.getHamsterPrice();\r\n    }\r\n\r\n    function rewardPerShare() public view returns (uint256) {\r\n        return getLatestSnapshot().rewardPerShare;\r\n    }\r\n\r\n    function earned(address wheel) public view returns (uint256) {\r\n        uint256 latestRPS = getLatestSnapshot().rewardPerShare;\r\n        uint256 storedRPS = getLastSnapshotOf(wheel).rewardPerShare;\r\n        return\r\n            balanceOf(wheel).mul(latestRPS.sub(storedRPS)).div(1e18).add(\r\n                wheels[wheel].rewardEarned\r\n            );\r\n    }\r\n\r\n    function stake(uint256 amount)\r\n        public\r\n        override\r\n        onlyOneBlock\r\n        updateReward(msg.sender)\r\n    {\r\n        require(amount > 0, \"HamsterWheel: Cannot stake 0\");\r\n        super.stake(amount);\r\n        wheels[msg.sender].epochTimerStart = treasury.epoch();\r\n        emit Staked(msg.sender, amount);\r\n    }\r\n\r\n    function withdraw(uint256 amount)\r\n        public\r\n        override\r\n        onlyOneBlock\r\n        wheelExists\r\n        updateReward(msg.sender)\r\n    {\r\n        require(amount > 0, \"HamsterWheel: Cannot withdraw 0\");\r\n        require(\r\n            wheels[msg.sender].epochTimerStart.add(withdrawLockupEpochs) <=\r\n                treasury.epoch(),\r\n            \"HamsterWheel: still in withdraw lockup\"\r\n        );\r\n        claimReward();\r\n        super.withdraw(amount);\r\n        emit Withdrawn(msg.sender, amount);\r\n    }\r\n\r\n    function exit() external {\r\n        withdraw(balanceOf(msg.sender));\r\n    }\r\n\r\n    function claimReward() public updateReward(msg.sender) {\r\n        uint256 reward = wheels[msg.sender].rewardEarned;\r\n        if (reward > 0) {\r\n            require(\r\n                wheels[msg.sender].epochTimerStart.add(rewardLockupEpochs) <=\r\n                    treasury.epoch(),\r\n                \"HamsterWheel: still in reward lockup\"\r\n            );\r\n            wheels[msg.sender].epochTimerStart = treasury.epoch();\r\n            wheels[msg.sender].rewardEarned = 0;\r\n            hamster.safeTransfer(msg.sender, reward);\r\n            emit RewardPaid(msg.sender, reward);\r\n        }\r\n    }\r\n\r\n    function allocateSeigniorage(uint256 amount)\r\n        external\r\n        onlyOneBlock\r\n        onlyOperator\r\n    {\r\n        require(amount > 0, \"HamsterWheel: Cannot allocate 0\");\r\n        require(\r\n            totalSupply() > 0,\r\n            \"HamsterWheel: Cannot allocate when totalSupply is 0\"\r\n        );\r\n        uint256 prevRPS = getLatestSnapshot().rewardPerShare;\r\n        uint256 nextRPS = prevRPS.add(amount.mul(1e18).div(totalSupply()));\r\n        WheelSnapshot memory newSnapshot = WheelSnapshot({\r\n            time: block.number,\r\n            rewardReceived: amount,\r\n            rewardPerShare: nextRPS\r\n        });\r\n        wheelHistory.push(newSnapshot);\r\n        hamster.safeTransferFrom(msg.sender, address(this), amount);\r\n        emit RewardAdded(msg.sender, amount);\r\n    }\r\n\r\n    function governanceRecoverUnsupported(\r\n        IERC20 _token,\r\n        uint256 _amount,\r\n        address _to\r\n    ) external onlyOperator {\r\n        require(address(_token) != address(hamster), \"hamster\");\r\n        require(address(_token) != address(share), \"share\");\r\n        _token.safeTransfer(_to, _amount);\r\n    }\r\n}\r\n",
  "sourcePath": "E:\\projects\\Blockchain\\Upwork\\defi_rent\\hamster-contracts-main\\contracts\\Boardroom.sol",
  "compiler": {
    "name": "solc",
    "version": "0.6.12+commit.27d51765.Emscripten.clang"
  },
  "schemaVersion": "3.4.3",
  "updatedAt": "2022-03-21T18:18:38.419Z",
  "devdoc": {
    "kind": "dev",
    "methods": {},
    "version": 1
  },
  "userdoc": {
    "kind": "user",
    "methods": {},
    "version": 1
  }
}