{
  "contractName": "Boardroom",
  "abi": [
    {
      "anonymous": false,
      "inputs": [
        {
          "indexed": true,
          "internalType": "address",
          "name": "executor",
          "type": "address"
        },
        {
          "indexed": false,
          "internalType": "uint256",
          "name": "at",
          "type": "uint256"
        }
      ],
      "name": "Initialized",
      "type": "event"
    },
    {
      "anonymous": false,
      "inputs": [
        {
          "indexed": true,
          "internalType": "address",
          "name": "user",
          "type": "address"
        },
        {
          "indexed": false,
          "internalType": "uint256",
          "name": "reward",
          "type": "uint256"
        }
      ],
      "name": "RewardAdded",
      "type": "event"
    },
    {
      "anonymous": false,
      "inputs": [
        {
          "indexed": true,
          "internalType": "address",
          "name": "user",
          "type": "address"
        },
        {
          "indexed": false,
          "internalType": "uint256",
          "name": "reward",
          "type": "uint256"
        }
      ],
      "name": "RewardPaid",
      "type": "event"
    },
    {
      "anonymous": false,
      "inputs": [
        {
          "indexed": true,
          "internalType": "address",
          "name": "user",
          "type": "address"
        },
        {
          "indexed": false,
          "internalType": "uint256",
          "name": "amount",
          "type": "uint256"
        }
      ],
      "name": "Staked",
      "type": "event"
    },
    {
      "anonymous": false,
      "inputs": [
        {
          "indexed": true,
          "internalType": "address",
          "name": "user",
          "type": "address"
        },
        {
          "indexed": false,
          "internalType": "uint256",
          "name": "amount",
          "type": "uint256"
        }
      ],
      "name": "Withdrawn",
      "type": "event"
    },
    {
      "inputs": [
        {
          "internalType": "address",
          "name": "account",
          "type": "address"
        }
      ],
      "name": "balanceOf",
      "outputs": [
        {
          "internalType": "uint256",
          "name": "",
          "type": "uint256"
        }
      ],
      "stateMutability": "view",
      "type": "function",
      "constant": true
    },
    {
      "inputs": [],
      "name": "initialized",
      "outputs": [
        {
          "internalType": "bool",
          "name": "",
          "type": "bool"
        }
      ],
      "stateMutability": "view",
      "type": "function",
      "constant": true
    },
    {
      "inputs": [],
      "name": "operator",
      "outputs": [
        {
          "internalType": "address",
          "name": "",
          "type": "address"
        }
      ],
      "stateMutability": "view",
      "type": "function",
      "constant": true
    },
    {
      "inputs": [],
      "name": "rewardLockupEpochs",
      "outputs": [
        {
          "internalType": "uint256",
          "name": "",
          "type": "uint256"
        }
      ],
      "stateMutability": "view",
      "type": "function",
      "constant": true
    },
    {
      "inputs": [],
      "name": "share",
      "outputs": [
        {
          "internalType": "contract IERC20",
          "name": "",
          "type": "address"
        }
      ],
      "stateMutability": "view",
      "type": "function",
      "constant": true
    },
    {
      "inputs": [],
      "name": "svn",
      "outputs": [
        {
          "internalType": "contract IERC20",
          "name": "",
          "type": "address"
        }
      ],
      "stateMutability": "view",
      "type": "function",
      "constant": true
    },
    {
      "inputs": [],
      "name": "totalSupply",
      "outputs": [
        {
          "internalType": "uint256",
          "name": "",
          "type": "uint256"
        }
      ],
      "stateMutability": "view",
      "type": "function",
      "constant": true
    },
    {
      "inputs": [],
      "name": "treasury",
      "outputs": [
        {
          "internalType": "contract ITreasury",
          "name": "",
          "type": "address"
        }
      ],
      "stateMutability": "view",
      "type": "function",
      "constant": true
    },
    {
      "inputs": [
        {
          "internalType": "uint256",
          "name": "",
          "type": "uint256"
        }
      ],
      "name": "wheelHistory",
      "outputs": [
        {
          "internalType": "uint256",
          "name": "time",
          "type": "uint256"
        },
        {
          "internalType": "uint256",
          "name": "rewardReceived",
          "type": "uint256"
        },
        {
          "internalType": "uint256",
          "name": "rewardPerShare",
          "type": "uint256"
        }
      ],
      "stateMutability": "view",
      "type": "function",
      "constant": true
    },
    {
      "inputs": [
        {
          "internalType": "address",
          "name": "",
          "type": "address"
        }
      ],
      "name": "wheels",
      "outputs": [
        {
          "internalType": "uint256",
          "name": "lastSnapshotIndex",
          "type": "uint256"
        },
        {
          "internalType": "uint256",
          "name": "rewardEarned",
          "type": "uint256"
        },
        {
          "internalType": "uint256",
          "name": "epochTimerStart",
          "type": "uint256"
        }
      ],
      "stateMutability": "view",
      "type": "function",
      "constant": true
    },
    {
      "inputs": [],
      "name": "withdrawLockupEpochs",
      "outputs": [
        {
          "internalType": "uint256",
          "name": "",
          "type": "uint256"
        }
      ],
      "stateMutability": "view",
      "type": "function",
      "constant": true
    },
    {
      "inputs": [
        {
          "internalType": "contract IERC20",
          "name": "_svn",
          "type": "address"
        },
        {
          "internalType": "contract IERC20",
          "name": "_share",
          "type": "address"
        },
        {
          "internalType": "contract ITreasury",
          "name": "_treasury",
          "type": "address"
        }
      ],
      "name": "initialize",
      "outputs": [],
      "stateMutability": "nonpayable",
      "type": "function"
    },
    {
      "inputs": [
        {
          "internalType": "address",
          "name": "_operator",
          "type": "address"
        }
      ],
      "name": "setOperator",
      "outputs": [],
      "stateMutability": "nonpayable",
      "type": "function"
    },
    {
      "inputs": [
        {
          "internalType": "uint256",
          "name": "_withdrawLockupEpochs",
          "type": "uint256"
        },
        {
          "internalType": "uint256",
          "name": "_rewardLockupEpochs",
          "type": "uint256"
        }
      ],
      "name": "setLockUp",
      "outputs": [],
      "stateMutability": "nonpayable",
      "type": "function"
    },
    {
      "inputs": [],
      "name": "latestSnapshotIndex",
      "outputs": [
        {
          "internalType": "uint256",
          "name": "",
          "type": "uint256"
        }
      ],
      "stateMutability": "view",
      "type": "function",
      "constant": true
    },
    {
      "inputs": [
        {
          "internalType": "address",
          "name": "wheel",
          "type": "address"
        }
      ],
      "name": "getLastSnapshotIndexOf",
      "outputs": [
        {
          "internalType": "uint256",
          "name": "",
          "type": "uint256"
        }
      ],
      "stateMutability": "view",
      "type": "function",
      "constant": true
    },
    {
      "inputs": [
        {
          "internalType": "address",
          "name": "wheel",
          "type": "address"
        }
      ],
      "name": "canWithdraw",
      "outputs": [
        {
          "internalType": "bool",
          "name": "",
          "type": "bool"
        }
      ],
      "stateMutability": "view",
      "type": "function",
      "constant": true
    },
    {
      "inputs": [
        {
          "internalType": "address",
          "name": "wheel",
          "type": "address"
        }
      ],
      "name": "canClaimReward",
      "outputs": [
        {
          "internalType": "bool",
          "name": "",
          "type": "bool"
        }
      ],
      "stateMutability": "view",
      "type": "function",
      "constant": true
    },
    {
      "inputs": [],
      "name": "epoch",
      "outputs": [
        {
          "internalType": "uint256",
          "name": "",
          "type": "uint256"
        }
      ],
      "stateMutability": "view",
      "type": "function",
      "constant": true
    },
    {
      "inputs": [],
      "name": "nextEpochPoint",
      "outputs": [
        {
          "internalType": "uint256",
          "name": "",
          "type": "uint256"
        }
      ],
      "stateMutability": "view",
      "type": "function",
      "constant": true
    },
    {
      "inputs": [],
      "name": "getSvnPrice",
      "outputs": [
        {
          "internalType": "uint256",
          "name": "",
          "type": "uint256"
        }
      ],
      "stateMutability": "view",
      "type": "function",
      "constant": true
    },
    {
      "inputs": [],
      "name": "rewardPerShare",
      "outputs": [
        {
          "internalType": "uint256",
          "name": "",
          "type": "uint256"
        }
      ],
      "stateMutability": "view",
      "type": "function",
      "constant": true
    },
    {
      "inputs": [
        {
          "internalType": "address",
          "name": "wheel",
          "type": "address"
        }
      ],
      "name": "earned",
      "outputs": [
        {
          "internalType": "uint256",
          "name": "",
          "type": "uint256"
        }
      ],
      "stateMutability": "view",
      "type": "function",
      "constant": true
    },
    {
      "inputs": [
        {
          "internalType": "uint256",
          "name": "amount",
          "type": "uint256"
        }
      ],
      "name": "stake",
      "outputs": [],
      "stateMutability": "nonpayable",
      "type": "function"
    },
    {
      "inputs": [
        {
          "internalType": "uint256",
          "name": "amount",
          "type": "uint256"
        }
      ],
      "name": "withdraw",
      "outputs": [],
      "stateMutability": "nonpayable",
      "type": "function"
    },
    {
      "inputs": [],
      "name": "exit",
      "outputs": [],
      "stateMutability": "nonpayable",
      "type": "function"
    },
    {
      "inputs": [],
      "name": "claimReward",
      "outputs": [],
      "stateMutability": "nonpayable",
      "type": "function"
    },
    {
      "inputs": [
        {
          "internalType": "uint256",
          "name": "amount",
          "type": "uint256"
        }
      ],
      "name": "allocateSeigniorage",
      "outputs": [],
      "stateMutability": "nonpayable",
      "type": "function"
    },
    {
      "inputs": [
        {
          "internalType": "contract IERC20",
          "name": "_token",
          "type": "address"
        },
        {
          "internalType": "uint256",
          "name": "_amount",
          "type": "uint256"
        },
        {
          "internalType": "address",
          "name": "_to",
          "type": "address"
        }
      ],
      "name": "governanceRecoverUnsupported",
      "outputs": [],
      "stateMutability": "nonpayable",
      "type": "function"
    }
  ],
  "bytecode": "0x60806040526004805460ff60a01b1916905534801561001d57600080fd5b5061277c8061002d6000396000f3fe608060405234801561001057600080fd5b50600436106101ce5760003560e01c806361d027b311610104578063b3ab15fb116100a2578063c5967c2611610071578063c5967c2614610509578063d4a9c63c14610511578063e9fad8ee14610519578063eb97070214610521576101ce565b8063b3ab15fb14610481578063b88a802f146104b4578063b8950cae146104bc578063c0c53b8b146104c4576101ce565b8063900cf0cf116100de578063900cf0cf1461043757806397ffe1d71461043f578063a694fc3a1461045c578063a8d5fd6514610479576101ce565b806361d027b3146103c957806370a08231146103d1578063714b465814610404576101ce565b80631e85cd65116101715780633f9e3f041161014b5780633f9e3f0414610345578063446a2ec81461034d57806354575af414610355578063570ca73514610398576101ce565b80631e85cd65146102fb5780632e1a7d4d146103035780632ffaaa0914610322576101ce565b806311aafe3d116101ad57806311aafe3d14610267578063158ef93e146102b857806318160ddd146102c057806319262d30146102c8576101ce565b80628cc262146101d3578063022ba18d14610218578063046335d014610220575b600080fd5b610206600480360360208110156101e957600080fd5b503573ffffffffffffffffffffffffffffffffffffffff1661053e565b60408051918252519081900360200190f35b6102066105cc565b6102536004803603602081101561023657600080fd5b503573ffffffffffffffffffffffffffffffffffffffff166105d2565b604080519115158252519081900360200190f35b61029a6004803603602081101561027d57600080fd5b503573ffffffffffffffffffffffffffffffffffffffff166106a6565b60408051938452602084019290925282820152519081900360600190f35b6102536106c7565b6102066106e8565b610253600480360360208110156102de57600080fd5b503573ffffffffffffffffffffffffffffffffffffffff166106ee565b6102066107ba565b6103206004803603602081101561031957600080fd5b50356107c0565b005b6103206004803603604081101561033857600080fd5b5080359060200135610bae565b610206610c8f565b610206610ca5565b6103206004803603606081101561036b57600080fd5b5073ffffffffffffffffffffffffffffffffffffffff813581169160208101359160409091013516610cb8565b6103a0610e62565b6040805173ffffffffffffffffffffffffffffffffffffffff9092168252519081900360200190f35b6103a0610e7e565b610206600480360360208110156103e757600080fd5b503573ffffffffffffffffffffffffffffffffffffffff16610e9a565b6102066004803603602081101561041a57600080fd5b503573ffffffffffffffffffffffffffffffffffffffff16610ec2565b610206610eea565b6103206004803603602081101561045557600080fd5b5035610f86565b6103206004803603602081101561047257600080fd5b5035611324565b6103a0611649565b6103206004803603602081101561049757600080fd5b503573ffffffffffffffffffffffffffffffffffffffff16611665565b61032061171c565b6103a0611a1e565b610320600480360360608110156104da57600080fd5b5073ffffffffffffffffffffffffffffffffffffffff8135811691602081013582169160409091013516611a3a565b610206611c80565b610206611ceb565b610320611d56565b61029a6004803603602081101561053757600080fd5b5035611d69565b600080610549611d99565b604001519050600061055a84611df1565b60409081015173ffffffffffffffffffffffffffffffffffffffff86166000908152600760205291909120600101549091506105c4906105be670de0b6b3a76400006105b86105a98787611e4c565b6105b28a610e9a565b90611ec8565b90611f42565b90611fc3565b949350505050565b600a5481565b600654604080517f900cf0cf000000000000000000000000000000000000000000000000000000008152905160009273ffffffffffffffffffffffffffffffffffffffff169163900cf0cf916004808301926020929190829003018186803b15801561063d57600080fd5b505afa158015610651573d6000803e3d6000fd5b505050506040513d602081101561066757600080fd5b5051600a5473ffffffffffffffffffffffffffffffffffffffff841660009081526007602052604090206002015461069e91611fc3565b111592915050565b60076020526000908152604090208054600182015460029092015490919083565b60045474010000000000000000000000000000000000000000900460ff1681565b60015490565b600654604080517f900cf0cf000000000000000000000000000000000000000000000000000000008152905160009273ffffffffffffffffffffffffffffffffffffffff169163900cf0cf916004808301926020929190829003018186803b15801561075957600080fd5b505afa15801561076d573d6000803e3d6000fd5b505050506040513d602081101561078357600080fd5b505160095473ffffffffffffffffffffffffffffffffffffffff841660009081526007602052604090206002015461069e91611fc3565b60095481565b6107c8612037565b1561081e576040517f08c379a00000000000000000000000000000000000000000000000000000000081526004018080602001828103825260268152602001806127216026913960400191505060405180910390fd5b610826612058565b1561087c576040517f08c379a00000000000000000000000000000000000000000000000000000000081526004018080602001828103825260268152602001806127216026913960400191505060405180910390fd5b600061088733610e9a565b116108dd576040517f08c379a000000000000000000000000000000000000000000000000000000000815260040180806020018281038252602281526020018061264b6022913960400191505060405180910390fd5b338015610991576108ec6125c5565b5073ffffffffffffffffffffffffffffffffffffffff811660009081526007602090815260409182902082516060810184528154815260018201549281019290925260020154918101919091526109428261053e565b602082015261094f610c8f565b815273ffffffffffffffffffffffffffffffffffffffff8216600090815260076020908152604091829020835181559083015160018201559101516002909101555b60008211610a0057604080517f08c379a000000000000000000000000000000000000000000000000000000000815260206004820152601b60248201527f53766e576865656c3a2043616e6e6f7420776974686472617720300000000000604482015290519081900360640190fd5b600660009054906101000a900473ffffffffffffffffffffffffffffffffffffffff1673ffffffffffffffffffffffffffffffffffffffff1663900cf0cf6040518163ffffffff1660e01b815260040160206040518083038186803b158015610a6857600080fd5b505afa158015610a7c573d6000803e3d6000fd5b505050506040513d6020811015610a9257600080fd5b505160095433600090815260076020526040902060020154610ab391611fc3565b1115610b0a576040517f08c379a00000000000000000000000000000000000000000000000000000000081526004018080602001828103825260228152602001806126b26022913960400191505060405180910390fd5b610b1261171c565b610b1b82612079565b60408051838152905133917f7084f5476618d8e60b11ef0d7d3f06914655adb8793e28ff7f018d4c76d505d5919081900360200190a25050436000908152600360209081526040808320328452909152808220805460017fffffffffffffffffffffffffffffffffffffffffffffffffffffffffffffff0091821681179092553384529190922080549091169091179055565b60045473ffffffffffffffffffffffffffffffffffffffff163314610c1e576040517f08c379a000000000000000000000000000000000000000000000000000000000815260040180806020018281038252602481526020018061266d6024913960400191505060405180910390fd5b808210158015610c2f575060388211155b610c84576040517f08c379a00000000000000000000000000000000000000000000000000000000081526004018080602001828103825260238152602001806126d46023913960400191505060405180910390fd5b600991909155600a55565b600854600090610ca0906001611e4c565b905090565b6000610caf611d99565b60400151905090565b60045473ffffffffffffffffffffffffffffffffffffffff163314610d28576040517f08c379a000000000000000000000000000000000000000000000000000000000815260040180806020018281038252602481526020018061266d6024913960400191505060405180910390fd5b60055473ffffffffffffffffffffffffffffffffffffffff84811691161415610db257604080517f08c379a000000000000000000000000000000000000000000000000000000000815260206004820152600360248201527f73766e0000000000000000000000000000000000000000000000000000000000604482015290519081900360640190fd5b60005473ffffffffffffffffffffffffffffffffffffffff84811691161415610e3c57604080517f08c379a000000000000000000000000000000000000000000000000000000000815260206004820152600560248201527f7368617265000000000000000000000000000000000000000000000000000000604482015290519081900360640190fd5b610e5d73ffffffffffffffffffffffffffffffffffffffff84168284612130565b505050565b60045473ffffffffffffffffffffffffffffffffffffffff1681565b60065473ffffffffffffffffffffffffffffffffffffffff1681565b73ffffffffffffffffffffffffffffffffffffffff1660009081526002602052604090205490565b73ffffffffffffffffffffffffffffffffffffffff1660009081526007602052604090205490565b600654604080517f900cf0cf000000000000000000000000000000000000000000000000000000008152905160009273ffffffffffffffffffffffffffffffffffffffff169163900cf0cf916004808301926020929190829003018186803b158015610f5557600080fd5b505afa158015610f69573d6000803e3d6000fd5b505050506040513d6020811015610f7f57600080fd5b5051905090565b610f8e612037565b15610fe4576040517f08c379a00000000000000000000000000000000000000000000000000000000081526004018080602001828103825260268152602001806127216026913960400191505060405180910390fd5b610fec612058565b15611042576040517f08c379a00000000000000000000000000000000000000000000000000000000081526004018080602001828103825260268152602001806127216026913960400191505060405180910390fd5b60045473ffffffffffffffffffffffffffffffffffffffff1633146110b2576040517f08c379a000000000000000000000000000000000000000000000000000000000815260040180806020018281038252602481526020018061266d6024913960400191505060405180910390fd5b6000811161112157604080517f08c379a000000000000000000000000000000000000000000000000000000000815260206004820152601b60248201527f53766e576865656c3a2043616e6e6f7420616c6c6f6361746520300000000000604482015290519081900360640190fd5b600061112b6106e8565b11611181576040517f08c379a000000000000000000000000000000000000000000000000000000000815260040180806020018281038252602f81526020018061261c602f913960400191505060405180910390fd5b600061118b611d99565b60400151905060006111ba6111b36111a16106e8565b6105b886670de0b6b3a7640000611ec8565b8390611fc3565b90506111c46125c5565b5060408051606081018252438152602081018581529181018381526008805460018101825560009190915282517ff3f7a9fe364faab93b216da50a3214154f22a0a2b415b23a84c8169e8b636ee360039092029182015592517ff3f7a9fe364faab93b216da50a3214154f22a0a2b415b23a84c8169e8b636ee4840155517ff3f7a9fe364faab93b216da50a3214154f22a0a2b415b23a84c8169e8b636ee59092019190915560055461128f9073ffffffffffffffffffffffffffffffffffffffff163330876121bd565b60408051858152905133917fac24935fd910bc682b5ccb1a07b718cadf8cf2f6d1404c4f3ddc3662dae40e29919081900360200190a25050436000908152600360209081526040808320328452909152808220805460017fffffffffffffffffffffffffffffffffffffffffffffffffffffffffffffff00918216811790925533845291909220805490911690911790555050565b61132c612037565b15611382576040517f08c379a00000000000000000000000000000000000000000000000000000000081526004018080602001828103825260268152602001806127216026913960400191505060405180910390fd5b61138a612058565b156113e0576040517f08c379a00000000000000000000000000000000000000000000000000000000081526004018080602001828103825260268152602001806127216026913960400191505060405180910390fd5b338015611494576113ef6125c5565b5073ffffffffffffffffffffffffffffffffffffffff811660009081526007602090815260409182902082516060810184528154815260018201549281019290925260020154918101919091526114458261053e565b6020820152611452610c8f565b815273ffffffffffffffffffffffffffffffffffffffff8216600090815260076020908152604091829020835181559083015160018201559101516002909101555b6000821161150357604080517f08c379a000000000000000000000000000000000000000000000000000000000815260206004820152601860248201527f53766e576865656c3a2043616e6e6f74207374616b6520300000000000000000604482015290519081900360640190fd5b61150c82612258565b600660009054906101000a900473ffffffffffffffffffffffffffffffffffffffff1673ffffffffffffffffffffffffffffffffffffffff1663900cf0cf6040518163ffffffff1660e01b815260040160206040518083038186803b15801561157457600080fd5b505afa158015611588573d6000803e3d6000fd5b505050506040513d602081101561159e57600080fd5b505133600081815260076020908152604091829020600201939093558051858152905191927f9e71bc8eea02a63969f509818f2dafb9254532904319f9dbda79b67bd34a5f3d92918290030190a25050436000908152600360209081526040808320328452909152808220805460017fffffffffffffffffffffffffffffffffffffffffffffffffffffffffffffff0091821681179092553384529190922080549091169091179055565b60005473ffffffffffffffffffffffffffffffffffffffff1681565b60045473ffffffffffffffffffffffffffffffffffffffff1633146116d5576040517f08c379a000000000000000000000000000000000000000000000000000000000815260040180806020018281038252602481526020018061266d6024913960400191505060405180910390fd5b600480547fffffffffffffffffffffffff00000000000000000000000000000000000000001673ffffffffffffffffffffffffffffffffffffffff92909216919091179055565b3380156117d05761172b6125c5565b5073ffffffffffffffffffffffffffffffffffffffff811660009081526007602090815260409182902082516060810184528154815260018201549281019290925260020154918101919091526117818261053e565b602082015261178e610c8f565b815273ffffffffffffffffffffffffffffffffffffffff8216600090815260076020908152604091829020835181559083015160018201559101516002909101555b336000908152600760205260409020600101548015611a1a57600660009054906101000a900473ffffffffffffffffffffffffffffffffffffffff1673ffffffffffffffffffffffffffffffffffffffff1663900cf0cf6040518163ffffffff1660e01b815260040160206040518083038186803b15801561185157600080fd5b505afa158015611865573d6000803e3d6000fd5b505050506040513d602081101561187b57600080fd5b5051600a543360009081526007602052604090206002015461189c91611fc3565b111561190957604080517f08c379a000000000000000000000000000000000000000000000000000000000815260206004820181905260248201527f53766e576865656c3a207374696c6c20696e20726577617264206c6f636b7570604482015290519081900360640190fd5b600660009054906101000a900473ffffffffffffffffffffffffffffffffffffffff1673ffffffffffffffffffffffffffffffffffffffff1663900cf0cf6040518163ffffffff1660e01b815260040160206040518083038186803b15801561197157600080fd5b505afa158015611985573d6000803e3d6000fd5b505050506040513d602081101561199b57600080fd5b505133600081815260076020526040812060028101939093556001909201919091556005546119e39173ffffffffffffffffffffffffffffffffffffffff9091169083612130565b60408051828152905133917fe2403640ba68fed3a2f88b7557551d1993f84b99bb10ff833f0cf8db0c5e0486919081900360200190a25b5050565b60055473ffffffffffffffffffffffffffffffffffffffff1681565b60045474010000000000000000000000000000000000000000900460ff1615611ac457604080517f08c379a000000000000000000000000000000000000000000000000000000000815260206004820152601d60248201527f53766e576865656c3a20616c726561647920696e697469616c697a6564000000604482015290519081900360640190fd5b6005805473ffffffffffffffffffffffffffffffffffffffff8086167fffffffffffffffffffffffff000000000000000000000000000000000000000092831617909255600080548584169083161790556006805492841692909116919091179055611b2e6125c5565b50604080516060810182524380825260006020808401828152848601838152600880546001810182559452855160039485027ff3f7a9fe364faab93b216da50a3214154f22a0a2b415b23a84c8169e8b636ee381019190915591517ff3f7a9fe364faab93b216da50a3214154f22a0a2b415b23a84c8169e8b636ee4830155517ff3f7a9fe364faab93b216da50a3214154f22a0a2b415b23a84c8169e8b636ee5909101556006600955600a91909155600480547fffffffffffffffffffffffff00000000000000000000000000000000000000007fffffffffffffffffffffff00ffffffffffffffffffffffffffffffffffffffff90911674010000000000000000000000000000000000000000171633908117909155845192835293519293927f25ff68dd81b34665b5ba7e553ee5511bf6812e12adb4a7e2c0d9e26b3099ce799281900390910190a250505050565b600654604080517fc5967c26000000000000000000000000000000000000000000000000000000008152905160009273ffffffffffffffffffffffffffffffffffffffff169163c5967c26916004808301926020929190829003018186803b158015610f5557600080fd5b600654604080517fd4a9c63c000000000000000000000000000000000000000000000000000000008152905160009273ffffffffffffffffffffffffffffffffffffffff169163d4a9c63c916004808301926020929190829003018186803b158015610f5557600080fd5b611d67611d6233610e9a565b6107c0565b565b60088181548110611d7657fe5b600091825260209091206003909102018054600182015460029092015490925083565b611da16125c5565b6008611dab610c8f565b81548110611db557fe5b90600052602060002090600302016040518060600160405290816000820154815260200160018201548152602001600282015481525050905090565b611df96125c5565b6008611e0483610ec2565b81548110611e0e57fe5b906000526020600020906003020160405180606001604052908160008201548152602001600182015481526020016002820154815250509050919050565b600082821115611ebd57604080517f08c379a000000000000000000000000000000000000000000000000000000000815260206004820152601e60248201527f536166654d6174683a207375627472616374696f6e206f766572666c6f770000604482015290519081900360640190fd5b508082035b92915050565b600082611ed757506000611ec2565b82820282848281611ee457fe5b0414611f3b576040517f08c379a00000000000000000000000000000000000000000000000000000000081526004018080602001828103825260218152602001806126916021913960400191505060405180910390fd5b9392505050565b6000808211611fb257604080517f08c379a000000000000000000000000000000000000000000000000000000000815260206004820152601a60248201527f536166654d6174683a206469766973696f6e206279207a65726f000000000000604482015290519081900360640190fd5b818381611fbb57fe5b049392505050565b600082820183811015611f3b57604080517f08c379a000000000000000000000000000000000000000000000000000000000815260206004820152601b60248201527f536166654d6174683a206164646974696f6e206f766572666c6f770000000000604482015290519081900360640190fd5b43600090815260036020908152604080832032845290915290205460ff1690565b43600090815260036020908152604080832033845290915290205460ff1690565b33600090815260026020526040902054818110156120e2576040517f08c379a00000000000000000000000000000000000000000000000000000000081526004018080602001828103825260358152602001806125e76035913960400191505060405180910390fd5b6001546120ef9083611e4c565b6001556120fc8183611e4c565b336000818152600260205260408120929092559054611a1a9173ffffffffffffffffffffffffffffffffffffffff90911690845b6040805173ffffffffffffffffffffffffffffffffffffffff8416602482015260448082018490528251808303909101815260649091019091526020810180517bffffffffffffffffffffffffffffffffffffffffffffffffffffffff167fa9059cbb00000000000000000000000000000000000000000000000000000000179052610e5d9084906122be565b6040805173ffffffffffffffffffffffffffffffffffffffff80861660248301528416604482015260648082018490528251808303909101815260849091019091526020810180517bffffffffffffffffffffffffffffffffffffffffffffffffffffffff167f23b872dd000000000000000000000000000000000000000000000000000000001790526122529085906122be565b50505050565b6001546122659082611fc3565b600155336000908152600260205260409020546122829082611fc3565b3360008181526002602052604081209290925590546122bb9173ffffffffffffffffffffffffffffffffffffffff9091169030846121bd565b50565b6060612320826040518060400160405280602081526020017f5361666545524332303a206c6f772d6c6576656c2063616c6c206661696c65648152508573ffffffffffffffffffffffffffffffffffffffff166123969092919063ffffffff16565b805190915015610e5d5780806020019051602081101561233f57600080fd5b5051610e5d576040517f08c379a000000000000000000000000000000000000000000000000000000000815260040180806020018281038252602a8152602001806126f7602a913960400191505060405180910390fd5b60606105c48484600085856123aa85612501565b61241557604080517f08c379a000000000000000000000000000000000000000000000000000000000815260206004820152601d60248201527f416464726573733a2063616c6c20746f206e6f6e2d636f6e7472616374000000604482015290519081900360640190fd5b600060608673ffffffffffffffffffffffffffffffffffffffff1685876040518082805190602001908083835b6020831061247f57805182527fffffffffffffffffffffffffffffffffffffffffffffffffffffffffffffffe09092019160209182019101612442565b6001836020036101000a03801982511681845116808217855250505050505090500191505060006040518083038185875af1925050503d80600081146124e1576040519150601f19603f3d011682016040523d82523d6000602084013e6124e6565b606091505b50915091506124f6828286612507565b979650505050505050565b3b151590565b60608315612516575081611f3b565b8251156125265782518084602001fd5b816040517f08c379a00000000000000000000000000000000000000000000000000000000081526004018080602001828103825283818151815260200191508051906020019080838360005b8381101561258a578181015183820152602001612572565b50505050905090810190601f1680156125b75780820380516001836020036101000a031916815260200191505b509250505060405180910390fd5b6040518060600160405280600081526020016000815260200160008152509056fe53766e576865656c3a20776974686472617720726571756573742067726561746572207468616e207374616b656420616d6f756e7453766e576865656c3a2043616e6e6f7420616c6c6f63617465207768656e20746f74616c537570706c79206973203053766e576865656c3a2054686520776865656c20646f6573206e6f7420657869737453766e576865656c3a2063616c6c6572206973206e6f7420746865206f70657261746f72536166654d6174683a206d756c7469706c69636174696f6e206f766572666c6f7753766e576865656c3a207374696c6c20696e207769746864726177206c6f636b75705f77697468647261774c6f636b757045706f6368733a206f7574206f662072616e67655361666545524332303a204552433230206f7065726174696f6e20646964206e6f742073756363656564436f6e747261637447756172643a206f6e6520626c6f636b2c206f6e652066756e6374696f6ea264697066735822122087e90388deba7b49fb00462d330a6e10e6e811f7a960d1871b86e6600456cd4364736f6c634300060c0033",
  "immutableReferences": {},
  "source": "// SPDX-License-Identifier: MIT\r\npragma solidity 0.6.12;\r\n\r\nimport \"@openzeppelin/contracts/token/ERC20/SafeERC20.sol\";\r\nimport \"./ContractGuard.sol\";\r\nimport \"./IBasisAsset.sol\";\r\nimport \"./ITreasury.sol\";\r\n\r\ncontract ShareWrapper {\r\n    using SafeMath for uint256;\r\n    using SafeERC20 for IERC20;\r\n\r\n    IERC20 public share;\r\n    uint256 private _totalSupply;\r\n    mapping(address => uint256) private _balances;\r\n\r\n    function totalSupply() public view returns (uint256) {\r\n        return _totalSupply;\r\n    }\r\n\r\n    function balanceOf(address account) public view returns (uint256) {\r\n        return _balances[account];\r\n    }\r\n\r\n    function stake(uint256 amount) public virtual {\r\n        _totalSupply = _totalSupply.add(amount);\r\n        _balances[msg.sender] = _balances[msg.sender].add(amount);\r\n        share.safeTransferFrom(msg.sender, address(this), amount);\r\n    }\r\n\r\n    function withdraw(uint256 amount) public virtual {\r\n        uint256 svnShare = _balances[msg.sender];\r\n        require(\r\n            svnShare >= amount,\r\n            \"SvnWheel: withdraw request greater than staked amount\"\r\n        );\r\n        _totalSupply = _totalSupply.sub(amount);\r\n        _balances[msg.sender] = svnShare.sub(amount);\r\n        share.safeTransfer(msg.sender, amount);\r\n    }\r\n}\r\n\r\ncontract Boardroom is ShareWrapper, ContractGuard {\r\n    using SafeERC20 for IERC20;\r\n    using Address for address;\r\n    using SafeMath for uint256;\r\n\r\n    struct Wheelseat {\r\n        uint256 lastSnapshotIndex;\r\n        uint256 rewardEarned;\r\n        uint256 epochTimerStart;\r\n    }\r\n\r\n    struct WheelSnapshot {\r\n        uint256 time;\r\n        uint256 rewardReceived;\r\n        uint256 rewardPerShare;\r\n    }\r\n\r\n    address public operator;\r\n    bool public initialized = false;\r\n    IERC20 public svn;\r\n    ITreasury public treasury;\r\n    mapping(address => Wheelseat) public wheels;\r\n    WheelSnapshot[] public wheelHistory;\r\n    uint256 public withdrawLockupEpochs;\r\n    uint256 public rewardLockupEpochs;\r\n\r\n    event Initialized(address indexed executor, uint256 at);\r\n    event Staked(address indexed user, uint256 amount);\r\n    event Withdrawn(address indexed user, uint256 amount);\r\n    event RewardPaid(address indexed user, uint256 reward);\r\n    event RewardAdded(address indexed user, uint256 reward);\r\n\r\n    modifier onlyOperator() {\r\n        require(operator == msg.sender, \"SvnWheel: caller is not the operator\");\r\n        _;\r\n    }\r\n\r\n    modifier wheelExists() {\r\n        require(\r\n            balanceOf(msg.sender) > 0,\r\n            \"SvnWheel: The wheel does not exist\"\r\n        );\r\n        _;\r\n    }\r\n\r\n    modifier updateReward(address wheel) {\r\n        if (wheel != address(0)) {\r\n            Wheelseat memory seat = wheels[wheel];\r\n            seat.rewardEarned = earned(wheel);\r\n            seat.lastSnapshotIndex = latestSnapshotIndex();\r\n            wheels[wheel] = seat;\r\n        }\r\n        _;\r\n    }\r\n\r\n    modifier notInitialized() {\r\n        require(!initialized, \"SvnWheel: already initialized\");\r\n        _;\r\n    }\r\n\r\n    function initialize(\r\n        IERC20 _svn,\r\n        IERC20 _share,\r\n        ITreasury _treasury\r\n    ) public notInitialized {\r\n        svn = _svn;\r\n        share = _share;\r\n        treasury = _treasury;\r\n        WheelSnapshot memory genesisSnapshot = WheelSnapshot({\r\n            time: block.number,\r\n            rewardReceived: 0,\r\n            rewardPerShare: 0\r\n        });\r\n        wheelHistory.push(genesisSnapshot);\r\n        withdrawLockupEpochs = 6;\r\n        rewardLockupEpochs = 3;\r\n        initialized = true;\r\n        operator = msg.sender;\r\n        emit Initialized(msg.sender, block.number);\r\n    }\r\n\r\n    function setOperator(address _operator) external onlyOperator {\r\n        operator = _operator;\r\n    }\r\n\r\n    function setLockUp(\r\n        uint256 _withdrawLockupEpochs,\r\n        uint256 _rewardLockupEpochs\r\n    ) external onlyOperator {\r\n        require(\r\n            _withdrawLockupEpochs >= _rewardLockupEpochs &&\r\n                _withdrawLockupEpochs <= 56,\r\n            \"_withdrawLockupEpochs: out of range\"\r\n        );\r\n        withdrawLockupEpochs = _withdrawLockupEpochs;\r\n        rewardLockupEpochs = _rewardLockupEpochs;\r\n    }\r\n\r\n    function latestSnapshotIndex() public view returns (uint256) {\r\n        return wheelHistory.length.sub(1);\r\n    }\r\n\r\n    function getLatestSnapshot() internal view returns (WheelSnapshot memory) {\r\n        return wheelHistory[latestSnapshotIndex()];\r\n    }\r\n\r\n    function getLastSnapshotIndexOf(address wheel)\r\n        public\r\n        view\r\n        returns (uint256)\r\n    {\r\n        return wheels[wheel].lastSnapshotIndex;\r\n    }\r\n\r\n    function getLastSnapshotOf(address wheel)\r\n        internal\r\n        view\r\n        returns (WheelSnapshot memory)\r\n    {\r\n        return wheelHistory[getLastSnapshotIndexOf(wheel)];\r\n    }\r\n\r\n    function canWithdraw(address wheel) external view returns (bool) {\r\n        return\r\n            wheels[wheel].epochTimerStart.add(withdrawLockupEpochs) <=\r\n            treasury.epoch();\r\n    }\r\n\r\n    function canClaimReward(address wheel) external view returns (bool) {\r\n        return\r\n            wheels[wheel].epochTimerStart.add(rewardLockupEpochs) <=\r\n            treasury.epoch();\r\n    }\r\n\r\n    function epoch() external view returns (uint256) {\r\n        return treasury.epoch();\r\n    }\r\n\r\n    function nextEpochPoint() external view returns (uint256) {\r\n        return treasury.nextEpochPoint();\r\n    }\r\n\r\n    function getSvnPrice() external view returns (uint256) {\r\n        return treasury.getSvnPrice();\r\n    }\r\n\r\n    function rewardPerShare() public view returns (uint256) {\r\n        return getLatestSnapshot().rewardPerShare;\r\n    }\r\n\r\n    function earned(address wheel) public view returns (uint256) {\r\n        uint256 latestRPS = getLatestSnapshot().rewardPerShare;\r\n        uint256 storedRPS = getLastSnapshotOf(wheel).rewardPerShare;\r\n        return\r\n            balanceOf(wheel).mul(latestRPS.sub(storedRPS)).div(1e18).add(\r\n                wheels[wheel].rewardEarned\r\n            );\r\n    }\r\n\r\n    function stake(uint256 amount)\r\n        public\r\n        override\r\n        onlyOneBlock\r\n        updateReward(msg.sender)\r\n    {\r\n        require(amount > 0, \"SvnWheel: Cannot stake 0\");\r\n        super.stake(amount);\r\n        wheels[msg.sender].epochTimerStart = treasury.epoch();\r\n        emit Staked(msg.sender, amount);\r\n    }\r\n\r\n    function withdraw(uint256 amount)\r\n        public\r\n        override\r\n        onlyOneBlock\r\n        wheelExists\r\n        updateReward(msg.sender)\r\n    {\r\n        require(amount > 0, \"SvnWheel: Cannot withdraw 0\");\r\n        require(\r\n            wheels[msg.sender].epochTimerStart.add(withdrawLockupEpochs) <=\r\n                treasury.epoch(),\r\n            \"SvnWheel: still in withdraw lockup\"\r\n        );\r\n        claimReward();\r\n        super.withdraw(amount);\r\n        emit Withdrawn(msg.sender, amount);\r\n    }\r\n\r\n    function exit() external {\r\n        withdraw(balanceOf(msg.sender));\r\n    }\r\n\r\n    function claimReward() public updateReward(msg.sender) {\r\n        uint256 reward = wheels[msg.sender].rewardEarned;\r\n        if (reward > 0) {\r\n            require(\r\n                wheels[msg.sender].epochTimerStart.add(rewardLockupEpochs) <=\r\n                    treasury.epoch(),\r\n                \"SvnWheel: still in reward lockup\"\r\n            );\r\n            wheels[msg.sender].epochTimerStart = treasury.epoch();\r\n            wheels[msg.sender].rewardEarned = 0;\r\n            svn.safeTransfer(msg.sender, reward);\r\n            emit RewardPaid(msg.sender, reward);\r\n        }\r\n    }\r\n\r\n    function allocateSeigniorage(uint256 amount)\r\n        external\r\n        onlyOneBlock\r\n        onlyOperator\r\n    {\r\n        require(amount > 0, \"SvnWheel: Cannot allocate 0\");\r\n        require(\r\n            totalSupply() > 0,\r\n            \"SvnWheel: Cannot allocate when totalSupply is 0\"\r\n        );\r\n        uint256 prevRPS = getLatestSnapshot().rewardPerShare;\r\n        uint256 nextRPS = prevRPS.add(amount.mul(1e18).div(totalSupply()));\r\n        WheelSnapshot memory newSnapshot = WheelSnapshot({\r\n            time: block.number,\r\n            rewardReceived: amount,\r\n            rewardPerShare: nextRPS\r\n        });\r\n        wheelHistory.push(newSnapshot);\r\n        svn.safeTransferFrom(msg.sender, address(this), amount);\r\n        emit RewardAdded(msg.sender, amount);\r\n    }\r\n\r\n    function governanceRecoverUnsupported(\r\n        IERC20 _token,\r\n        uint256 _amount,\r\n        address _to\r\n    ) external onlyOperator {\r\n        require(address(_token) != address(svn), \"svn\");\r\n        require(address(_token) != address(share), \"share\");\r\n        _token.safeTransfer(_to, _amount);\r\n    }\r\n}\r\n",
  "sourcePath": "E:\\projects\\Blockchain\\Upwork\\defi_rent\\hamster-contracts-main\\contracts\\Boardroom.sol",
  "compiler": {
    "name": "solc",
    "version": "0.6.12+commit.27d51765.Emscripten.clang"
  },
  "schemaVersion": "3.4.3",
  "updatedAt": "2022-03-21T18:40:38.746Z",
  "networkType": "ethereum",
  "devdoc": {
    "kind": "dev",
    "methods": {},
    "version": 1
  },
  "userdoc": {
    "kind": "user",
    "methods": {},
    "version": 1
  }
}