{
  "contractName": "HamsterZapper",
  "abi": [
    {
      "inputs": [
        {
          "internalType": "address",
          "name": "hamster_",
          "type": "address"
        },
        {
          "internalType": "address",
          "name": "hshare_",
          "type": "address"
        },
        {
          "internalType": "address",
          "name": "router_",
          "type": "address"
        },
        {
          "internalType": "address",
          "name": "wbnb_",
          "type": "address"
        }
      ],
      "stateMutability": "nonpayable",
      "type": "constructor"
    },
    {
      "anonymous": false,
      "inputs": [
        {
          "indexed": true,
          "internalType": "address",
          "name": "previousOwner",
          "type": "address"
        },
        {
          "indexed": true,
          "internalType": "address",
          "name": "newOwner",
          "type": "address"
        }
      ],
      "name": "OwnershipTransferred",
      "type": "event"
    },
    {
      "inputs": [],
      "name": "hamster",
      "outputs": [
        {
          "internalType": "address",
          "name": "",
          "type": "address"
        }
      ],
      "stateMutability": "view",
      "type": "function"
    },
    {
      "inputs": [],
      "name": "hshare",
      "outputs": [
        {
          "internalType": "address",
          "name": "",
          "type": "address"
        }
      ],
      "stateMutability": "view",
      "type": "function"
    },
    {
      "inputs": [],
      "name": "owner",
      "outputs": [
        {
          "internalType": "address",
          "name": "",
          "type": "address"
        }
      ],
      "stateMutability": "view",
      "type": "function"
    },
    {
      "inputs": [],
      "name": "renounceOwnership",
      "outputs": [],
      "stateMutability": "nonpayable",
      "type": "function"
    },
    {
      "inputs": [],
      "name": "router",
      "outputs": [
        {
          "internalType": "contract IPancakeRouter02",
          "name": "",
          "type": "address"
        }
      ],
      "stateMutability": "view",
      "type": "function"
    },
    {
      "inputs": [
        {
          "internalType": "address",
          "name": "newOwner",
          "type": "address"
        }
      ],
      "name": "transferOwnership",
      "outputs": [],
      "stateMutability": "nonpayable",
      "type": "function"
    },
    {
      "inputs": [],
      "name": "wbnb",
      "outputs": [
        {
          "internalType": "address",
          "name": "",
          "type": "address"
        }
      ],
      "stateMutability": "view",
      "type": "function"
    },
    {
      "inputs": [
        {
          "internalType": "address",
          "name": "token",
          "type": "address"
        }
      ],
      "name": "withdraw",
      "outputs": [
        {
          "internalType": "bool",
          "name": "success",
          "type": "bool"
        }
      ],
      "stateMutability": "nonpayable",
      "type": "function"
    },
    {
      "inputs": [
        {
          "internalType": "address",
          "name": "to",
          "type": "address"
        }
      ],
      "name": "zapIn",
      "outputs": [
        {
          "internalType": "uint256",
          "name": "liquidity",
          "type": "uint256"
        }
      ],
      "stateMutability": "payable",
      "type": "function"
    },
    {
      "inputs": [
        {
          "internalType": "address",
          "name": "to",
          "type": "address"
        },
        {
          "internalType": "address",
          "name": "from",
          "type": "address"
        },
        {
          "internalType": "uint256",
          "name": "amount",
          "type": "uint256"
        }
      ],
      "name": "zapInToken",
      "outputs": [
        {
          "internalType": "uint256",
          "name": "liquidity",
          "type": "uint256"
        }
      ],
      "stateMutability": "nonpayable",
      "type": "function"
    }
  ],
  "bytecode": "0x60806040523480156200001157600080fd5b5060405162001b4238038062001b42833981810160405260808110156200003757600080fd5b508051602082015160408301516060909301519192909160006200005a62000238565b600080546001600160a01b0319166001600160a01b0383169081178255604051929350917f8be0079c531659141344cd1fd0a4f28419497f9722a3daafe3b4186f6b6457e0908290a35060006001600160a01b038516620000ed5760405162461bcd60e51b815260040180806020018281038252602681526020018062001b1c6026913960400191505060405180910390fd5b806001600160a01b0316846001600160a01b03161415620001405760405162461bcd60e51b815260040180806020018281038252602581526020018062001ad26025913960400191505060405180910390fd5b806001600160a01b0316836001600160a01b03161415620001935760405162461bcd60e51b815260040180806020018281038252602581526020018062001af76025913960400191505060405180910390fd5b806001600160a01b0316826001600160a01b03161415620001e65760405162461bcd60e51b815260040180806020018281038252602681526020018062001aac6026913960400191505060405180910390fd5b50600380546001600160a01b03199081166001600160a01b039485161790915560018054821695841695909517909455600280548516938316939093179092556004805490931691161790556200023c565b3390565b611860806200024c6000396000f3fe6080604052600436106100b15760003560e01c80638d72647e11610069578063f2fde38b1161004e578063f2fde38b14610200578063f887ea4014610240578063fe47068d14610255576100b1565b80638d72647e146101d65780638da5cb5b146101eb576100b1565b806334cadd121161009a57806334cadd121461015657806351cff8d91461016b578063715018a6146101bf576100b1565b80631b1376e1146100b657806334039ec3146100f4575b600080fd5b3480156100c257600080fd5b506100cb610288565b6040805173ffffffffffffffffffffffffffffffffffffffff9092168252519081900360200190f35b34801561010057600080fd5b506101446004803603606081101561011757600080fd5b5073ffffffffffffffffffffffffffffffffffffffff8135811691602081013590911690604001356102a4565b60408051918252519081900360200190f35b34801561016257600080fd5b506100cb6103cb565b34801561017757600080fd5b506101ab6004803603602081101561018e57600080fd5b503573ffffffffffffffffffffffffffffffffffffffff166103e7565b604080519115158252519081900360200190f35b3480156101cb57600080fd5b506101d46105a2565b005b3480156101e257600080fd5b506100cb6106b9565b3480156101f757600080fd5b506100cb6106d5565b34801561020c57600080fd5b506101d46004803603602081101561022357600080fd5b503573ffffffffffffffffffffffffffffffffffffffff166106f1565b34801561024c57600080fd5b506100cb610892565b6101446004803603602081101561026b57600080fd5b503573ffffffffffffffffffffffffffffffffffffffff166108ae565b60025473ffffffffffffffffffffffffffffffffffffffff1681565b60015460009073ffffffffffffffffffffffffffffffffffffffff858116911614806102ea575060025473ffffffffffffffffffffffffffffffffffffffff8581169116145b61033f576040517f08c379a00000000000000000000000000000000000000000000000000000000081526004018080602001828103825260258152602001806118066025913960400191505060405180910390fd5b8161034c575060006103c4565b61036e73ffffffffffffffffffffffffffffffffffffffff84163330856109fb565b60045473ffffffffffffffffffffffffffffffffffffffff8481169116146103b8576004546103b590849073ffffffffffffffffffffffffffffffffffffffff1684610a96565b50505b6103c184610d2e565b90505b9392505050565b60015473ffffffffffffffffffffffffffffffffffffffff1681565b60006103f1610e48565b73ffffffffffffffffffffffffffffffffffffffff1661040f6106d5565b73ffffffffffffffffffffffffffffffffffffffff161461049157604080517f08c379a000000000000000000000000000000000000000000000000000000000815260206004820181905260248201527f4f776e61626c653a2063616c6c6572206973206e6f7420746865206f776e6572604482015290519081900360640190fd5b50600173ffffffffffffffffffffffffffffffffffffffff82166104e15760405133904780156108fc02916000818181858888f193505050501580156104db573d6000803e3d6000fd5b5061059d565b600082905061059b338273ffffffffffffffffffffffffffffffffffffffff166370a08231306040518263ffffffff1660e01b8152600401808273ffffffffffffffffffffffffffffffffffffffff16815260200191505060206040518083038186803b15801561055157600080fd5b505afa158015610565573d6000803e3d6000fd5b505050506040513d602081101561057b57600080fd5b505173ffffffffffffffffffffffffffffffffffffffff84169190610e4c565b505b919050565b6105aa610e48565b73ffffffffffffffffffffffffffffffffffffffff166105c86106d5565b73ffffffffffffffffffffffffffffffffffffffff161461064a57604080517f08c379a000000000000000000000000000000000000000000000000000000000815260206004820181905260248201527f4f776e61626c653a2063616c6c6572206973206e6f7420746865206f776e6572604482015290519081900360640190fd5b6000805460405173ffffffffffffffffffffffffffffffffffffffff909116907f8be0079c531659141344cd1fd0a4f28419497f9722a3daafe3b4186f6b6457e0908390a3600080547fffffffffffffffffffffffff0000000000000000000000000000000000000000169055565b60045473ffffffffffffffffffffffffffffffffffffffff1681565b60005473ffffffffffffffffffffffffffffffffffffffff1690565b6106f9610e48565b73ffffffffffffffffffffffffffffffffffffffff166107176106d5565b73ffffffffffffffffffffffffffffffffffffffff161461079957604080517f08c379a000000000000000000000000000000000000000000000000000000000815260206004820181905260248201527f4f776e61626c653a2063616c6c6572206973206e6f7420746865206f776e6572604482015290519081900360640190fd5b73ffffffffffffffffffffffffffffffffffffffff8116610805576040517f08c379a000000000000000000000000000000000000000000000000000000000815260040180806020018281038252602681526020018061175a6026913960400191505060405180910390fd5b6000805460405173ffffffffffffffffffffffffffffffffffffffff808516939216917f8be0079c531659141344cd1fd0a4f28419497f9722a3daafe3b4186f6b6457e091a3600080547fffffffffffffffffffffffff00000000000000000000000000000000000000001673ffffffffffffffffffffffffffffffffffffffff92909216919091179055565b60035473ffffffffffffffffffffffffffffffffffffffff1681565b60015460009073ffffffffffffffffffffffffffffffffffffffff838116911614806108f4575060025473ffffffffffffffffffffffffffffffffffffffff8381169116145b610949576040517f08c379a00000000000000000000000000000000000000000000000000000000081526004018080602001828103825260258152602001806118066025913960400191505060405180910390fd5b348061095957600091505061059d565b60048054604080517fd0e30db0000000000000000000000000000000000000000000000000000000008152905173ffffffffffffffffffffffffffffffffffffffff9092169263d0e30db0928592808301926020929182900301818588803b1580156109c457600080fd5b505af11580156109d8573d6000803e3d6000fd5b50505050506040513d60208110156109ef57600080fd5b506103c4905083610d2e565b6040805173ffffffffffffffffffffffffffffffffffffffff80861660248301528416604482015260648082018490528251808303909101815260849091019091526020810180517bffffffffffffffffffffffffffffffffffffffffffffffffffffffff167f23b872dd00000000000000000000000000000000000000000000000000000000179052610a90908590610ede565b50505050565b600354600090606090610ac190869073ffffffffffffffffffffffffffffffffffffffff1685610fb6565b60408051600280825260608201835290916020830190803683370190505090508481600081518110610aef57fe5b602002602001019073ffffffffffffffffffffffffffffffffffffffff16908173ffffffffffffffffffffffffffffffffffffffff16815250508381600181518110610b3757fe5b73ffffffffffffffffffffffffffffffffffffffff9283166020918202929092018101919091526003546040517f38ed1739000000000000000000000000000000000000000000000000000000008152600481018781526001602483018190523060648401819052426084850181905260a060448601908152895160a4870152895160609997909716976338ed1739978d9795968c9690939260c490910191878201910280838360005b83811015610bf9578181015183820152602001610be1565b505050509050019650505050505050600060405180830381600087803b158015610c2257600080fd5b505af1158015610c36573d6000803e3d6000fd5b505050506040513d6000823e601f3d9081017fffffffffffffffffffffffffffffffffffffffffffffffffffffffffffffffe01682016040526020811015610c7d57600080fd5b8101908080516040519392919084640100000000821115610c9d57600080fd5b908301906020820185811115610cb257600080fd5b8251866020820283011164010000000082111715610ccf57600080fd5b82525081516020918201928201910280838360005b83811015610cfc578181015183820152602001610ce4565b50505050905001604052505050905080600182510381518110610d1b57fe5b6020026020010151925050935093915050565b60048054604080517f70a082310000000000000000000000000000000000000000000000000000000081523093810193909352516000928392610dde9260029273ffffffffffffffffffffffffffffffffffffffff909216916370a08231916024808301926020929190829003018186803b158015610dac57600080fd5b505afa158015610dc0573d6000803e3d6000fd5b505050506040513d6020811015610dd657600080fd5b5051906110a3565b600454909150600090606090610e0b9073ffffffffffffffffffffffffffffffffffffffff168685610a96565b6004549193509150610e359073ffffffffffffffffffffffffffffffffffffffff16868585611124565b9350610e408161124f565b505050919050565b3390565b6040805173ffffffffffffffffffffffffffffffffffffffff8416602482015260448082018490528251808303909101815260649091019091526020810180517bffffffffffffffffffffffffffffffffffffffffffffffffffffffff167fa9059cbb00000000000000000000000000000000000000000000000000000000179052610ed9908490610ede565b505050565b6060610f40826040518060400160405280602081526020017f5361666545524332303a206c6f772d6c6576656c2063616c6c206661696c65648152508573ffffffffffffffffffffffffffffffffffffffff1661133d9092919063ffffffff16565b805190915015610ed957808060200190516020811015610f5f57600080fd5b5051610ed9576040517f08c379a000000000000000000000000000000000000000000000000000000000815260040180806020018281038252602a8152602001806117a6602a913960400191505060405180910390fd5b604080517fdd62ed3e00000000000000000000000000000000000000000000000000000000815230600482015273ffffffffffffffffffffffffffffffffffffffff84811660248301529151859284929084169163dd62ed3e91604480820192602092909190829003018186803b15801561103057600080fd5b505afa158015611044573d6000803e3d6000fd5b505050506040513d602081101561105a57600080fd5b50511015610a9057610a9073ffffffffffffffffffffffffffffffffffffffff8216847fffffffffffffffffffffffffffffffffffffffffffffffffffffffffffffffff61134c565b600080821161111357604080517f08c379a000000000000000000000000000000000000000000000000000000000815260206004820152601a60248201527f536166654d6174683a206469766973696f6e206279207a65726f000000000000604482015290519081900360640190fd5b81838161111c57fe5b049392505050565b60035460009061114c90869073ffffffffffffffffffffffffffffffffffffffff1685610fb6565b60035461117190859073ffffffffffffffffffffffffffffffffffffffff1684610fb6565b600354604080517fe8e3370000000000000000000000000000000000000000000000000000000000815273ffffffffffffffffffffffffffffffffffffffff88811660048301528781166024830152604482018790526064820186905260016084830181905260a48301523360c48301524260e48301529151919092169163e8e33700916101048083019260609291908290030181600087803b15801561121757600080fd5b505af115801561122b573d6000803e3d6000fd5b505050506040513d606081101561124157600080fd5b506040015195945050505050565b333060005b8351811015610a9057600084828151811061126b57fe5b6020026020010151905060008173ffffffffffffffffffffffffffffffffffffffff166370a08231856040518263ffffffff1660e01b8152600401808273ffffffffffffffffffffffffffffffffffffffff16815260200191505060206040518083038186803b1580156112de57600080fd5b505afa1580156112f2573d6000803e3d6000fd5b505050506040513d602081101561130857600080fd5b5051905080156113335761133373ffffffffffffffffffffffffffffffffffffffff83168683610e4c565b5050600101611254565b60606103c184846000856114da565b8015806113f85750604080517fdd62ed3e00000000000000000000000000000000000000000000000000000000815230600482015273ffffffffffffffffffffffffffffffffffffffff848116602483015291519185169163dd62ed3e91604480820192602092909190829003018186803b1580156113ca57600080fd5b505afa1580156113de573d6000803e3d6000fd5b505050506040513d60208110156113f457600080fd5b5051155b61144d576040517f08c379a00000000000000000000000000000000000000000000000000000000081526004018080602001828103825260368152602001806117d06036913960400191505060405180910390fd5b6040805173ffffffffffffffffffffffffffffffffffffffff8416602482015260448082018490528251808303909101815260649091019091526020810180517bffffffffffffffffffffffffffffffffffffffffffffffffffffffff167f095ea7b300000000000000000000000000000000000000000000000000000000179052610ed9908490610ede565b606082471015611535576040517f08c379a00000000000000000000000000000000000000000000000000000000081526004018080602001828103825260268152602001806117806026913960400191505060405180910390fd5b61153e85611695565b6115a957604080517f08c379a000000000000000000000000000000000000000000000000000000000815260206004820152601d60248201527f416464726573733a2063616c6c20746f206e6f6e2d636f6e7472616374000000604482015290519081900360640190fd5b600060608673ffffffffffffffffffffffffffffffffffffffff1685876040518082805190602001908083835b6020831061161357805182527fffffffffffffffffffffffffffffffffffffffffffffffffffffffffffffffe090920191602091820191016115d6565b6001836020036101000a03801982511681845116808217855250505050505090500191505060006040518083038185875af1925050503d8060008114611675576040519150601f19603f3d011682016040523d82523d6000602084013e61167a565b606091505b509150915061168a82828661169b565b979650505050505050565b3b151590565b606083156116aa5750816103c4565b8251156116ba5782518084602001fd5b816040517f08c379a00000000000000000000000000000000000000000000000000000000081526004018080602001828103825283818151815260200191508051906020019080838360005b8381101561171e578181015183820152602001611706565b50505050905090810190601f16801561174b5780820380516001836020036101000a031916815260200191505b509250505060405180910390fdfe4f776e61626c653a206e6577206f776e657220697320746865207a65726f2061646472657373416464726573733a20696e73756666696369656e742062616c616e636520666f722063616c6c5361666545524332303a204552433230206f7065726174696f6e20646964206e6f7420737563636565645361666545524332303a20617070726f76652066726f6d206e6f6e2d7a65726f20746f206e6f6e2d7a65726f20616c6c6f77616e636548616d737465725a61707065723a20556e737570706f727465642027746f2720746f6b656ea2646970667358221220d60fb0f62e986dfb5c0140f90e737252bad861fbc67a0500cff4cc04cf87a77464736f6c634300060c003348616d737465725a61707065723a2057726170706564206973207a65726f206164647265737348616d737465725a61707065723a20485368617265206973207a65726f206164647265737348616d737465725a61707065723a20526f75746572206973207a65726f206164647265737348616d737465725a61707065723a2048616d73746572206973207a65726f2061646472657373",
  "immutableReferences": {},
  "source": "// SPDX-License-Identifier: MIT\r\n\r\npragma solidity 0.6.12;\r\n\r\nimport \"@openzeppelin/contracts/token/ERC20/SafeERC20.sol\";\r\nimport \"@openzeppelin/contracts/access/Ownable.sol\";\r\nimport \"./IPancakePair.sol\";\r\nimport \"./IPancakeV2Router.sol\";\r\nimport \"./IWBNB.sol\";\r\n\r\ncontract HamsterZapper is Ownable {\r\n    using SafeMath for uint256;\r\n    using SafeERC20 for IERC20;\r\n\r\n    address public hamster;\r\n    address public hshare;\r\n    IPancakeRouter02 public router;\r\n    address public wbnb;\r\n\r\n    constructor(\r\n        address hamster_,\r\n        address hshare_,\r\n        address router_,\r\n        address wbnb_\r\n    ) public Ownable() {\r\n        address zero = address(0);\r\n        require(hamster_ != zero, \"HamsterZapper: Hamster is zero address\");\r\n        require(hshare_ != zero, \"HamsterZapper: HShare is zero address\");\r\n        require(router_ != zero, \"HamsterZapper: Router is zero address\");\r\n        require(wbnb_ != zero, \"HamsterZapper: Wrapped is zero address\");\r\n        router = IPancakeRouter02(router_);\r\n        hamster = hamster_;\r\n        hshare = hshare_;\r\n        wbnb = wbnb_;\r\n    }\r\n\r\n    function withdraw(address token) external onlyOwner returns (bool success) {\r\n        success = true;\r\n        if (token == address(0)) {\r\n            msg.sender.transfer(address(this).balance);\r\n            return success;\r\n        }\r\n        IERC20 token_ = IERC20(token);\r\n        token_.safeTransfer(msg.sender, token_.balanceOf(address(this)));\r\n    }\r\n\r\n    function zapIn(address to) external payable returns (uint256 liquidity) {\r\n        require(\r\n            to == hamster || to == hshare,\r\n            \"HamsterZapper: Unsupported 'to' token\"\r\n        );\r\n        uint256 amountIn = msg.value;\r\n        if (amountIn == 0) return 0;\r\n        IWBNB(wbnb).deposit{value: amountIn}();\r\n        liquidity = _zapInFromWFTM(to);\r\n    }\r\n\r\n    function zapInToken(\r\n        address to,\r\n        address from,\r\n        uint256 amount\r\n    ) external returns (uint256 liquidity) {\r\n        require(\r\n            to == hamster || to == hshare,\r\n            \"HamsterZapper: Unsupported 'to' token\"\r\n        );\r\n        if (amount == 0) return 0;\r\n        IERC20(from).safeTransferFrom(msg.sender, address(this), amount);\r\n        if (from != wbnb) _swap(from, wbnb, amount);\r\n        liquidity = _zapInFromWFTM(to);\r\n    }\r\n\r\n    function _addLiquidity(\r\n        address token0,\r\n        address token1,\r\n        uint256 amountIn0,\r\n        uint256 amountIn1\r\n    ) private returns (uint256 liquidity) {\r\n        _approveIfNeeded(token0, address(router), amountIn0);\r\n        _approveIfNeeded(token1, address(router), amountIn1);\r\n        (, , liquidity) = router.addLiquidity(\r\n            token0,\r\n            token1,\r\n            amountIn0,\r\n            amountIn1,\r\n            1,\r\n            1,\r\n            msg.sender,\r\n            block.timestamp\r\n        );\r\n    }\r\n\r\n    function _approveIfNeeded(\r\n        address token,\r\n        address target,\r\n        uint256 amount\r\n    ) private {\r\n        IERC20 token_ = IERC20(token);\r\n        if (token_.allowance(address(this), target) < amount)\r\n            token_.safeApprove(target, type(uint256).max);\r\n    }\r\n\r\n    function _returnAssets(address[] memory tokens) private {\r\n        address caller = msg.sender;\r\n        address this_ = address(this);\r\n        for (uint256 i = 0; i < tokens.length; i++) {\r\n            IERC20 token = IERC20(tokens[i]);\r\n            uint256 balance = IERC20(token).balanceOf(this_);\r\n            if (balance > 0) token.safeTransfer(caller, balance);\r\n        }\r\n    }\r\n\r\n    function _swap(\r\n        address from,\r\n        address to,\r\n        uint256 amountIn\r\n    ) private returns (uint256 result, address[] memory path) {\r\n        _approveIfNeeded(from, address(router), amountIn);\r\n        path = new address[](2);\r\n        path[0] = from;\r\n        path[1] = to;\r\n        uint256[] memory amounts = router.swapExactTokensForTokens(\r\n            amountIn,\r\n            1,\r\n            path,\r\n            address(this),\r\n            block.timestamp\r\n        );\r\n        result = amounts[amounts.length - 1];\r\n    }\r\n\r\n    function _zapInFromWFTM(address to) internal returns (uint256 liquidity) {\r\n        uint256 halfAmount = IERC20(wbnb).balanceOf(address(this)).div(2);\r\n        (uint256 toAmount, address[] memory path) = _swap(wbnb, to, halfAmount);\r\n        liquidity = _addLiquidity(wbnb, to, halfAmount, toAmount);\r\n        _returnAssets(path);\r\n    }\r\n}\r\n",
  "sourcePath": "E:\\projects\\Blockchain\\Upwork\\defi_rent\\hamster-contracts-main\\contracts\\SvnZapper.sol",
  "compiler": {
    "name": "solc",
    "version": "0.6.12+commit.27d51765.Emscripten.clang"
  },
  "schemaVersion": "3.4.3",
  "updatedAt": "2022-03-21T18:15:16.824Z",
  "devdoc": {
    "kind": "dev",
    "methods": {
      "owner()": {
        "details": "Returns the address of the current owner."
      },
      "renounceOwnership()": {
        "details": "Leaves the contract without owner. It will not be possible to call `onlyOwner` functions anymore. Can only be called by the current owner. NOTE: Renouncing ownership will leave the contract without an owner, thereby removing any functionality that is only available to the owner."
      },
      "transferOwnership(address)": {
        "details": "Transfers ownership of the contract to a new account (`newOwner`). Can only be called by the current owner."
      }
    },
    "version": 1
  },
  "userdoc": {
    "kind": "user",
    "methods": {},
    "version": 1
  }
}