{
  "contractName": "MockedSvn",
  "abi": [
    {
      "inputs": [
        {
          "internalType": "uint256",
          "name": "_taxRate",
          "type": "uint256"
        },
        {
          "internalType": "address",
          "name": "_taxCollectorAddress",
          "type": "address"
        }
      ],
      "stateMutability": "nonpayable",
      "type": "constructor"
    },
    {
      "anonymous": false,
      "inputs": [
        {
          "indexed": true,
          "internalType": "address",
          "name": "owner",
          "type": "address"
        },
        {
          "indexed": true,
          "internalType": "address",
          "name": "spender",
          "type": "address"
        },
        {
          "indexed": false,
          "internalType": "uint256",
          "name": "value",
          "type": "uint256"
        }
      ],
      "name": "Approval",
      "type": "event"
    },
    {
      "anonymous": false,
      "inputs": [
        {
          "indexed": true,
          "internalType": "address",
          "name": "previousOperator",
          "type": "address"
        },
        {
          "indexed": true,
          "internalType": "address",
          "name": "newOperator",
          "type": "address"
        }
      ],
      "name": "OperatorTransferred",
      "type": "event"
    },
    {
      "anonymous": false,
      "inputs": [
        {
          "indexed": true,
          "internalType": "address",
          "name": "previousOwner",
          "type": "address"
        },
        {
          "indexed": true,
          "internalType": "address",
          "name": "newOwner",
          "type": "address"
        }
      ],
      "name": "OwnershipTransferred",
      "type": "event"
    },
    {
      "anonymous": false,
      "inputs": [
        {
          "indexed": false,
          "internalType": "address",
          "name": "oldAddress",
          "type": "address"
        },
        {
          "indexed": false,
          "internalType": "address",
          "name": "newAddress",
          "type": "address"
        }
      ],
      "name": "TaxOfficeTransferred",
      "type": "event"
    },
    {
      "anonymous": false,
      "inputs": [
        {
          "indexed": true,
          "internalType": "address",
          "name": "from",
          "type": "address"
        },
        {
          "indexed": true,
          "internalType": "address",
          "name": "to",
          "type": "address"
        },
        {
          "indexed": false,
          "internalType": "uint256",
          "name": "value",
          "type": "uint256"
        }
      ],
      "name": "Transfer",
      "type": "event"
    },
    {
      "inputs": [
        {
          "internalType": "address",
          "name": "owner",
          "type": "address"
        },
        {
          "internalType": "address",
          "name": "spender",
          "type": "address"
        }
      ],
      "name": "allowance",
      "outputs": [
        {
          "internalType": "uint256",
          "name": "",
          "type": "uint256"
        }
      ],
      "stateMutability": "view",
      "type": "function"
    },
    {
      "inputs": [
        {
          "internalType": "address",
          "name": "spender",
          "type": "address"
        },
        {
          "internalType": "uint256",
          "name": "amount",
          "type": "uint256"
        }
      ],
      "name": "approve",
      "outputs": [
        {
          "internalType": "bool",
          "name": "",
          "type": "bool"
        }
      ],
      "stateMutability": "nonpayable",
      "type": "function"
    },
    {
      "inputs": [],
      "name": "autoCalculateTax",
      "outputs": [
        {
          "internalType": "bool",
          "name": "",
          "type": "bool"
        }
      ],
      "stateMutability": "view",
      "type": "function"
    },
    {
      "inputs": [
        {
          "internalType": "address",
          "name": "account",
          "type": "address"
        }
      ],
      "name": "balanceOf",
      "outputs": [
        {
          "internalType": "uint256",
          "name": "",
          "type": "uint256"
        }
      ],
      "stateMutability": "view",
      "type": "function"
    },
    {
      "inputs": [
        {
          "internalType": "uint256",
          "name": "amount",
          "type": "uint256"
        }
      ],
      "name": "burn",
      "outputs": [],
      "stateMutability": "nonpayable",
      "type": "function"
    },
    {
      "inputs": [
        {
          "internalType": "address",
          "name": "account",
          "type": "address"
        },
        {
          "internalType": "uint256",
          "name": "amount",
          "type": "uint256"
        }
      ],
      "name": "burnFrom",
      "outputs": [],
      "stateMutability": "nonpayable",
      "type": "function"
    },
    {
      "inputs": [],
      "name": "burnThreshold",
      "outputs": [
        {
          "internalType": "uint256",
          "name": "",
          "type": "uint256"
        }
      ],
      "stateMutability": "view",
      "type": "function"
    },
    {
      "inputs": [],
      "name": "decimals",
      "outputs": [
        {
          "internalType": "uint8",
          "name": "",
          "type": "uint8"
        }
      ],
      "stateMutability": "view",
      "type": "function"
    },
    {
      "inputs": [
        {
          "internalType": "address",
          "name": "spender",
          "type": "address"
        },
        {
          "internalType": "uint256",
          "name": "subtractedValue",
          "type": "uint256"
        }
      ],
      "name": "decreaseAllowance",
      "outputs": [
        {
          "internalType": "bool",
          "name": "",
          "type": "bool"
        }
      ],
      "stateMutability": "nonpayable",
      "type": "function"
    },
    {
      "inputs": [],
      "name": "disableAutoCalculateTax",
      "outputs": [],
      "stateMutability": "nonpayable",
      "type": "function"
    },
    {
      "inputs": [
        {
          "internalType": "address",
          "name": "_genesisPool",
          "type": "address"
        },
        {
          "internalType": "uint256",
          "name": "_genesisPoolDistribution",
          "type": "uint256"
        },
        {
          "internalType": "address",
          "name": "_airdropWallet",
          "type": "address"
        },
        {
          "internalType": "uint256",
          "name": "_airdropDistribution",
          "type": "uint256"
        }
      ],
      "name": "distributeReward",
      "outputs": [],
      "stateMutability": "nonpayable",
      "type": "function"
    },
    {
      "inputs": [],
      "name": "enableAutoCalculateTax",
      "outputs": [],
      "stateMutability": "nonpayable",
      "type": "function"
    },
    {
      "inputs": [
        {
          "internalType": "address",
          "name": "_address",
          "type": "address"
        }
      ],
      "name": "excludeAddress",
      "outputs": [
        {
          "internalType": "bool",
          "name": "",
          "type": "bool"
        }
      ],
      "stateMutability": "nonpayable",
      "type": "function"
    },
    {
      "inputs": [
        {
          "internalType": "address",
          "name": "",
          "type": "address"
        }
      ],
      "name": "excludedAddresses",
      "outputs": [
        {
          "internalType": "bool",
          "name": "",
          "type": "bool"
        }
      ],
      "stateMutability": "view",
      "type": "function"
    },
    {
      "inputs": [],
      "name": "getTaxTiersRatesCount",
      "outputs": [
        {
          "internalType": "uint256",
          "name": "count",
          "type": "uint256"
        }
      ],
      "stateMutability": "view",
      "type": "function"
    },
    {
      "inputs": [],
      "name": "getTaxTiersTwapsCount",
      "outputs": [
        {
          "internalType": "uint256",
          "name": "count",
          "type": "uint256"
        }
      ],
      "stateMutability": "view",
      "type": "function"
    },
    {
      "inputs": [
        {
          "internalType": "address",
          "name": "_address",
          "type": "address"
        }
      ],
      "name": "includeAddress",
      "outputs": [
        {
          "internalType": "bool",
          "name": "",
          "type": "bool"
        }
      ],
      "stateMutability": "nonpayable",
      "type": "function"
    },
    {
      "inputs": [
        {
          "internalType": "address",
          "name": "spender",
          "type": "address"
        },
        {
          "internalType": "uint256",
          "name": "addedValue",
          "type": "uint256"
        }
      ],
      "name": "increaseAllowance",
      "outputs": [
        {
          "internalType": "bool",
          "name": "",
          "type": "bool"
        }
      ],
      "stateMutability": "nonpayable",
      "type": "function"
    },
    {
      "inputs": [
        {
          "internalType": "address",
          "name": "_address",
          "type": "address"
        }
      ],
      "name": "isAddressExcluded",
      "outputs": [
        {
          "internalType": "bool",
          "name": "",
          "type": "bool"
        }
      ],
      "stateMutability": "view",
      "type": "function"
    },
    {
      "inputs": [],
      "name": "isOperator",
      "outputs": [
        {
          "internalType": "bool",
          "name": "",
          "type": "bool"
        }
      ],
      "stateMutability": "view",
      "type": "function"
    },
    {
      "inputs": [],
      "name": "name",
      "outputs": [
        {
          "internalType": "string",
          "name": "",
          "type": "string"
        }
      ],
      "stateMutability": "view",
      "type": "function"
    },
    {
      "inputs": [],
      "name": "operator",
      "outputs": [
        {
          "internalType": "address",
          "name": "",
          "type": "address"
        }
      ],
      "stateMutability": "view",
      "type": "function"
    },
    {
      "inputs": [],
      "name": "oracle",
      "outputs": [
        {
          "internalType": "address",
          "name": "",
          "type": "address"
        }
      ],
      "stateMutability": "view",
      "type": "function"
    },
    {
      "inputs": [],
      "name": "owner",
      "outputs": [
        {
          "internalType": "address",
          "name": "",
          "type": "address"
        }
      ],
      "stateMutability": "view",
      "type": "function"
    },
    {
      "inputs": [],
      "name": "renounceOwnership",
      "outputs": [],
      "stateMutability": "nonpayable",
      "type": "function"
    },
    {
      "inputs": [],
      "name": "rewardPoolDistributed",
      "outputs": [
        {
          "internalType": "bool",
          "name": "",
          "type": "bool"
        }
      ],
      "stateMutability": "view",
      "type": "function"
    },
    {
      "inputs": [
        {
          "internalType": "uint256",
          "name": "_burnThreshold",
          "type": "uint256"
        }
      ],
      "name": "setBurnThreshold",
      "outputs": [
        {
          "internalType": "bool",
          "name": "",
          "type": "bool"
        }
      ],
      "stateMutability": "nonpayable",
      "type": "function"
    },
    {
      "inputs": [
        {
          "internalType": "address",
          "name": "_oracle",
          "type": "address"
        }
      ],
      "name": "setSvnOracle",
      "outputs": [],
      "stateMutability": "nonpayable",
      "type": "function"
    },
    {
      "inputs": [
        {
          "internalType": "address",
          "name": "_taxCollectorAddress",
          "type": "address"
        }
      ],
      "name": "setTaxCollectorAddress",
      "outputs": [],
      "stateMutability": "nonpayable",
      "type": "function"
    },
    {
      "inputs": [
        {
          "internalType": "address",
          "name": "_taxOffice",
          "type": "address"
        }
      ],
      "name": "setTaxOffice",
      "outputs": [],
      "stateMutability": "nonpayable",
      "type": "function"
    },
    {
      "inputs": [
        {
          "internalType": "uint256",
          "name": "_taxRate",
          "type": "uint256"
        }
      ],
      "name": "setTaxRate",
      "outputs": [],
      "stateMutability": "nonpayable",
      "type": "function"
    },
    {
      "inputs": [
        {
          "internalType": "uint8",
          "name": "_index",
          "type": "uint8"
        },
        {
          "internalType": "uint256",
          "name": "_value",
          "type": "uint256"
        }
      ],
      "name": "setTaxTiersRate",
      "outputs": [
        {
          "internalType": "bool",
          "name": "",
          "type": "bool"
        }
      ],
      "stateMutability": "nonpayable",
      "type": "function"
    },
    {
      "inputs": [
        {
          "internalType": "uint8",
          "name": "_index",
          "type": "uint8"
        },
        {
          "internalType": "uint256",
          "name": "_value",
          "type": "uint256"
        }
      ],
      "name": "setTaxTiersTwap",
      "outputs": [
        {
          "internalType": "bool",
          "name": "",
          "type": "bool"
        }
      ],
      "stateMutability": "nonpayable",
      "type": "function"
    },
    {
      "inputs": [],
      "name": "symbol",
      "outputs": [
        {
          "internalType": "string",
          "name": "",
          "type": "string"
        }
      ],
      "stateMutability": "view",
      "type": "function"
    },
    {
      "inputs": [],
      "name": "taxCollectorAddress",
      "outputs": [
        {
          "internalType": "address",
          "name": "",
          "type": "address"
        }
      ],
      "stateMutability": "view",
      "type": "function"
    },
    {
      "inputs": [],
      "name": "taxOffice",
      "outputs": [
        {
          "internalType": "address",
          "name": "",
          "type": "address"
        }
      ],
      "stateMutability": "view",
      "type": "function"
    },
    {
      "inputs": [],
      "name": "taxRate",
      "outputs": [
        {
          "internalType": "uint256",
          "name": "",
          "type": "uint256"
        }
      ],
      "stateMutability": "view",
      "type": "function"
    },
    {
      "inputs": [
        {
          "internalType": "uint256",
          "name": "",
          "type": "uint256"
        }
      ],
      "name": "taxTiersRates",
      "outputs": [
        {
          "internalType": "uint256",
          "name": "",
          "type": "uint256"
        }
      ],
      "stateMutability": "view",
      "type": "function"
    },
    {
      "inputs": [
        {
          "internalType": "uint256",
          "name": "",
          "type": "uint256"
        }
      ],
      "name": "taxTiersTwaps",
      "outputs": [
        {
          "internalType": "uint256",
          "name": "",
          "type": "uint256"
        }
      ],
      "stateMutability": "view",
      "type": "function"
    },
    {
      "inputs": [],
      "name": "totalSupply",
      "outputs": [
        {
          "internalType": "uint256",
          "name": "",
          "type": "uint256"
        }
      ],
      "stateMutability": "view",
      "type": "function"
    },
    {
      "inputs": [
        {
          "internalType": "address",
          "name": "recipient",
          "type": "address"
        },
        {
          "internalType": "uint256",
          "name": "amount",
          "type": "uint256"
        }
      ],
      "name": "transfer",
      "outputs": [
        {
          "internalType": "bool",
          "name": "",
          "type": "bool"
        }
      ],
      "stateMutability": "nonpayable",
      "type": "function"
    },
    {
      "inputs": [
        {
          "internalType": "address",
          "name": "sender",
          "type": "address"
        },
        {
          "internalType": "address",
          "name": "recipient",
          "type": "address"
        },
        {
          "internalType": "uint256",
          "name": "amount",
          "type": "uint256"
        }
      ],
      "name": "transferFrom",
      "outputs": [
        {
          "internalType": "bool",
          "name": "",
          "type": "bool"
        }
      ],
      "stateMutability": "nonpayable",
      "type": "function"
    },
    {
      "inputs": [
        {
          "internalType": "address",
          "name": "newOperator_",
          "type": "address"
        }
      ],
      "name": "transferOperator",
      "outputs": [],
      "stateMutability": "nonpayable",
      "type": "function"
    },
    {
      "inputs": [
        {
          "internalType": "address",
          "name": "newOwner",
          "type": "address"
        }
      ],
      "name": "transferOwnership",
      "outputs": [],
      "stateMutability": "nonpayable",
      "type": "function"
    },
    {
      "inputs": [
        {
          "internalType": "address",
          "name": "recipient_",
          "type": "address"
        },
        {
          "internalType": "uint256",
          "name": "amount_",
          "type": "uint256"
        }
      ],
      "name": "mint",
      "outputs": [
        {
          "internalType": "bool",
          "name": "",
          "type": "bool"
        }
      ],
      "stateMutability": "nonpayable",
      "type": "function"
    },
    {
      "inputs": [
        {
          "internalType": "uint256",
          "name": "amount",
          "type": "uint256"
        }
      ],
      "name": "mint",
      "outputs": [
        {
          "internalType": "bool",
          "name": "",
          "type": "bool"
        }
      ],
      "stateMutability": "nonpayable",
      "type": "function"
    }
  ],
  "bytecode": "0x6006805460ff60a01b19169055670f43fc2c04ee0000600a819055610240604052600060809081526706f05b59d3b2000060a052670853a0d2313c000060c0526709b6e64a8ec6000060e052670b1a2bc2ec50000061010052670c7d713b49da000061012052670d2f13f7789f000061014052670de0b6b3a764000061016052670e92596fd6290000610180526101a0919091526710a741a4627800006101c05267120a871cc00200006101e05267136dcc951d8c0000610200526714d1120d7b16000061022052620000d790600c90600e6200065b565b50604080516101c0810182526107d0815261076c6020820152610708918101919091526106a4606082015261064060808201526105dc60a0820181905260c0820181905260e0820181905261010082015261057861012082015261038461014082015261019061016082015260c861018082015260646101a08201526200016390600d90600e620006b6565b503480156200017157600080fd5b5060405162003b0138038062003b01833981810160405260408110156200019757600080fd5b508051602091820151604080518082018252600d81526c29b0bb30b73730902a37b5b2b760991b818601908152825180840190935260038084526229ab2760e91b968401969096528151949593948694869492620001f592620006fa565b5080516200020b906004906020840190620006fa565b50506005805460ff1916601217905550600062000227620003c2565b60058054610100600160a81b0319166101006001600160a01b03841690810291909117909155604051919250906000907f8be0079c531659141344cd1fd0a4f28419497f9722a3daafe3b4186f6b6457e0908290a35062000287620003c2565b600680546001600160a01b0319166001600160a01b0392831617908190556040519116906000907f74da04524d50c64947f5dd5381ef1a4dca5cba8ed1d816243f9e48aa0b5617ed908290a361271082106200032a576040805162461bcd60e51b815260206004820152601b60248201527f74617820657175616c206f722062696767657220746f20313030250000000000604482015290519081900360640190fd5b6001600160a01b038116620003715760405162461bcd60e51b815260040180806020018281038252602e81526020018062003aa7602e913960400191505060405180910390fd5b6200037c30620003c6565b5062000394336a034f086f3b33b684000000620004bd565b600991909155600b80546001600160a01b0319166001600160a01b0390921691909117905550620007849050565b3390565b6000620003d2620005cc565b80620003e857506008546001600160a01b031633145b620004255760405162461bcd60e51b815260040180806020018281038252602c81526020018062003ad5602c913960400191505060405180910390fd5b6001600160a01b0382166000908152600e602052604090205460ff161562000494576040805162461bcd60e51b815260206004820152601960248201527f616464726573732063616e2774206265206578636c7564656400000000000000604482015290519081900360640190fd5b506001600160a01b03166000908152600e60205260409020805460ff1916600190811790915590565b6001600160a01b03821662000519576040805162461bcd60e51b815260206004820152601f60248201527f45524332303a206d696e7420746f20746865207a65726f206164647265737300604482015290519081900360640190fd5b6200052760008383620005f4565b6200054381600254620005f960201b6200229b1790919060201c565b6002556001600160a01b03821660009081526020818152604090912054620005769183906200229b620005f9821b17901c565b6001600160a01b0383166000818152602081815260408083209490945583518581529351929391927fddf252ad1be2c89b69c2b068fc378daa952ba7f163c4a11628f55a4df523b3ef9281900390910190a35050565b6006546000906001600160a01b0316620005e5620003c2565b6001600160a01b031614905090565b505050565b60008282018381101562000654576040805162461bcd60e51b815260206004820152601b60248201527f536166654d6174683a206164646974696f6e206f766572666c6f770000000000604482015290519081900360640190fd5b9392505050565b828054828255906000526020600020908101928215620006a4579160200282015b82811115620006a457825182906001600160401b03169055916020019190600101906200067c565b50620006b29291506200076d565b5090565b828054828255906000526020600020908101928215620006a4579160200282015b82811115620006a4578251829061ffff16905591602001919060010190620006d7565b828054600181600116156101000203166002900490600052602060002090601f016020900481019282601f106200073d57805160ff1916838001178555620006a4565b82800160010185558215620006a4579182015b82811115620006a457825182559160200191906001019062000750565b5b80821115620006b257600081556001016200076e565b61331380620007946000396000f3fe608060405234801561001057600080fd5b506004361061030a5760003560e01c8063771a3a1d1161019c578063a6431bba116100ee578063cf3d55f011610097578063ee2a953511610071578063ee2a953514610953578063f2fde38b1461095b578063ff87fc7c1461098e5761030a565b8063cf3d55f0146108b2578063dd62ed3e146108e5578063ebca1bd9146109205761030a565b8063c3bdf613116100c8578063c3bdf6131461085a578063c6d69a3014610862578063cf011b261461087f5761030a565b8063a6431bba146107f3578063a9059cbb146107fb578063b87c5a4a146108345761030a565b806393995d4b116101505780639d6b5f211161012a5780639d6b5f2114610780578063a0712d681461079d578063a457c2d7146107ba5761030a565b806393995d4b1461073d57806395d89b41146107705780639662676c146107785761030a565b80637dc0d1d0116101815780637dc0d1d0146107255780638d3cc8181461072d5780638da5cb5b146107355761030a565b8063771a3a1d146106e457806379cc6790146106ec5761030a565b806340c10f19116102605780635c29908d1161020957806369356d47116101e357806369356d471461067657806370a08231146106a9578063715018a6146106dc5761030a565b80635c29908d1461062b57806365bbacd91461064857806366206ce9146106505761030a565b80634456eda21161023a5780634456eda2146106135780634f6d38d01461061b578063570ca735146106235761030a565b806340c10f19146105a057806342966c68146105d957806342c6b4f1146105f65761030a565b80632a74ec01116102c2578063395093511161029c57806339509351146105035780633e5f13d41461053c5780633f07d76a1461056d5761030a565b80632a74ec011461046b578063313ce567146104b25780633758e6ce146104d05761030a565b806318160ddd116102f357806318160ddd146103d957806323b872dd146103f357806329605e77146104365761030a565b806306fdde031461030f578063095ea7b31461038c575b600080fd5b610317610996565b6040805160208082528351818301528351919283929083019185019080838360005b83811015610351578181015183820152602001610339565b50505050905090810190601f16801561037e5780820380516001836020036101000a031916815260200191505b509250505060405180910390f35b6103c5600480360360408110156103a257600080fd5b5073ffffffffffffffffffffffffffffffffffffffff8135169060200135610a4b565b604080519115158252519081900360200190f35b6103e1610a69565b60408051918252519081900360200190f35b6103c56004803603606081101561040957600080fd5b5073ffffffffffffffffffffffffffffffffffffffff813581169160208101359091169060400135610a6f565b6104696004803603602081101561044c57600080fd5b503573ffffffffffffffffffffffffffffffffffffffff16610b68565b005b6104696004803603608081101561048157600080fd5b5073ffffffffffffffffffffffffffffffffffffffff81358116916020810135916040820135169060600135610c1c565b6104ba610e73565b6040805160ff9092168252519081900360200190f35b6103c5600480360360208110156104e657600080fd5b503573ffffffffffffffffffffffffffffffffffffffff16610e7c565b6103c56004803603604081101561051957600080fd5b5073ffffffffffffffffffffffffffffffffffffffff8135169060200135610fea565b610544611045565b6040805173ffffffffffffffffffffffffffffffffffffffff9092168252519081900360200190f35b6104696004803603602081101561058357600080fd5b503573ffffffffffffffffffffffffffffffffffffffff16611061565b6103c5600480360360408110156105b657600080fd5b5073ffffffffffffffffffffffffffffffffffffffff81351690602001356111e8565b610469600480360360208110156105ef57600080fd5b5035611289565b6103e16004803603602081101561060c57600080fd5b5035611292565b6103c56112b0565b6103e16112f0565b6105446112f6565b6103e16004803603602081101561064157600080fd5b5035611312565b61046961131f565b6103c56004803603604081101561066657600080fd5b5060ff81351690602001356113cf565b6104696004803603602081101561068c57600080fd5b503573ffffffffffffffffffffffffffffffffffffffff16611558565b6103e1600480360360208110156106bf57600080fd5b503573ffffffffffffffffffffffffffffffffffffffff16611691565b6104696116b9565b6103e16117d5565b6104696004803603604081101561070257600080fd5b5073ffffffffffffffffffffffffffffffffffffffff81351690602001356117db565b610544611859565b6103c5611875565b610544611896565b6103c56004803603602081101561075357600080fd5b503573ffffffffffffffffffffffffffffffffffffffff166118b7565b610317611a1c565b6103c5611a9b565b6103c56004803603602081101561079657600080fd5b5035611abc565b6103c5600480360360208110156107b357600080fd5b5035611b4e565b6103c5600480360360408110156107d057600080fd5b5073ffffffffffffffffffffffffffffffffffffffff8135169060200135611b62565b6103e1611bd7565b6103c56004803603604081101561081157600080fd5b5073ffffffffffffffffffffffffffffffffffffffff8135169060200135611bdd565b6103c56004803603604081101561084a57600080fd5b5060ff8135169060200135611bf1565b610544611ced565b6104696004803603602081101561087857600080fd5b5035611d09565b6103c56004803603602081101561089557600080fd5b503573ffffffffffffffffffffffffffffffffffffffff16611e78565b610469600480360360208110156108c857600080fd5b503573ffffffffffffffffffffffffffffffffffffffff16611e8d565b6103e1600480360360408110156108fb57600080fd5b5073ffffffffffffffffffffffffffffffffffffffff81358116916020013516611fbf565b6103c56004803603602081101561093657600080fd5b503573ffffffffffffffffffffffffffffffffffffffff16611ff7565b6103e1612022565b6104696004803603602081101561097157600080fd5b503573ffffffffffffffffffffffffffffffffffffffff16612028565b6104696121d4565b60038054604080516020601f60027fffffffffffffffffffffffffffffffffffffffffffffffffffffffffffffffff610100600188161502019095169490940493840181900481028201810190925282815260609390929091830182828015610a405780601f10610a1557610100808354040283529160200191610a40565b820191906000526020600020905b815481529060010190602001808311610a2357829003601f168201915b505050505090505b90565b6000610a5f610a58612316565b848461231a565b5060015b92915050565b60025490565b600b546000908190819074010000000000000000000000000000000000000000900460ff1615610ac1576000610aa3612461565b9050610aae81612575565b9250600a54811015610abf57600191505b505b811580610af3575073ffffffffffffffffffffffffffffffffffffffff86166000908152600e602052604090205460ff165b15610b0857610b038686866126cc565b610b16565b610b148686868461289c565b505b610b5c86610b22612316565b610b57876040518060600160405280602881526020016130eb60289139610b508c610b4b612316565b611fbf565b9190612922565b61231a565b50600195945050505050565b610b70612316565b73ffffffffffffffffffffffffffffffffffffffff16610b8e611896565b73ffffffffffffffffffffffffffffffffffffffff1614610c1057604080517f08c379a000000000000000000000000000000000000000000000000000000000815260206004820181905260248201527f4f776e61626c653a2063616c6c6572206973206e6f7420746865206f776e6572604482015290519081900360640190fd5b610c19816129d3565b50565b60065473ffffffffffffffffffffffffffffffffffffffff163314610c8c576040517f08c379a00000000000000000000000000000000000000000000000000000000081526004018080602001828103825260248152602001806131656024913960400191505060405180910390fd5b60065474010000000000000000000000000000000000000000900460ff1615610d1657604080517f08c379a000000000000000000000000000000000000000000000000000000000815260206004820152601860248201527f6f6e6c792063616e2064697374726962757465206f6e63650000000000000000604482015290519081900360640190fd5b73ffffffffffffffffffffffffffffffffffffffff8416610d9857604080517f08c379a000000000000000000000000000000000000000000000000000000000815260206004820152600d60248201527f215f67656e65736973506f6f6c00000000000000000000000000000000000000604482015290519081900360640190fd5b73ffffffffffffffffffffffffffffffffffffffff8216610e1a57604080517f08c379a000000000000000000000000000000000000000000000000000000000815260206004820152600f60248201527f215f61697264726f7057616c6c65740000000000000000000000000000000000604482015290519081900360640190fd5b600680547fffffffffffffffffffffff00ffffffffffffffffffffffffffffffffffffffff1674010000000000000000000000000000000000000000179055610e638484612ac9565b610e6d8282612ac9565b50505050565b60055460ff1690565b6000610e866112b0565b80610ea8575060085473ffffffffffffffffffffffffffffffffffffffff1633145b610efd576040517f08c379a000000000000000000000000000000000000000000000000000000000815260040180806020018281038252602c81526020018061323f602c913960400191505060405180910390fd5b73ffffffffffffffffffffffffffffffffffffffff82166000908152600e602052604090205460ff1615610f9257604080517f08c379a000000000000000000000000000000000000000000000000000000000815260206004820152601960248201527f616464726573732063616e2774206265206578636c7564656400000000000000604482015290519081900360640190fd5b5073ffffffffffffffffffffffffffffffffffffffff81166000908152600e6020526040902080547fffffffffffffffffffffffffffffffffffffffffffffffffffffffffffffff001660019081179091555b919050565b6000610a5f610ff7612316565b84610b578560016000611008612316565b73ffffffffffffffffffffffffffffffffffffffff908116825260208083019390935260409182016000908120918c16815292529020549061229b565b60085473ffffffffffffffffffffffffffffffffffffffff1681565b6110696112b0565b8061108b575060085473ffffffffffffffffffffffffffffffffffffffff1633145b6110e0576040517f08c379a000000000000000000000000000000000000000000000000000000000815260040180806020018281038252602c81526020018061323f602c913960400191505060405180910390fd5b73ffffffffffffffffffffffffffffffffffffffff811661114c576040517f08c379a00000000000000000000000000000000000000000000000000000000081526004018080602001828103825260268152602001806130776026913960400191505060405180910390fd5b6008546040805173ffffffffffffffffffffffffffffffffffffffff9283168152918316602083015280517f75237613d1cfb394eb7979839ecbeacaca4592ef0cf96791979625803948a6019281900390910190a1600880547fffffffffffffffffffffffff00000000000000000000000000000000000000001673ffffffffffffffffffffffffffffffffffffffff92909216919091179055565b60065460009073ffffffffffffffffffffffffffffffffffffffff16331461125b576040517f08c379a00000000000000000000000000000000000000000000000000000000081526004018080602001828103825260248152602001806131656024913960400191505060405180910390fd5b600061126684611691565b90506112728484612ac9565b600061127d85611691565b91909111949350505050565b610c1981612bfa565b600c818154811061129f57fe5b600091825260209091200154905081565b60065460009073ffffffffffffffffffffffffffffffffffffffff166112d4612316565b73ffffffffffffffffffffffffffffffffffffffff1614905090565b600a5481565b60065473ffffffffffffffffffffffffffffffffffffffff1690565b600d818154811061129f57fe5b60085473ffffffffffffffffffffffffffffffffffffffff1633146113a557604080517f08c379a000000000000000000000000000000000000000000000000000000000815260206004820152601c60248201527f43616c6c6572206973206e6f742074686520746178206f666669636500000000604482015290519081900360640190fd5b600b80547fffffffffffffffffffffff00ffffffffffffffffffffffffffffffffffffffff169055565b60085460009073ffffffffffffffffffffffffffffffffffffffff16331461145857604080517f08c379a000000000000000000000000000000000000000000000000000000000815260206004820152601c60248201527f43616c6c6572206973206e6f742074686520746178206f666669636500000000604482015290519081900360640190fd5b611460611bd7565b8360ff16106114ba576040517f08c379a000000000000000000000000000000000000000000000000000000000815260040180806020018281038252602a815260200180613189602a913960400191505060405180910390fd5b60ff8316156114ec57600c6001840360ff16815481106114d657fe5b906000526020600020015482116114ec57600080fd5b6114ff60016114f9611bd7565b90612c0b565b8360ff16101561153257600c8360010160ff168154811061151c57fe5b9060005260206000200154821061153257600080fd5b81600c8460ff168154811061154357fe5b60009182526020909120015550600192915050565b60085473ffffffffffffffffffffffffffffffffffffffff1633146115de57604080517f08c379a000000000000000000000000000000000000000000000000000000000815260206004820152601c60248201527f43616c6c6572206973206e6f742074686520746178206f666669636500000000604482015290519081900360640190fd5b73ffffffffffffffffffffffffffffffffffffffff811661164a576040517f08c379a000000000000000000000000000000000000000000000000000000000815260040180806020018281038252602e815260200180613113602e913960400191505060405180910390fd5b600b80547fffffffffffffffffffffffff00000000000000000000000000000000000000001673ffffffffffffffffffffffffffffffffffffffff92909216919091179055565b73ffffffffffffffffffffffffffffffffffffffff1660009081526020819052604090205490565b6116c1612316565b73ffffffffffffffffffffffffffffffffffffffff166116df611896565b73ffffffffffffffffffffffffffffffffffffffff161461176157604080517f08c379a000000000000000000000000000000000000000000000000000000000815260206004820181905260248201527f4f776e61626c653a2063616c6c6572206973206e6f7420746865206f776e6572604482015290519081900360640190fd5b600554604051600091610100900473ffffffffffffffffffffffffffffffffffffffff16907f8be0079c531659141344cd1fd0a4f28419497f9722a3daafe3b4186f6b6457e0908390a3600580547fffffffffffffffffffffff0000000000000000000000000000000000000000ff169055565b60095481565b60065473ffffffffffffffffffffffffffffffffffffffff16331461184b576040517f08c379a00000000000000000000000000000000000000000000000000000000081526004018080602001828103825260248152602001806131656024913960400191505060405180910390fd5b6118558282612c82565b5050565b60075473ffffffffffffffffffffffffffffffffffffffff1681565b600b5474010000000000000000000000000000000000000000900460ff1681565b600554610100900473ffffffffffffffffffffffffffffffffffffffff1690565b60006118c16112b0565b806118e3575060085473ffffffffffffffffffffffffffffffffffffffff1633145b611938576040517f08c379a000000000000000000000000000000000000000000000000000000000815260040180806020018281038252602c81526020018061323f602c913960400191505060405180910390fd5b73ffffffffffffffffffffffffffffffffffffffff82166000908152600e602052604090205460ff166119cc57604080517f08c379a000000000000000000000000000000000000000000000000000000000815260206004820152601960248201527f616464726573732063616e277420626520696e636c7564656400000000000000604482015290519081900360640190fd5b5073ffffffffffffffffffffffffffffffffffffffff166000908152600e6020526040902080547fffffffffffffffffffffffffffffffffffffffffffffffffffffffffffffff00169055600190565b60048054604080516020601f60027fffffffffffffffffffffffffffffffffffffffffffffffffffffffffffffffff610100600188161502019095169490940493840181900481028201810190925282815260609390929091830182828015610a405780601f10610a1557610100808354040283529160200191610a40565b60065474010000000000000000000000000000000000000000900460ff1681565b60085460009073ffffffffffffffffffffffffffffffffffffffff163314611b4557604080517f08c379a000000000000000000000000000000000000000000000000000000000815260206004820152601c60248201527f43616c6c6572206973206e6f742074686520746178206f666669636500000000604482015290519081900360640190fd5b600a9190915590565b6000611b5a3383612ac9565b506001919050565b6000610a5f611b6f612316565b84610b57856040518060600160405280602581526020016132b96025913960016000611b99612316565b73ffffffffffffffffffffffffffffffffffffffff908116825260208083019390935260409182016000908120918d16815292529020549190612922565b600c5490565b6000610a5f611bea612316565b84846126cc565b60085460009073ffffffffffffffffffffffffffffffffffffffff163314611c7a57604080517f08c379a000000000000000000000000000000000000000000000000000000000815260206004820152601c60248201527f43616c6c6572206973206e6f742074686520746178206f666669636500000000604482015290519081900360640190fd5b611c82612022565b8360ff1610611cdc576040517f08c379a000000000000000000000000000000000000000000000000000000000815260040180806020018281038252602a815260200180613189602a913960400191505060405180910390fd5b81600d8460ff168154811061154357fe5b600b5473ffffffffffffffffffffffffffffffffffffffff1681565b60085473ffffffffffffffffffffffffffffffffffffffff163314611d8f57604080517f08c379a000000000000000000000000000000000000000000000000000000000815260206004820152601c60248201527f43616c6c6572206973206e6f742074686520746178206f666669636500000000604482015290519081900360640190fd5b600b5474010000000000000000000000000000000000000000900460ff1615611e03576040517f08c379a00000000000000000000000000000000000000000000000000000000081526004018080602001828103825260248152602001806131f66024913960400191505060405180910390fd5b6127108110611e7357604080517f08c379a000000000000000000000000000000000000000000000000000000000815260206004820152601b60248201527f74617820657175616c206f722062696767657220746f20313030250000000000604482015290519081900360640190fd5b600955565b600e6020526000908152604090205460ff1681565b611e956112b0565b80611eb7575060085473ffffffffffffffffffffffffffffffffffffffff1633145b611f0c576040517f08c379a000000000000000000000000000000000000000000000000000000000815260040180806020018281038252602c81526020018061323f602c913960400191505060405180910390fd5b73ffffffffffffffffffffffffffffffffffffffff8116611f78576040517f08c379a00000000000000000000000000000000000000000000000000000000081526004018080602001828103825260228152602001806131d46022913960400191505060405180910390fd5b600780547fffffffffffffffffffffffff00000000000000000000000000000000000000001673ffffffffffffffffffffffffffffffffffffffff92909216919091179055565b73ffffffffffffffffffffffffffffffffffffffff918216600090815260016020908152604080832093909416825291909152205490565b73ffffffffffffffffffffffffffffffffffffffff166000908152600e602052604090205460ff1690565b600d5490565b612030612316565b73ffffffffffffffffffffffffffffffffffffffff1661204e611896565b73ffffffffffffffffffffffffffffffffffffffff16146120d057604080517f08c379a000000000000000000000000000000000000000000000000000000000815260206004820181905260248201527f4f776e61626c653a2063616c6c6572206973206e6f7420746865206f776e6572604482015290519081900360640190fd5b73ffffffffffffffffffffffffffffffffffffffff811661213c576040517f08c379a00000000000000000000000000000000000000000000000000000000081526004018080602001828103825260268152602001806130096026913960400191505060405180910390fd5b60055460405173ffffffffffffffffffffffffffffffffffffffff80841692610100900416907f8be0079c531659141344cd1fd0a4f28419497f9722a3daafe3b4186f6b6457e090600090a36005805473ffffffffffffffffffffffffffffffffffffffff909216610100027fffffffffffffffffffffff0000000000000000000000000000000000000000ff909216919091179055565b60085473ffffffffffffffffffffffffffffffffffffffff16331461225a57604080517f08c379a000000000000000000000000000000000000000000000000000000000815260206004820152601c60248201527f43616c6c6572206973206e6f742074686520746178206f666669636500000000604482015290519081900360640190fd5b600b80547fffffffffffffffffffffff00ffffffffffffffffffffffffffffffffffffffff1674010000000000000000000000000000000000000000179055565b60008282018381101561230f57604080517f08c379a000000000000000000000000000000000000000000000000000000000815260206004820152601b60248201527f536166654d6174683a206164646974696f6e206f766572666c6f770000000000604482015290519081900360640190fd5b9392505050565b3390565b73ffffffffffffffffffffffffffffffffffffffff8316612386576040517f08c379a000000000000000000000000000000000000000000000000000000000815260040180806020018281038252602481526020018061326b6024913960400191505060405180910390fd5b73ffffffffffffffffffffffffffffffffffffffff82166123f2576040517f08c379a000000000000000000000000000000000000000000000000000000000815260040180806020018281038252602281526020018061302f6022913960400191505060405180910390fd5b73ffffffffffffffffffffffffffffffffffffffff808416600081815260016020908152604080832094871680845294825291829020859055815185815291517f8c5be1e5ebec7d5bd14f71427d1e84f3dd0314c0f7b2291e5b200ac8c7c3b9259281900390910190a3505050565b600754604080517f3ddac953000000000000000000000000000000000000000000000000000000008152306004820152670de0b6b3a76400006024820152905160009273ffffffffffffffffffffffffffffffffffffffff1691633ddac953916044808301926020929190829003018186803b1580156124e057600080fd5b505afa92505050801561250557506040513d602081101561250057600080fd5b505160015b61255a576040517f08c379a000000000000000000000000000000000000000000000000000000000815260040180806020018281038252602a81526020018061328f602a913960400191505060405180910390fd5b71ffffffffffffffffffffffffffffffffffff169050610a48565b600b5460009074010000000000000000000000000000000000000000900460ff1615610fe55760006125b360016125aa611bd7565b60ff1690612cd0565b90505b600c8160ff16815481106125c657fe5b906000526020600020015483106126a557612710600d8260ff16815481106125ea57fe5b90600052602060002001541061266157604080517f08c379a000000000000000000000000000000000000000000000000000000000815260206004820152601b60248201527f74617820657175616c206f722062696767657220746f20313030250000000000604482015290519081900360640190fd5b600d8160ff168154811061267157fe5b9060005260206000200154600981905550600d8160ff168154811061269257fe5b9060005260206000200154915050610fe5565b7fffffffffffffffffffffffffffffffffffffffffffffffffffffffffffffffff016125b6565b73ffffffffffffffffffffffffffffffffffffffff8316612738576040517f08c379a000000000000000000000000000000000000000000000000000000000815260040180806020018281038252602581526020018061321a6025913960400191505060405180910390fd5b73ffffffffffffffffffffffffffffffffffffffff82166127a4576040517f08c379a0000000000000000000000000000000000000000000000000000000008152600401808060200182810382526023815260200180612fc46023913960400191505060405180910390fd5b6127af838383612ccb565b6127f9816040518060600160405280602681526020016130516026913973ffffffffffffffffffffffffffffffffffffffff86166000908152602081905260409020549190612922565b73ffffffffffffffffffffffffffffffffffffffff8085166000908152602081905260408082209390935590841681522054612835908261229b565b73ffffffffffffffffffffffffffffffffffffffff8084166000818152602081815260409182902094909455805185815290519193928716927fddf252ad1be2c89b69c2b068fc378daa952ba7f163c4a11628f55a4df523b3ef92918290030190a3505050565b6000806128c06127106128ba60095487612d1290919063ffffffff16565b90612d85565b905060006128ce8583612c0b565b905083156128e5576128e08783612c82565b61290a565b600b5461290a90889073ffffffffffffffffffffffffffffffffffffffff16846126cc565b6129158787836126cc565b5060019695505050505050565b600081848411156129cb576040517f08c379a00000000000000000000000000000000000000000000000000000000081526004018080602001828103825283818151815260200191508051906020019080838360005b83811015612990578181015183820152602001612978565b50505050905090810190601f1680156129bd5780820380516001836020036101000a031916815260200191505b509250505060405180910390fd5b505050900390565b73ffffffffffffffffffffffffffffffffffffffff8116612a3f576040517f08c379a000000000000000000000000000000000000000000000000000000000815260040180806020018281038252602d81526020018061309d602d913960400191505060405180910390fd5b60405173ffffffffffffffffffffffffffffffffffffffff8216906000907f74da04524d50c64947f5dd5381ef1a4dca5cba8ed1d816243f9e48aa0b5617ed908290a3600680547fffffffffffffffffffffffff00000000000000000000000000000000000000001673ffffffffffffffffffffffffffffffffffffffff92909216919091179055565b73ffffffffffffffffffffffffffffffffffffffff8216612b4b57604080517f08c379a000000000000000000000000000000000000000000000000000000000815260206004820152601f60248201527f45524332303a206d696e7420746f20746865207a65726f206164647265737300604482015290519081900360640190fd5b612b5760008383612ccb565b600254612b64908261229b565b60025573ffffffffffffffffffffffffffffffffffffffff8216600090815260208190526040902054612b97908261229b565b73ffffffffffffffffffffffffffffffffffffffff83166000818152602081815260408083209490945583518581529351929391927fddf252ad1be2c89b69c2b068fc378daa952ba7f163c4a11628f55a4df523b3ef9281900390910190a35050565b610c19612c05612316565b82612e06565b600082821115612c7c57604080517f08c379a000000000000000000000000000000000000000000000000000000000815260206004820152601e60248201527f536166654d6174683a207375627472616374696f6e206f766572666c6f770000604482015290519081900360640190fd5b50900390565b6000612cad8260405180606001604052806024815260200161314160249139610b5086610b4b612316565b9050612cc183612cbb612316565b8361231a565b612ccb8383612e06565b505050565b600061230f83836040518060400160405280601e81526020017f536166654d6174683a207375627472616374696f6e206f766572666c6f770000815250612f50565b600082612d2157506000610a63565b82820282848281612d2e57fe5b041461230f576040517f08c379a00000000000000000000000000000000000000000000000000000000081526004018080602001828103825260218152602001806130ca6021913960400191505060405180910390fd5b6000808211612df557604080517f08c379a000000000000000000000000000000000000000000000000000000000815260206004820152601a60248201527f536166654d6174683a206469766973696f6e206279207a65726f000000000000604482015290519081900360640190fd5b818381612dfe57fe5b049392505050565b73ffffffffffffffffffffffffffffffffffffffff8216612e72576040517f08c379a00000000000000000000000000000000000000000000000000000000081526004018080602001828103825260218152602001806131b36021913960400191505060405180910390fd5b612e7e82600083612ccb565b612ec881604051806060016040528060228152602001612fe76022913973ffffffffffffffffffffffffffffffffffffffff85166000908152602081905260409020549190612922565b73ffffffffffffffffffffffffffffffffffffffff8316600090815260208190526040902055600254612efb9082612c0b565b60025560408051828152905160009173ffffffffffffffffffffffffffffffffffffffff8516917fddf252ad1be2c89b69c2b068fc378daa952ba7f163c4a11628f55a4df523b3ef9181900360200190a35050565b60008360ff168360ff16111582906129cb576040517f08c379a000000000000000000000000000000000000000000000000000000000815260206004820181815283516024840152835190928392604490910191908501908083836000831561299057818101518382015260200161297856fe45524332303a207472616e7366657220746f20746865207a65726f206164647265737345524332303a206275726e20616d6f756e7420657863656564732062616c616e63654f776e61626c653a206e6577206f776e657220697320746865207a65726f206164647265737345524332303a20617070726f766520746f20746865207a65726f206164647265737345524332303a207472616e7366657220616d6f756e7420657863656564732062616c616e6365746178206f666669636520616464726573732063616e6e6f74206265203020616464726573736f70657261746f723a207a65726f206164647265737320676976656e20666f72206e6577206f70657261746f72536166654d6174683a206d756c7469706c69636174696f6e206f766572666c6f7745524332303a207472616e7366657220616d6f756e74206578636565647320616c6c6f77616e636574617820636f6c6c6563746f722061646472657373206d757374206265206e6f6e2d7a65726f206164647265737345524332303a206275726e20616d6f756e74206578636565647320616c6c6f77616e63656f70657261746f723a2063616c6c6572206973206e6f7420746865206f70657261746f72496e6465782068617320746f206c6f776572207468616e20636f756e74206f662074617820746965727345524332303a206275726e2066726f6d20746865207a65726f20616464726573736f7261636c6520616464726573732063616e6e6f74206265203020616464726573736175746f2063616c63756c617465207461782063616e6e6f7420626520656e61626c656445524332303a207472616e736665722066726f6d20746865207a65726f206164647265737343616c6c6572206973206e6f7420746865206f70657261746f72206f722074686520746178206f666669636545524332303a20617070726f76652066726f6d20746865207a65726f206164647265737353766e3a206661696c656420746f2066657463682053564e2070726963652066726f6d204f7261636c6545524332303a2064656372656173656420616c6c6f77616e63652062656c6f77207a65726fa264697066735822122000130d0b8b0651486e9674a42abc2b84a1bb55bb1fb0aa5cbc2637281525d82e64736f6c634300060c003374617820636f6c6c6563746f722061646472657373206d757374206265206e6f6e2d7a65726f206164647265737343616c6c6572206973206e6f7420746865206f70657261746f72206f722074686520746178206f6666696365",
  "immutableReferences": {},
  "source": "// SPDX-License-Identifier: MIT\r\n\r\npragma solidity >=0.6.0 <0.8.0;\r\n\r\nimport \"./Svn.sol\";\r\n\r\ncontract MockedSvn is SavannaToken {\r\n    constructor(uint256 _taxRate, address _taxCollectorAddress)\r\n        public\r\n        SavannaToken(_taxRate, _taxCollectorAddress)\r\n    {}\r\n\r\n    function mint(uint256 amount) external returns (bool) {\r\n        _mint(msg.sender, amount);\r\n        return true;\r\n    }\r\n}\r\n",
  "sourcePath": "E:\\projects\\Blockchain\\Upwork\\defi_rent\\hamster-contracts-main\\contracts\\MockedSvn.sol",
  "compiler": {
    "name": "solc",
    "version": "0.6.12+commit.27d51765.Emscripten.clang"
  },
  "schemaVersion": "3.4.3",
  "updatedAt": "2022-03-21T18:38:32.407Z",
  "devdoc": {
    "kind": "dev",
    "methods": {
      "allowance(address,address)": {
        "details": "See {IERC20-allowance}."
      },
      "approve(address,uint256)": {
        "details": "See {IERC20-approve}. Requirements: - `spender` cannot be the zero address."
      },
      "balanceOf(address)": {
        "details": "See {IERC20-balanceOf}."
      },
      "burn(uint256)": {
        "details": "Destroys `amount` tokens from the caller. See {ERC20-_burn}."
      },
      "burnFrom(address,uint256)": {
        "details": "Destroys `amount` tokens from `account`, deducting from the caller's allowance. See {ERC20-_burn} and {ERC20-allowance}. Requirements: - the caller must have allowance for ``accounts``'s tokens of at least `amount`."
      },
      "decimals()": {
        "details": "Returns the number of decimals used to get its user representation. For example, if `decimals` equals `2`, a balance of `505` tokens should be displayed to a user as `5,05` (`505 / 10 ** 2`). Tokens usually opt for a value of 18, imitating the relationship between Ether and Wei. This is the value {ERC20} uses, unless {_setupDecimals} is called. NOTE: This information is only used for _display_ purposes: it in no way affects any of the arithmetic of the contract, including {IERC20-balanceOf} and {IERC20-transfer}."
      },
      "decreaseAllowance(address,uint256)": {
        "details": "Atomically decreases the allowance granted to `spender` by the caller. This is an alternative to {approve} that can be used as a mitigation for problems described in {IERC20-approve}. Emits an {Approval} event indicating the updated allowance. Requirements: - `spender` cannot be the zero address. - `spender` must have allowance for the caller of at least `subtractedValue`."
      },
      "increaseAllowance(address,uint256)": {
        "details": "Atomically increases the allowance granted to `spender` by the caller. This is an alternative to {approve} that can be used as a mitigation for problems described in {IERC20-approve}. Emits an {Approval} event indicating the updated allowance. Requirements: - `spender` cannot be the zero address."
      },
      "mint(address,uint256)": {
        "params": {
          "amount_": "The amount of SVN to mint to",
          "recipient_": "The address of recipient"
        },
        "returns": {
          "_0": "whether the process has been done"
        }
      },
      "name()": {
        "details": "Returns the name of the token."
      },
      "owner()": {
        "details": "Returns the address of the current owner."
      },
      "renounceOwnership()": {
        "details": "Leaves the contract without owner. It will not be possible to call `onlyOwner` functions anymore. Can only be called by the current owner. NOTE: Renouncing ownership will leave the contract without an owner, thereby removing any functionality that is only available to the owner."
      },
      "symbol()": {
        "details": "Returns the symbol of the token, usually a shorter version of the name."
      },
      "totalSupply()": {
        "details": "See {IERC20-totalSupply}."
      },
      "transfer(address,uint256)": {
        "details": "See {IERC20-transfer}. Requirements: - `recipient` cannot be the zero address. - the caller must have a balance of at least `amount`."
      },
      "transferFrom(address,address,uint256)": {
        "details": "See {IERC20-transferFrom}. Emits an {Approval} event indicating the updated allowance. This is not required by the EIP. See the note at the beginning of {ERC20}. Requirements: - `sender` and `recipient` cannot be the zero address. - `sender` must have a balance of at least `amount`. - the caller must have allowance for ``sender``'s tokens of at least `amount`."
      },
      "transferOwnership(address)": {
        "details": "Transfers ownership of the contract to a new account (`newOwner`). Can only be called by the current owner."
      }
    },
    "version": 1
  },
  "userdoc": {
    "kind": "user",
    "methods": {
      "mint(address,uint256)": {
        "notice": "Operator mints SVN to a recipient"
      }
    },
    "version": 1
  }
}