{
  "contractName": "MockedMShare",
  "abi": [
    {
      "inputs": [
        {
          "internalType": "uint256",
          "name": "_startTime",
          "type": "uint256"
        },
        {
          "internalType": "address",
          "name": "_communityFund",
          "type": "address"
        },
        {
          "internalType": "address",
          "name": "_devFund",
          "type": "address"
        },
        {
          "internalType": "address",
          "name": "_treasuryFund",
          "type": "address"
        }
      ],
      "stateMutability": "nonpayable",
      "type": "constructor"
    },
    {
      "anonymous": false,
      "inputs": [
        {
          "indexed": true,
          "internalType": "address",
          "name": "owner",
          "type": "address"
        },
        {
          "indexed": true,
          "internalType": "address",
          "name": "spender",
          "type": "address"
        },
        {
          "indexed": false,
          "internalType": "uint256",
          "name": "value",
          "type": "uint256"
        }
      ],
      "name": "Approval",
      "type": "event"
    },
    {
      "anonymous": false,
      "inputs": [
        {
          "indexed": true,
          "internalType": "address",
          "name": "previousOperator",
          "type": "address"
        },
        {
          "indexed": true,
          "internalType": "address",
          "name": "newOperator",
          "type": "address"
        }
      ],
      "name": "OperatorTransferred",
      "type": "event"
    },
    {
      "anonymous": false,
      "inputs": [
        {
          "indexed": true,
          "internalType": "address",
          "name": "previousOwner",
          "type": "address"
        },
        {
          "indexed": true,
          "internalType": "address",
          "name": "newOwner",
          "type": "address"
        }
      ],
      "name": "OwnershipTransferred",
      "type": "event"
    },
    {
      "anonymous": false,
      "inputs": [
        {
          "indexed": true,
          "internalType": "address",
          "name": "from",
          "type": "address"
        },
        {
          "indexed": true,
          "internalType": "address",
          "name": "to",
          "type": "address"
        },
        {
          "indexed": false,
          "internalType": "uint256",
          "name": "value",
          "type": "uint256"
        }
      ],
      "name": "Transfer",
      "type": "event"
    },
    {
      "inputs": [],
      "name": "DAO_FUND_POOL_ALLOCATION",
      "outputs": [
        {
          "internalType": "uint256",
          "name": "",
          "type": "uint256"
        }
      ],
      "stateMutability": "view",
      "type": "function"
    },
    {
      "inputs": [],
      "name": "DEV_FUND_POOL_ALLOCATION",
      "outputs": [
        {
          "internalType": "uint256",
          "name": "",
          "type": "uint256"
        }
      ],
      "stateMutability": "view",
      "type": "function"
    },
    {
      "inputs": [],
      "name": "FARMING_POOL_REWARD_ALLOCATION",
      "outputs": [
        {
          "internalType": "uint256",
          "name": "",
          "type": "uint256"
        }
      ],
      "stateMutability": "view",
      "type": "function"
    },
    {
      "inputs": [],
      "name": "TREASURY_FUND_POOL_ALLOCATION",
      "outputs": [
        {
          "internalType": "uint256",
          "name": "",
          "type": "uint256"
        }
      ],
      "stateMutability": "view",
      "type": "function"
    },
    {
      "inputs": [],
      "name": "VESTING_DURATION",
      "outputs": [
        {
          "internalType": "uint256",
          "name": "",
          "type": "uint256"
        }
      ],
      "stateMutability": "view",
      "type": "function"
    },
    {
      "inputs": [
        {
          "internalType": "address",
          "name": "owner",
          "type": "address"
        },
        {
          "internalType": "address",
          "name": "spender",
          "type": "address"
        }
      ],
      "name": "allowance",
      "outputs": [
        {
          "internalType": "uint256",
          "name": "",
          "type": "uint256"
        }
      ],
      "stateMutability": "view",
      "type": "function"
    },
    {
      "inputs": [
        {
          "internalType": "address",
          "name": "spender",
          "type": "address"
        },
        {
          "internalType": "uint256",
          "name": "amount",
          "type": "uint256"
        }
      ],
      "name": "approve",
      "outputs": [
        {
          "internalType": "bool",
          "name": "",
          "type": "bool"
        }
      ],
      "stateMutability": "nonpayable",
      "type": "function"
    },
    {
      "inputs": [
        {
          "internalType": "address",
          "name": "account",
          "type": "address"
        }
      ],
      "name": "balanceOf",
      "outputs": [
        {
          "internalType": "uint256",
          "name": "",
          "type": "uint256"
        }
      ],
      "stateMutability": "view",
      "type": "function"
    },
    {
      "inputs": [
        {
          "internalType": "uint256",
          "name": "amount",
          "type": "uint256"
        }
      ],
      "name": "burn",
      "outputs": [],
      "stateMutability": "nonpayable",
      "type": "function"
    },
    {
      "inputs": [
        {
          "internalType": "address",
          "name": "account",
          "type": "address"
        },
        {
          "internalType": "uint256",
          "name": "amount",
          "type": "uint256"
        }
      ],
      "name": "burnFrom",
      "outputs": [],
      "stateMutability": "nonpayable",
      "type": "function"
    },
    {
      "inputs": [],
      "name": "claimRewards",
      "outputs": [],
      "stateMutability": "nonpayable",
      "type": "function"
    },
    {
      "inputs": [],
      "name": "daoFund",
      "outputs": [
        {
          "internalType": "address",
          "name": "",
          "type": "address"
        }
      ],
      "stateMutability": "view",
      "type": "function"
    },
    {
      "inputs": [],
      "name": "daoFundRewardRate",
      "outputs": [
        {
          "internalType": "uint256",
          "name": "",
          "type": "uint256"
        }
      ],
      "stateMutability": "view",
      "type": "function"
    },
    {
      "inputs": [],
      "name": "decimals",
      "outputs": [
        {
          "internalType": "uint8",
          "name": "",
          "type": "uint8"
        }
      ],
      "stateMutability": "view",
      "type": "function"
    },
    {
      "inputs": [
        {
          "internalType": "address",
          "name": "spender",
          "type": "address"
        },
        {
          "internalType": "uint256",
          "name": "subtractedValue",
          "type": "uint256"
        }
      ],
      "name": "decreaseAllowance",
      "outputs": [
        {
          "internalType": "bool",
          "name": "",
          "type": "bool"
        }
      ],
      "stateMutability": "nonpayable",
      "type": "function"
    },
    {
      "inputs": [],
      "name": "devFund",
      "outputs": [
        {
          "internalType": "address",
          "name": "",
          "type": "address"
        }
      ],
      "stateMutability": "view",
      "type": "function"
    },
    {
      "inputs": [],
      "name": "devFundRewardRate",
      "outputs": [
        {
          "internalType": "uint256",
          "name": "",
          "type": "uint256"
        }
      ],
      "stateMutability": "view",
      "type": "function"
    },
    {
      "inputs": [
        {
          "internalType": "address",
          "name": "_farmingIncentiveFund",
          "type": "address"
        }
      ],
      "name": "distributeReward",
      "outputs": [],
      "stateMutability": "nonpayable",
      "type": "function"
    },
    {
      "inputs": [],
      "name": "endTime",
      "outputs": [
        {
          "internalType": "uint256",
          "name": "",
          "type": "uint256"
        }
      ],
      "stateMutability": "view",
      "type": "function"
    },
    {
      "inputs": [
        {
          "internalType": "contract IERC20",
          "name": "_token",
          "type": "address"
        },
        {
          "internalType": "uint256",
          "name": "_amount",
          "type": "uint256"
        },
        {
          "internalType": "address",
          "name": "_to",
          "type": "address"
        }
      ],
      "name": "governanceRecoverUnsupported",
      "outputs": [],
      "stateMutability": "nonpayable",
      "type": "function"
    },
    {
      "inputs": [
        {
          "internalType": "address",
          "name": "spender",
          "type": "address"
        },
        {
          "internalType": "uint256",
          "name": "addedValue",
          "type": "uint256"
        }
      ],
      "name": "increaseAllowance",
      "outputs": [
        {
          "internalType": "bool",
          "name": "",
          "type": "bool"
        }
      ],
      "stateMutability": "nonpayable",
      "type": "function"
    },
    {
      "inputs": [],
      "name": "isOperator",
      "outputs": [
        {
          "internalType": "bool",
          "name": "",
          "type": "bool"
        }
      ],
      "stateMutability": "view",
      "type": "function"
    },
    {
      "inputs": [],
      "name": "lastClaimedTime",
      "outputs": [
        {
          "internalType": "uint256",
          "name": "",
          "type": "uint256"
        }
      ],
      "stateMutability": "view",
      "type": "function"
    },
    {
      "inputs": [],
      "name": "name",
      "outputs": [
        {
          "internalType": "string",
          "name": "",
          "type": "string"
        }
      ],
      "stateMutability": "view",
      "type": "function"
    },
    {
      "inputs": [],
      "name": "operator",
      "outputs": [
        {
          "internalType": "address",
          "name": "",
          "type": "address"
        }
      ],
      "stateMutability": "view",
      "type": "function"
    },
    {
      "inputs": [],
      "name": "owner",
      "outputs": [
        {
          "internalType": "address",
          "name": "",
          "type": "address"
        }
      ],
      "stateMutability": "view",
      "type": "function"
    },
    {
      "inputs": [],
      "name": "renounceOwnership",
      "outputs": [],
      "stateMutability": "nonpayable",
      "type": "function"
    },
    {
      "inputs": [],
      "name": "rewardPoolDistributed",
      "outputs": [
        {
          "internalType": "bool",
          "name": "",
          "type": "bool"
        }
      ],
      "stateMutability": "view",
      "type": "function"
    },
    {
      "inputs": [
        {
          "internalType": "address",
          "name": "_daoFund",
          "type": "address"
        }
      ],
      "name": "setDaoFund",
      "outputs": [],
      "stateMutability": "nonpayable",
      "type": "function"
    },
    {
      "inputs": [
        {
          "internalType": "address",
          "name": "_devFund",
          "type": "address"
        }
      ],
      "name": "setDevFund",
      "outputs": [],
      "stateMutability": "nonpayable",
      "type": "function"
    },
    {
      "inputs": [
        {
          "internalType": "address",
          "name": "_treasuryFund",
          "type": "address"
        }
      ],
      "name": "setTreasuryFund",
      "outputs": [],
      "stateMutability": "nonpayable",
      "type": "function"
    },
    {
      "inputs": [],
      "name": "startTime",
      "outputs": [
        {
          "internalType": "uint256",
          "name": "",
          "type": "uint256"
        }
      ],
      "stateMutability": "view",
      "type": "function"
    },
    {
      "inputs": [],
      "name": "symbol",
      "outputs": [
        {
          "internalType": "string",
          "name": "",
          "type": "string"
        }
      ],
      "stateMutability": "view",
      "type": "function"
    },
    {
      "inputs": [],
      "name": "totalSupply",
      "outputs": [
        {
          "internalType": "uint256",
          "name": "",
          "type": "uint256"
        }
      ],
      "stateMutability": "view",
      "type": "function"
    },
    {
      "inputs": [
        {
          "internalType": "address",
          "name": "recipient",
          "type": "address"
        },
        {
          "internalType": "uint256",
          "name": "amount",
          "type": "uint256"
        }
      ],
      "name": "transfer",
      "outputs": [
        {
          "internalType": "bool",
          "name": "",
          "type": "bool"
        }
      ],
      "stateMutability": "nonpayable",
      "type": "function"
    },
    {
      "inputs": [
        {
          "internalType": "address",
          "name": "sender",
          "type": "address"
        },
        {
          "internalType": "address",
          "name": "recipient",
          "type": "address"
        },
        {
          "internalType": "uint256",
          "name": "amount",
          "type": "uint256"
        }
      ],
      "name": "transferFrom",
      "outputs": [
        {
          "internalType": "bool",
          "name": "",
          "type": "bool"
        }
      ],
      "stateMutability": "nonpayable",
      "type": "function"
    },
    {
      "inputs": [
        {
          "internalType": "address",
          "name": "newOperator_",
          "type": "address"
        }
      ],
      "name": "transferOperator",
      "outputs": [],
      "stateMutability": "nonpayable",
      "type": "function"
    },
    {
      "inputs": [
        {
          "internalType": "address",
          "name": "newOwner",
          "type": "address"
        }
      ],
      "name": "transferOwnership",
      "outputs": [],
      "stateMutability": "nonpayable",
      "type": "function"
    },
    {
      "inputs": [],
      "name": "treasuryFund",
      "outputs": [
        {
          "internalType": "address",
          "name": "",
          "type": "address"
        }
      ],
      "stateMutability": "view",
      "type": "function"
    },
    {
      "inputs": [],
      "name": "treasuryFundRewardRate",
      "outputs": [
        {
          "internalType": "uint256",
          "name": "",
          "type": "uint256"
        }
      ],
      "stateMutability": "view",
      "type": "function"
    },
    {
      "inputs": [],
      "name": "unclaimedDaoFund",
      "outputs": [
        {
          "internalType": "uint256",
          "name": "_pending",
          "type": "uint256"
        }
      ],
      "stateMutability": "view",
      "type": "function"
    },
    {
      "inputs": [],
      "name": "unclaimedDevFund",
      "outputs": [
        {
          "internalType": "uint256",
          "name": "_pending",
          "type": "uint256"
        }
      ],
      "stateMutability": "view",
      "type": "function"
    },
    {
      "inputs": [],
      "name": "unclaimedTreasuryFund",
      "outputs": [
        {
          "internalType": "uint256",
          "name": "_pending",
          "type": "uint256"
        }
      ],
      "stateMutability": "view",
      "type": "function"
    },
    {
      "inputs": [
        {
          "internalType": "uint256",
          "name": "amount",
          "type": "uint256"
        }
      ],
      "name": "mint",
      "outputs": [
        {
          "internalType": "bool",
          "name": "",
          "type": "bool"
        }
      ],
      "stateMutability": "nonpayable",
      "type": "function"
    }
  ],
  "bytecode": "0x60806040526010805460ff191690553480156200001b57600080fd5b5060405162002a6e38038062002a6e833981810160405260808110156200004157600080fd5b50805160208083015160408085015160609095015181518083018352600d81526c536176616e6e6120536861726560981b818601908152835180850190945260068452654d534841524560d01b95840195909552805195969395939491938793879387938793909291620000b991600391906200056f565b508051620000cf9060049060208401906200056f565b50506005805460ff19166012179055506000620000eb6200038c565b60058054610100600160a81b0319166101006001600160a01b03841690810291909117909155604051919250906000907f8be0079c531659141344cd1fd0a4f28419497f9722a3daafe3b4186f6b6457e0908290a3506200014b6200038c565b600680546001600160a01b0319166001600160a01b0392831617908190556040519116906000907f74da04524d50c64947f5dd5381ef1a4dca5cba8ed1d816243f9e48aa0b5617ed908290a3620001ab33670de0b6b3a764000062000390565b60078490556301e13380808501600855600f859055620001e39069032d26d12e980b600000906200049f602090811b620018ed17901c565b6009556200020c69021e19e0c9bab24000006301e133806200049f602090811b620018ed17901c565b600b556200023569010f0cf064dd592000006301e133806200049f602090811b620018ed17901c565b600a556001600160a01b0382166200028a576040805162461bcd60e51b81526020600482015260136024820152720416464726573732063616e6e6f74206265203606c1b604482015290519081900360640190fd5b600e80546001600160a01b0319166001600160a01b03848116919091179091558316620002f4576040805162461bcd60e51b81526020600482015260136024820152720416464726573732063616e6e6f74206265203606c1b604482015290519081900360640190fd5b600d80546001600160a01b0319166001600160a01b038581169190911790915581166200035e576040805162461bcd60e51b81526020600482015260136024820152720416464726573732063616e6e6f74206265203606c1b604482015290519081900360640190fd5b600c80546001600160a01b0319166001600160a01b0392909216919091179055506200060b95505050505050565b3390565b6001600160a01b038216620003ec576040805162461bcd60e51b815260206004820152601f60248201527f45524332303a206d696e7420746f20746865207a65726f206164647265737300604482015290519081900360640190fd5b620003fa6000838362000508565b62000416816002546200050d60201b6200196e1790919060201c565b6002556001600160a01b03821660009081526020818152604090912054620004499183906200196e6200050d821b17901c565b6001600160a01b0383166000818152602081815260408083209490945583518581529351929391927fddf252ad1be2c89b69c2b068fc378daa952ba7f163c4a11628f55a4df523b3ef9281900390910190a35050565b6000808211620004f6576040805162461bcd60e51b815260206004820152601a60248201527f536166654d6174683a206469766973696f6e206279207a65726f000000000000604482015290519081900360640190fd5b8183816200050057fe5b049392505050565b505050565b60008282018381101562000568576040805162461bcd60e51b815260206004820152601b60248201527f536166654d6174683a206164646974696f6e206f766572666c6f770000000000604482015290519081900360640190fd5b9392505050565b828054600181600116156101000203166002900490600052602060002090601f016020900481019282601f10620005b257805160ff1916838001178555620005e2565b82800160010185558215620005e2579182015b82811115620005e2578251825591602001919060010190620005c5565b50620005f0929150620005f4565b5090565b5b80821115620005f05760008155600101620005f5565b612453806200061b6000396000f3fe608060405234801561001057600080fd5b50600436106102f45760003560e01c80634f337dd5116101915780639662676c116100e3578063ae4db91911610097578063e0c4f12d11610071578063e0c4f12d146107bc578063f2fde38b146107c4578063f746b718146107f7576102f4565b8063ae4db91914610746578063c3ebc59314610779578063dd62ed3e14610781576102f4565b8063a0712d68116100c8578063a0712d68146106b7578063a457c2d7146106d4578063a9059cbb1461070d576102f4565b80639662676c146106a7578063a06160fd146106af576102f4565b806374e7153d116101455780638d934f741161011f5780638d934f741461068f5780638da5cb5b1461069757806395d89b411461069f576102f4565b806374e7153d1461064657806378e979251461064e57806379cc679014610656576102f4565b8063570ca73511610176578063570ca7351461060357806370a082311461060b578063715018a61461063e576102f4565b80634f337dd5146105b857806354575af4146105c0576102f4565b80632c559d271161024a578063372500ab116101fe5780634390d2a8116101d85780634390d2a8146105775780634456eda2146105a85780634cfc4d30146105b0576102f4565b8063372500ab14610519578063395093511461052157806342966c681461055a576102f4565b8063313ce5671161022f578063313ce567146104eb5780633197cbb61461050957806334b9558e14610511576102f4565b80632c559d27146104b05780632e3367ce146104e3576102f4565b806318160ddd116102ac57806323b872dd1161028657806323b872dd1461043257806329605e77146104755780632c07a624146104a8576102f4565b806318160ddd1461041a5780631a5df607146104225780631de6934a1461042a576102f4565b8063095ea7b3116102dd578063095ea7b3146103ab57806316103b72146103f85780631776478214610412576102f4565b806306fdde03146102f9578063092193ab14610376575b600080fd5b61030161082a565b6040805160208082528351818301528351919283929083019185019080838360005b8381101561033b578181015183820152602001610323565b50505050905090810190601f1680156103685780820380516001836020036101000a031916815260200191505b509250505060405180910390f35b6103a96004803603602081101561038c57600080fd5b503573ffffffffffffffffffffffffffffffffffffffff166108df565b005b6103e4600480360360408110156103c157600080fd5b5073ffffffffffffffffffffffffffffffffffffffff8135169060200135610a85565b604080519115158252519081900360200190f35b610400610aa3565b60408051918252519081900360200190f35b610400610ab1565b610400610aff565b610400610b05565b610400610b47565b6103e46004803603606081101561044857600080fd5b5073ffffffffffffffffffffffffffffffffffffffff813581169160208101359091169060400135610b4d565b6103a96004803603602081101561048b57600080fd5b503573ffffffffffffffffffffffffffffffffffffffff16610bee565b610400610c9f565b6103a9600480360360208110156104c657600080fd5b503573ffffffffffffffffffffffffffffffffffffffff16610ce1565b610400610e1c565b6104f3610e22565b6040805160ff9092168252519081900360200190f35b610400610e2b565b610400610e31565b6103a9610e37565b6103e46004803603604081101561053757600080fd5b5073ffffffffffffffffffffffffffffffffffffffff8135169060200135610f4b565b6103a96004803603602081101561057057600080fd5b5035610fa6565b61057f610faf565b6040805173ffffffffffffffffffffffffffffffffffffffff9092168252519081900360200190f35b6103e4610fcb565b61040061100b565b610400611013565b6103a9600480360360608110156105d657600080fd5b5073ffffffffffffffffffffffffffffffffffffffff813581169160208101359160409091013516611021565b61057f611133565b6104006004803603602081101561062157600080fd5b503573ffffffffffffffffffffffffffffffffffffffff1661114f565b6103a9611177565b610400611293565b6104006112a1565b6103a96004803603604081101561066c57600080fd5b5073ffffffffffffffffffffffffffffffffffffffff81351690602001356112a7565b61057f611301565b61057f61131d565b61030161133e565b6103e46113bd565b6104006113c6565b6103e4600480360360208110156106cd57600080fd5b50356113d4565b6103e4600480360360408110156106ea57600080fd5b5073ffffffffffffffffffffffffffffffffffffffff81351690602001356113e8565b6103e46004803603604081101561072357600080fd5b5073ffffffffffffffffffffffffffffffffffffffff813516906020013561145d565b6103a96004803603602081101561075c57600080fd5b503573ffffffffffffffffffffffffffffffffffffffff16611471565b6104006115ac565b6104006004803603604081101561079757600080fd5b5073ffffffffffffffffffffffffffffffffffffffff813581169160200135166115b2565b61057f6115ea565b6103a9600480360360208110156107da57600080fd5b503573ffffffffffffffffffffffffffffffffffffffff16611606565b6103a96004803603602081101561080d57600080fd5b503573ffffffffffffffffffffffffffffffffffffffff166117b2565b60038054604080516020601f60027fffffffffffffffffffffffffffffffffffffffffffffffffffffffffffffffff6101006001881615020190951694909404938401819004810282018101909252828152606093909290918301828280156108d45780601f106108a9576101008083540402835291602001916108d4565b820191906000526020600020905b8154815290600101906020018083116108b757829003601f168201915b505050505090505b90565b60065473ffffffffffffffffffffffffffffffffffffffff16331461094f576040517f08c379a000000000000000000000000000000000000000000000000000000000815260040180806020018281038252602481526020018061236b6024913960400191505060405180910390fd5b60105460ff16156109c157604080517f08c379a000000000000000000000000000000000000000000000000000000000815260206004820152601860248201527f6f6e6c792063616e2064697374726962757465206f6e63650000000000000000604482015290519081900360640190fd5b73ffffffffffffffffffffffffffffffffffffffff8116610a4357604080517f08c379a000000000000000000000000000000000000000000000000000000000815260206004820152601660248201527f215f6661726d696e67496e63656e7469766546756e6400000000000000000000604482015290519081900360640190fd5b601080547fffffffffffffffffffffffffffffffffffffffffffffffffffffffffffffff00166001179055610a8281690ed2b525841adfc000006119e9565b50565b6000610a99610a92611b1a565b8484611b1e565b5060015b92915050565b69032d26d12e980b60000081565b6008546000904290811115610ac557506008545b80600f5410610ad85760009150506108dc565b610af9600a54610af3600f5484611c6590919063ffffffff16565b90611cdc565b91505090565b60025490565b6008546000904290811115610b1957506008545b80600f5410610b2c5760009150506108dc565b610af9600954610af3600f5484611c6590919063ffffffff16565b600a5481565b6000610b5a848484611d4f565b610be484610b66611b1a565b610bdf8560405180606001604052806028815260200161231f6028913973ffffffffffffffffffffffffffffffffffffffff8a16600090815260016020526040812090610bb1611b1a565b73ffffffffffffffffffffffffffffffffffffffff1681526020810191909152604001600020549190611f1f565b611b1e565b5060019392505050565b610bf6611b1a565b73ffffffffffffffffffffffffffffffffffffffff16610c1461131d565b73ffffffffffffffffffffffffffffffffffffffff1614610c9657604080517f08c379a000000000000000000000000000000000000000000000000000000000815260206004820181905260248201527f4f776e61626c653a2063616c6c6572206973206e6f7420746865206f776e6572604482015290519081900360640190fd5b610a8281611fd0565b6008546000904290811115610cb357506008545b80600f5410610cc65760009150506108dc565b610af9600b54610af3600f5484611c6590919063ffffffff16565b60065473ffffffffffffffffffffffffffffffffffffffff163314610d51576040517f08c379a000000000000000000000000000000000000000000000000000000000815260040180806020018281038252602481526020018061236b6024913960400191505060405180910390fd5b73ffffffffffffffffffffffffffffffffffffffff8116610dd557604080517f08c379a0000000000000000000000000000000000000000000000000000000008152602060048083019190915260248201527f7a65726f00000000000000000000000000000000000000000000000000000000604482015290519081900360640190fd5b600d80547fffffffffffffffffffffffff00000000000000000000000000000000000000001673ffffffffffffffffffffffffffffffffffffffff92909216919091179055565b600b5481565b60055460ff1690565b60085481565b600f5481565b6000610e41610b05565b9050600081118015610e6a5750600d5473ffffffffffffffffffffffffffffffffffffffff1615155b15610e9257600d54610e929073ffffffffffffffffffffffffffffffffffffffff16826119e9565b610e9a610c9f565b9050600081118015610ec35750600e5473ffffffffffffffffffffffffffffffffffffffff1615155b15610eeb57600e54610eeb9073ffffffffffffffffffffffffffffffffffffffff16826119e9565b610ef3610ab1565b9050600081118015610f1c5750600c5473ffffffffffffffffffffffffffffffffffffffff1615155b15610f4457600c54610f449073ffffffffffffffffffffffffffffffffffffffff16826119e9565b5042600f55565b6000610a99610f58611b1a565b84610bdf8560016000610f69611b1a565b73ffffffffffffffffffffffffffffffffffffffff908116825260208083019390935260409182016000908120918c16815292529020549061196e565b610a82816120c6565b600e5473ffffffffffffffffffffffffffffffffffffffff1681565b60065460009073ffffffffffffffffffffffffffffffffffffffff16610fef611b1a565b73ffffffffffffffffffffffffffffffffffffffff1614905090565b6301e1338081565b69021e19e0c9bab240000081565b60065473ffffffffffffffffffffffffffffffffffffffff163314611091576040517f08c379a000000000000000000000000000000000000000000000000000000000815260040180806020018281038252602481526020018061236b6024913960400191505060405180910390fd5b8273ffffffffffffffffffffffffffffffffffffffff1663a9059cbb82846040518363ffffffff1660e01b8152600401808373ffffffffffffffffffffffffffffffffffffffff16815260200182815260200192505050602060405180830381600087803b15801561110257600080fd5b505af1158015611116573d6000803e3d6000fd5b505050506040513d602081101561112c57600080fd5b5050505050565b60065473ffffffffffffffffffffffffffffffffffffffff1690565b73ffffffffffffffffffffffffffffffffffffffff1660009081526020819052604090205490565b61117f611b1a565b73ffffffffffffffffffffffffffffffffffffffff1661119d61131d565b73ffffffffffffffffffffffffffffffffffffffff161461121f57604080517f08c379a000000000000000000000000000000000000000000000000000000000815260206004820181905260248201527f4f776e61626c653a2063616c6c6572206973206e6f7420746865206f776e6572604482015290519081900360640190fd5b600554604051600091610100900473ffffffffffffffffffffffffffffffffffffffff16907f8be0079c531659141344cd1fd0a4f28419497f9722a3daafe3b4186f6b6457e0908390a3600580547fffffffffffffffffffffff0000000000000000000000000000000000000000ff169055565b69010f0cf064dd5920000081565b60075481565b60006112de82604051806060016040528060248152602001612347602491396112d7866112d2611b1a565b6115b2565b9190611f1f565b90506112f2836112ec611b1a565b83611b1e565b6112fc83836120d3565b505050565b600d5473ffffffffffffffffffffffffffffffffffffffff1681565b600554610100900473ffffffffffffffffffffffffffffffffffffffff1690565b60048054604080516020601f60027fffffffffffffffffffffffffffffffffffffffffffffffffffffffffffffffff6101006001881615020190951694909404938401819004810282018101909252828152606093909290918301828280156108d45780601f106108a9576101008083540402835291602001916108d4565b60105460ff1681565b690ed2b525841adfc0000081565b60006113e033836119e9565b506001919050565b6000610a996113f5611b1a565b84610bdf856040518060600160405280602581526020016123f9602591396001600061141f611b1a565b73ffffffffffffffffffffffffffffffffffffffff908116825260208083019390935260409182016000908120918d16815292529020549190611f1f565b6000610a9961146a611b1a565b8484611d4f565b60065473ffffffffffffffffffffffffffffffffffffffff1633146114e1576040517f08c379a000000000000000000000000000000000000000000000000000000000815260040180806020018281038252602481526020018061236b6024913960400191505060405180910390fd5b73ffffffffffffffffffffffffffffffffffffffff811661156557604080517f08c379a0000000000000000000000000000000000000000000000000000000008152602060048083019190915260248201527f7a65726f00000000000000000000000000000000000000000000000000000000604482015290519081900360640190fd5b600e80547fffffffffffffffffffffffff00000000000000000000000000000000000000001673ffffffffffffffffffffffffffffffffffffffff92909216919091179055565b60095481565b73ffffffffffffffffffffffffffffffffffffffff918216600090815260016020908152604080832093909416825291909152205490565b600c5473ffffffffffffffffffffffffffffffffffffffff1681565b61160e611b1a565b73ffffffffffffffffffffffffffffffffffffffff1661162c61131d565b73ffffffffffffffffffffffffffffffffffffffff16146116ae57604080517f08c379a000000000000000000000000000000000000000000000000000000000815260206004820181905260248201527f4f776e61626c653a2063616c6c6572206973206e6f7420746865206f776e6572604482015290519081900360640190fd5b73ffffffffffffffffffffffffffffffffffffffff811661171a576040517f08c379a00000000000000000000000000000000000000000000000000000000081526004018080602001828103825260268152602001806122636026913960400191505060405180910390fd5b60055460405173ffffffffffffffffffffffffffffffffffffffff80841692610100900416907f8be0079c531659141344cd1fd0a4f28419497f9722a3daafe3b4186f6b6457e090600090a36005805473ffffffffffffffffffffffffffffffffffffffff909216610100027fffffffffffffffffffffff0000000000000000000000000000000000000000ff909216919091179055565b60065473ffffffffffffffffffffffffffffffffffffffff163314611822576040517f08c379a000000000000000000000000000000000000000000000000000000000815260040180806020018281038252602481526020018061236b6024913960400191505060405180910390fd5b73ffffffffffffffffffffffffffffffffffffffff81166118a657604080517f08c379a0000000000000000000000000000000000000000000000000000000008152602060048083019190915260248201527f7a65726f00000000000000000000000000000000000000000000000000000000604482015290519081900360640190fd5b600c80547fffffffffffffffffffffffff00000000000000000000000000000000000000001673ffffffffffffffffffffffffffffffffffffffff92909216919091179055565b600080821161195d57604080517f08c379a000000000000000000000000000000000000000000000000000000000815260206004820152601a60248201527f536166654d6174683a206469766973696f6e206279207a65726f000000000000604482015290519081900360640190fd5b81838161196657fe5b049392505050565b6000828201838110156119e257604080517f08c379a000000000000000000000000000000000000000000000000000000000815260206004820152601b60248201527f536166654d6174683a206164646974696f6e206f766572666c6f770000000000604482015290519081900360640190fd5b9392505050565b73ffffffffffffffffffffffffffffffffffffffff8216611a6b57604080517f08c379a000000000000000000000000000000000000000000000000000000000815260206004820152601f60248201527f45524332303a206d696e7420746f20746865207a65726f206164647265737300604482015290519081900360640190fd5b611a77600083836112fc565b600254611a84908261196e565b60025573ffffffffffffffffffffffffffffffffffffffff8216600090815260208190526040902054611ab7908261196e565b73ffffffffffffffffffffffffffffffffffffffff83166000818152602081815260408083209490945583518581529351929391927fddf252ad1be2c89b69c2b068fc378daa952ba7f163c4a11628f55a4df523b3ef9281900390910190a35050565b3390565b73ffffffffffffffffffffffffffffffffffffffff8316611b8a576040517f08c379a00000000000000000000000000000000000000000000000000000000081526004018080602001828103825260248152602001806123d56024913960400191505060405180910390fd5b73ffffffffffffffffffffffffffffffffffffffff8216611bf6576040517f08c379a00000000000000000000000000000000000000000000000000000000081526004018080602001828103825260228152602001806122896022913960400191505060405180910390fd5b73ffffffffffffffffffffffffffffffffffffffff808416600081815260016020908152604080832094871680845294825291829020859055815185815291517f8c5be1e5ebec7d5bd14f71427d1e84f3dd0314c0f7b2291e5b200ac8c7c3b9259281900390910190a3505050565b600082821115611cd657604080517f08c379a000000000000000000000000000000000000000000000000000000000815260206004820152601e60248201527f536166654d6174683a207375627472616374696f6e206f766572666c6f770000604482015290519081900360640190fd5b50900390565b600082611ceb57506000610a9d565b82820282848281611cf857fe5b04146119e2576040517f08c379a00000000000000000000000000000000000000000000000000000000081526004018080602001828103825260218152602001806122fe6021913960400191505060405180910390fd5b73ffffffffffffffffffffffffffffffffffffffff8316611dbb576040517f08c379a00000000000000000000000000000000000000000000000000000000081526004018080602001828103825260258152602001806123b06025913960400191505060405180910390fd5b73ffffffffffffffffffffffffffffffffffffffff8216611e27576040517f08c379a000000000000000000000000000000000000000000000000000000000815260040180806020018281038252602381526020018061221e6023913960400191505060405180910390fd5b611e328383836112fc565b611e7c816040518060600160405280602681526020016122ab6026913973ffffffffffffffffffffffffffffffffffffffff86166000908152602081905260409020549190611f1f565b73ffffffffffffffffffffffffffffffffffffffff8085166000908152602081905260408082209390935590841681522054611eb8908261196e565b73ffffffffffffffffffffffffffffffffffffffff8084166000818152602081815260409182902094909455805185815290519193928716927fddf252ad1be2c89b69c2b068fc378daa952ba7f163c4a11628f55a4df523b3ef92918290030190a3505050565b60008184841115611fc8576040517f08c379a00000000000000000000000000000000000000000000000000000000081526004018080602001828103825283818151815260200191508051906020019080838360005b83811015611f8d578181015183820152602001611f75565b50505050905090810190601f168015611fba5780820380516001836020036101000a031916815260200191505b509250505060405180910390fd5b505050900390565b73ffffffffffffffffffffffffffffffffffffffff811661203c576040517f08c379a000000000000000000000000000000000000000000000000000000000815260040180806020018281038252602d8152602001806122d1602d913960400191505060405180910390fd5b60405173ffffffffffffffffffffffffffffffffffffffff8216906000907f74da04524d50c64947f5dd5381ef1a4dca5cba8ed1d816243f9e48aa0b5617ed908290a3600680547fffffffffffffffffffffffff00000000000000000000000000000000000000001673ffffffffffffffffffffffffffffffffffffffff92909216919091179055565b610a826120d1611b1a565b825b73ffffffffffffffffffffffffffffffffffffffff821661213f576040517f08c379a000000000000000000000000000000000000000000000000000000000815260040180806020018281038252602181526020018061238f6021913960400191505060405180910390fd5b61214b826000836112fc565b612195816040518060600160405280602281526020016122416022913973ffffffffffffffffffffffffffffffffffffffff85166000908152602081905260409020549190611f1f565b73ffffffffffffffffffffffffffffffffffffffff83166000908152602081905260409020556002546121c89082611c65565b60025560408051828152905160009173ffffffffffffffffffffffffffffffffffffffff8516917fddf252ad1be2c89b69c2b068fc378daa952ba7f163c4a11628f55a4df523b3ef9181900360200190a3505056fe45524332303a207472616e7366657220746f20746865207a65726f206164647265737345524332303a206275726e20616d6f756e7420657863656564732062616c616e63654f776e61626c653a206e6577206f776e657220697320746865207a65726f206164647265737345524332303a20617070726f766520746f20746865207a65726f206164647265737345524332303a207472616e7366657220616d6f756e7420657863656564732062616c616e63656f70657261746f723a207a65726f206164647265737320676976656e20666f72206e6577206f70657261746f72536166654d6174683a206d756c7469706c69636174696f6e206f766572666c6f7745524332303a207472616e7366657220616d6f756e74206578636565647320616c6c6f77616e636545524332303a206275726e20616d6f756e74206578636565647320616c6c6f77616e63656f70657261746f723a2063616c6c6572206973206e6f7420746865206f70657261746f7245524332303a206275726e2066726f6d20746865207a65726f206164647265737345524332303a207472616e736665722066726f6d20746865207a65726f206164647265737345524332303a20617070726f76652066726f6d20746865207a65726f206164647265737345524332303a2064656372656173656420616c6c6f77616e63652062656c6f77207a65726fa26469706673582212203ba64d7293e0e99fac36dd54ad720c5b0097b89b185fa645e5c13e792557c1a964736f6c634300060c0033",
  "immutableReferences": {},
  "source": "// SPDX-License-Identifier: MIT\r\npragma solidity >=0.6.0 <0.8.0;\r\n\r\nimport \"./MShare.sol\";\r\n\r\ncontract MockedMShare is MShare {\r\n    constructor(\r\n        uint256 _startTime,\r\n        address _communityFund,\r\n        address _devFund,\r\n        address _treasuryFund\r\n    ) public MShare(_startTime, _communityFund, _devFund, _treasuryFund) {}\r\n\r\n    function mint(uint256 amount) external returns (bool) {\r\n        _mint(msg.sender, amount);\r\n        return true;\r\n    }\r\n}\r\n",
  "sourcePath": "E:\\projects\\Blockchain\\Upwork\\defi_rent\\hamster-contracts-main\\contracts\\MockedMShare.sol",
  "compiler": {
    "name": "solc",
    "version": "0.6.12+commit.27d51765.Emscripten.clang"
  },
  "schemaVersion": "3.4.3",
  "updatedAt": "2022-03-21T18:38:32.402Z",
  "devdoc": {
    "kind": "dev",
    "methods": {
      "allowance(address,address)": {
        "details": "See {IERC20-allowance}."
      },
      "approve(address,uint256)": {
        "details": "See {IERC20-approve}. Requirements: - `spender` cannot be the zero address."
      },
      "balanceOf(address)": {
        "details": "See {IERC20-balanceOf}."
      },
      "burn(uint256)": {
        "details": "Destroys `amount` tokens from the caller. See {ERC20-_burn}."
      },
      "burnFrom(address,uint256)": {
        "details": "Destroys `amount` tokens from `account`, deducting from the caller's allowance. See {ERC20-_burn} and {ERC20-allowance}. Requirements: - the caller must have allowance for ``accounts``'s tokens of at least `amount`."
      },
      "claimRewards()": {
        "details": "Claim pending rewards to community and dev fund"
      },
      "decimals()": {
        "details": "Returns the number of decimals used to get its user representation. For example, if `decimals` equals `2`, a balance of `505` tokens should be displayed to a user as `5,05` (`505 / 10 ** 2`). Tokens usually opt for a value of 18, imitating the relationship between Ether and Wei. This is the value {ERC20} uses, unless {_setupDecimals} is called. NOTE: This information is only used for _display_ purposes: it in no way affects any of the arithmetic of the contract, including {IERC20-balanceOf} and {IERC20-transfer}."
      },
      "decreaseAllowance(address,uint256)": {
        "details": "Atomically decreases the allowance granted to `spender` by the caller. This is an alternative to {approve} that can be used as a mitigation for problems described in {IERC20-approve}. Emits an {Approval} event indicating the updated allowance. Requirements: - `spender` cannot be the zero address. - `spender` must have allowance for the caller of at least `subtractedValue`."
      },
      "increaseAllowance(address,uint256)": {
        "details": "Atomically increases the allowance granted to `spender` by the caller. This is an alternative to {approve} that can be used as a mitigation for problems described in {IERC20-approve}. Emits an {Approval} event indicating the updated allowance. Requirements: - `spender` cannot be the zero address."
      },
      "name()": {
        "details": "Returns the name of the token."
      },
      "owner()": {
        "details": "Returns the address of the current owner."
      },
      "renounceOwnership()": {
        "details": "Leaves the contract without owner. It will not be possible to call `onlyOwner` functions anymore. Can only be called by the current owner. NOTE: Renouncing ownership will leave the contract without an owner, thereby removing any functionality that is only available to the owner."
      },
      "symbol()": {
        "details": "Returns the symbol of the token, usually a shorter version of the name."
      },
      "totalSupply()": {
        "details": "See {IERC20-totalSupply}."
      },
      "transfer(address,uint256)": {
        "details": "See {IERC20-transfer}. Requirements: - `recipient` cannot be the zero address. - the caller must have a balance of at least `amount`."
      },
      "transferFrom(address,address,uint256)": {
        "details": "See {IERC20-transferFrom}. Emits an {Approval} event indicating the updated allowance. This is not required by the EIP. See the note at the beginning of {ERC20}. Requirements: - `sender` and `recipient` cannot be the zero address. - `sender` must have a balance of at least `amount`. - the caller must have allowance for ``sender``'s tokens of at least `amount`."
      },
      "transferOwnership(address)": {
        "details": "Transfers ownership of the contract to a new account (`newOwner`). Can only be called by the current owner."
      }
    },
    "version": 1
  },
  "userdoc": {
    "kind": "user",
    "methods": {
      "distributeReward(address)": {
        "notice": "distribute to reward pool (only once)"
      }
    },
    "version": 1
  }
}