{
  "contractName": "MShareRewardPool",
  "abi": [
    {
      "inputs": [
        {
          "internalType": "address",
          "name": "_mshare",
          "type": "address"
        },
        {
          "internalType": "uint256",
          "name": "_poolStartTime",
          "type": "uint256"
        },
        {
          "internalType": "uint256",
          "name": "_totalRewards",
          "type": "uint256"
        },
        {
          "internalType": "uint256",
          "name": "_runningTime",
          "type": "uint256"
        }
      ],
      "stateMutability": "nonpayable",
      "type": "constructor"
    },
    {
      "anonymous": false,
      "inputs": [
        {
          "indexed": true,
          "internalType": "address",
          "name": "user",
          "type": "address"
        },
        {
          "indexed": true,
          "internalType": "uint256",
          "name": "pid",
          "type": "uint256"
        },
        {
          "indexed": false,
          "internalType": "uint256",
          "name": "amount",
          "type": "uint256"
        }
      ],
      "name": "Deposit",
      "type": "event"
    },
    {
      "anonymous": false,
      "inputs": [
        {
          "indexed": true,
          "internalType": "address",
          "name": "user",
          "type": "address"
        },
        {
          "indexed": true,
          "internalType": "uint256",
          "name": "pid",
          "type": "uint256"
        },
        {
          "indexed": false,
          "internalType": "uint256",
          "name": "amount",
          "type": "uint256"
        }
      ],
      "name": "EmergencyWithdraw",
      "type": "event"
    },
    {
      "anonymous": false,
      "inputs": [
        {
          "indexed": true,
          "internalType": "address",
          "name": "user",
          "type": "address"
        },
        {
          "indexed": false,
          "internalType": "uint256",
          "name": "amount",
          "type": "uint256"
        }
      ],
      "name": "RewardPaid",
      "type": "event"
    },
    {
      "anonymous": false,
      "inputs": [
        {
          "indexed": true,
          "internalType": "address",
          "name": "user",
          "type": "address"
        },
        {
          "indexed": true,
          "internalType": "uint256",
          "name": "pid",
          "type": "uint256"
        },
        {
          "indexed": false,
          "internalType": "uint256",
          "name": "amount",
          "type": "uint256"
        }
      ],
      "name": "Withdraw",
      "type": "event"
    },
    {
      "inputs": [],
      "name": "mSharePerSecond",
      "outputs": [
        {
          "internalType": "uint256",
          "name": "",
          "type": "uint256"
        }
      ],
      "stateMutability": "view",
      "type": "function"
    },
    {
      "inputs": [],
      "name": "mshare",
      "outputs": [
        {
          "internalType": "contract IERC20",
          "name": "",
          "type": "address"
        }
      ],
      "stateMutability": "view",
      "type": "function"
    },
    {
      "inputs": [],
      "name": "operator",
      "outputs": [
        {
          "internalType": "address",
          "name": "",
          "type": "address"
        }
      ],
      "stateMutability": "view",
      "type": "function"
    },
    {
      "inputs": [],
      "name": "poolEndTime",
      "outputs": [
        {
          "internalType": "uint256",
          "name": "",
          "type": "uint256"
        }
      ],
      "stateMutability": "view",
      "type": "function"
    },
    {
      "inputs": [
        {
          "internalType": "uint256",
          "name": "",
          "type": "uint256"
        }
      ],
      "name": "poolInfo",
      "outputs": [
        {
          "internalType": "contract IERC20",
          "name": "token",
          "type": "address"
        },
        {
          "internalType": "uint256",
          "name": "allocPoint",
          "type": "uint256"
        },
        {
          "internalType": "uint256",
          "name": "lastRewardTime",
          "type": "uint256"
        },
        {
          "internalType": "uint256",
          "name": "accMSharePerShare",
          "type": "uint256"
        },
        {
          "internalType": "bool",
          "name": "isStarted",
          "type": "bool"
        }
      ],
      "stateMutability": "view",
      "type": "function"
    },
    {
      "inputs": [],
      "name": "poolStartTime",
      "outputs": [
        {
          "internalType": "uint256",
          "name": "",
          "type": "uint256"
        }
      ],
      "stateMutability": "view",
      "type": "function"
    },
    {
      "inputs": [],
      "name": "runningTime",
      "outputs": [
        {
          "internalType": "uint256",
          "name": "",
          "type": "uint256"
        }
      ],
      "stateMutability": "view",
      "type": "function"
    },
    {
      "inputs": [],
      "name": "totalAllocPoint",
      "outputs": [
        {
          "internalType": "uint256",
          "name": "",
          "type": "uint256"
        }
      ],
      "stateMutability": "view",
      "type": "function"
    },
    {
      "inputs": [],
      "name": "totalRewards",
      "outputs": [
        {
          "internalType": "uint256",
          "name": "",
          "type": "uint256"
        }
      ],
      "stateMutability": "view",
      "type": "function"
    },
    {
      "inputs": [
        {
          "internalType": "uint256",
          "name": "",
          "type": "uint256"
        },
        {
          "internalType": "address",
          "name": "",
          "type": "address"
        }
      ],
      "name": "userInfo",
      "outputs": [
        {
          "internalType": "uint256",
          "name": "amount",
          "type": "uint256"
        },
        {
          "internalType": "uint256",
          "name": "rewardDebt",
          "type": "uint256"
        }
      ],
      "stateMutability": "view",
      "type": "function"
    },
    {
      "inputs": [
        {
          "internalType": "uint256",
          "name": "_pid",
          "type": "uint256"
        },
        {
          "internalType": "address",
          "name": "_user",
          "type": "address"
        }
      ],
      "name": "pendingShare",
      "outputs": [
        {
          "internalType": "uint256",
          "name": "",
          "type": "uint256"
        }
      ],
      "stateMutability": "view",
      "type": "function"
    },
    {
      "inputs": [
        {
          "internalType": "uint256",
          "name": "_fromTime",
          "type": "uint256"
        },
        {
          "internalType": "uint256",
          "name": "_toTime",
          "type": "uint256"
        }
      ],
      "name": "getGeneratedReward",
      "outputs": [
        {
          "internalType": "uint256",
          "name": "",
          "type": "uint256"
        }
      ],
      "stateMutability": "view",
      "type": "function"
    },
    {
      "inputs": [
        {
          "internalType": "uint256",
          "name": "_allocPoint",
          "type": "uint256"
        },
        {
          "internalType": "contract IERC20",
          "name": "_token",
          "type": "address"
        },
        {
          "internalType": "bool",
          "name": "_withUpdate",
          "type": "bool"
        },
        {
          "internalType": "uint256",
          "name": "_lastRewardTime",
          "type": "uint256"
        }
      ],
      "name": "add",
      "outputs": [],
      "stateMutability": "nonpayable",
      "type": "function"
    },
    {
      "inputs": [
        {
          "internalType": "uint256",
          "name": "_pid",
          "type": "uint256"
        },
        {
          "internalType": "uint256",
          "name": "_amount",
          "type": "uint256"
        }
      ],
      "name": "deposit",
      "outputs": [],
      "stateMutability": "nonpayable",
      "type": "function"
    },
    {
      "inputs": [
        {
          "internalType": "uint256",
          "name": "_pid",
          "type": "uint256"
        }
      ],
      "name": "emergencyWithdraw",
      "outputs": [],
      "stateMutability": "nonpayable",
      "type": "function"
    },
    {
      "inputs": [
        {
          "internalType": "contract IERC20",
          "name": "_token",
          "type": "address"
        },
        {
          "internalType": "uint256",
          "name": "amount",
          "type": "uint256"
        },
        {
          "internalType": "address",
          "name": "to",
          "type": "address"
        }
      ],
      "name": "governanceRecoverUnsupported",
      "outputs": [],
      "stateMutability": "nonpayable",
      "type": "function"
    },
    {
      "inputs": [
        {
          "internalType": "uint256",
          "name": "_pid",
          "type": "uint256"
        },
        {
          "internalType": "uint256",
          "name": "_allocPoint",
          "type": "uint256"
        }
      ],
      "name": "set",
      "outputs": [],
      "stateMutability": "nonpayable",
      "type": "function"
    },
    {
      "inputs": [
        {
          "internalType": "address",
          "name": "_operator",
          "type": "address"
        }
      ],
      "name": "setOperator",
      "outputs": [],
      "stateMutability": "nonpayable",
      "type": "function"
    },
    {
      "inputs": [
        {
          "internalType": "uint256",
          "name": "_pid",
          "type": "uint256"
        },
        {
          "internalType": "uint256",
          "name": "_amount",
          "type": "uint256"
        }
      ],
      "name": "withdraw",
      "outputs": [],
      "stateMutability": "nonpayable",
      "type": "function"
    },
    {
      "inputs": [],
      "name": "massUpdatePools",
      "outputs": [],
      "stateMutability": "nonpayable",
      "type": "function"
    },
    {
      "inputs": [
        {
          "internalType": "uint256",
          "name": "_pid",
          "type": "uint256"
        }
      ],
      "name": "updatePool",
      "outputs": [],
      "stateMutability": "nonpayable",
      "type": "function"
    }
  ],
  "bytecode": "0x608060405260006004553480156200001657600080fd5b5060405162001f0f38038062001f0f833981810160405260808110156200003c57600080fd5b50805160208201516040830151606090930151919290916001600160a01b0384166200009a5760405162461bcd60e51b815260040180806020018281038252602881526020018062001e9c6028913960400191505060405180910390fd5b81620000d85760405162461bcd60e51b815260040180806020018281038252602681526020018062001ec46026913960400191505060405180910390fd5b80620001165760405162461bcd60e51b815260040180806020018281038252602581526020018062001eea6025913960400191505060405180910390fd5b600180546001600160a01b0319166001600160a01b038616179055600982905560088190556200015382826200017d602090811b6200139e17901c565b600755505060058190556008540160065550600080546001600160a01b03191633179055620001e6565b6000808211620001d4576040805162461bcd60e51b815260206004820152601a60248201527f536166654d6174683a206469766973696f6e206279207a65726f000000000000604482015290519081900360640190fd5b818381620001de57fe5b049392505050565b611ca680620001f66000396000f3fe608060405234801561001057600080fd5b50600436106101775760003560e01c8063570ca735116100d8578063943f013d1161008c578063b3ab15fb11610066578063b3ab15fb146103e1578063cf4b55cb14610414578063e2bbb1581461044d57610177565b8063943f013d1461038a57806396805e5414610392578063a10a8765146103d957610177565b8063630b5ba1116100bd578063630b5ba1146103285780636e271dd51461033057806393f1a40b1461033857610177565b8063570ca735146103185780635f96dc111461032057610177565b8063231f0c6a1161012f57806351eb05a61161011457806351eb05a61461029b5780635312ea8e146102b857806354575af4146102d557610177565b8063231f0c6a14610255578063441a3e701461027857610177565b806317caf6f11161016057806317caf6f1146101f75780631ab06ee5146101ff5780631b80c5661461022457610177565b80630e15561a1461017c5780631526fe2714610196575b600080fd5b610184610470565b60408051918252519081900360200190f35b6101b3600480360360208110156101ac57600080fd5b5035610476565b6040805173ffffffffffffffffffffffffffffffffffffffff9096168652602086019490945284840192909252606084015215156080830152519081900360a00190f35b6101846104ce565b6102226004803603604081101561021557600080fd5b50803590602001356104d4565b005b61022c6105a9565b6040805173ffffffffffffffffffffffffffffffffffffffff9092168252519081900360200190f35b6101846004803603604081101561026b57600080fd5b50803590602001356105c5565b6102226004803603604081101561028e57600080fd5b508035906020013561068a565b610222600480360360208110156102b157600080fd5b50356108a0565b610222600480360360208110156102ce57600080fd5b5035610a42565b610222600480360360608110156102eb57600080fd5b5073ffffffffffffffffffffffffffffffffffffffff813581169160208101359160409091013516610aeb565b61022c610cdf565b610184610cfb565b610222610d01565b610184610d24565b6103716004803603604081101561034e57600080fd5b508035906020013573ffffffffffffffffffffffffffffffffffffffff16610d2a565b6040805192835260208301919091528051918290030190f35b610184610d4e565b610222600480360360808110156103a857600080fd5b5080359073ffffffffffffffffffffffffffffffffffffffff60208201351690604081013515159060600135610d54565b610184610fbb565b610222600480360360208110156103f757600080fd5b503573ffffffffffffffffffffffffffffffffffffffff16610fc1565b6101846004803603604081101561042a57600080fd5b508035906020013573ffffffffffffffffffffffffffffffffffffffff16611078565b6102226004803603604081101561046357600080fd5b50803590602001356111fa565b60095481565b6002818154811061048357fe5b60009182526020909120600590910201805460018201546002830154600384015460049094015473ffffffffffffffffffffffffffffffffffffffff90931694509092909160ff1685565b60045481565b60005473ffffffffffffffffffffffffffffffffffffffff163314610544576040517f08c379a000000000000000000000000000000000000000000000000000000000815260040180806020018281038252602c815260200180611bfa602c913960400191505060405180910390fd5b61054c610d01565b60006002838154811061055b57fe5b60009182526020909120600590910201600481015490915060ff16156105a25761059e82610598836001015460045461141f90919063ffffffff16565b90611496565b6004555b6001015550565b60015473ffffffffffffffffffffffffffffffffffffffff1681565b60008183106105d657506000610684565b600654821061063e5760065483106105f057506000610684565b60055483116106235761061c60075461061660055460065461141f90919063ffffffff16565b90611511565b9050610684565b61061c6007546106168560065461141f90919063ffffffff16565b600554821161064f57506000610684565b60055483116106735761061c6007546106166005548561141f90919063ffffffff16565b60075461061c90610616848661141f565b92915050565b600033905060006002848154811061069e57fe5b6000918252602080832087845260038252604080852073ffffffffffffffffffffffffffffffffffffffff88168652909252922080546005909202909201925084111561074c57604080517f08c379a000000000000000000000000000000000000000000000000000000000815260206004820152601260248201527f77697468647261773a206e6f7420676f6f640000000000000000000000000000604482015290519081900360640190fd5b610755856108a0565b6000610792826001015461078c670de0b6b3a76400006107868760030154876000015461151190919063ffffffff16565b9061139e565b9061141f565b905080156107f1576107a48482611584565b60408051828152905173ffffffffffffffffffffffffffffffffffffffff8616917fe2403640ba68fed3a2f88b7557551d1993f84b99bb10ff833f0cf8db0c5e0486919081900360200190a25b8415610828578154610803908661141f565b825582546108289073ffffffffffffffffffffffffffffffffffffffff16858761167a565b6003830154825461084691670de0b6b3a76400009161078691611511565b6001830155604080518681529051879173ffffffffffffffffffffffffffffffffffffffff8716917ff279e6a1f5e320cca91135676d9cb6e44ca8a08c0b88342bcdb1144f6511b5689181900360200190a3505050505050565b6000600282815481106108af57fe5b90600052602060002090600502019050806002015442116108d05750610a3f565b8054604080517f70a08231000000000000000000000000000000000000000000000000000000008152306004820152905160009273ffffffffffffffffffffffffffffffffffffffff16916370a08231916024808301926020929190829003018186803b15801561094057600080fd5b505afa158015610954573d6000803e3d6000fd5b505050506040513d602081101561096a57600080fd5b5051905080610980575042600290910155610a3f565b600482015460ff166109cf57600480830180547fffffffffffffffffffffffffffffffffffffffffffffffffffffffffffffff0016600190811790915583015490546109cb91611496565b6004555b60045415610a365760006109e78360020154426105c5565b90506000610a0860045461078686600101548561151190919063ffffffff16565b9050610a2e610a238461078684670de0b6b3a7640000611511565b600386015490611496565b600385015550505b50426002909101555b50565b600060028281548110610a5157fe5b600091825260208083208584526003825260408085203380875293528420805485825560018201959095556005909302018054909450919291610aae9173ffffffffffffffffffffffffffffffffffffffff91909116908361167a565b604080518281529051859133917fbb757047c2b5f3974fe26b7c10f732e7bce710b0952a71082702781e62ae05959181900360200190a350505050565b60005473ffffffffffffffffffffffffffffffffffffffff163314610b5b576040517f08c379a000000000000000000000000000000000000000000000000000000000815260040180806020018281038252602c815260200180611bfa602c913960400191505060405180910390fd5b60065462278d0001421015610cb95760015473ffffffffffffffffffffffffffffffffffffffff84811691161415610bf457604080517f08c379a000000000000000000000000000000000000000000000000000000000815260206004820152600660248201527f6d73686172650000000000000000000000000000000000000000000000000000604482015290519081900360640190fd5b60025460005b81811015610cb657600060028281548110610c1157fe5b60009182526020909120600590910201805490915073ffffffffffffffffffffffffffffffffffffffff87811691161415610cad57604080517f08c379a000000000000000000000000000000000000000000000000000000000815260206004820152600a60248201527f706f6f6c2e746f6b656e00000000000000000000000000000000000000000000604482015290519081900360640190fd5b50600101610bfa565b50505b610cda73ffffffffffffffffffffffffffffffffffffffff8416828461167a565b505050565b60005473ffffffffffffffffffffffffffffffffffffffff1681565b60055481565b60025460005b81811015610d2057610d18816108a0565b600101610d07565b5050565b60065481565b60036020908152600092835260408084209091529082529020805460019091015482565b60085481565b60005473ffffffffffffffffffffffffffffffffffffffff163314610dc4576040517f08c379a000000000000000000000000000000000000000000000000000000000815260040180806020018281038252602c815260200180611bfa602c913960400191505060405180910390fd5b610dcd83611707565b8115610ddb57610ddb610d01565b600554421015610e075780610df35750600554610e02565b600554811015610e0257506005545b610e1b565b801580610e1357504281105b15610e1b5750425b600060055482111580610e2e5750428211155b6040805160a08101825273ffffffffffffffffffffffffffffffffffffffff878116825260208201898152928201868152600060608401818152861580156080870190815260028054600181018255945295517f405787fa12a823e0f2b7631cc41b3ba8828b3321ca811111fa75cd3aa3bb5ace600590940293840180547fffffffffffffffffffffffff000000000000000000000000000000000000000016919096161790945594517f405787fa12a823e0f2b7631cc41b3ba8828b3321ca811111fa75cd3aa3bb5acf82015590517f405787fa12a823e0f2b7631cc41b3ba8828b3321ca811111fa75cd3aa3bb5ad082015592517f405787fa12a823e0f2b7631cc41b3ba8828b3321ca811111fa75cd3aa3bb5ad184015590517f405787fa12a823e0f2b7631cc41b3ba8828b3321ca811111fa75cd3aa3bb5ad290920180547fffffffffffffffffffffffffffffffffffffffffffffffffffffffffffffff001692151592909217909155909150610fb457600454610fb09086611496565b6004555b5050505050565b60075481565b60005473ffffffffffffffffffffffffffffffffffffffff163314611031576040517f08c379a000000000000000000000000000000000000000000000000000000000815260040180806020018281038252602c815260200180611bfa602c913960400191505060405180910390fd5b600080547fffffffffffffffffffffffff00000000000000000000000000000000000000001673ffffffffffffffffffffffffffffffffffffffff92909216919091179055565b6000806002848154811061108857fe5b600091825260208083208784526003808352604080862073ffffffffffffffffffffffffffffffffffffffff808b168852908552818720600590960290930191820154825482517f70a0823100000000000000000000000000000000000000000000000000000000815230600482015292519398509596909590949316926370a0823192602480840193829003018186803b15801561112657600080fd5b505afa15801561113a573d6000803e3d6000fd5b505050506040513d602081101561115057600080fd5b505160028501549091504211801561116757508015155b156111c457600061117c8560020154426105c5565b9050600061119d60045461078688600101548561151190919063ffffffff16565b90506111bf6111b88461078684670de0b6b3a7640000611511565b8590611496565b935050505b6111ef836001015461078c670de0b6b3a764000061078686886000015461151190919063ffffffff16565b979650505050505050565b600033905060006002848154811061120e57fe5b6000918252602080832087845260038252604080852073ffffffffffffffffffffffffffffffffffffffff88168652909252922060059091029091019150611255856108a0565b8054156112ee57600061128d826001015461078c670de0b6b3a76400006107868760030154876000015461151190919063ffffffff16565b905080156112ec5761129f8482611584565b60408051828152905173ffffffffffffffffffffffffffffffffffffffff8616917fe2403640ba68fed3a2f88b7557551d1993f84b99bb10ff833f0cf8db0c5e0486919081900360200190a25b505b83156113275781546113189073ffffffffffffffffffffffffffffffffffffffff168430876117d5565b80546113249085611496565b81555b6003820154815461134591670de0b6b3a76400009161078691611511565b6001820155604080518581529051869173ffffffffffffffffffffffffffffffffffffffff8616917f90890809c654f11d6e72a28fa60149770a0d11ec6c92319d6ceb2bb0a4ea1a159181900360200190a35050505050565b600080821161140e57604080517f08c379a000000000000000000000000000000000000000000000000000000000815260206004820152601a60248201527f536166654d6174683a206469766973696f6e206279207a65726f000000000000604482015290519081900360640190fd5b81838161141757fe5b049392505050565b60008282111561149057604080517f08c379a000000000000000000000000000000000000000000000000000000000815260206004820152601e60248201527f536166654d6174683a207375627472616374696f6e206f766572666c6f770000604482015290519081900360640190fd5b50900390565b60008282018381101561150a57604080517f08c379a000000000000000000000000000000000000000000000000000000000815260206004820152601b60248201527f536166654d6174683a206164646974696f6e206f766572666c6f770000000000604482015290519081900360640190fd5b9392505050565b60008261152057506000610684565b8282028284828161152d57fe5b041461150a576040517f08c379a0000000000000000000000000000000000000000000000000000000008152600401808060200182810382526021815260200180611c266021913960400191505060405180910390fd5b600154604080517f70a08231000000000000000000000000000000000000000000000000000000008152306004820152905160009273ffffffffffffffffffffffffffffffffffffffff16916370a08231916024808301926020929190829003018186803b1580156115f557600080fd5b505afa158015611609573d6000803e3d6000fd5b505050506040513d602081101561161f57600080fd5b505190508015610cda578082111561165a576001546116559073ffffffffffffffffffffffffffffffffffffffff16848361167a565b610cda565b600154610cda9073ffffffffffffffffffffffffffffffffffffffff1684845b6040805173ffffffffffffffffffffffffffffffffffffffff8416602482015260448082018490528251808303909101815260649091019091526020810180517bffffffffffffffffffffffffffffffffffffffffffffffffffffffff167fa9059cbb00000000000000000000000000000000000000000000000000000000179052610cda908490611870565b60025460005b81811015610cda578273ffffffffffffffffffffffffffffffffffffffff166002828154811061173957fe5b600091825260209091206005909102015473ffffffffffffffffffffffffffffffffffffffff1614156117cd57604080517f08c379a000000000000000000000000000000000000000000000000000000000815260206004820181905260248201527f4d5368617265526577617264506f6f6c3a206578697374696e6720706f6f6c3f604482015290519081900360640190fd5b60010161170d565b6040805173ffffffffffffffffffffffffffffffffffffffff80861660248301528416604482015260648082018490528251808303909101815260849091019091526020810180517bffffffffffffffffffffffffffffffffffffffffffffffffffffffff167f23b872dd0000000000000000000000000000000000000000000000000000000017905261186a908590611870565b50505050565b60606118d2826040518060400160405280602081526020017f5361666545524332303a206c6f772d6c6576656c2063616c6c206661696c65648152508573ffffffffffffffffffffffffffffffffffffffff166119489092919063ffffffff16565b805190915015610cda578080602001905160208110156118f157600080fd5b5051610cda576040517f08c379a000000000000000000000000000000000000000000000000000000000815260040180806020018281038252602a815260200180611c47602a913960400191505060405180910390fd5b6060611957848460008561195f565b949350505050565b6060824710156119ba576040517f08c379a0000000000000000000000000000000000000000000000000000000008152600401808060200182810382526026815260200180611bd46026913960400191505060405180910390fd5b6119c385611b0f565b611a2e57604080517f08c379a000000000000000000000000000000000000000000000000000000000815260206004820152601d60248201527f416464726573733a2063616c6c20746f206e6f6e2d636f6e7472616374000000604482015290519081900360640190fd5b600060608673ffffffffffffffffffffffffffffffffffffffff1685876040518082805190602001908083835b60208310611a9857805182527fffffffffffffffffffffffffffffffffffffffffffffffffffffffffffffffe09092019160209182019101611a5b565b6001836020036101000a03801982511681845116808217855250505050505090500191505060006040518083038185875af1925050503d8060008114611afa576040519150601f19603f3d011682016040523d82523d6000602084013e611aff565b606091505b50915091506111ef828286611b15565b3b151590565b60608315611b2457508161150a565b825115611b345782518084602001fd5b816040517f08c379a00000000000000000000000000000000000000000000000000000000081526004018080602001828103825283818151815260200191508051906020019080838360005b83811015611b98578181015183820152602001611b80565b50505050905090810190601f168015611bc55780820380516001836020036101000a031916815260200191505b509250505060405180910390fdfe416464726573733a20696e73756666696369656e742062616c616e636520666f722063616c6c4d5368617265526577617264506f6f6c3a2063616c6c6572206973206e6f7420746865206f70657261746f72536166654d6174683a206d756c7469706c69636174696f6e206f766572666c6f775361666545524332303a204552433230206f7065726174696f6e20646964206e6f742073756363656564a26469706673582212205a5882fcd62c288cf4b9b6cc996c133069ba708e7efbe0400b653a70a7b6317c64736f6c634300060c00334d5368617265526577617264506f6f6c3a206d7368617265206973207a65726f20616464726573734d5368617265526577617264506f6f6c3a20746f74616c52657761726473206973207a65726f4d5368617265526577617264506f6f6c3a2072756e6e696e6754696d65206973207a65726f",
  "immutableReferences": {},
  "source": "// SPDX-License-Identifier: MIT\r\npragma solidity 0.6.12;\r\n\r\nimport \"@openzeppelin/contracts/token/ERC20/SafeERC20.sol\";\r\n\r\ncontract MShareRewardPool {\r\n    using SafeMath for uint256;\r\n    using SafeERC20 for IERC20;\r\n\r\n    struct UserInfo {\r\n        uint256 amount;\r\n        uint256 rewardDebt;\r\n    }\r\n\r\n    struct PoolInfo {\r\n        IERC20 token;\r\n        uint256 allocPoint;\r\n        uint256 lastRewardTime;\r\n        uint256 accMSharePerShare;\r\n        bool isStarted;\r\n    }\r\n\r\n    address public operator;\r\n    IERC20 public mshare;\r\n    PoolInfo[] public poolInfo;\r\n    mapping(uint256 => mapping(address => UserInfo)) public userInfo;\r\n    uint256 public totalAllocPoint = 0;\r\n    uint256 public poolStartTime;\r\n    uint256 public poolEndTime;\r\n\r\n    uint256 public mSharePerSecond;\r\n    uint256 public runningTime;\r\n    uint256 public totalRewards;\r\n\r\n    function pendingShare(uint256 _pid, address _user)\r\n        external\r\n        view\r\n        returns (uint256)\r\n    {\r\n        PoolInfo storage pool = poolInfo[_pid];\r\n        UserInfo storage user = userInfo[_pid][_user];\r\n        uint256 accMSharePerShare = pool.accMSharePerShare;\r\n        uint256 tokenSupply = pool.token.balanceOf(address(this));\r\n        if (block.timestamp > pool.lastRewardTime && tokenSupply != 0) {\r\n            uint256 _generatedReward = getGeneratedReward(\r\n                pool.lastRewardTime,\r\n                block.timestamp\r\n            );\r\n            uint256 _mshareReward = _generatedReward.mul(pool.allocPoint).div(\r\n                totalAllocPoint\r\n            );\r\n            accMSharePerShare = accMSharePerShare.add(\r\n                _mshareReward.mul(1e18).div(tokenSupply)\r\n            );\r\n        }\r\n        return\r\n            user.amount.mul(accMSharePerShare).div(1e18).sub(user.rewardDebt);\r\n    }\r\n\r\n    function getGeneratedReward(uint256 _fromTime, uint256 _toTime)\r\n        public\r\n        view\r\n        returns (uint256)\r\n    {\r\n        if (_fromTime >= _toTime) return 0;\r\n        if (_toTime >= poolEndTime) {\r\n            if (_fromTime >= poolEndTime) return 0;\r\n            if (_fromTime <= poolStartTime)\r\n                return poolEndTime.sub(poolStartTime).mul(mSharePerSecond);\r\n            return poolEndTime.sub(_fromTime).mul(mSharePerSecond);\r\n        } else {\r\n            if (_toTime <= poolStartTime) return 0;\r\n            if (_fromTime <= poolStartTime)\r\n                return _toTime.sub(poolStartTime).mul(mSharePerSecond);\r\n            return _toTime.sub(_fromTime).mul(mSharePerSecond);\r\n        }\r\n    }\r\n\r\n    function checkPoolDuplicate(IERC20 _token) internal view {\r\n        uint256 length = poolInfo.length;\r\n        for (uint256 pid = 0; pid < length; ++pid) {\r\n            require(\r\n                poolInfo[pid].token != _token,\r\n                \"MShareRewardPool: existing pool?\"\r\n            );\r\n        }\r\n    }\r\n\r\n    event Deposit(address indexed user, uint256 indexed pid, uint256 amount);\r\n    event Withdraw(address indexed user, uint256 indexed pid, uint256 amount);\r\n    event EmergencyWithdraw(\r\n        address indexed user,\r\n        uint256 indexed pid,\r\n        uint256 amount\r\n    );\r\n    event RewardPaid(address indexed user, uint256 amount);\r\n\r\n    constructor(\r\n        address _mshare,\r\n        uint256 _poolStartTime,\r\n        uint256 _totalRewards,\r\n        uint256 _runningTime\r\n    ) public {\r\n        //        require(block.timestamp < _poolStartTime, \"late\");\r\n        require(\r\n            _mshare != address(0),\r\n            \"MShareRewardPool: mshare is zero address\"\r\n        );\r\n        require(_totalRewards != 0, \"MShareRewardPool: totalRewards is zero\");\r\n        require(_runningTime != 0, \"MShareRewardPool: runningTime is zero\");\r\n        mshare = IERC20(_mshare);\r\n        totalRewards = _totalRewards;\r\n        runningTime = _runningTime;\r\n        mSharePerSecond = totalRewards.div(runningTime);\r\n        poolStartTime = _poolStartTime;\r\n        poolEndTime = poolStartTime + runningTime;\r\n        operator = msg.sender;\r\n    }\r\n\r\n    function add(\r\n        uint256 _allocPoint,\r\n        IERC20 _token,\r\n        bool _withUpdate,\r\n        uint256 _lastRewardTime\r\n    ) external onlyOperator {\r\n        checkPoolDuplicate(_token);\r\n        if (_withUpdate) {\r\n            massUpdatePools();\r\n        }\r\n        if (block.timestamp < poolStartTime) {\r\n            if (_lastRewardTime == 0) {\r\n                _lastRewardTime = poolStartTime;\r\n            } else {\r\n                if (_lastRewardTime < poolStartTime) {\r\n                    _lastRewardTime = poolStartTime;\r\n                }\r\n            }\r\n        } else {\r\n            if (_lastRewardTime == 0 || _lastRewardTime < block.timestamp) {\r\n                _lastRewardTime = block.timestamp;\r\n            }\r\n        }\r\n        bool _isStarted = (_lastRewardTime <= poolStartTime) ||\r\n            (_lastRewardTime <= block.timestamp);\r\n        poolInfo.push(\r\n            PoolInfo({\r\n                token: _token,\r\n                allocPoint: _allocPoint,\r\n                lastRewardTime: _lastRewardTime,\r\n                accMSharePerShare: 0,\r\n                isStarted: _isStarted\r\n            })\r\n        );\r\n        if (_isStarted) {\r\n            totalAllocPoint = totalAllocPoint.add(_allocPoint);\r\n        }\r\n    }\r\n\r\n    function deposit(uint256 _pid, uint256 _amount) external {\r\n        address _sender = msg.sender;\r\n        PoolInfo storage pool = poolInfo[_pid];\r\n        UserInfo storage user = userInfo[_pid][_sender];\r\n        updatePool(_pid);\r\n        if (user.amount > 0) {\r\n            uint256 _pending = user\r\n                .amount\r\n                .mul(pool.accMSharePerShare)\r\n                .div(1e18)\r\n                .sub(user.rewardDebt);\r\n            if (_pending > 0) {\r\n                safeMShareTransfer(_sender, _pending);\r\n                emit RewardPaid(_sender, _pending);\r\n            }\r\n        }\r\n        if (_amount > 0) {\r\n            pool.token.safeTransferFrom(_sender, address(this), _amount);\r\n            user.amount = user.amount.add(_amount);\r\n        }\r\n        user.rewardDebt = user.amount.mul(pool.accMSharePerShare).div(1e18);\r\n        emit Deposit(_sender, _pid, _amount);\r\n    }\r\n\r\n    function emergencyWithdraw(uint256 _pid) external {\r\n        PoolInfo storage pool = poolInfo[_pid];\r\n        UserInfo storage user = userInfo[_pid][msg.sender];\r\n        uint256 _amount = user.amount;\r\n        user.amount = 0;\r\n        user.rewardDebt = 0;\r\n        pool.token.safeTransfer(msg.sender, _amount);\r\n        emit EmergencyWithdraw(msg.sender, _pid, _amount);\r\n    }\r\n\r\n    function governanceRecoverUnsupported(\r\n        IERC20 _token,\r\n        uint256 amount,\r\n        address to\r\n    ) external onlyOperator {\r\n        if (block.timestamp < poolEndTime + 30 days) {\r\n            require(_token != mshare, \"mshare\");\r\n            uint256 length = poolInfo.length;\r\n            for (uint256 pid = 0; pid < length; ++pid) {\r\n                PoolInfo storage pool = poolInfo[pid];\r\n                require(_token != pool.token, \"pool.token\");\r\n            }\r\n        }\r\n        _token.safeTransfer(to, amount);\r\n    }\r\n\r\n    function set(uint256 _pid, uint256 _allocPoint) external onlyOperator {\r\n        massUpdatePools();\r\n        PoolInfo storage pool = poolInfo[_pid];\r\n        if (pool.isStarted) {\r\n            totalAllocPoint = totalAllocPoint.sub(pool.allocPoint).add(\r\n                _allocPoint\r\n            );\r\n        }\r\n        pool.allocPoint = _allocPoint;\r\n    }\r\n\r\n    function setOperator(address _operator) external onlyOperator {\r\n        operator = _operator;\r\n    }\r\n\r\n    function withdraw(uint256 _pid, uint256 _amount) external {\r\n        address _sender = msg.sender;\r\n        PoolInfo storage pool = poolInfo[_pid];\r\n        UserInfo storage user = userInfo[_pid][_sender];\r\n        require(user.amount >= _amount, \"withdraw: not good\");\r\n        updatePool(_pid);\r\n        uint256 _pending = user\r\n            .amount\r\n            .mul(pool.accMSharePerShare)\r\n            .div(1e18)\r\n            .sub(user.rewardDebt);\r\n        if (_pending > 0) {\r\n            safeMShareTransfer(_sender, _pending);\r\n            emit RewardPaid(_sender, _pending);\r\n        }\r\n        if (_amount > 0) {\r\n            user.amount = user.amount.sub(_amount);\r\n            pool.token.safeTransfer(_sender, _amount);\r\n        }\r\n        user.rewardDebt = user.amount.mul(pool.accMSharePerShare).div(1e18);\r\n        emit Withdraw(_sender, _pid, _amount);\r\n    }\r\n\r\n    function massUpdatePools() public {\r\n        uint256 length = poolInfo.length;\r\n        for (uint256 pid = 0; pid < length; ++pid) {\r\n            updatePool(pid);\r\n        }\r\n    }\r\n\r\n    function updatePool(uint256 _pid) public {\r\n        PoolInfo storage pool = poolInfo[_pid];\r\n        if (block.timestamp <= pool.lastRewardTime) {\r\n            return;\r\n        }\r\n        uint256 tokenSupply = pool.token.balanceOf(address(this));\r\n        if (tokenSupply == 0) {\r\n            pool.lastRewardTime = block.timestamp;\r\n            return;\r\n        }\r\n        if (!pool.isStarted) {\r\n            pool.isStarted = true;\r\n            totalAllocPoint = totalAllocPoint.add(pool.allocPoint);\r\n        }\r\n        if (totalAllocPoint > 0) {\r\n            uint256 _generatedReward = getGeneratedReward(\r\n                pool.lastRewardTime,\r\n                block.timestamp\r\n            );\r\n            uint256 _mshareReward = _generatedReward.mul(pool.allocPoint).div(\r\n                totalAllocPoint\r\n            );\r\n            pool.accMSharePerShare = pool.accMSharePerShare.add(\r\n                _mshareReward.mul(1e18).div(tokenSupply)\r\n            );\r\n        }\r\n        pool.lastRewardTime = block.timestamp;\r\n    }\r\n\r\n    function safeMShareTransfer(address _to, uint256 _amount) internal {\r\n        uint256 _mshareBal = mshare.balanceOf(address(this));\r\n        if (_mshareBal > 0) {\r\n            if (_amount > _mshareBal) {\r\n                mshare.safeTransfer(_to, _mshareBal);\r\n            } else {\r\n                mshare.safeTransfer(_to, _amount);\r\n            }\r\n        }\r\n    }\r\n\r\n    modifier onlyOperator() {\r\n        require(\r\n            operator == msg.sender,\r\n            \"MShareRewardPool: caller is not the operator\"\r\n        );\r\n        _;\r\n    }\r\n}\r\n",
  "sourcePath": "E:\\projects\\Blockchain\\Upwork\\defi_rent\\hamster-contracts-main\\contracts\\MShareRewardPool.sol",
  "compiler": {
    "name": "solc",
    "version": "0.6.12+commit.27d51765.Emscripten.clang"
  },
  "schemaVersion": "3.4.3",
  "updatedAt": "2022-03-21T18:38:32.375Z",
  "devdoc": {
    "kind": "dev",
    "methods": {},
    "version": 1
  },
  "userdoc": {
    "kind": "user",
    "methods": {},
    "version": 1
  }
}