{
  "contractName": "Oracle",
  "abi": [
    {
      "inputs": [
        {
          "internalType": "contract IPancakePair",
          "name": "_pair",
          "type": "address"
        },
        {
          "internalType": "uint256",
          "name": "_period",
          "type": "uint256"
        },
        {
          "internalType": "uint256",
          "name": "_startTime",
          "type": "uint256"
        }
      ],
      "stateMutability": "nonpayable",
      "type": "constructor"
    },
    {
      "anonymous": false,
      "inputs": [
        {
          "indexed": true,
          "internalType": "address",
          "name": "previousOperator",
          "type": "address"
        },
        {
          "indexed": true,
          "internalType": "address",
          "name": "newOperator",
          "type": "address"
        }
      ],
      "name": "OperatorTransferred",
      "type": "event"
    },
    {
      "anonymous": false,
      "inputs": [
        {
          "indexed": true,
          "internalType": "address",
          "name": "previousOwner",
          "type": "address"
        },
        {
          "indexed": true,
          "internalType": "address",
          "name": "newOwner",
          "type": "address"
        }
      ],
      "name": "OwnershipTransferred",
      "type": "event"
    },
    {
      "anonymous": false,
      "inputs": [
        {
          "indexed": false,
          "internalType": "uint256",
          "name": "price0CumulativeLast",
          "type": "uint256"
        },
        {
          "indexed": false,
          "internalType": "uint256",
          "name": "price1CumulativeLast",
          "type": "uint256"
        }
      ],
      "name": "Updated",
      "type": "event"
    },
    {
      "inputs": [],
      "name": "blockTimestampLast",
      "outputs": [
        {
          "internalType": "uint32",
          "name": "",
          "type": "uint32"
        }
      ],
      "stateMutability": "view",
      "type": "function",
      "constant": true
    },
    {
      "inputs": [],
      "name": "getCurrentEpoch",
      "outputs": [
        {
          "internalType": "uint256",
          "name": "",
          "type": "uint256"
        }
      ],
      "stateMutability": "view",
      "type": "function",
      "constant": true
    },
    {
      "inputs": [],
      "name": "getLastEpochTime",
      "outputs": [
        {
          "internalType": "uint256",
          "name": "",
          "type": "uint256"
        }
      ],
      "stateMutability": "view",
      "type": "function",
      "constant": true
    },
    {
      "inputs": [],
      "name": "getPeriod",
      "outputs": [
        {
          "internalType": "uint256",
          "name": "",
          "type": "uint256"
        }
      ],
      "stateMutability": "view",
      "type": "function",
      "constant": true
    },
    {
      "inputs": [],
      "name": "getStartTime",
      "outputs": [
        {
          "internalType": "uint256",
          "name": "",
          "type": "uint256"
        }
      ],
      "stateMutability": "view",
      "type": "function",
      "constant": true
    },
    {
      "inputs": [],
      "name": "isOperator",
      "outputs": [
        {
          "internalType": "bool",
          "name": "",
          "type": "bool"
        }
      ],
      "stateMutability": "view",
      "type": "function",
      "constant": true
    },
    {
      "inputs": [],
      "name": "nextEpochPoint",
      "outputs": [
        {
          "internalType": "uint256",
          "name": "",
          "type": "uint256"
        }
      ],
      "stateMutability": "view",
      "type": "function",
      "constant": true
    },
    {
      "inputs": [],
      "name": "operator",
      "outputs": [
        {
          "internalType": "address",
          "name": "",
          "type": "address"
        }
      ],
      "stateMutability": "view",
      "type": "function",
      "constant": true
    },
    {
      "inputs": [],
      "name": "owner",
      "outputs": [
        {
          "internalType": "address",
          "name": "",
          "type": "address"
        }
      ],
      "stateMutability": "view",
      "type": "function",
      "constant": true
    },
    {
      "inputs": [],
      "name": "pair",
      "outputs": [
        {
          "internalType": "contract IPancakePair",
          "name": "",
          "type": "address"
        }
      ],
      "stateMutability": "view",
      "type": "function",
      "constant": true
    },
    {
      "inputs": [],
      "name": "price0Average",
      "outputs": [
        {
          "internalType": "uint224",
          "name": "_x",
          "type": "uint224"
        }
      ],
      "stateMutability": "view",
      "type": "function",
      "constant": true
    },
    {
      "inputs": [],
      "name": "price0CumulativeLast",
      "outputs": [
        {
          "internalType": "uint256",
          "name": "",
          "type": "uint256"
        }
      ],
      "stateMutability": "view",
      "type": "function",
      "constant": true
    },
    {
      "inputs": [],
      "name": "price1Average",
      "outputs": [
        {
          "internalType": "uint224",
          "name": "_x",
          "type": "uint224"
        }
      ],
      "stateMutability": "view",
      "type": "function",
      "constant": true
    },
    {
      "inputs": [],
      "name": "price1CumulativeLast",
      "outputs": [
        {
          "internalType": "uint256",
          "name": "",
          "type": "uint256"
        }
      ],
      "stateMutability": "view",
      "type": "function",
      "constant": true
    },
    {
      "inputs": [],
      "name": "renounceOwnership",
      "outputs": [],
      "stateMutability": "nonpayable",
      "type": "function"
    },
    {
      "inputs": [
        {
          "internalType": "uint256",
          "name": "_epoch",
          "type": "uint256"
        }
      ],
      "name": "setEpoch",
      "outputs": [],
      "stateMutability": "nonpayable",
      "type": "function"
    },
    {
      "inputs": [
        {
          "internalType": "uint256",
          "name": "_period",
          "type": "uint256"
        }
      ],
      "name": "setPeriod",
      "outputs": [],
      "stateMutability": "nonpayable",
      "type": "function"
    },
    {
      "inputs": [],
      "name": "token0",
      "outputs": [
        {
          "internalType": "address",
          "name": "",
          "type": "address"
        }
      ],
      "stateMutability": "view",
      "type": "function",
      "constant": true
    },
    {
      "inputs": [],
      "name": "token1",
      "outputs": [
        {
          "internalType": "address",
          "name": "",
          "type": "address"
        }
      ],
      "stateMutability": "view",
      "type": "function",
      "constant": true
    },
    {
      "inputs": [
        {
          "internalType": "address",
          "name": "newOperator_",
          "type": "address"
        }
      ],
      "name": "transferOperator",
      "outputs": [],
      "stateMutability": "nonpayable",
      "type": "function"
    },
    {
      "inputs": [
        {
          "internalType": "address",
          "name": "newOwner",
          "type": "address"
        }
      ],
      "name": "transferOwnership",
      "outputs": [],
      "stateMutability": "nonpayable",
      "type": "function"
    },
    {
      "inputs": [
        {
          "internalType": "address",
          "name": "_token",
          "type": "address"
        },
        {
          "internalType": "uint256",
          "name": "_amountIn",
          "type": "uint256"
        }
      ],
      "name": "consult",
      "outputs": [
        {
          "internalType": "uint144",
          "name": "amountOut",
          "type": "uint144"
        }
      ],
      "stateMutability": "view",
      "type": "function",
      "constant": true
    },
    {
      "inputs": [
        {
          "internalType": "address",
          "name": "_token",
          "type": "address"
        },
        {
          "internalType": "uint256",
          "name": "_amountIn",
          "type": "uint256"
        }
      ],
      "name": "twap",
      "outputs": [
        {
          "internalType": "uint144",
          "name": "_amountOut",
          "type": "uint144"
        }
      ],
      "stateMutability": "view",
      "type": "function",
      "constant": true
    },
    {
      "inputs": [],
      "name": "update",
      "outputs": [],
      "stateMutability": "nonpayable",
      "type": "function"
    }
  ],
  "bytecode": "0x60806040523480156200001157600080fd5b5060405162001d1638038062001d16833981810160405260608110156200003757600080fd5b508051602082015160409092015190919081816000806200005762000462565b600080546001600160a01b0319166001600160a01b0383169081178255604051929350917f8be0079c531659141344cd1fd0a4f28419497f9722a3daafe3b4186f6b6457e0908290a350620000ab62000462565b600180546001600160a01b0319166001600160a01b0392831617908190556040519116906000907f74da04524d50c64947f5dd5381ef1a4dca5cba8ed1d816243f9e48aa0b5617ed908290a36002839055600382905560058190556200011e828462000466602090811b6200113617901c565b6004908155600880546001600160a01b0319166001600160a01b03898116919091179182905560408051630dfe168160e01b81529051929091169550630dfe16819450808301935060209290829003018186803b1580156200017f57600080fd5b505afa15801562000194573d6000803e3d6000fd5b505050506040513d6020811015620001ab57600080fd5b5051600680546001600160a01b0319166001600160a01b039283161790556008546040805163d21220a760e01b81529051919092169163d21220a7916004808301926020929190829003018186803b1580156200020757600080fd5b505afa1580156200021c573d6000803e3d6000fd5b505050506040513d60208110156200023357600080fd5b5051600780546001600160a01b0319166001600160a01b0392831617905560085460408051635909c0d560e01b815290519190921691635909c0d5916004808301926020929190829003018186803b1580156200028f57600080fd5b505afa158015620002a4573d6000803e3d6000fd5b505050506040513d6020811015620002bb57600080fd5b505160095560085460408051635a3d549360e01b815290516001600160a01b0390921691635a3d549391600480820192602092909190829003018186803b1580156200030657600080fd5b505afa1580156200031b573d6000803e3d6000fd5b505050506040513d60208110156200033257600080fd5b5051600a5560085460408051630240bc6b60e21b8152905160009283926001600160a01b0390911691630902f1ac91600480820192606092909190829003018186803b1580156200038257600080fd5b505afa15801562000397573d6000803e3d6000fd5b505050506040513d6060811015620003ae57600080fd5b50805160208201516040909201516008805463ffffffff909216600160a01b0263ffffffff60a01b19909216919091179055925090506001600160701b038216158015906200040557506001600160701b03811615155b62000457576040805162461bcd60e51b815260206004820152601360248201527f4f7261636c653a204e4f5f524553455256455300000000000000000000000000604482015290519081900360640190fd5b5050505050620004c4565b3390565b600082821115620004be576040805162461bcd60e51b815260206004820152601e60248201527f536166654d6174683a207375627472616374696f6e206f766572666c6f770000604482015290519081900360640190fd5b50900390565b61184280620004d46000396000f3fe608060405234801561001057600080fd5b50600436106101985760003560e01c8063715018a6116100e3578063ba5224581161008c578063c828371e11610066578063c828371e146103be578063d21220a7146103c6578063f2fde38b146103ce57610198565b8063ba5224581461038d578063c5700a0214610395578063c5967c26146103b657610198565b8063a6bb4539116100bd578063a6bb453914610375578063a8aa1b311461037d578063b97dd9e21461038557610198565b8063715018a61461035d5780638da5cb5b14610365578063a2e620451461036d57610198565b80634456eda2116101455780635a3d54931161011f5780635a3d5493146102e35780635e6aaf2c146102eb5780636808a1281461032457610198565b80634456eda2146102b7578063570ca735146102d35780635909c0d5146102db57610198565b80631ed24195116101765780631ed241951461020a57806329605e77146102245780633ddac9531461025757610198565b80630ceb2cef1461019d5780630dfe1681146101bc5780630f3a9f65146101ed575b600080fd5b6101ba600480360360208110156101b357600080fd5b5035610401565b005b6101c4610476565b6040805173ffffffffffffffffffffffffffffffffffffffff9092168252519081900360200190f35b6101ba6004803603602081101561020357600080fd5b5035610492565b610212610587565b60408051918252519081900360200190f35b6101ba6004803603602081101561023a57600080fd5b503573ffffffffffffffffffffffffffffffffffffffff1661058d565b6102906004803603604081101561026d57600080fd5b5073ffffffffffffffffffffffffffffffffffffffff8135169060200135610641565b6040805171ffffffffffffffffffffffffffffffffffff9092168252519081900360200190f35b6102bf61077d565b604080519115158252519081900360200190f35b6101c46107bd565b6102126107d9565b6102126107df565b6102f36107e5565b604080517bffffffffffffffffffffffffffffffffffffffffffffffffffffffff9092168252519081900360200190f35b6102906004803603604081101561033a57600080fd5b5073ffffffffffffffffffffffffffffffffffffffff8135169060200135610809565b6101ba61092c565b6101c4610a43565b6101ba610a5f565b6102f3610ee5565b6101c4610f09565b610212610f25565b610212610f2b565b61039d610f31565b6040805163ffffffff9092168252519081900360200190f35b610212610f55565b610212610f73565b6101c4610f79565b6101ba600480360360208110156103e457600080fd5b503573ffffffffffffffffffffffffffffffffffffffff16610f95565b60015473ffffffffffffffffffffffffffffffffffffffff163314610471576040517f08c379a00000000000000000000000000000000000000000000000000000000081526004018080602001828103825260248152602001806117c66024913960400191505060405180910390fd5b600555565b60065473ffffffffffffffffffffffffffffffffffffffff1681565b60015473ffffffffffffffffffffffffffffffffffffffff163314610502576040517f08c379a00000000000000000000000000000000000000000000000000000000081526004018080602001828103825260248152602001806117c66024913960400191505060405180910390fd5b610e10811015801561051757506202a3008111155b61058257604080517f08c379a000000000000000000000000000000000000000000000000000000000815260206004820152601560248201527f5f706572696f643a206f7574206f662072616e67650000000000000000000000604482015290519081900360640190fd5b600255565b60025490565b6105956111ad565b73ffffffffffffffffffffffffffffffffffffffff166105b3610a43565b73ffffffffffffffffffffffffffffffffffffffff161461063557604080517f08c379a000000000000000000000000000000000000000000000000000000000815260206004820181905260248201527f4f776e61626c653a2063616c6c6572206973206e6f7420746865206f776e6572604482015290519081900360640190fd5b61063e816111b1565b50565b60065460009073ffffffffffffffffffffffffffffffffffffffff848116911614156106af576040805160208101909152600b547bffffffffffffffffffffffffffffffffffffffffffffffffffffffff1681526106a8906106a390846112a7565b611354565b9050610777565b60075473ffffffffffffffffffffffffffffffffffffffff84811691161461073857604080517f08c379a000000000000000000000000000000000000000000000000000000000815260206004820152601560248201527f4f7261636c653a20494e56414c49445f544f4b454e0000000000000000000000604482015290519081900360640190fd5b6040805160208101909152600c547bffffffffffffffffffffffffffffffffffffffffffffffffffffffff168152610774906106a390846112a7565b90505b92915050565b60015460009073ffffffffffffffffffffffffffffffffffffffff166107a16111ad565b73ffffffffffffffffffffffffffffffffffffffff1614905090565b60015473ffffffffffffffffffffffffffffffffffffffff1690565b60095481565b600a5481565b600c547bffffffffffffffffffffffffffffffffffffffffffffffffffffffff1681565b6008546000908190819081906108349073ffffffffffffffffffffffffffffffffffffffff1661135b565b600854600654939650919450925063ffffffff740100000000000000000000000000000000000000009091041682039073ffffffffffffffffffffffffffffffffffffffff888116911614156108d7576108d06106a38760405180602001604052808563ffffffff166009548a03816108a957fe5b047bffffffffffffffffffffffffffffffffffffffffffffffffffffffff169052906112a7565b9450610922565b60075473ffffffffffffffffffffffffffffffffffffffff888116911614156109225761091f6106a38760405180602001604052808563ffffffff16600a548903816108a957fe5b94505b5050505092915050565b6109346111ad565b73ffffffffffffffffffffffffffffffffffffffff16610952610a43565b73ffffffffffffffffffffffffffffffffffffffff16146109d457604080517f08c379a000000000000000000000000000000000000000000000000000000000815260206004820181905260248201527f4f776e61626c653a2063616c6c6572206973206e6f7420746865206f776e6572604482015290519081900360640190fd5b6000805460405173ffffffffffffffffffffffffffffffffffffffff909116907f8be0079c531659141344cd1fd0a4f28419497f9722a3daafe3b4186f6b6457e0908390a3600080547fffffffffffffffffffffffff0000000000000000000000000000000000000000169055565b60005473ffffffffffffffffffffffffffffffffffffffff1690565b6000610a69610f55565b905080421015610cdf57610a7b6107bd565b73ffffffffffffffffffffffffffffffffffffffff163373ffffffffffffffffffffffffffffffffffffffff1614610afe576040517f08c379a000000000000000000000000000000000000000000000000000000000815260040180806020018281038252602a81526020018061176f602a913960400191505060405180910390fd5b60085460009081908190610b279073ffffffffffffffffffffffffffffffffffffffff1661135b565b600854929550909350915063ffffffff7401000000000000000000000000000000000000000090910481168203908116610b645750505050610cda565b60405180602001604052808263ffffffff16600954870381610b8257fe5b047bffffffffffffffffffffffffffffffffffffffffffffffffffffffff9081169091529051600b80547fffffffff0000000000000000000000000000000000000000000000000000000016919092161790556040805160208101909152600a54819063ffffffff841690860381610bf657fe5b047bffffffffffffffffffffffffffffffffffffffffffffffffffffffff9081169091529051600c80547fffffffff0000000000000000000000000000000000000000000000000000000016919092161790556009849055600a839055600880547fffffffffffffffff00000000ffffffffffffffffffffffffffffffffffffffff167401000000000000000000000000000000000000000063ffffffff851602179055604080518581526020810185905281517fd78a0cb8bb633d06981248b816e7bd33c2a35a6089241d099fa519e361cab902929181900390910190a1505050505b61063e565b60085460009081908190610d089073ffffffffffffffffffffffffffffffffffffffff1661135b565b600854929550909350915063ffffffff7401000000000000000000000000000000000000000090910481168203908116610d455750505050610ebb565b60405180602001604052808263ffffffff16600954870381610d6357fe5b047bffffffffffffffffffffffffffffffffffffffffffffffffffffffff9081169091529051600b80547fffffffff0000000000000000000000000000000000000000000000000000000016919092161790556040805160208101909152600a54819063ffffffff841690860381610dd757fe5b047bffffffffffffffffffffffffffffffffffffffffffffffffffffffff9081169091529051600c80547fffffffff0000000000000000000000000000000000000000000000000000000016919092161790556009849055600a839055600880547fffffffffffffffff00000000ffffffffffffffffffffffffffffffffffffffff167401000000000000000000000000000000000000000063ffffffff851602179055604080518581526020810185905281517fd78a0cb8bb633d06981248b816e7bd33c2a35a6089241d099fa519e361cab902929181900390910190a1505050505b6004819055600580546001019055610ed1610f55565b905080421015610ee05761063e565b610ebb565b600b547bffffffffffffffffffffffffffffffffffffffffffffffffffffffff1681565b60085473ffffffffffffffffffffffffffffffffffffffff1681565b60055490565b60045490565b60085474010000000000000000000000000000000000000000900463ffffffff1681565b6000610f6e6002546004546115ad90919063ffffffff16565b905090565b60035490565b60075473ffffffffffffffffffffffffffffffffffffffff1681565b610f9d6111ad565b73ffffffffffffffffffffffffffffffffffffffff16610fbb610a43565b73ffffffffffffffffffffffffffffffffffffffff161461103d57604080517f08c379a000000000000000000000000000000000000000000000000000000000815260206004820181905260248201527f4f776e61626c653a2063616c6c6572206973206e6f7420746865206f776e6572604482015290519081900360640190fd5b73ffffffffffffffffffffffffffffffffffffffff81166110a9576040517f08c379a00000000000000000000000000000000000000000000000000000000081526004018080602001828103825260268152602001806117496026913960400191505060405180910390fd5b6000805460405173ffffffffffffffffffffffffffffffffffffffff808516939216917f8be0079c531659141344cd1fd0a4f28419497f9722a3daafe3b4186f6b6457e091a3600080547fffffffffffffffffffffffff00000000000000000000000000000000000000001673ffffffffffffffffffffffffffffffffffffffff92909216919091179055565b6000828211156111a757604080517f08c379a000000000000000000000000000000000000000000000000000000000815260206004820152601e60248201527f536166654d6174683a207375627472616374696f6e206f766572666c6f770000604482015290519081900360640190fd5b50900390565b3390565b73ffffffffffffffffffffffffffffffffffffffff811661121d576040517f08c379a000000000000000000000000000000000000000000000000000000000815260040180806020018281038252602d815260200180611799602d913960400191505060405180910390fd5b60405173ffffffffffffffffffffffffffffffffffffffff8216906000907f74da04524d50c64947f5dd5381ef1a4dca5cba8ed1d816243f9e48aa0b5617ed908290a3600180547fffffffffffffffffffffffff00000000000000000000000000000000000000001673ffffffffffffffffffffffffffffffffffffffff92909216919091179055565b6112af611723565b60008215806112ea57505082517bffffffffffffffffffffffffffffffffffffffffffffffffffffffff16828102908382816112e757fe5b04145b61133f576040517f08c379a00000000000000000000000000000000000000000000000000000000081526004018080602001828103825260238152602001806117ea6023913960400191505060405180910390fd5b60408051602081019091529081529392505050565b5160701c90565b6000806000611368611621565b90508373ffffffffffffffffffffffffffffffffffffffff16635909c0d56040518163ffffffff1660e01b815260040160206040518083038186803b1580156113b057600080fd5b505afa1580156113c4573d6000803e3d6000fd5b505050506040513d60208110156113da57600080fd5b5051604080517f5a3d5493000000000000000000000000000000000000000000000000000000008152905191945073ffffffffffffffffffffffffffffffffffffffff861691635a3d549391600480820192602092909190829003018186803b15801561144657600080fd5b505afa15801561145a573d6000803e3d6000fd5b505050506040513d602081101561147057600080fd5b5051604080517f0902f1ac00000000000000000000000000000000000000000000000000000000815290519193506000918291829173ffffffffffffffffffffffffffffffffffffffff891691630902f1ac916004808301926060929190829003018186803b1580156114e257600080fd5b505afa1580156114f6573d6000803e3d6000fd5b505050506040513d606081101561150c57600080fd5b5080516020820151604090920151909450909250905063ffffffff808216908516146115a35780840363ffffffff8116611546848661162b565b517bffffffffffffffffffffffffffffffffffffffffffffffffffffffff1602969096019563ffffffff811661157c858561162b565b517bffffffffffffffffffffffffffffffffffffffffffffffffffffffff16029590950194505b5050509193909250565b60008282018381101561077457604080517f08c379a000000000000000000000000000000000000000000000000000000000815260206004820152601b60248201527f536166654d6174683a206164646974696f6e206f766572666c6f770000000000604482015290519081900360640190fd5b63ffffffff421690565b611633611736565b6000826dffffffffffffffffffffffffffff16116116b257604080517f08c379a000000000000000000000000000000000000000000000000000000000815260206004820152601760248201527f4669786564506f696e743a204449565f42595f5a45524f000000000000000000604482015290519081900360640190fd5b6040805160208101909152806dffffffffffffffffffffffffffff84167bffffffffffffffffffffffffffff0000000000000000000000000000607087901b16816116f957fe5b047bffffffffffffffffffffffffffffffffffffffffffffffffffffffff16815250905092915050565b6040518060200160405280600081525090565b6040805160208101909152600081529056fe4f776e61626c653a206e6577206f776e657220697320746865207a65726f206164647265737345706f63683a206f6e6c79206f70657261746f7220616c6c6f77656420666f72207072652d65706f63686f70657261746f723a207a65726f206164647265737320676976656e20666f72206e6577206f70657261746f726f70657261746f723a2063616c6c6572206973206e6f7420746865206f70657261746f724669786564506f696e743a204d554c5449504c49434154494f4e5f4f564552464c4f57a2646970667358221220a039707b832b89596822a382c89b5affe398c56f81eecb02b133c88f13f6eb5b64736f6c634300060c0033",
  "immutableReferences": {},
  "source": "// SPDX-License-Identifier: MIT\npragma solidity 0.6.12;\n\nimport \"./PancakeOracleLibrary.sol\";\nimport \"./Epoch.sol\";\n\ncontract Oracle is Epoch {\n    using SafeMath for uint256;\n    using FixedPoint for *;\n\n    address public token0;\n    address public token1;\n    IPancakePair public pair;\n    uint32 public blockTimestampLast;\n    uint256 public price0CumulativeLast;\n    uint256 public price1CumulativeLast;\n    FixedPoint.uq112x112 public price0Average;\n    FixedPoint.uq112x112 public price1Average;\n\n    function consult(address _token, uint256 _amountIn)\n        external\n        view\n        returns (uint144 amountOut)\n    {\n        if (_token == token0) {\n            amountOut = price0Average.mul(_amountIn).decode144();\n        } else {\n            require(_token == token1, \"Oracle: INVALID_TOKEN\");\n            amountOut = price1Average.mul(_amountIn).decode144();\n        }\n    }\n\n    function twap(address _token, uint256 _amountIn)\n        external\n        view\n        returns (uint144 _amountOut)\n    {\n        (\n            uint256 price0Cumulative,\n            uint256 price1Cumulative,\n            uint32 blockTimestamp\n        ) = PancakeOracleLibrary.currentCumulativePrices(address(pair));\n        uint32 timeElapsed = blockTimestamp - blockTimestampLast;\n        if (_token == token0) {\n            _amountOut = FixedPoint\n                .uq112x112(\n                    uint224(\n                        (price0Cumulative - price0CumulativeLast) / timeElapsed\n                    )\n                )\n                .mul(_amountIn)\n                .decode144();\n        } else if (_token == token1) {\n            _amountOut = FixedPoint\n                .uq112x112(\n                    uint224(\n                        (price1Cumulative - price1CumulativeLast) / timeElapsed\n                    )\n                )\n                .mul(_amountIn)\n                .decode144();\n        }\n    }\n\n    event Updated(uint256 price0CumulativeLast, uint256 price1CumulativeLast);\n\n    constructor(\n        IPancakePair _pair,\n        uint256 _period,\n        uint256 _startTime\n    ) public Epoch(_period, _startTime, 0) {\n        pair = _pair;\n        token0 = pair.token0();\n        token1 = pair.token1();\n        price0CumulativeLast = pair.price0CumulativeLast();\n        price1CumulativeLast = pair.price1CumulativeLast();\n        uint112 reserve0;\n        uint112 reserve1;\n        (reserve0, reserve1, blockTimestampLast) = pair.getReserves();\n        require(reserve0 != 0 && reserve1 != 0, \"Oracle: NO_RESERVES\");\n    }\n\n    function update() external checkEpoch {\n        (\n            uint256 price0Cumulative,\n            uint256 price1Cumulative,\n            uint32 blockTimestamp\n        ) = PancakeOracleLibrary.currentCumulativePrices(address(pair));\n        uint32 timeElapsed = blockTimestamp - blockTimestampLast;\n        if (timeElapsed == 0) {\n            return;\n        }\n        price0Average = FixedPoint.uq112x112(\n            uint224((price0Cumulative - price0CumulativeLast) / timeElapsed)\n        );\n        price1Average = FixedPoint.uq112x112(\n            uint224((price1Cumulative - price1CumulativeLast) / timeElapsed)\n        );\n        price0CumulativeLast = price0Cumulative;\n        price1CumulativeLast = price1Cumulative;\n        blockTimestampLast = blockTimestamp;\n        emit Updated(price0Cumulative, price1Cumulative);\n    }\n}\n",
  "sourcePath": "E:\\projects\\Blockchain\\Upwork\\defi_rent\\hamster-contracts-main\\contracts\\Oracle.sol",
  "compiler": {
    "name": "solc",
    "version": "0.6.12+commit.27d51765.Emscripten.clang"
  },
  "schemaVersion": "3.4.3",
  "updatedAt": "2022-03-21T18:40:38.617Z",
  "networkType": "ethereum",
  "devdoc": {
    "kind": "dev",
    "methods": {
      "owner()": {
        "details": "Returns the address of the current owner."
      },
      "renounceOwnership()": {
        "details": "Leaves the contract without owner. It will not be possible to call `onlyOwner` functions anymore. Can only be called by the current owner. NOTE: Renouncing ownership will leave the contract without an owner, thereby removing any functionality that is only available to the owner."
      },
      "transferOwnership(address)": {
        "details": "Transfers ownership of the contract to a new account (`newOwner`). Can only be called by the current owner."
      }
    },
    "version": 1
  },
  "userdoc": {
    "kind": "user",
    "methods": {},
    "version": 1
  }
}