{
  "contractName": "SvnGenesisRewardPool",
  "abi": [
    {
      "inputs": [
        {
          "internalType": "address",
          "name": "_svn",
          "type": "address"
        },
        {
          "internalType": "address[]",
          "name": "comissionTokens_",
          "type": "address[]"
        },
        {
          "internalType": "uint256",
          "name": "_comissionPercent",
          "type": "uint256"
        },
        {
          "internalType": "uint256",
          "name": "_poolStartTime",
          "type": "uint256"
        },
        {
          "internalType": "uint256",
          "name": "_totalRewards",
          "type": "uint256"
        },
        {
          "internalType": "uint256",
          "name": "_runningTime",
          "type": "uint256"
        }
      ],
      "stateMutability": "nonpayable",
      "type": "constructor"
    },
    {
      "anonymous": false,
      "inputs": [
        {
          "indexed": true,
          "internalType": "address",
          "name": "user",
          "type": "address"
        },
        {
          "indexed": true,
          "internalType": "uint256",
          "name": "pid",
          "type": "uint256"
        },
        {
          "indexed": false,
          "internalType": "uint256",
          "name": "amount",
          "type": "uint256"
        }
      ],
      "name": "Deposit",
      "type": "event"
    },
    {
      "anonymous": false,
      "inputs": [
        {
          "indexed": true,
          "internalType": "address",
          "name": "user",
          "type": "address"
        },
        {
          "indexed": true,
          "internalType": "uint256",
          "name": "pid",
          "type": "uint256"
        },
        {
          "indexed": false,
          "internalType": "uint256",
          "name": "amount",
          "type": "uint256"
        }
      ],
      "name": "EmergencyWithdraw",
      "type": "event"
    },
    {
      "anonymous": false,
      "inputs": [
        {
          "indexed": true,
          "internalType": "address",
          "name": "user",
          "type": "address"
        },
        {
          "indexed": false,
          "internalType": "uint256",
          "name": "amount",
          "type": "uint256"
        }
      ],
      "name": "RewardPaid",
      "type": "event"
    },
    {
      "anonymous": false,
      "inputs": [
        {
          "indexed": true,
          "internalType": "address",
          "name": "user",
          "type": "address"
        },
        {
          "indexed": true,
          "internalType": "uint256",
          "name": "pid",
          "type": "uint256"
        },
        {
          "indexed": false,
          "internalType": "uint256",
          "name": "amount",
          "type": "uint256"
        }
      ],
      "name": "Withdraw",
      "type": "event"
    },
    {
      "inputs": [],
      "name": "comissionPercent",
      "outputs": [
        {
          "internalType": "uint256",
          "name": "",
          "type": "uint256"
        }
      ],
      "stateMutability": "view",
      "type": "function"
    },
    {
      "inputs": [],
      "name": "operator",
      "outputs": [
        {
          "internalType": "address",
          "name": "",
          "type": "address"
        }
      ],
      "stateMutability": "view",
      "type": "function"
    },
    {
      "inputs": [],
      "name": "poolEndTime",
      "outputs": [
        {
          "internalType": "uint256",
          "name": "",
          "type": "uint256"
        }
      ],
      "stateMutability": "view",
      "type": "function"
    },
    {
      "inputs": [
        {
          "internalType": "uint256",
          "name": "",
          "type": "uint256"
        }
      ],
      "name": "poolInfo",
      "outputs": [
        {
          "internalType": "contract IERC20",
          "name": "token",
          "type": "address"
        },
        {
          "internalType": "uint256",
          "name": "allocPoint",
          "type": "uint256"
        },
        {
          "internalType": "uint256",
          "name": "lastRewardTime",
          "type": "uint256"
        },
        {
          "internalType": "uint256",
          "name": "accSvnPerShare",
          "type": "uint256"
        },
        {
          "internalType": "bool",
          "name": "isStarted",
          "type": "bool"
        },
        {
          "internalType": "uint256",
          "name": "maxDeposit",
          "type": "uint256"
        }
      ],
      "stateMutability": "view",
      "type": "function"
    },
    {
      "inputs": [],
      "name": "poolStartTime",
      "outputs": [
        {
          "internalType": "uint256",
          "name": "",
          "type": "uint256"
        }
      ],
      "stateMutability": "view",
      "type": "function"
    },
    {
      "inputs": [],
      "name": "runningTime",
      "outputs": [
        {
          "internalType": "uint256",
          "name": "",
          "type": "uint256"
        }
      ],
      "stateMutability": "view",
      "type": "function"
    },
    {
      "inputs": [],
      "name": "svn",
      "outputs": [
        {
          "internalType": "contract IERC20",
          "name": "",
          "type": "address"
        }
      ],
      "stateMutability": "view",
      "type": "function"
    },
    {
      "inputs": [],
      "name": "svnPerSecond",
      "outputs": [
        {
          "internalType": "uint256",
          "name": "",
          "type": "uint256"
        }
      ],
      "stateMutability": "view",
      "type": "function"
    },
    {
      "inputs": [],
      "name": "totalAllocPoint",
      "outputs": [
        {
          "internalType": "uint256",
          "name": "",
          "type": "uint256"
        }
      ],
      "stateMutability": "view",
      "type": "function"
    },
    {
      "inputs": [],
      "name": "totalRewards",
      "outputs": [
        {
          "internalType": "uint256",
          "name": "",
          "type": "uint256"
        }
      ],
      "stateMutability": "view",
      "type": "function"
    },
    {
      "inputs": [
        {
          "internalType": "uint256",
          "name": "",
          "type": "uint256"
        },
        {
          "internalType": "address",
          "name": "",
          "type": "address"
        }
      ],
      "name": "userInfo",
      "outputs": [
        {
          "internalType": "uint256",
          "name": "amount",
          "type": "uint256"
        },
        {
          "internalType": "uint256",
          "name": "rewardDebt",
          "type": "uint256"
        }
      ],
      "stateMutability": "view",
      "type": "function"
    },
    {
      "inputs": [],
      "name": "comissionTokensCount",
      "outputs": [
        {
          "internalType": "uint256",
          "name": "",
          "type": "uint256"
        }
      ],
      "stateMutability": "view",
      "type": "function"
    },
    {
      "inputs": [
        {
          "internalType": "uint256",
          "name": "index",
          "type": "uint256"
        }
      ],
      "name": "comissionToken",
      "outputs": [
        {
          "internalType": "address",
          "name": "",
          "type": "address"
        }
      ],
      "stateMutability": "view",
      "type": "function"
    },
    {
      "inputs": [
        {
          "internalType": "uint256",
          "name": "_pid",
          "type": "uint256"
        },
        {
          "internalType": "address",
          "name": "_user",
          "type": "address"
        }
      ],
      "name": "pendingSVN",
      "outputs": [
        {
          "internalType": "uint256",
          "name": "",
          "type": "uint256"
        }
      ],
      "stateMutability": "view",
      "type": "function"
    },
    {
      "inputs": [
        {
          "internalType": "uint256",
          "name": "_fromTime",
          "type": "uint256"
        },
        {
          "internalType": "uint256",
          "name": "_toTime",
          "type": "uint256"
        }
      ],
      "name": "getGeneratedReward",
      "outputs": [
        {
          "internalType": "uint256",
          "name": "",
          "type": "uint256"
        }
      ],
      "stateMutability": "view",
      "type": "function"
    },
    {
      "inputs": [
        {
          "internalType": "uint256",
          "name": "_allocPoint",
          "type": "uint256"
        },
        {
          "internalType": "contract IERC20",
          "name": "_token",
          "type": "address"
        },
        {
          "internalType": "bool",
          "name": "_withUpdate",
          "type": "bool"
        },
        {
          "internalType": "uint256",
          "name": "_lastRewardTime",
          "type": "uint256"
        },
        {
          "internalType": "uint256",
          "name": "_maxDeposit",
          "type": "uint256"
        }
      ],
      "name": "add",
      "outputs": [],
      "stateMutability": "nonpayable",
      "type": "function"
    },
    {
      "inputs": [
        {
          "internalType": "uint256",
          "name": "_pid",
          "type": "uint256"
        },
        {
          "internalType": "uint256",
          "name": "_amount",
          "type": "uint256"
        }
      ],
      "name": "deposit",
      "outputs": [],
      "stateMutability": "nonpayable",
      "type": "function"
    },
    {
      "inputs": [
        {
          "internalType": "uint256",
          "name": "_pid",
          "type": "uint256"
        }
      ],
      "name": "emergencyWithdraw",
      "outputs": [],
      "stateMutability": "nonpayable",
      "type": "function"
    },
    {
      "inputs": [
        {
          "internalType": "contract IERC20",
          "name": "_token",
          "type": "address"
        },
        {
          "internalType": "uint256",
          "name": "amount",
          "type": "uint256"
        },
        {
          "internalType": "address",
          "name": "to",
          "type": "address"
        }
      ],
      "name": "governanceRecoverUnsupported",
      "outputs": [],
      "stateMutability": "nonpayable",
      "type": "function"
    },
    {
      "inputs": [
        {
          "internalType": "uint256",
          "name": "_pid",
          "type": "uint256"
        },
        {
          "internalType": "uint256",
          "name": "_allocPoint",
          "type": "uint256"
        }
      ],
      "name": "set",
      "outputs": [],
      "stateMutability": "nonpayable",
      "type": "function"
    },
    {
      "inputs": [
        {
          "internalType": "address",
          "name": "_operator",
          "type": "address"
        }
      ],
      "name": "setOperator",
      "outputs": [],
      "stateMutability": "nonpayable",
      "type": "function"
    },
    {
      "inputs": [
        {
          "internalType": "uint256",
          "name": "_pid",
          "type": "uint256"
        },
        {
          "internalType": "uint256",
          "name": "_amount",
          "type": "uint256"
        }
      ],
      "name": "withdraw",
      "outputs": [],
      "stateMutability": "nonpayable",
      "type": "function"
    },
    {
      "inputs": [],
      "name": "massUpdatePools",
      "outputs": [],
      "stateMutability": "nonpayable",
      "type": "function"
    },
    {
      "inputs": [
        {
          "internalType": "uint256",
          "name": "_pid",
          "type": "uint256"
        }
      ],
      "name": "updatePool",
      "outputs": [],
      "stateMutability": "nonpayable",
      "type": "function"
    }
  ],
  "bytecode": "0x608060405260006007553480156200001657600080fd5b50604051620024e9380380620024e983398101604081905262000039916200027d565b6001600160a01b0386166200006b5760405162461bcd60e51b8152600401620000629062000362565b60405180910390fd5b600082116200008e5760405162461bcd60e51b81526004016200006290620003dc565b60008111620000b15760405162461bcd60e51b8152600401620000629062000457565b600480546001600160a01b0319166001600160a01b038816179055600c829055600b819055620000ee828262000180602090811b6200127517901c565b600a5560005b855181101562000137576200012d8682815181106200010f57fe5b60200260200101516000620001b860201b620012c11790919060201c565b50600101620000f4565b5060028490556008839055600b546200015e908490620001d6602090811b620012ea17901c565b6009555050600380546001600160a01b0319163317905550620004fa92505050565b6000808211620001a45760405162461bcd60e51b8152600401620000629062000420565b818381620001ae57fe5b0490505b92915050565b6000620001cf836001600160a01b038416620001fe565b9392505050565b600082820183811015620001cf5760405162461bcd60e51b81526004016200006290620003a5565b60006200020c83836200024d565b6200024457508154600181810184556000848152602080822090930184905584548482528286019093526040902091909155620001b2565b506000620001b2565b60009081526001919091016020526040902054151590565b80516001600160a01b0381168114620001b257600080fd5b60008060008060008060c0878903121562000296578182fd5b8651620002a381620004e1565b602088810151919750906001600160401b03811115620002c1578384fd5b8801601f81018a13620002d2578384fd5b8051620002e9620002e382620004c1565b6200049a565b81815283810190838501858402850186018e101562000306578788fd5b8794505b8385101562000334576200031f8e8262000265565b8352600194909401939185019185016200030a565b5060408c015160608d015160808e015160a0909e01519c9f929e50909c909b909a5098509650505050505050565b60208082526023908201527f53766e47656e65736973506f6f6c3a2073766e206973207a65726f206164647260408201526265737360e81b606082015260800190565b6020808252601b908201527f536166654d6174683a206164646974696f6e206f766572666c6f770000000000604082015260600190565b60208082526024908201527f53766e47656e65736973506f6f6c3a20746f74616c52657761726473206973206040820152637a65726f60e01b606082015260800190565b6020808252601a908201527f536166654d6174683a206469766973696f6e206279207a65726f000000000000604082015260600190565b60208082526023908201527f53766e47656e65736973506f6f6c3a2072756e6e696e6754696d65206973207a60408201526265726f60e81b606082015260800190565b6040518181016001600160401b0381118282101715620004b957600080fd5b604052919050565b60006001600160401b03821115620004d7578081fd5b5060209081020190565b6001600160a01b0381168114620004f757600080fd5b50565b611fdf806200050a6000396000f3fe608060405234801561001057600080fd5b50600436106101985760003560e01c80635b142956116100e357806393f1a40b1161008c578063b8950cae11610066578063b8950cae14610303578063c109c73c1461030b578063e2bbb1581461031e57610198565b806393f1a40b146102c7578063943f013d146102e8578063b3ab15fb146102f057610198565b8063630b5ba1116100bd578063630b5ba1146102af5780636e271dd5146102b757806392fae48d146102bf57610198565b80635b142956146102815780635f96dc111461029457806362e006c71461029c57610198565b8063441a3e701161014557806354575af41161011f57806354575af414610251578063570ca735146102645780635715f8f91461027957610198565b8063441a3e701461021857806351eb05a61461022b5780635312ea8e1461023e57610198565b806317caf6f11161017657806317caf6f1146101e85780631ab06ee5146101f0578063231f0c6a1461020557610198565b80630e15561a1461019d5780631526fe27146101bb578063178e550a146101e0575b600080fd5b6101a5610331565b6040516101b29190611f36565b60405180910390f35b6101ce6101c93660046119b5565b610337565b6040516101b296959493929190611b1a565b6101a5610397565b6101a561039d565b6102036101fe366004611a65565b6103a3565b005b6101a5610213366004611a65565b610462565b610203610226366004611a65565b610527565b6102036102393660046119b5565b610711565b61020361024c3660046119b5565b6108bd565b61020361025f366004611974565b61097b565b61026c610ae6565b6040516101b29190611aa2565b6101a5610b02565b61026c61028f3660046119b5565b610b08565b6101a5610b14565b6102036102aa366004611a14565b610b1a565b610203610d92565b6101a5610db5565b6101a5610dbb565b6102da6102d53660046119e5565b610dcc565b6040516101b2929190611f3f565b6101a5610df0565b6102036102fe36600461193c565b610df6565b61026c610e8e565b6101a56103193660046119e5565b610eaa565b61020361032c366004611a65565b611039565b600c5481565b6005818154811061034457fe5b600091825260209091206006909102018054600182015460028301546003840154600485015460059095015473ffffffffffffffffffffffffffffffffffffffff90941695509193909260ff9091169086565b600a5481565b60075481565b60035473ffffffffffffffffffffffffffffffffffffffff1633146103fd576040517f08c379a00000000000000000000000000000000000000000000000000000000081526004016103f490611c78565b60405180910390fd5b610405610d92565b60006005838154811061041457fe5b60009182526020909120600690910201600481015490915060ff161561045b5761045782610451836001015460075461132990919063ffffffff16565b906112ea565b6007555b6001015550565b600081831061047357506000610521565b60095482106104db57600954831061048d57506000610521565b60085483116104c0576104b9600a546104b360085460095461132990919063ffffffff16565b9061136b565b9050610521565b6104b9600a546104b38560095461132990919063ffffffff16565b60085482116104ec57506000610521565b6008548311610510576104b9600a546104b36008548561132990919063ffffffff16565b600a546104b9906104b38486611329565b92915050565b600033905060006005848154811061053b57fe5b600091825260208083208784526006808352604080862073ffffffffffffffffffffffffffffffffffffffff891687529093529190932080549290910290920192508411156105b6576040517f08c379a00000000000000000000000000000000000000000000000000000000081526004016103f490611ea2565b6105bf85610711565b60006105fc82600101546105f6670de0b6b3a76400006105f08760030154876000015461136b90919063ffffffff16565b90611275565b90611329565b9050801561065d5761060e84826113bf565b8373ffffffffffffffffffffffffffffffffffffffff167fe2403640ba68fed3a2f88b7557551d1993f84b99bb10ff833f0cf8db0c5e0486826040516106549190611f36565b60405180910390a25b841561069457815461066f9086611329565b825582546106949073ffffffffffffffffffffffffffffffffffffffff1685876114c0565b600383015482546106b291670de0b6b3a7640000916105f09161136b565b8260010181905550858473ffffffffffffffffffffffffffffffffffffffff167ff279e6a1f5e320cca91135676d9cb6e44ca8a08c0b88342bcdb1144f6511b568876040516107019190611f36565b60405180910390a3505050505050565b60006005828154811061072057fe5b906000526020600020906006020190508060020154421161074157506108ba565b80546040517f70a0823100000000000000000000000000000000000000000000000000000000815260009173ffffffffffffffffffffffffffffffffffffffff16906370a0823190610797903090600401611aa2565b60206040518083038186803b1580156107af57600080fd5b505afa1580156107c3573d6000803e3d6000fd5b505050506040513d601f19601f820116820180604052508101906107e791906119cd565b9050806107fb5750426002909101556108ba565b600482015460ff1661084a576004820180547fffffffffffffffffffffffffffffffffffffffffffffffffffffffffffffff00166001908117909155820154600754610846916112ea565b6007555b600754156108b1576000610862836002015442610462565b905060006108836007546105f086600101548561136b90919063ffffffff16565b90506108a961089e846105f084670de0b6b3a764000061136b565b6003860154906112ea565b600385015550505b50426002909101555b50565b6000600582815481106108cc57fe5b600091825260208083208584526006808352604080862033808852945285208054868255600182019690965593020180549094509192916109269173ffffffffffffffffffffffffffffffffffffffff90911690836114c0565b833373ffffffffffffffffffffffffffffffffffffffff167fbb757047c2b5f3974fe26b7c10f732e7bce710b0952a71082702781e62ae05958360405161096d9190611f36565b60405180910390a350505050565b60035473ffffffffffffffffffffffffffffffffffffffff1633146109cc576040517f08c379a00000000000000000000000000000000000000000000000000000000081526004016103f490611c78565b60095462278d0001421015610ac05760045473ffffffffffffffffffffffffffffffffffffffff84811691161415610a30576040517f08c379a00000000000000000000000000000000000000000000000000000000081526004016103f490611c41565b60055460005b81811015610abd57600060058281548110610a4d57fe5b60009182526020909120600690910201805490915073ffffffffffffffffffffffffffffffffffffffff87811691161415610ab4576040517f08c379a00000000000000000000000000000000000000000000000000000000081526004016103f490611da0565b50600101610a36565b50505b610ae173ffffffffffffffffffffffffffffffffffffffff841682846114c0565b505050565b60035473ffffffffffffffffffffffffffffffffffffffff1681565b60025481565b60006105218183611561565b60085481565b60035473ffffffffffffffffffffffffffffffffffffffff163314610b6b576040517f08c379a00000000000000000000000000000000000000000000000000000000081526004016103f490611c78565b610b748461156d565b8215610b8257610b82610d92565b600854421015610bb05781610b9b576008549150610bab565b600854821015610bab5760085491505b610bc5565b811580610bbc57504282105b15610bc5574291505b600060085483111580610bd85750428311155b6040805160c08101825273ffffffffffffffffffffffffffffffffffffffff8881168252602082018a8152928201878152600060608401818152861580156080870190815260a087018b815260058054600181018255955296517f036b6384b5eca791c62761152d0c79bb0604c104a5fb6f4eb0703f3154bb3db0600690950294850180547fffffffffffffffffffffffff000000000000000000000000000000000000000016919097161790955595517f036b6384b5eca791c62761152d0c79bb0604c104a5fb6f4eb0703f3154bb3db183015591517f036b6384b5eca791c62761152d0c79bb0604c104a5fb6f4eb0703f3154bb3db282015590517f036b6384b5eca791c62761152d0c79bb0604c104a5fb6f4eb0703f3154bb3db382015590517f036b6384b5eca791c62761152d0c79bb0604c104a5fb6f4eb0703f3154bb3db4820180547fffffffffffffffffffffffffffffffffffffffffffffffffffffffffffffff001691151591909117905590517f036b6384b5eca791c62761152d0c79bb0604c104a5fb6f4eb0703f3154bb3db590910155909150610d8a57600754610d8690876112ea565b6007555b505050505050565b60055460005b81811015610db157610da981610711565b600101610d98565b5050565b60095481565b6000610dc76000611606565b905090565b60066020908152600092835260408084209091529082529020805460019091015482565b600b5481565b60035473ffffffffffffffffffffffffffffffffffffffff163314610e47576040517f08c379a00000000000000000000000000000000000000000000000000000000081526004016103f490611c78565b600380547fffffffffffffffffffffffff00000000000000000000000000000000000000001673ffffffffffffffffffffffffffffffffffffffff92909216919091179055565b60045473ffffffffffffffffffffffffffffffffffffffff1681565b60008060058481548110610eba57fe5b600091825260208083208784526006808352604080862073ffffffffffffffffffffffffffffffffffffffff8a811688529452808620949091029091016003810154815492517f70a0823100000000000000000000000000000000000000000000000000000000815291965093949291909116906370a0823190610f42903090600401611aa2565b60206040518083038186803b158015610f5a57600080fd5b505afa158015610f6e573d6000803e3d6000fd5b505050506040513d601f19601f82011682018060405250810190610f9291906119cd565b9050836002015442118015610fa657508015155b15611003576000610fbb856002015442610462565b90506000610fdc6007546105f088600101548561136b90919063ffffffff16565b9050610ffe610ff7846105f084670de0b6b3a764000061136b565b85906112ea565b935050505b61102e83600101546105f6670de0b6b3a76400006105f086886000015461136b90919063ffffffff16565b979650505050505050565b600033905060006005848154811061104d57fe5b600091825260208083208784526006808352604080862073ffffffffffffffffffffffffffffffffffffffff89168752909352919093209102909101915061109485610711565b80541561112f5760006110cc82600101546105f6670de0b6b3a76400006105f08760030154876000015461136b90919063ffffffff16565b9050801561112d576110de84826113bf565b8373ffffffffffffffffffffffffffffffffffffffff167fe2403640ba68fed3a2f88b7557551d1993f84b99bb10ff833f0cf8db0c5e0486826040516111249190611f36565b60405180910390a25b505b805460058301546000916111439190611329565b905060008186116111545785611156565b815b905080156111f75783546111829073ffffffffffffffffffffffffffffffffffffffff16863084611611565b83546111a69060009073ffffffffffffffffffffffffffffffffffffffff16611638565b156111e857600061271090506111e06111d8826105f06111d16002548661132990919063ffffffff16565b869061136b565b8554906112ea565b8455506111f7565b82546111f490826112ea565b83555b6003840154835461121591670de0b6b3a7640000916105f09161136b565b8360010181905550868573ffffffffffffffffffffffffffffffffffffffff167f90890809c654f11d6e72a28fa60149770a0d11ec6c92319d6ceb2bb0a4ea1a15836040516112649190611f36565b60405180910390a350505050505050565b60008082116112b0576040517f08c379a00000000000000000000000000000000000000000000000000000000081526004016103f490611d69565b8183816112b957fe5b049392505050565b60006112e38373ffffffffffffffffffffffffffffffffffffffff841661165a565b9392505050565b6000828201838110156112e3576040517f08c379a00000000000000000000000000000000000000000000000000000000081526004016103f490611c0a565b600082821115611365576040517f08c379a00000000000000000000000000000000000000000000000000000000081526004016103f490611cd5565b50900390565b60008261137a57506000610521565b8282028284828161138757fe5b04146112e3576040517f08c379a00000000000000000000000000000000000000000000000000000000081526004016103f490611dd7565b600480546040517f70a0823100000000000000000000000000000000000000000000000000000000815260009273ffffffffffffffffffffffffffffffffffffffff909216916370a082319161141791309101611aa2565b60206040518083038186803b15801561142f57600080fd5b505afa158015611443573d6000803e3d6000fd5b505050506040513d601f19601f8201168201806040525081019061146791906119cd565b90508015610ae157808211156114a05760045461149b9073ffffffffffffffffffffffffffffffffffffffff1684836114c0565b610ae1565b600454610ae19073ffffffffffffffffffffffffffffffffffffffff1684845b610ae18363a9059cbb60e01b84846040516024016114df929190611af4565b604080517fffffffffffffffffffffffffffffffffffffffffffffffffffffffffffffffe08184030181529190526020810180517bffffffffffffffffffffffffffffffffffffffffffffffffffffffff167fffffffff00000000000000000000000000000000000000000000000000000000909316929092179091526116a4565b60006112e3838361175a565b60055460005b81811015610ae1578273ffffffffffffffffffffffffffffffffffffffff166005828154811061159f57fe5b600091825260209091206006909102015473ffffffffffffffffffffffffffffffffffffffff1614156115fe576040517f08c379a00000000000000000000000000000000000000000000000000000000081526004016103f490611e34565b600101611573565b6000610521826117b9565b611632846323b872dd60e01b8585856040516024016114df93929190611ac3565b50505050565b60006112e38373ffffffffffffffffffffffffffffffffffffffff84166117bd565b600061166683836117bd565b61169c57508154600181810184556000848152602080822090930184905584548482528286019093526040902091909155610521565b506000610521565b6060611706826040518060400160405280602081526020017f5361666545524332303a206c6f772d6c6576656c2063616c6c206661696c65648152508573ffffffffffffffffffffffffffffffffffffffff166117d59092919063ffffffff16565b805190915015610ae157808060200190518101906117249190611958565b610ae1576040517f08c379a00000000000000000000000000000000000000000000000000000000081526004016103f490611ed9565b81546000908210611797576040517f08c379a00000000000000000000000000000000000000000000000000000000081526004016103f490611bad565b8260000182815481106117a657fe5b9060005260206000200154905092915050565b5490565b60009081526001919091016020526040902054151590565b60606117e484846000856117ec565b949350505050565b606082471015611828576040517f08c379a00000000000000000000000000000000000000000000000000000000081526004016103f490611d0c565b611831856118e3565b611867576040517f08c379a00000000000000000000000000000000000000000000000000000000081526004016103f490611e6b565b600060608673ffffffffffffffffffffffffffffffffffffffff1685876040516118919190611a86565b60006040518083038185875af1925050503d80600081146118ce576040519150601f19603f3d011682016040523d82523d6000602084013e6118d3565b606091505b509150915061102e8282866118e9565b3b151590565b606083156118f85750816112e3565b8251156119085782518084602001fd5b816040517f08c379a00000000000000000000000000000000000000000000000000000000081526004016103f49190611b5c565b60006020828403121561194d578081fd5b81356112e381611f79565b600060208284031215611969578081fd5b81516112e381611f9b565b600080600060608486031215611988578182fd5b833561199381611f79565b92506020840135915060408401356119aa81611f79565b809150509250925092565b6000602082840312156119c6578081fd5b5035919050565b6000602082840312156119de578081fd5b5051919050565b600080604083850312156119f7578182fd5b823591506020830135611a0981611f79565b809150509250929050565b600080600080600060a08688031215611a2b578081fd5b853594506020860135611a3d81611f79565b93506040860135611a4d81611f9b565b94979396509394606081013594506080013592915050565b60008060408385031215611a77578182fd5b50508035926020909101359150565b60008251611a98818460208701611f4d565b9190910192915050565b73ffffffffffffffffffffffffffffffffffffffff91909116815260200190565b73ffffffffffffffffffffffffffffffffffffffff9384168152919092166020820152604081019190915260600190565b73ffffffffffffffffffffffffffffffffffffffff929092168252602082015260400190565b73ffffffffffffffffffffffffffffffffffffffff9690961686526020860194909452604085019290925260608401521515608083015260a082015260c00190565b6000602082528251806020840152611b7b816040850160208701611f4d565b601f017fffffffffffffffffffffffffffffffffffffffffffffffffffffffffffffffe0169190910160400192915050565b60208082526022908201527f456e756d657261626c655365743a20696e646578206f7574206f6620626f756e60408201527f6473000000000000000000000000000000000000000000000000000000000000606082015260800190565b6020808252601b908201527f536166654d6174683a206164646974696f6e206f766572666c6f770000000000604082015260600190565b60208082526003908201527f73766e0000000000000000000000000000000000000000000000000000000000604082015260600190565b6020808252602a908201527f53766e47656e65736973506f6f6c3a2063616c6c6572206973206e6f7420746860408201527f65206f70657261746f7200000000000000000000000000000000000000000000606082015260800190565b6020808252601e908201527f536166654d6174683a207375627472616374696f6e206f766572666c6f770000604082015260600190565b60208082526026908201527f416464726573733a20696e73756666696369656e742062616c616e636520666f60408201527f722063616c6c0000000000000000000000000000000000000000000000000000606082015260800190565b6020808252601a908201527f536166654d6174683a206469766973696f6e206279207a65726f000000000000604082015260600190565b6020808252600a908201527f706f6f6c2e746f6b656e00000000000000000000000000000000000000000000604082015260600190565b60208082526021908201527f536166654d6174683a206d756c7469706c69636174696f6e206f766572666c6f60408201527f7700000000000000000000000000000000000000000000000000000000000000606082015260800190565b6020808252601e908201527f53766e47656e65736973506f6f6c3a206578697374696e6720706f6f6c3f0000604082015260600190565b6020808252601d908201527f416464726573733a2063616c6c20746f206e6f6e2d636f6e7472616374000000604082015260600190565b60208082526012908201527f77697468647261773a206e6f7420676f6f640000000000000000000000000000604082015260600190565b6020808252602a908201527f5361666545524332303a204552433230206f7065726174696f6e20646964206e60408201527f6f74207375636365656400000000000000000000000000000000000000000000606082015260800190565b90815260200190565b918252602082015260400190565b60005b83811015611f68578181015183820152602001611f50565b838111156116325750506000910152565b73ffffffffffffffffffffffffffffffffffffffff811681146108ba57600080fd5b80151581146108ba57600080fdfea26469706673582212208a79a8188ed3c3b8fe46c2de3cd60b8c6219ab3d8027758bbb410eb00356276e64736f6c634300060c0033",
  "immutableReferences": {},
  "source": "// SPDX-License-Identifier: MIT\r\npragma solidity 0.6.12;\r\npragma experimental ABIEncoderV2;\r\n\r\nimport \"@openzeppelin/contracts/token/ERC20/SafeERC20.sol\";\r\nimport \"@openzeppelin/contracts/utils/EnumerableSet.sol\";\r\n\r\ncontract SvnGenesisRewardPool {\r\n    using SafeMath for uint256;\r\n    using SafeERC20 for IERC20;\r\n    using EnumerableSet for EnumerableSet.AddressSet;\r\n\r\n    struct UserInfo {\r\n        uint256 amount;\r\n        uint256 rewardDebt;\r\n    }\r\n\r\n    struct PoolInfo {\r\n        IERC20 token;\r\n        uint256 allocPoint;\r\n        uint256 lastRewardTime;\r\n        uint256 accSvnPerShare;\r\n        bool isStarted;\r\n        uint256 maxDeposit;\r\n    }\r\n\r\n    EnumerableSet.AddressSet private _comissionTokens;\r\n    uint256 public comissionPercent;\r\n\r\n    address public operator;\r\n    IERC20 public svn;\r\n    PoolInfo[] public poolInfo;\r\n    mapping(uint256 => mapping(address => UserInfo)) public userInfo;\r\n    uint256 public totalAllocPoint = 0;\r\n    uint256 public poolStartTime;\r\n    uint256 public poolEndTime;\r\n\r\n    uint256 public svnPerSecond;\r\n    uint256 public runningTime;\r\n    uint256 public totalRewards;\r\n\r\n    function comissionTokensCount() external view returns (uint256) {\r\n        return _comissionTokens.length();\r\n    }\r\n\r\n    function comissionToken(uint256 index) external view returns (address) {\r\n        return _comissionTokens.at(index);\r\n    }\r\n\r\n    function pendingSVN(uint256 _pid, address _user)\r\n        external\r\n        view\r\n        returns (uint256)\r\n    {\r\n        PoolInfo storage pool = poolInfo[_pid];\r\n        UserInfo storage user = userInfo[_pid][_user];\r\n        uint256 accSvnPerShare = pool.accSvnPerShare;\r\n        uint256 tokenSupply = pool.token.balanceOf(address(this));\r\n        if (block.timestamp > pool.lastRewardTime && tokenSupply != 0) {\r\n            uint256 _generatedReward = getGeneratedReward(\r\n                pool.lastRewardTime,\r\n                block.timestamp\r\n            );\r\n            uint256 _svnReward = _generatedReward.mul(pool.allocPoint).div(\r\n                totalAllocPoint\r\n            );\r\n            accSvnPerShare = accSvnPerShare.add(\r\n                _svnReward.mul(1e18).div(tokenSupply)\r\n            );\r\n        }\r\n        return user.amount.mul(accSvnPerShare).div(1e18).sub(user.rewardDebt);\r\n    }\r\n\r\n    function getGeneratedReward(uint256 _fromTime, uint256 _toTime)\r\n        public\r\n        view\r\n        returns (uint256)\r\n    {\r\n        if (_fromTime >= _toTime) return 0;\r\n        if (_toTime >= poolEndTime) {\r\n            if (_fromTime >= poolEndTime) return 0;\r\n            if (_fromTime <= poolStartTime)\r\n                return poolEndTime.sub(poolStartTime).mul(svnPerSecond);\r\n            return poolEndTime.sub(_fromTime).mul(svnPerSecond);\r\n        } else {\r\n            if (_toTime <= poolStartTime) return 0;\r\n            if (_fromTime <= poolStartTime)\r\n                return _toTime.sub(poolStartTime).mul(svnPerSecond);\r\n            return _toTime.sub(_fromTime).mul(svnPerSecond);\r\n        }\r\n    }\r\n\r\n    function checkPoolDuplicate(IERC20 _token) internal view {\r\n        uint256 length = poolInfo.length;\r\n        for (uint256 pid = 0; pid < length; ++pid) {\r\n            require(\r\n                poolInfo[pid].token != _token,\r\n                \"SvnGenesisPool: existing pool?\"\r\n            );\r\n        }\r\n    }\r\n\r\n    event Deposit(address indexed user, uint256 indexed pid, uint256 amount);\r\n    event Withdraw(address indexed user, uint256 indexed pid, uint256 amount);\r\n    event EmergencyWithdraw(\r\n        address indexed user,\r\n        uint256 indexed pid,\r\n        uint256 amount\r\n    );\r\n    event RewardPaid(address indexed user, uint256 amount);\r\n\r\n    constructor(\r\n        address _svn,\r\n        address[] memory comissionTokens_,\r\n        uint256 _comissionPercent,\r\n        uint256 _poolStartTime,\r\n        uint256 _totalRewards,\r\n        uint256 _runningTime\r\n    ) public {\r\n        //        require(block.timestamp < _poolStartTime, \"late\");\r\n        require(_svn != address(0), \"SvnGenesisPool: svn is zero address\");\r\n        require(_totalRewards > 0, \"SvnGenesisPool: totalRewards is zero\");\r\n        require(_runningTime > 0, \"SvnGenesisPool: runningTime is zero\");\r\n        svn = IERC20(_svn);\r\n        totalRewards = _totalRewards;\r\n        runningTime = _runningTime;\r\n        svnPerSecond = totalRewards.div(runningTime);\r\n        for (uint256 i = 0; i < comissionTokens_.length; i++)\r\n            _comissionTokens.add(comissionTokens_[i]);\r\n        comissionPercent = _comissionPercent;\r\n        poolStartTime = _poolStartTime;\r\n        poolEndTime = poolStartTime.add(runningTime);\r\n        operator = msg.sender;\r\n    }\r\n\r\n    function add(\r\n        uint256 _allocPoint,\r\n        IERC20 _token,\r\n        bool _withUpdate,\r\n        uint256 _lastRewardTime,\r\n        uint256 _maxDeposit\r\n    ) external onlyOperator {\r\n        checkPoolDuplicate(_token);\r\n        if (_withUpdate) {\r\n            massUpdatePools();\r\n        }\r\n        if (block.timestamp < poolStartTime) {\r\n            if (_lastRewardTime == 0) {\r\n                _lastRewardTime = poolStartTime;\r\n            } else {\r\n                if (_lastRewardTime < poolStartTime) {\r\n                    _lastRewardTime = poolStartTime;\r\n                }\r\n            }\r\n        } else {\r\n            if (_lastRewardTime == 0 || _lastRewardTime < block.timestamp) {\r\n                _lastRewardTime = block.timestamp;\r\n            }\r\n        }\r\n        bool _isStarted = (_lastRewardTime <= poolStartTime) ||\r\n            (_lastRewardTime <= block.timestamp);\r\n        poolInfo.push(\r\n            PoolInfo({\r\n                token: _token,\r\n                allocPoint: _allocPoint,\r\n                lastRewardTime: _lastRewardTime,\r\n                accSvnPerShare: 0,\r\n                isStarted: _isStarted,\r\n                maxDeposit: _maxDeposit\r\n            })\r\n        );\r\n        if (_isStarted) {\r\n            totalAllocPoint = totalAllocPoint.add(_allocPoint);\r\n        }\r\n    }\r\n\r\n    function deposit(uint256 _pid, uint256 _amount) external {\r\n        address _sender = msg.sender;\r\n        PoolInfo storage pool = poolInfo[_pid];\r\n        UserInfo storage user = userInfo[_pid][_sender];\r\n        updatePool(_pid);\r\n        if (user.amount > 0) {\r\n            uint256 _pending = user\r\n                .amount\r\n                .mul(pool.accSvnPerShare)\r\n                .div(1e18)\r\n                .sub(user.rewardDebt);\r\n            if (_pending > 0) {\r\n                safeSvnTransfer(_sender, _pending);\r\n                emit RewardPaid(_sender, _pending);\r\n            }\r\n        }\r\n        uint256 possibleToDeposit = pool.maxDeposit.sub(user.amount);\r\n        uint256 amount = _amount > possibleToDeposit\r\n            ? possibleToDeposit\r\n            : _amount;\r\n        if (amount > 0) {\r\n            pool.token.safeTransferFrom(_sender, address(this), amount);\r\n            if (_comissionTokens.contains(address(pool.token))) {\r\n                uint256 hundred = 10000;\r\n                user.amount = user.amount.add(\r\n                    amount.mul(hundred.sub(comissionPercent)).div(hundred)\r\n                );\r\n            } else {\r\n                user.amount = user.amount.add(amount);\r\n            }\r\n        }\r\n        user.rewardDebt = user.amount.mul(pool.accSvnPerShare).div(1e18);\r\n        emit Deposit(_sender, _pid, amount);\r\n    }\r\n\r\n    function emergencyWithdraw(uint256 _pid) external {\r\n        PoolInfo storage pool = poolInfo[_pid];\r\n        UserInfo storage user = userInfo[_pid][msg.sender];\r\n        uint256 _amount = user.amount;\r\n        user.amount = 0;\r\n        user.rewardDebt = 0;\r\n        pool.token.safeTransfer(msg.sender, _amount);\r\n        emit EmergencyWithdraw(msg.sender, _pid, _amount);\r\n    }\r\n\r\n    function governanceRecoverUnsupported(\r\n        IERC20 _token,\r\n        uint256 amount,\r\n        address to\r\n    ) external onlyOperator {\r\n        if (block.timestamp < poolEndTime + 30 days) {\r\n            require(_token != svn, \"svn\");\r\n            uint256 length = poolInfo.length;\r\n            for (uint256 pid = 0; pid < length; ++pid) {\r\n                PoolInfo storage pool = poolInfo[pid];\r\n                require(_token != pool.token, \"pool.token\");\r\n            }\r\n        }\r\n        _token.safeTransfer(to, amount);\r\n    }\r\n\r\n    function set(uint256 _pid, uint256 _allocPoint) external onlyOperator {\r\n        massUpdatePools();\r\n        PoolInfo storage pool = poolInfo[_pid];\r\n        if (pool.isStarted) {\r\n            totalAllocPoint = totalAllocPoint.sub(pool.allocPoint).add(\r\n                _allocPoint\r\n            );\r\n        }\r\n        pool.allocPoint = _allocPoint;\r\n    }\r\n\r\n    function setOperator(address _operator) external onlyOperator {\r\n        operator = _operator;\r\n    }\r\n\r\n    function withdraw(uint256 _pid, uint256 _amount) external {\r\n        address _sender = msg.sender;\r\n        PoolInfo storage pool = poolInfo[_pid];\r\n        UserInfo storage user = userInfo[_pid][_sender];\r\n        require(user.amount >= _amount, \"withdraw: not good\");\r\n        updatePool(_pid);\r\n        uint256 _pending = user.amount.mul(pool.accSvnPerShare).div(1e18).sub(\r\n            user.rewardDebt\r\n        );\r\n        if (_pending > 0) {\r\n            safeSvnTransfer(_sender, _pending);\r\n            emit RewardPaid(_sender, _pending);\r\n        }\r\n        if (_amount > 0) {\r\n            user.amount = user.amount.sub(_amount);\r\n            pool.token.safeTransfer(_sender, _amount);\r\n        }\r\n        user.rewardDebt = user.amount.mul(pool.accSvnPerShare).div(1e18);\r\n        emit Withdraw(_sender, _pid, _amount);\r\n    }\r\n\r\n    function massUpdatePools() public {\r\n        uint256 length = poolInfo.length;\r\n        for (uint256 pid = 0; pid < length; ++pid) {\r\n            updatePool(pid);\r\n        }\r\n    }\r\n\r\n    function updatePool(uint256 _pid) public {\r\n        PoolInfo storage pool = poolInfo[_pid];\r\n        if (block.timestamp <= pool.lastRewardTime) {\r\n            return;\r\n        }\r\n        uint256 tokenSupply = pool.token.balanceOf(address(this));\r\n        if (tokenSupply == 0) {\r\n            pool.lastRewardTime = block.timestamp;\r\n            return;\r\n        }\r\n        if (!pool.isStarted) {\r\n            pool.isStarted = true;\r\n            totalAllocPoint = totalAllocPoint.add(pool.allocPoint);\r\n        }\r\n        if (totalAllocPoint > 0) {\r\n            uint256 _generatedReward = getGeneratedReward(\r\n                pool.lastRewardTime,\r\n                block.timestamp\r\n            );\r\n            uint256 _svnReward = _generatedReward.mul(pool.allocPoint).div(\r\n                totalAllocPoint\r\n            );\r\n            pool.accSvnPerShare = pool.accSvnPerShare.add(\r\n                _svnReward.mul(1e18).div(tokenSupply)\r\n            );\r\n        }\r\n        pool.lastRewardTime = block.timestamp;\r\n    }\r\n\r\n    function safeSvnTransfer(address _to, uint256 _amount) internal {\r\n        uint256 _svnBalance = svn.balanceOf(address(this));\r\n        if (_svnBalance > 0) {\r\n            if (_amount > _svnBalance) {\r\n                svn.safeTransfer(_to, _svnBalance);\r\n            } else {\r\n                svn.safeTransfer(_to, _amount);\r\n            }\r\n        }\r\n    }\r\n\r\n    modifier onlyOperator() {\r\n        require(\r\n            operator == msg.sender,\r\n            \"SvnGenesisPool: caller is not the operator\"\r\n        );\r\n        _;\r\n    }\r\n}\r\n",
  "sourcePath": "E:\\projects\\Blockchain\\Upwork\\defi_rent\\hamster-contracts-main\\contracts\\SvnGenesisRewardPool.sol",
  "compiler": {
    "name": "solc",
    "version": "0.6.12+commit.27d51765.Emscripten.clang"
  },
  "schemaVersion": "3.4.3",
  "updatedAt": "2022-03-21T18:38:32.636Z",
  "devdoc": {
    "kind": "dev",
    "methods": {},
    "version": 1
  },
  "userdoc": {
    "kind": "user",
    "methods": {},
    "version": 1
  }
}