{
  "contractName": "TaxOracle",
  "abi": [
    {
      "inputs": [
        {
          "internalType": "address",
          "name": "_svn",
          "type": "address"
        },
        {
          "internalType": "address",
          "name": "_wftm",
          "type": "address"
        },
        {
          "internalType": "address",
          "name": "_pair",
          "type": "address"
        }
      ],
      "stateMutability": "nonpayable",
      "type": "constructor"
    },
    {
      "anonymous": false,
      "inputs": [
        {
          "indexed": true,
          "internalType": "address",
          "name": "previousOwner",
          "type": "address"
        },
        {
          "indexed": true,
          "internalType": "address",
          "name": "newOwner",
          "type": "address"
        }
      ],
      "name": "OwnershipTransferred",
      "type": "event"
    },
    {
      "inputs": [],
      "name": "owner",
      "outputs": [
        {
          "internalType": "address",
          "name": "",
          "type": "address"
        }
      ],
      "stateMutability": "view",
      "type": "function",
      "constant": true
    },
    {
      "inputs": [],
      "name": "pair",
      "outputs": [
        {
          "internalType": "address",
          "name": "",
          "type": "address"
        }
      ],
      "stateMutability": "view",
      "type": "function",
      "constant": true
    },
    {
      "inputs": [],
      "name": "renounceOwnership",
      "outputs": [],
      "stateMutability": "nonpayable",
      "type": "function"
    },
    {
      "inputs": [],
      "name": "svn",
      "outputs": [
        {
          "internalType": "contract IERC20",
          "name": "",
          "type": "address"
        }
      ],
      "stateMutability": "view",
      "type": "function",
      "constant": true
    },
    {
      "inputs": [
        {
          "internalType": "address",
          "name": "newOwner",
          "type": "address"
        }
      ],
      "name": "transferOwnership",
      "outputs": [],
      "stateMutability": "nonpayable",
      "type": "function"
    },
    {
      "inputs": [],
      "name": "wftm",
      "outputs": [
        {
          "internalType": "contract IERC20",
          "name": "",
          "type": "address"
        }
      ],
      "stateMutability": "view",
      "type": "function",
      "constant": true
    },
    {
      "inputs": [
        {
          "internalType": "address",
          "name": "_token",
          "type": "address"
        },
        {
          "internalType": "uint256",
          "name": "_amountIn",
          "type": "uint256"
        }
      ],
      "name": "consult",
      "outputs": [
        {
          "internalType": "uint144",
          "name": "amountOut",
          "type": "uint144"
        }
      ],
      "stateMutability": "view",
      "type": "function",
      "constant": true
    },
    {
      "inputs": [],
      "name": "getSvnBalance",
      "outputs": [
        {
          "internalType": "uint256",
          "name": "",
          "type": "uint256"
        }
      ],
      "stateMutability": "view",
      "type": "function",
      "constant": true
    },
    {
      "inputs": [],
      "name": "getWftmBalance",
      "outputs": [
        {
          "internalType": "uint256",
          "name": "",
          "type": "uint256"
        }
      ],
      "stateMutability": "view",
      "type": "function",
      "constant": true
    },
    {
      "inputs": [],
      "name": "getPrice",
      "outputs": [
        {
          "internalType": "uint256",
          "name": "",
          "type": "uint256"
        }
      ],
      "stateMutability": "view",
      "type": "function",
      "constant": true
    },
    {
      "inputs": [
        {
          "internalType": "address",
          "name": "_svn",
          "type": "address"
        }
      ],
      "name": "setSvn",
      "outputs": [
        {
          "internalType": "bool",
          "name": "",
          "type": "bool"
        }
      ],
      "stateMutability": "nonpayable",
      "type": "function"
    },
    {
      "inputs": [
        {
          "internalType": "address",
          "name": "_wftm",
          "type": "address"
        }
      ],
      "name": "setWftm",
      "outputs": [
        {
          "internalType": "bool",
          "name": "",
          "type": "bool"
        }
      ],
      "stateMutability": "nonpayable",
      "type": "function"
    },
    {
      "inputs": [
        {
          "internalType": "address",
          "name": "_pair",
          "type": "address"
        }
      ],
      "name": "setPair",
      "outputs": [
        {
          "internalType": "bool",
          "name": "",
          "type": "bool"
        }
      ],
      "stateMutability": "nonpayable",
      "type": "function"
    }
  ],
  "bytecode": "0x608060405234801561001057600080fd5b5060405161122e38038061122e8339818101604052606081101561003357600080fd5b5080516020820151604090920151909190600061004e6101eb565b600080546001600160a01b0319166001600160a01b0383169081178255604051929350917f8be0079c531659141344cd1fd0a4f28419497f9722a3daafe3b4186f6b6457e0908290a3506001600160a01b0383166100f3576040805162461bcd60e51b815260206004820152601760248201527f73766e20616464726573732063616e6e6f742062652030000000000000000000604482015290519081900360640190fd5b6001600160a01b03821661014e576040805162461bcd60e51b815260206004820152601860248201527f7766746d20616464726573732063616e6e6f7420626520300000000000000000604482015290519081900360640190fd5b6001600160a01b0381166101a9576040805162461bcd60e51b815260206004820152601860248201527f7061697220616464726573732063616e6e6f7420626520300000000000000000604482015290519081900360640190fd5b600180546001600160a01b039485166001600160a01b0319918216179091556002805493851693821693909317909255600380549190931691161790556101ef565b3390565b611030806101fe6000396000f3fe608060405234801561001057600080fd5b50600436106100df5760003560e01c80639225630b1161008c578063a8aa1b3111610066578063a8aa1b3114610256578063b8950cae1461025e578063f2fde38b14610266578063f4f45b4614610299576100df565b80639225630b14610213578063953e18901461021b57806398d5fdca1461024e576100df565b8063715018a6116100bd578063715018a6146101a55780638187f516146101af5780638da5cb5b146101e2576100df565b80633ddac953146100e4578063545e88571461014457806357802a651461018b575b600080fd5b61011d600480360360408110156100fa57600080fd5b5073ffffffffffffffffffffffffffffffffffffffff81351690602001356102a1565b6040805171ffffffffffffffffffffffffffffffffffff9092168252519081900360200190f35b6101776004803603602081101561015a57600080fd5b503573ffffffffffffffffffffffffffffffffffffffff1661049c565b604080519115158252519081900360200190f35b610193610612565b60408051918252519081900360200190f35b6101ad6106bd565b005b610177600480360360208110156101c557600080fd5b503573ffffffffffffffffffffffffffffffffffffffff166107d4565b6101ea61094a565b6040805173ffffffffffffffffffffffffffffffffffffffff9092168252519081900360200190f35b610193610966565b6101776004803603602081101561023157600080fd5b503573ffffffffffffffffffffffffffffffffffffffff166109e0565b610193610b54565b6101ea610cbf565b6101ea610cdb565b6101ad6004803603602081101561027c57600080fd5b503573ffffffffffffffffffffffffffffffffffffffff16610cf7565b6101ea610e98565b60015460009073ffffffffffffffffffffffffffffffffffffffff84811691161461032d57604080517f08c379a000000000000000000000000000000000000000000000000000000000815260206004820152601560248201527f746f6b656e206e6565647320746f2062652073766e0000000000000000000000604482015290519081900360640190fd5b600154600354604080517f70a0823100000000000000000000000000000000000000000000000000000000815273ffffffffffffffffffffffffffffffffffffffff9283166004820152905160009392909216916370a0823191602480820192602092909190829003018186803b1580156103a757600080fd5b505afa1580156103bb573d6000803e3d6000fd5b505050506040513d60208110156103d157600080fd5b5051600254600354604080517f70a0823100000000000000000000000000000000000000000000000000000000815273ffffffffffffffffffffffffffffffffffffffff9283166004820152905193945060009391909216916370a08231916024808301926020929190829003018186803b15801561044f57600080fd5b505afa158015610463573d6000803e3d6000fd5b505050506040513d602081101561047957600080fd5b505190506104918161048b8487610eb4565b90610f2e565b925050505b92915050565b60006104a6610faf565b73ffffffffffffffffffffffffffffffffffffffff166104c461094a565b73ffffffffffffffffffffffffffffffffffffffff161461054657604080517f08c379a000000000000000000000000000000000000000000000000000000000815260206004820181905260248201527f4f776e61626c653a2063616c6c6572206973206e6f7420746865206f776e6572604482015290519081900360640190fd5b73ffffffffffffffffffffffffffffffffffffffff82166105c857604080517f08c379a000000000000000000000000000000000000000000000000000000000815260206004820152601860248201527f7766746d20616464726573732063616e6e6f7420626520300000000000000000604482015290519081900360640190fd5b506002805473ffffffffffffffffffffffffffffffffffffffff83167fffffffffffffffffffffffff00000000000000000000000000000000000000009091161790556001919050565b600254600354604080517f70a0823100000000000000000000000000000000000000000000000000000000815273ffffffffffffffffffffffffffffffffffffffff9283166004820152905160009392909216916370a0823191602480820192602092909190829003018186803b15801561068c57600080fd5b505afa1580156106a0573d6000803e3d6000fd5b505050506040513d60208110156106b657600080fd5b5051905090565b6106c5610faf565b73ffffffffffffffffffffffffffffffffffffffff166106e361094a565b73ffffffffffffffffffffffffffffffffffffffff161461076557604080517f08c379a000000000000000000000000000000000000000000000000000000000815260206004820181905260248201527f4f776e61626c653a2063616c6c6572206973206e6f7420746865206f776e6572604482015290519081900360640190fd5b6000805460405173ffffffffffffffffffffffffffffffffffffffff909116907f8be0079c531659141344cd1fd0a4f28419497f9722a3daafe3b4186f6b6457e0908390a3600080547fffffffffffffffffffffffff0000000000000000000000000000000000000000169055565b60006107de610faf565b73ffffffffffffffffffffffffffffffffffffffff166107fc61094a565b73ffffffffffffffffffffffffffffffffffffffff161461087e57604080517f08c379a000000000000000000000000000000000000000000000000000000000815260206004820181905260248201527f4f776e61626c653a2063616c6c6572206973206e6f7420746865206f776e6572604482015290519081900360640190fd5b73ffffffffffffffffffffffffffffffffffffffff821661090057604080517f08c379a000000000000000000000000000000000000000000000000000000000815260206004820152601860248201527f7061697220616464726573732063616e6e6f7420626520300000000000000000604482015290519081900360640190fd5b506003805473ffffffffffffffffffffffffffffffffffffffff83167fffffffffffffffffffffffff00000000000000000000000000000000000000009091161790556001919050565b60005473ffffffffffffffffffffffffffffffffffffffff1690565b600154600354604080517f70a0823100000000000000000000000000000000000000000000000000000000815273ffffffffffffffffffffffffffffffffffffffff9283166004820152905160009392909216916370a0823191602480820192602092909190829003018186803b15801561068c57600080fd5b60006109ea610faf565b73ffffffffffffffffffffffffffffffffffffffff16610a0861094a565b73ffffffffffffffffffffffffffffffffffffffff1614610a8a57604080517f08c379a000000000000000000000000000000000000000000000000000000000815260206004820181905260248201527f4f776e61626c653a2063616c6c6572206973206e6f7420746865206f776e6572604482015290519081900360640190fd5b73ffffffffffffffffffffffffffffffffffffffff8216610b0c57604080517f08c379a000000000000000000000000000000000000000000000000000000000815260206004820152601760248201527f73766e20616464726573732063616e6e6f742062652030000000000000000000604482015290519081900360640190fd5b506001805473ffffffffffffffffffffffffffffffffffffffff83167fffffffffffffffffffffffff0000000000000000000000000000000000000000909116178155919050565b600154600354604080517f70a0823100000000000000000000000000000000000000000000000000000000815273ffffffffffffffffffffffffffffffffffffffff92831660048201529051600093849316916370a08231916024808301926020929190829003018186803b158015610bcc57600080fd5b505afa158015610be0573d6000803e3d6000fd5b505050506040513d6020811015610bf657600080fd5b5051600254600354604080517f70a0823100000000000000000000000000000000000000000000000000000000815273ffffffffffffffffffffffffffffffffffffffff9283166004820152905193945060009391909216916370a08231916024808301926020929190829003018186803b158015610c7457600080fd5b505afa158015610c88573d6000803e3d6000fd5b505050506040513d6020811015610c9e57600080fd5b50519050610cb88161048b84670de0b6b3a7640000610eb4565b9250505090565b60035473ffffffffffffffffffffffffffffffffffffffff1681565b60015473ffffffffffffffffffffffffffffffffffffffff1681565b610cff610faf565b73ffffffffffffffffffffffffffffffffffffffff16610d1d61094a565b73ffffffffffffffffffffffffffffffffffffffff1614610d9f57604080517f08c379a000000000000000000000000000000000000000000000000000000000815260206004820181905260248201527f4f776e61626c653a2063616c6c6572206973206e6f7420746865206f776e6572604482015290519081900360640190fd5b73ffffffffffffffffffffffffffffffffffffffff8116610e0b576040517f08c379a0000000000000000000000000000000000000000000000000000000008152600401808060200182810382526026815260200180610fb46026913960400191505060405180910390fd5b6000805460405173ffffffffffffffffffffffffffffffffffffffff808516939216917f8be0079c531659141344cd1fd0a4f28419497f9722a3daafe3b4186f6b6457e091a3600080547fffffffffffffffffffffffff00000000000000000000000000000000000000001673ffffffffffffffffffffffffffffffffffffffff92909216919091179055565b60025473ffffffffffffffffffffffffffffffffffffffff1681565b600082610ec357506000610496565b82820282848281610ed057fe5b0414610f27576040517f08c379a0000000000000000000000000000000000000000000000000000000008152600401808060200182810382526021815260200180610fda6021913960400191505060405180910390fd5b9392505050565b6000808211610f9e57604080517f08c379a000000000000000000000000000000000000000000000000000000000815260206004820152601a60248201527f536166654d6174683a206469766973696f6e206279207a65726f000000000000604482015290519081900360640190fd5b818381610fa757fe5b049392505050565b339056fe4f776e61626c653a206e6577206f776e657220697320746865207a65726f2061646472657373536166654d6174683a206d756c7469706c69636174696f6e206f766572666c6f77a2646970667358221220974eb0fc47cf8ef151660d00e029fd0b3861cd3e6f958ade7e3ea9874dc33db164736f6c634300060c0033",
  "immutableReferences": {},
  "source": "// SPDX-License-Identifier: MIT\npragma solidity 0.6.12;\n\nimport \"@openzeppelin/contracts/math/SafeMath.sol\";\nimport \"@openzeppelin/contracts/access/Ownable.sol\";\nimport \"@openzeppelin/contracts/token/ERC20/IERC20.sol\";\n\ncontract TaxOracle is Ownable {\n    using SafeMath for uint256;\n\n    IERC20 public svn;\n    IERC20 public wftm;\n    address public pair;\n\n    constructor(\n        address _svn,\n        address _wftm,\n        address _pair\n    ) public {\n        require(_svn != address(0), \"svn address cannot be 0\");\n        require(_wftm != address(0), \"wftm address cannot be 0\");\n        require(_pair != address(0), \"pair address cannot be 0\");\n        svn = IERC20(_svn);\n        wftm = IERC20(_wftm);\n        pair = _pair;\n    }\n\n    function consult(address _token, uint256 _amountIn)\n        external\n        view\n        returns (uint144 amountOut)\n    {\n        require(_token == address(svn), \"token needs to be svn\");\n        uint256 svnBalance = svn.balanceOf(pair);\n        uint256 wftmBalance = wftm.balanceOf(pair);\n        return uint144(svnBalance.mul(_amountIn).div(wftmBalance));\n    }\n\n    function getSvnBalance() external view returns (uint256) {\n        return svn.balanceOf(pair);\n    }\n\n    function getWftmBalance() external view returns (uint256) {\n        return wftm.balanceOf(pair);\n    }\n\n    function getPrice() external view returns (uint256) {\n        uint256 svnBalance = svn.balanceOf(pair);\n        uint256 wftmBalance = wftm.balanceOf(pair);\n        return svnBalance.mul(1e18).div(wftmBalance);\n    }\n\n    function setSvn(address _svn) external onlyOwner returns (bool) {\n        require(_svn != address(0), \"svn address cannot be 0\");\n        svn = IERC20(_svn);\n        return true;\n    }\n\n    function setWftm(address _wftm) external onlyOwner returns (bool) {\n        require(_wftm != address(0), \"wftm address cannot be 0\");\n        wftm = IERC20(_wftm);\n        return true;\n    }\n\n    function setPair(address _pair) external onlyOwner returns (bool) {\n        require(_pair != address(0), \"pair address cannot be 0\");\n        pair = _pair;\n        return true;\n    }\n}\n",
  "sourcePath": "E:\\projects\\Blockchain\\Upwork\\defi_rent\\hamster-contracts-main\\contracts\\TaxOracle.sol",
  "compiler": {
    "name": "solc",
    "version": "0.6.12+commit.27d51765.Emscripten.clang"
  },
  "schemaVersion": "3.4.3",
  "updatedAt": "2022-03-21T18:40:38.552Z",
  "networkType": "ethereum",
  "devdoc": {
    "kind": "dev",
    "methods": {
      "owner()": {
        "details": "Returns the address of the current owner."
      },
      "renounceOwnership()": {
        "details": "Leaves the contract without owner. It will not be possible to call `onlyOwner` functions anymore. Can only be called by the current owner. NOTE: Renouncing ownership will leave the contract without an owner, thereby removing any functionality that is only available to the owner."
      },
      "transferOwnership(address)": {
        "details": "Transfers ownership of the contract to a new account (`newOwner`). Can only be called by the current owner."
      }
    },
    "version": 1
  },
  "userdoc": {
    "kind": "user",
    "methods": {},
    "version": 1
  }
}