{
  "contractName": "TaxOfficeV2",
  "abi": [
    {
      "inputs": [
        {
          "internalType": "address",
          "name": "_svn",
          "type": "address"
        },
        {
          "internalType": "address",
          "name": "_router",
          "type": "address"
        }
      ],
      "stateMutability": "nonpayable",
      "type": "constructor"
    },
    {
      "anonymous": false,
      "inputs": [
        {
          "indexed": true,
          "internalType": "address",
          "name": "previousOperator",
          "type": "address"
        },
        {
          "indexed": true,
          "internalType": "address",
          "name": "newOperator",
          "type": "address"
        }
      ],
      "name": "OperatorTransferred",
      "type": "event"
    },
    {
      "anonymous": false,
      "inputs": [
        {
          "indexed": true,
          "internalType": "address",
          "name": "previousOwner",
          "type": "address"
        },
        {
          "indexed": true,
          "internalType": "address",
          "name": "newOwner",
          "type": "address"
        }
      ],
      "name": "OwnershipTransferred",
      "type": "event"
    },
    {
      "inputs": [],
      "name": "isOperator",
      "outputs": [
        {
          "internalType": "bool",
          "name": "",
          "type": "bool"
        }
      ],
      "stateMutability": "view",
      "type": "function",
      "constant": true
    },
    {
      "inputs": [],
      "name": "operator",
      "outputs": [
        {
          "internalType": "address",
          "name": "",
          "type": "address"
        }
      ],
      "stateMutability": "view",
      "type": "function",
      "constant": true
    },
    {
      "inputs": [],
      "name": "owner",
      "outputs": [
        {
          "internalType": "address",
          "name": "",
          "type": "address"
        }
      ],
      "stateMutability": "view",
      "type": "function",
      "constant": true
    },
    {
      "inputs": [],
      "name": "renounceOwnership",
      "outputs": [],
      "stateMutability": "nonpayable",
      "type": "function"
    },
    {
      "inputs": [],
      "name": "router",
      "outputs": [
        {
          "internalType": "address",
          "name": "",
          "type": "address"
        }
      ],
      "stateMutability": "view",
      "type": "function",
      "constant": true
    },
    {
      "inputs": [],
      "name": "svn",
      "outputs": [
        {
          "internalType": "address",
          "name": "",
          "type": "address"
        }
      ],
      "stateMutability": "view",
      "type": "function",
      "constant": true
    },
    {
      "inputs": [
        {
          "internalType": "address",
          "name": "",
          "type": "address"
        }
      ],
      "name": "taxExclusionEnabled",
      "outputs": [
        {
          "internalType": "bool",
          "name": "",
          "type": "bool"
        }
      ],
      "stateMutability": "view",
      "type": "function",
      "constant": true
    },
    {
      "inputs": [
        {
          "internalType": "address",
          "name": "newOperator_",
          "type": "address"
        }
      ],
      "name": "transferOperator",
      "outputs": [],
      "stateMutability": "nonpayable",
      "type": "function"
    },
    {
      "inputs": [
        {
          "internalType": "address",
          "name": "newOwner",
          "type": "address"
        }
      ],
      "name": "transferOwnership",
      "outputs": [],
      "stateMutability": "nonpayable",
      "type": "function"
    },
    {
      "inputs": [],
      "name": "taxRate",
      "outputs": [
        {
          "internalType": "uint256",
          "name": "",
          "type": "uint256"
        }
      ],
      "stateMutability": "view",
      "type": "function",
      "constant": true
    },
    {
      "inputs": [
        {
          "internalType": "uint256",
          "name": "amtSvn",
          "type": "uint256"
        },
        {
          "internalType": "uint256",
          "name": "amtSvnMin",
          "type": "uint256"
        },
        {
          "internalType": "uint256",
          "name": "amtFtmMin",
          "type": "uint256"
        }
      ],
      "name": "addLiquidityETHTaxFree",
      "outputs": [
        {
          "internalType": "uint256",
          "name": "",
          "type": "uint256"
        },
        {
          "internalType": "uint256",
          "name": "",
          "type": "uint256"
        },
        {
          "internalType": "uint256",
          "name": "",
          "type": "uint256"
        }
      ],
      "stateMutability": "payable",
      "type": "function",
      "payable": true
    },
    {
      "inputs": [
        {
          "internalType": "address",
          "name": "token",
          "type": "address"
        },
        {
          "internalType": "uint256",
          "name": "amtSvn",
          "type": "uint256"
        },
        {
          "internalType": "uint256",
          "name": "amtToken",
          "type": "uint256"
        },
        {
          "internalType": "uint256",
          "name": "amtSvnMin",
          "type": "uint256"
        },
        {
          "internalType": "uint256",
          "name": "amtTokenMin",
          "type": "uint256"
        }
      ],
      "name": "addLiquidityTaxFree",
      "outputs": [
        {
          "internalType": "uint256",
          "name": "",
          "type": "uint256"
        },
        {
          "internalType": "uint256",
          "name": "",
          "type": "uint256"
        },
        {
          "internalType": "uint256",
          "name": "",
          "type": "uint256"
        }
      ],
      "stateMutability": "nonpayable",
      "type": "function"
    },
    {
      "inputs": [],
      "name": "disableAutoCalculateTax",
      "outputs": [],
      "stateMutability": "nonpayable",
      "type": "function"
    },
    {
      "inputs": [],
      "name": "enableAutoCalculateTax",
      "outputs": [],
      "stateMutability": "nonpayable",
      "type": "function"
    },
    {
      "inputs": [
        {
          "internalType": "address",
          "name": "_address",
          "type": "address"
        }
      ],
      "name": "excludeAddressFromTax",
      "outputs": [
        {
          "internalType": "bool",
          "name": "",
          "type": "bool"
        }
      ],
      "stateMutability": "nonpayable",
      "type": "function"
    },
    {
      "inputs": [
        {
          "internalType": "address",
          "name": "_address",
          "type": "address"
        }
      ],
      "name": "includeAddressInTax",
      "outputs": [
        {
          "internalType": "bool",
          "name": "",
          "type": "bool"
        }
      ],
      "stateMutability": "nonpayable",
      "type": "function"
    },
    {
      "inputs": [
        {
          "internalType": "uint256",
          "name": "_burnThreshold",
          "type": "uint256"
        }
      ],
      "name": "setBurnThreshold",
      "outputs": [],
      "stateMutability": "nonpayable",
      "type": "function"
    },
    {
      "inputs": [
        {
          "internalType": "address",
          "name": "_taxCollectorAddress",
          "type": "address"
        }
      ],
      "name": "setTaxCollectorAddress",
      "outputs": [],
      "stateMutability": "nonpayable",
      "type": "function"
    },
    {
      "inputs": [
        {
          "internalType": "address",
          "name": "_address",
          "type": "address"
        },
        {
          "internalType": "bool",
          "name": "_excluded",
          "type": "bool"
        }
      ],
      "name": "setTaxExclusionForAddress",
      "outputs": [],
      "stateMutability": "nonpayable",
      "type": "function"
    },
    {
      "inputs": [
        {
          "internalType": "uint256",
          "name": "_taxRate",
          "type": "uint256"
        }
      ],
      "name": "setTaxRate",
      "outputs": [],
      "stateMutability": "nonpayable",
      "type": "function"
    },
    {
      "inputs": [
        {
          "internalType": "uint8",
          "name": "_index",
          "type": "uint8"
        },
        {
          "internalType": "uint256",
          "name": "_value",
          "type": "uint256"
        }
      ],
      "name": "setTaxTiersRate",
      "outputs": [
        {
          "internalType": "bool",
          "name": "",
          "type": "bool"
        }
      ],
      "stateMutability": "nonpayable",
      "type": "function"
    },
    {
      "inputs": [
        {
          "internalType": "uint8",
          "name": "_index",
          "type": "uint8"
        },
        {
          "internalType": "uint256",
          "name": "_value",
          "type": "uint256"
        }
      ],
      "name": "setTaxTiersTwap",
      "outputs": [
        {
          "internalType": "bool",
          "name": "",
          "type": "bool"
        }
      ],
      "stateMutability": "nonpayable",
      "type": "function"
    },
    {
      "inputs": [
        {
          "internalType": "address",
          "name": "_svnOracle",
          "type": "address"
        }
      ],
      "name": "setTaxableSvnOracle",
      "outputs": [],
      "stateMutability": "nonpayable",
      "type": "function"
    },
    {
      "inputs": [
        {
          "internalType": "address",
          "name": "_sender",
          "type": "address"
        },
        {
          "internalType": "address",
          "name": "_recipient",
          "type": "address"
        },
        {
          "internalType": "uint256",
          "name": "_amt",
          "type": "uint256"
        }
      ],
      "name": "taxFreeTransferFrom",
      "outputs": [],
      "stateMutability": "nonpayable",
      "type": "function"
    },
    {
      "inputs": [
        {
          "internalType": "address",
          "name": "_newTaxOffice",
          "type": "address"
        }
      ],
      "name": "transferTaxOffice",
      "outputs": [],
      "stateMutability": "nonpayable",
      "type": "function"
    }
  ],
  "bytecode": "0x60806040523480156200001157600080fd5b50604051620026b1380380620026b1833981810160405260408110156200003757600080fd5b50805160209091015160006200004c620001d6565b600080546001600160a01b0319166001600160a01b0383169081178255604051929350917f8be0079c531659141344cd1fd0a4f28419497f9722a3daafe3b4186f6b6457e0908290a350620000a0620001d6565b600180546001600160a01b0319166001600160a01b0392831617908190556040519116906000907f74da04524d50c64947f5dd5381ef1a4dca5cba8ed1d816243f9e48aa0b5617ed908290a36001600160a01b03821662000148576040805162461bcd60e51b815260206004820152601760248201527f73766e20616464726573732063616e6e6f742062652030000000000000000000604482015290519081900360640190fd5b6001600160a01b038116620001a4576040805162461bcd60e51b815260206004820152601a60248201527f726f7574657220616464726573732063616e6e6f742062652030000000000000604482015290519081900360640190fd5b600280546001600160a01b039384166001600160a01b03199182161790915560038054929093169116179055620001da565b3390565b6124c780620001ea6000396000f3fe6080604052600436106101965760003560e01c80637fcd79c7116100e1578063c6d69a301161008a578063f1efacf911610064578063f1efacf9146105d8578063f2fde38b14610630578063f887ea4014610670578063ff87fc7c1461068557610196565b8063c6d69a301461051e578063d1d31a3714610548578063e1d8752e1461058857610196565b8063b87c5a4a116100bb578063b87c5a4a14610496578063b8950cae146104c9578063be94f86b146104de57610196565b80637fcd79c71461040f5780638da5cb5b146104575780639d6b5f211461046c57610196565b806365bbacd911610143578063715018a61161011d578063715018a61461038c57806373baccc0146103a1578063771a3a1d146103e857610196565b806365bbacd91461030457806366206ce91461031957806369356d471461034c57610196565b80634456eda2116101745780634456eda214610271578063570ca735146102865780635dacd638146102c457610196565b806313762bdc1461019b57806319db099d146101ef57806329605e771461022f575b600080fd5b3480156101a757600080fd5b506101db600480360360208110156101be57600080fd5b503573ffffffffffffffffffffffffffffffffffffffff1661069a565b604080519115158252519081900360200190f35b3480156101fb57600080fd5b506101db6004803603602081101561021257600080fd5b503573ffffffffffffffffffffffffffffffffffffffff166106af565b34801561023b57600080fd5b5061026f6004803603602081101561025257600080fd5b503573ffffffffffffffffffffffffffffffffffffffff16610733565b005b34801561027d57600080fd5b506101db6107e7565b34801561029257600080fd5b5061029b610827565b6040805173ffffffffffffffffffffffffffffffffffffffff9092168252519081900360200190f35b3480156102d057600080fd5b5061026f600480360360208110156102e757600080fd5b503573ffffffffffffffffffffffffffffffffffffffff16610843565b34801561031057600080fd5b5061026f610957565b34801561032557600080fd5b506101db6004803603604081101561033c57600080fd5b5060ff8135169060200135610a5f565b34801561035857600080fd5b5061026f6004803603602081101561036f57600080fd5b503573ffffffffffffffffffffffffffffffffffffffff16610b82565b34801561039857600080fd5b5061026f610c67565b6103ca600480360360608110156103b757600080fd5b5080359060208101359060400135610d7e565b60408051938452602084019290925282820152519081900360600190f35b3480156103f457600080fd5b506103fd61108f565b60408051918252519081900360200190f35b34801561041b57600080fd5b5061026f6004803603604081101561043257600080fd5b5073ffffffffffffffffffffffffffffffffffffffff8135169060200135151561112b565b34801561046357600080fd5b5061029b6111f1565b34801561047857600080fd5b5061026f6004803603602081101561048f57600080fd5b503561120d565b3480156104a257600080fd5b506101db600480360360408110156104b957600080fd5b5060ff81351690602001356112f1565b3480156104d557600080fd5b5061029b6113e1565b3480156104ea57600080fd5b506101db6004803603602081101561050157600080fd5b503573ffffffffffffffffffffffffffffffffffffffff166113fd565b34801561052a57600080fd5b5061026f6004803603602081101561054157600080fd5b5035611479565b34801561055457600080fd5b5061026f6004803603602081101561056b57600080fd5b503573ffffffffffffffffffffffffffffffffffffffff1661155d565b34801561059457600080fd5b5061026f600480360360608110156105ab57600080fd5b5073ffffffffffffffffffffffffffffffffffffffff813581169160208101359091169060400135611642565b3480156105e457600080fd5b506103ca600480360360a08110156105fb57600080fd5b5073ffffffffffffffffffffffffffffffffffffffff8135169060208101359060408101359060608101359060800135611774565b34801561063c57600080fd5b5061026f6004803603602081101561065357600080fd5b503573ffffffffffffffffffffffffffffffffffffffff16611c18565b34801561067c57600080fd5b5061029b611db9565b34801561069157600080fd5b5061026f611dd5565b60046020526000908152604090205460ff1681565b60015460009073ffffffffffffffffffffffffffffffffffffffff163314610722576040517f08c379a000000000000000000000000000000000000000000000000000000000815260040180806020018281038252602481526020018061246e6024913960400191505060405180910390fd5b61072b82611eaf565b90505b919050565b61073b612000565b73ffffffffffffffffffffffffffffffffffffffff166107596111f1565b73ffffffffffffffffffffffffffffffffffffffff16146107db57604080517f08c379a000000000000000000000000000000000000000000000000000000000815260206004820181905260248201527f4f776e61626c653a2063616c6c6572206973206e6f7420746865206f776e6572604482015290519081900360640190fd5b6107e481612004565b50565b60015460009073ffffffffffffffffffffffffffffffffffffffff1661080b612000565b73ffffffffffffffffffffffffffffffffffffffff1614905090565b60015473ffffffffffffffffffffffffffffffffffffffff1690565b60015473ffffffffffffffffffffffffffffffffffffffff1633146108b3576040517f08c379a000000000000000000000000000000000000000000000000000000000815260040180806020018281038252602481526020018061246e6024913960400191505060405180910390fd5b600254604080517fcf3d55f000000000000000000000000000000000000000000000000000000000815273ffffffffffffffffffffffffffffffffffffffff84811660048301529151919092169163cf3d55f09160248083019260209291908290030181600087803b15801561092857600080fd5b505af115801561093c573d6000803e3d6000fd5b505050506040513d602081101561095257600080fd5b505050565b60015473ffffffffffffffffffffffffffffffffffffffff1633146109c7576040517f08c379a000000000000000000000000000000000000000000000000000000000815260040180806020018281038252602481526020018061246e6024913960400191505060405180910390fd5b600260009054906101000a900473ffffffffffffffffffffffffffffffffffffffff1673ffffffffffffffffffffffffffffffffffffffff166365bbacd96040518163ffffffff1660e01b8152600401602060405180830381600087803b158015610a3157600080fd5b505af1158015610a45573d6000803e3d6000fd5b505050506040513d6020811015610a5b57600080fd5b5050565b60015460009073ffffffffffffffffffffffffffffffffffffffff163314610ad2576040517f08c379a000000000000000000000000000000000000000000000000000000000815260040180806020018281038252602481526020018061246e6024913960400191505060405180910390fd5b600254604080517f66206ce900000000000000000000000000000000000000000000000000000000815260ff8616600482015260248101859052905173ffffffffffffffffffffffffffffffffffffffff909216916366206ce9916044808201926020929091908290030181600087803b158015610b4f57600080fd5b505af1158015610b63573d6000803e3d6000fd5b505050506040513d6020811015610b7957600080fd5b50519392505050565b60015473ffffffffffffffffffffffffffffffffffffffff163314610bf2576040517f08c379a000000000000000000000000000000000000000000000000000000000815260040180806020018281038252602481526020018061246e6024913960400191505060405180910390fd5b600254604080517f69356d4700000000000000000000000000000000000000000000000000000000815273ffffffffffffffffffffffffffffffffffffffff8481166004830152915191909216916369356d479160248083019260209291908290030181600087803b15801561092857600080fd5b610c6f612000565b73ffffffffffffffffffffffffffffffffffffffff16610c8d6111f1565b73ffffffffffffffffffffffffffffffffffffffff1614610d0f57604080517f08c379a000000000000000000000000000000000000000000000000000000000815260206004820181905260248201527f4f776e61626c653a2063616c6c6572206973206e6f7420746865206f776e6572604482015290519081900360640190fd5b6000805460405173ffffffffffffffffffffffffffffffffffffffff909116907f8be0079c531659141344cd1fd0a4f28419497f9722a3daafe3b4186f6b6457e0908390a3600080547fffffffffffffffffffffffff0000000000000000000000000000000000000000169055565b600080808515801590610d9057503415155b610dfb57604080517f08c379a000000000000000000000000000000000000000000000000000000000815260206004820152601260248201527f616d6f756e74732063616e277420626520300000000000000000000000000000604482015290519081900360640190fd5b6000806000610e09336120fa565b50600254604080517f23b872dd000000000000000000000000000000000000000000000000000000008152336004820152306024820152604481018c9052905173ffffffffffffffffffffffffffffffffffffffff909216916323b872dd916064808201926020929091908290030181600087803b158015610e8a57600080fd5b505af1158015610e9e573d6000803e3d6000fd5b505050506040513d6020811015610eb457600080fd5b5050600254600354610edf9173ffffffffffffffffffffffffffffffffffffffff9081169116612217565b610ee833611eaf565b50600354600254604080517ff305d71900000000000000000000000000000000000000000000000000000000815273ffffffffffffffffffffffffffffffffffffffff9283166004820152602481018d9052604481018c9052606481018b90523360848201524260a48201529051919092169163f305d71991349160c48082019260609290919082900301818588803b158015610f8457600080fd5b505af1158015610f98573d6000803e3d6000fd5b50505050506040513d6060811015610faf57600080fd5b508051602082015160409092015190945090925090506000610fd18a85612378565b11156110805760025473ffffffffffffffffffffffffffffffffffffffff1663a9059cbb336110008c87612378565b6040518363ffffffff1660e01b8152600401808373ffffffffffffffffffffffffffffffffffffffff16815260200182815260200192505050602060405180830381600087803b15801561105357600080fd5b505af1158015611067573d6000803e3d6000fd5b505050506040513d602081101561107d57600080fd5b50505b91989097509095509350505050565b600254604080517f771a3a1d000000000000000000000000000000000000000000000000000000008152905160009273ffffffffffffffffffffffffffffffffffffffff169163771a3a1d916004808301926020929190829003018186803b1580156110fa57600080fd5b505afa15801561110e573d6000803e3d6000fd5b505050506040513d602081101561112457600080fd5b5051905090565b60015473ffffffffffffffffffffffffffffffffffffffff16331461119b576040517f08c379a000000000000000000000000000000000000000000000000000000000815260040180806020018281038252602481526020018061246e6024913960400191505060405180910390fd5b73ffffffffffffffffffffffffffffffffffffffff91909116600090815260046020526040902080547fffffffffffffffffffffffffffffffffffffffffffffffffffffffffffffff0016911515919091179055565b60005473ffffffffffffffffffffffffffffffffffffffff1690565b60015473ffffffffffffffffffffffffffffffffffffffff16331461127d576040517f08c379a000000000000000000000000000000000000000000000000000000000815260040180806020018281038252602481526020018061246e6024913960400191505060405180910390fd5b600254604080517f9d6b5f2100000000000000000000000000000000000000000000000000000000815260048101849052905173ffffffffffffffffffffffffffffffffffffffff90921691639d6b5f21916024808201926020929091908290030181600087803b15801561092857600080fd5b60015460009073ffffffffffffffffffffffffffffffffffffffff163314611364576040517f08c379a000000000000000000000000000000000000000000000000000000000815260040180806020018281038252602481526020018061246e6024913960400191505060405180910390fd5b600254604080517fb87c5a4a00000000000000000000000000000000000000000000000000000000815260ff8616600482015260248101859052905173ffffffffffffffffffffffffffffffffffffffff9092169163b87c5a4a916044808201926020929091908290030181600087803b158015610b4f57600080fd5b60025473ffffffffffffffffffffffffffffffffffffffff1681565b60015460009073ffffffffffffffffffffffffffffffffffffffff163314611470576040517f08c379a000000000000000000000000000000000000000000000000000000000815260040180806020018281038252602481526020018061246e6024913960400191505060405180910390fd5b61072b826120fa565b60015473ffffffffffffffffffffffffffffffffffffffff1633146114e9576040517f08c379a000000000000000000000000000000000000000000000000000000000815260040180806020018281038252602481526020018061246e6024913960400191505060405180910390fd5b600254604080517fc6d69a3000000000000000000000000000000000000000000000000000000000815260048101849052905173ffffffffffffffffffffffffffffffffffffffff9092169163c6d69a30916024808201926020929091908290030181600087803b15801561092857600080fd5b60015473ffffffffffffffffffffffffffffffffffffffff1633146115cd576040517f08c379a000000000000000000000000000000000000000000000000000000000815260040180806020018281038252602481526020018061246e6024913960400191505060405180910390fd5b600254604080517f3f07d76a00000000000000000000000000000000000000000000000000000000815273ffffffffffffffffffffffffffffffffffffffff848116600483015291519190921691633f07d76a9160248083019260209291908290030181600087803b15801561092857600080fd5b3360009081526004602052604090205460ff166116aa576040517f08c379a000000000000000000000000000000000000000000000000000000000815260040180806020018281038252602b815260200180612416602b913960400191505060405180910390fd5b6116b3836120fa565b50600254604080517f23b872dd00000000000000000000000000000000000000000000000000000000815273ffffffffffffffffffffffffffffffffffffffff8681166004830152858116602483015260448201859052915191909216916323b872dd9160648083019260209291908290030181600087803b15801561173857600080fd5b505af115801561174c573d6000803e3d6000fd5b505050506040513d602081101561176257600080fd5b5061176e905083611eaf565b50505050565b60008080861580159061178657508515155b6117f157604080517f08c379a000000000000000000000000000000000000000000000000000000000815260206004820152601260248201527f616d6f756e74732063616e277420626520300000000000000000000000000000604482015290519081900360640190fd5b60008060006117ff336120fa565b50600254604080517f23b872dd000000000000000000000000000000000000000000000000000000008152336004820152306024820152604481018d9052905173ffffffffffffffffffffffffffffffffffffffff909216916323b872dd916064808201926020929091908290030181600087803b15801561188057600080fd5b505af1158015611894573d6000803e3d6000fd5b505050506040513d60208110156118aa57600080fd5b5050604080517f23b872dd000000000000000000000000000000000000000000000000000000008152336004820152306024820152604481018b9052905173ffffffffffffffffffffffffffffffffffffffff8d16916323b872dd9160648083019260209291908290030181600087803b15801561192757600080fd5b505af115801561193b573d6000803e3d6000fd5b505050506040513d602081101561195157600080fd5b505060025460035461197c9173ffffffffffffffffffffffffffffffffffffffff9081169116612217565b6003546119a0908c9073ffffffffffffffffffffffffffffffffffffffff16612217565b6119a933611eaf565b50600354600254604080517fe8e3370000000000000000000000000000000000000000000000000000000000815273ffffffffffffffffffffffffffffffffffffffff92831660048201528e83166024820152604481018e9052606481018d9052608481018c905260a481018b90523360c48201524260e48201529051919092169163e8e33700916101048083019260609291908290030181600087803b158015611a5357600080fd5b505af1158015611a67573d6000803e3d6000fd5b505050506040513d6060811015611a7d57600080fd5b508051602082015160409092015190945090925090506000611a9f8b85612378565b1115611b4e5760025473ffffffffffffffffffffffffffffffffffffffff1663a9059cbb33611ace8d87612378565b6040518363ffffffff1660e01b8152600401808373ffffffffffffffffffffffffffffffffffffffff16815260200182815260200192505050602060405180830381600087803b158015611b2157600080fd5b505af1158015611b35573d6000803e3d6000fd5b505050506040513d6020811015611b4b57600080fd5b50505b6000611b5a8a84612378565b1115611c075773ffffffffffffffffffffffffffffffffffffffff8b1663a9059cbb33611b878c86612378565b6040518363ffffffff1660e01b8152600401808373ffffffffffffffffffffffffffffffffffffffff16815260200182815260200192505050602060405180830381600087803b158015611bda57600080fd5b505af1158015611bee573d6000803e3d6000fd5b505050506040513d6020811015611c0457600080fd5b50505b919a90995090975095505050505050565b611c20612000565b73ffffffffffffffffffffffffffffffffffffffff16611c3e6111f1565b73ffffffffffffffffffffffffffffffffffffffff1614611cc057604080517f08c379a000000000000000000000000000000000000000000000000000000000815260206004820181905260248201527f4f776e61626c653a2063616c6c6572206973206e6f7420746865206f776e6572604482015290519081900360640190fd5b73ffffffffffffffffffffffffffffffffffffffff8116611d2c576040517f08c379a00000000000000000000000000000000000000000000000000000000081526004018080602001828103825260268152602001806123f06026913960400191505060405180910390fd5b6000805460405173ffffffffffffffffffffffffffffffffffffffff808516939216917f8be0079c531659141344cd1fd0a4f28419497f9722a3daafe3b4186f6b6457e091a3600080547fffffffffffffffffffffffff00000000000000000000000000000000000000001673ffffffffffffffffffffffffffffffffffffffff92909216919091179055565b60035473ffffffffffffffffffffffffffffffffffffffff1681565b60015473ffffffffffffffffffffffffffffffffffffffff163314611e45576040517f08c379a000000000000000000000000000000000000000000000000000000000815260040180806020018281038252602481526020018061246e6024913960400191505060405180910390fd5b600260009054906101000a900473ffffffffffffffffffffffffffffffffffffffff1673ffffffffffffffffffffffffffffffffffffffff1663ff87fc7c6040518163ffffffff1660e01b8152600401602060405180830381600087803b158015610a3157600080fd5b600254604080517febca1bd900000000000000000000000000000000000000000000000000000000815273ffffffffffffffffffffffffffffffffffffffff84811660048301529151600093929092169163ebca1bd99160248082019260209290919082900301818787803b158015611f2757600080fd5b505af1158015611f3b573d6000803e3d6000fd5b505050506040513d6020811015611f5157600080fd5b50511561072e57600254604080517f93995d4b00000000000000000000000000000000000000000000000000000000815273ffffffffffffffffffffffffffffffffffffffff8581166004830152915191909216916393995d4b9160248083019260209291908290030181600087803b158015611fcd57600080fd5b505af1158015611fe1573d6000803e3d6000fd5b505050506040513d6020811015611ff757600080fd5b5051905061072e565b3390565b73ffffffffffffffffffffffffffffffffffffffff8116612070576040517f08c379a000000000000000000000000000000000000000000000000000000000815260040180806020018281038252602d815260200180612441602d913960400191505060405180910390fd5b60405173ffffffffffffffffffffffffffffffffffffffff8216906000907f74da04524d50c64947f5dd5381ef1a4dca5cba8ed1d816243f9e48aa0b5617ed908290a3600180547fffffffffffffffffffffffff00000000000000000000000000000000000000001673ffffffffffffffffffffffffffffffffffffffff92909216919091179055565b600254604080517febca1bd900000000000000000000000000000000000000000000000000000000815273ffffffffffffffffffffffffffffffffffffffff84811660048301529151600093929092169163ebca1bd99160248082019260209290919082900301818787803b15801561217257600080fd5b505af1158015612186573d6000803e3d6000fd5b505050506040513d602081101561219c57600080fd5b505161072e57600254604080517f3758e6ce00000000000000000000000000000000000000000000000000000000815273ffffffffffffffffffffffffffffffffffffffff858116600483015291519190921691633758e6ce9160248083019260209291908290030181600087803b158015611fcd57600080fd5b604080517fdd62ed3e00000000000000000000000000000000000000000000000000000000815230600482015273ffffffffffffffffffffffffffffffffffffffff838116602483015291519184169163dd62ed3e91604480820192602092909190829003018186803b15801561228d57600080fd5b505afa1580156122a1573d6000803e3d6000fd5b505050506040513d60208110156122b757600080fd5b5051610a5b578173ffffffffffffffffffffffffffffffffffffffff1663095ea7b3827fffffffffffffffffffffffffffffffffffffffffffffffffffffffffffffffff6040518363ffffffff1660e01b8152600401808373ffffffffffffffffffffffffffffffffffffffff16815260200182815260200192505050602060405180830381600087803b15801561234e57600080fd5b505af1158015612362573d6000803e3d6000fd5b505050506040513d602081101561176e57600080fd5b6000828211156123e957604080517f08c379a000000000000000000000000000000000000000000000000000000000815260206004820152601e60248201527f536166654d6174683a207375627472616374696f6e206f766572666c6f770000604482015290519081900360640190fd5b5090039056fe4f776e61626c653a206e6577206f776e657220697320746865207a65726f206164647265737341646472657373206e6f7420617070726f76656420666f72207461782066726565207472616e73666572736f70657261746f723a207a65726f206164647265737320676976656e20666f72206e6577206f70657261746f726f70657261746f723a2063616c6c6572206973206e6f7420746865206f70657261746f72a264697066735822122074acf4a4bbd9942d501016b27566f06488684b6d655e8437d74d5bdbb5abab3764736f6c634300060c0033",
  "immutableReferences": {},
  "source": "// SPDX-License-Identifier: MIT\npragma solidity 0.6.12;\n\nimport \"@openzeppelin/contracts/math/SafeMath.sol\";\nimport \"@openzeppelin/contracts/token/ERC20/IERC20.sol\";\nimport \"./Operator.sol\";\nimport \"./ITaxable.sol\";\nimport \"./IPancakeV2Router.sol\";\n\ncontract TaxOfficeV2 is Operator {\n    using SafeMath for uint256;\n\n    address public svn;\n    address public router;\n    mapping(address => bool) public taxExclusionEnabled;\n\n    function taxRate() external view returns (uint256) {\n        return ITaxable(svn).taxRate();\n    }\n\n    constructor(address _svn, address _router) public {\n        require(_svn != address(0), \"svn address cannot be 0\");\n        require(_router != address(0), \"router address cannot be 0\");\n        svn = _svn;\n        router = _router;\n    }\n\n    function addLiquidityETHTaxFree(\n        uint256 amtSvn,\n        uint256 amtSvnMin,\n        uint256 amtFtmMin\n    )\n        external\n        payable\n        returns (\n            uint256,\n            uint256,\n            uint256\n        )\n    {\n        require(amtSvn != 0 && msg.value != 0, \"amounts can't be 0\");\n        uint256 resultAmtSvn;\n        uint256 resultAmtFtm;\n        uint256 liquidity;\n        _excludeAddressFromTax(msg.sender);\n        IERC20(svn).transferFrom(msg.sender, address(this), amtSvn);\n        _approveTokenIfNeeded(svn, router);\n        _includeAddressInTax(msg.sender);\n        (resultAmtSvn, resultAmtFtm, liquidity) = IPancakeRouter02(router)\n            .addLiquidityETH{value: msg.value}(\n            svn,\n            amtSvn,\n            amtSvnMin,\n            amtFtmMin,\n            msg.sender,\n            block.timestamp\n        );\n        if (amtSvn.sub(resultAmtSvn) > 0) {\n            IERC20(svn).transfer(msg.sender, amtSvn.sub(resultAmtSvn));\n        }\n        return (resultAmtSvn, resultAmtFtm, liquidity);\n    }\n\n    function addLiquidityTaxFree(\n        address token,\n        uint256 amtSvn,\n        uint256 amtToken,\n        uint256 amtSvnMin,\n        uint256 amtTokenMin\n    )\n        external\n        returns (\n            uint256,\n            uint256,\n            uint256\n        )\n    {\n        require(amtSvn != 0 && amtToken != 0, \"amounts can't be 0\");\n        uint256 resultAmtSvn;\n        uint256 resultAmtToken;\n        uint256 liquidity;\n        _excludeAddressFromTax(msg.sender);\n        IERC20(svn).transferFrom(msg.sender, address(this), amtSvn);\n        IERC20(token).transferFrom(msg.sender, address(this), amtToken);\n        _approveTokenIfNeeded(svn, router);\n        _approveTokenIfNeeded(token, router);\n        _includeAddressInTax(msg.sender);\n        (resultAmtSvn, resultAmtToken, liquidity) = IPancakeRouter02(router)\n            .addLiquidity(\n                svn,\n                token,\n                amtSvn,\n                amtToken,\n                amtSvnMin,\n                amtTokenMin,\n                msg.sender,\n                block.timestamp\n            );\n        if (amtSvn.sub(resultAmtSvn) > 0) {\n            IERC20(svn).transfer(msg.sender, amtSvn.sub(resultAmtSvn));\n        }\n        if (amtToken.sub(resultAmtToken) > 0) {\n            IERC20(token).transfer(msg.sender, amtToken.sub(resultAmtToken));\n        }\n        return (resultAmtSvn, resultAmtToken, liquidity);\n    }\n\n    function disableAutoCalculateTax() external onlyOperator {\n        ITaxable(svn).disableAutoCalculateTax();\n    }\n\n    function enableAutoCalculateTax() external onlyOperator {\n        ITaxable(svn).enableAutoCalculateTax();\n    }\n\n    function excludeAddressFromTax(address _address)\n        external\n        onlyOperator\n        returns (bool)\n    {\n        return _excludeAddressFromTax(_address);\n    }\n\n    function includeAddressInTax(address _address)\n        external\n        onlyOperator\n        returns (bool)\n    {\n        return _includeAddressInTax(_address);\n    }\n\n    function setBurnThreshold(uint256 _burnThreshold) external onlyOperator {\n        ITaxable(svn).setBurnThreshold(_burnThreshold);\n    }\n\n    function setTaxCollectorAddress(address _taxCollectorAddress)\n        external\n        onlyOperator\n    {\n        ITaxable(svn).setTaxCollectorAddress(_taxCollectorAddress);\n    }\n\n    function setTaxExclusionForAddress(address _address, bool _excluded)\n        external\n        onlyOperator\n    {\n        taxExclusionEnabled[_address] = _excluded;\n    }\n\n    function setTaxRate(uint256 _taxRate) external onlyOperator {\n        ITaxable(svn).setTaxRate(_taxRate);\n    }\n\n    function setTaxTiersRate(uint8 _index, uint256 _value)\n        external\n        onlyOperator\n        returns (bool)\n    {\n        return ITaxable(svn).setTaxTiersRate(_index, _value);\n    }\n\n    function setTaxTiersTwap(uint8 _index, uint256 _value)\n        external\n        onlyOperator\n        returns (bool)\n    {\n        return ITaxable(svn).setTaxTiersTwap(_index, _value);\n    }\n\n    function setTaxableSvnOracle(address _svnOracle) external onlyOperator {\n        ITaxable(svn).setSvnOracle(_svnOracle);\n    }\n\n    function taxFreeTransferFrom(\n        address _sender,\n        address _recipient,\n        uint256 _amt\n    ) external {\n        require(\n            taxExclusionEnabled[msg.sender],\n            \"Address not approved for tax free transfers\"\n        );\n        _excludeAddressFromTax(_sender);\n        IERC20(svn).transferFrom(_sender, _recipient, _amt);\n        _includeAddressInTax(_sender);\n    }\n\n    function transferTaxOffice(address _newTaxOffice) external onlyOperator {\n        ITaxable(svn).setTaxOffice(_newTaxOffice);\n    }\n\n    function _approveTokenIfNeeded(address _token, address _router) private {\n        if (IERC20(_token).allowance(address(this), _router) == 0) {\n            IERC20(_token).approve(_router, type(uint256).max);\n        }\n    }\n\n    function _excludeAddressFromTax(address _address) private returns (bool) {\n        if (!ITaxable(svn).isAddressExcluded(_address)) {\n            return ITaxable(svn).excludeAddress(_address);\n        }\n    }\n\n    function _includeAddressInTax(address _address) private returns (bool) {\n        if (ITaxable(svn).isAddressExcluded(_address)) {\n            return ITaxable(svn).includeAddress(_address);\n        }\n    }\n}\n",
  "sourcePath": "E:\\projects\\Blockchain\\Upwork\\defi_rent\\hamster-contracts-main\\contracts\\TaxOfficeV2.sol",
  "compiler": {
    "name": "solc",
    "version": "0.6.12+commit.27d51765.Emscripten.clang"
  },
  "schemaVersion": "3.4.3",
  "updatedAt": "2022-03-21T18:40:38.701Z",
  "networkType": "ethereum",
  "devdoc": {
    "kind": "dev",
    "methods": {
      "owner()": {
        "details": "Returns the address of the current owner."
      },
      "renounceOwnership()": {
        "details": "Leaves the contract without owner. It will not be possible to call `onlyOwner` functions anymore. Can only be called by the current owner. NOTE: Renouncing ownership will leave the contract without an owner, thereby removing any functionality that is only available to the owner."
      },
      "transferOwnership(address)": {
        "details": "Transfers ownership of the contract to a new account (`newOwner`). Can only be called by the current owner."
      }
    },
    "version": 1
  },
  "userdoc": {
    "kind": "user",
    "methods": {},
    "version": 1
  }
}