{
  "contractName": "Treasury",
  "abi": [
    {
      "anonymous": false,
      "inputs": [
        {
          "indexed": true,
          "internalType": "address",
          "name": "from",
          "type": "address"
        },
        {
          "indexed": false,
          "internalType": "uint256",
          "name": "svnAmount",
          "type": "uint256"
        },
        {
          "indexed": false,
          "internalType": "uint256",
          "name": "bondAmount",
          "type": "uint256"
        },
        {
          "indexed": false,
          "internalType": "uint256",
          "name": "epochNumber",
          "type": "uint256"
        }
      ],
      "name": "BoughtBonds",
      "type": "event"
    },
    {
      "anonymous": false,
      "inputs": [
        {
          "indexed": true,
          "internalType": "address",
          "name": "from",
          "type": "address"
        },
        {
          "indexed": false,
          "internalType": "uint256",
          "name": "bondAmount",
          "type": "uint256"
        }
      ],
      "name": "BurnedBonds",
      "type": "event"
    },
    {
      "anonymous": false,
      "inputs": [
        {
          "indexed": false,
          "internalType": "uint256",
          "name": "timestamp",
          "type": "uint256"
        },
        {
          "indexed": false,
          "internalType": "uint256",
          "name": "seigniorage",
          "type": "uint256"
        },
        {
          "indexed": false,
          "internalType": "uint256",
          "name": "epochNumber",
          "type": "uint256"
        }
      ],
      "name": "DaoFundFunded",
      "type": "event"
    },
    {
      "anonymous": false,
      "inputs": [
        {
          "indexed": false,
          "internalType": "uint256",
          "name": "timestamp",
          "type": "uint256"
        },
        {
          "indexed": false,
          "internalType": "uint256",
          "name": "seigniorage",
          "type": "uint256"
        },
        {
          "indexed": false,
          "internalType": "uint256",
          "name": "epochNumber",
          "type": "uint256"
        }
      ],
      "name": "DevFundFunded",
      "type": "event"
    },
    {
      "anonymous": false,
      "inputs": [
        {
          "indexed": true,
          "internalType": "address",
          "name": "executor",
          "type": "address"
        },
        {
          "indexed": false,
          "internalType": "uint256",
          "name": "at",
          "type": "uint256"
        }
      ],
      "name": "Initialized",
      "type": "event"
    },
    {
      "anonymous": false,
      "inputs": [
        {
          "indexed": true,
          "internalType": "address",
          "name": "from",
          "type": "address"
        },
        {
          "indexed": false,
          "internalType": "uint256",
          "name": "svnAmount",
          "type": "uint256"
        },
        {
          "indexed": false,
          "internalType": "uint256",
          "name": "bondAmount",
          "type": "uint256"
        },
        {
          "indexed": false,
          "internalType": "uint256",
          "name": "epochNumber",
          "type": "uint256"
        }
      ],
      "name": "RedeemedBonds",
      "type": "event"
    },
    {
      "anonymous": false,
      "inputs": [
        {
          "indexed": false,
          "internalType": "uint256",
          "name": "timestamp",
          "type": "uint256"
        },
        {
          "indexed": false,
          "internalType": "uint256",
          "name": "seigniorage",
          "type": "uint256"
        },
        {
          "indexed": false,
          "internalType": "uint256",
          "name": "epochNumber",
          "type": "uint256"
        }
      ],
      "name": "SvnWheelFunded",
      "type": "event"
    },
    {
      "anonymous": false,
      "inputs": [
        {
          "indexed": false,
          "internalType": "uint256",
          "name": "timestamp",
          "type": "uint256"
        },
        {
          "indexed": false,
          "internalType": "uint256",
          "name": "seigniorage",
          "type": "uint256"
        },
        {
          "indexed": false,
          "internalType": "uint256",
          "name": "epochNumber",
          "type": "uint256"
        }
      ],
      "name": "TreasuryFunded",
      "type": "event"
    },
    {
      "inputs": [],
      "name": "PERIOD",
      "outputs": [
        {
          "internalType": "uint256",
          "name": "",
          "type": "uint256"
        }
      ],
      "stateMutability": "view",
      "type": "function",
      "constant": true
    },
    {
      "inputs": [],
      "name": "bondDepletionFloorPercent",
      "outputs": [
        {
          "internalType": "uint256",
          "name": "",
          "type": "uint256"
        }
      ],
      "stateMutability": "view",
      "type": "function",
      "constant": true
    },
    {
      "inputs": [],
      "name": "bootstrapEpochs",
      "outputs": [
        {
          "internalType": "uint256",
          "name": "",
          "type": "uint256"
        }
      ],
      "stateMutability": "view",
      "type": "function",
      "constant": true
    },
    {
      "inputs": [],
      "name": "bootstrapSupplyExpansionPercent",
      "outputs": [
        {
          "internalType": "uint256",
          "name": "",
          "type": "uint256"
        }
      ],
      "stateMutability": "view",
      "type": "function",
      "constant": true
    },
    {
      "inputs": [],
      "name": "daoFund",
      "outputs": [
        {
          "internalType": "address",
          "name": "",
          "type": "address"
        }
      ],
      "stateMutability": "view",
      "type": "function",
      "constant": true
    },
    {
      "inputs": [],
      "name": "daoFundSharedPercent",
      "outputs": [
        {
          "internalType": "uint256",
          "name": "",
          "type": "uint256"
        }
      ],
      "stateMutability": "view",
      "type": "function",
      "constant": true
    },
    {
      "inputs": [],
      "name": "devFund",
      "outputs": [
        {
          "internalType": "address",
          "name": "",
          "type": "address"
        }
      ],
      "stateMutability": "view",
      "type": "function",
      "constant": true
    },
    {
      "inputs": [],
      "name": "devFundSharedPercent",
      "outputs": [
        {
          "internalType": "uint256",
          "name": "",
          "type": "uint256"
        }
      ],
      "stateMutability": "view",
      "type": "function",
      "constant": true
    },
    {
      "inputs": [],
      "name": "discountPercent",
      "outputs": [
        {
          "internalType": "uint256",
          "name": "",
          "type": "uint256"
        }
      ],
      "stateMutability": "view",
      "type": "function",
      "constant": true
    },
    {
      "inputs": [],
      "name": "epoch",
      "outputs": [
        {
          "internalType": "uint256",
          "name": "",
          "type": "uint256"
        }
      ],
      "stateMutability": "view",
      "type": "function",
      "constant": true
    },
    {
      "inputs": [],
      "name": "epochSupplyContractionLeft",
      "outputs": [
        {
          "internalType": "uint256",
          "name": "",
          "type": "uint256"
        }
      ],
      "stateMutability": "view",
      "type": "function",
      "constant": true
    },
    {
      "inputs": [
        {
          "internalType": "uint256",
          "name": "",
          "type": "uint256"
        }
      ],
      "name": "excludedFromTotalSupply",
      "outputs": [
        {
          "internalType": "address",
          "name": "",
          "type": "address"
        }
      ],
      "stateMutability": "view",
      "type": "function",
      "constant": true
    },
    {
      "inputs": [],
      "name": "initialized",
      "outputs": [
        {
          "internalType": "bool",
          "name": "",
          "type": "bool"
        }
      ],
      "stateMutability": "view",
      "type": "function",
      "constant": true
    },
    {
      "inputs": [],
      "name": "maxDebtRatioPercent",
      "outputs": [
        {
          "internalType": "uint256",
          "name": "",
          "type": "uint256"
        }
      ],
      "stateMutability": "view",
      "type": "function",
      "constant": true
    },
    {
      "inputs": [],
      "name": "maxDiscountRate",
      "outputs": [
        {
          "internalType": "uint256",
          "name": "",
          "type": "uint256"
        }
      ],
      "stateMutability": "view",
      "type": "function",
      "constant": true
    },
    {
      "inputs": [
        {
          "internalType": "uint256",
          "name": "",
          "type": "uint256"
        }
      ],
      "name": "maxExpansionTiers",
      "outputs": [
        {
          "internalType": "uint256",
          "name": "",
          "type": "uint256"
        }
      ],
      "stateMutability": "view",
      "type": "function",
      "constant": true
    },
    {
      "inputs": [],
      "name": "maxPremiumRate",
      "outputs": [
        {
          "internalType": "uint256",
          "name": "",
          "type": "uint256"
        }
      ],
      "stateMutability": "view",
      "type": "function",
      "constant": true
    },
    {
      "inputs": [],
      "name": "maxSupplyContractionPercent",
      "outputs": [
        {
          "internalType": "uint256",
          "name": "",
          "type": "uint256"
        }
      ],
      "stateMutability": "view",
      "type": "function",
      "constant": true
    },
    {
      "inputs": [],
      "name": "maxSupplyExpansionPercent",
      "outputs": [
        {
          "internalType": "uint256",
          "name": "",
          "type": "uint256"
        }
      ],
      "stateMutability": "view",
      "type": "function",
      "constant": true
    },
    {
      "inputs": [],
      "name": "mintingFactorForPayingDebt",
      "outputs": [
        {
          "internalType": "uint256",
          "name": "",
          "type": "uint256"
        }
      ],
      "stateMutability": "view",
      "type": "function",
      "constant": true
    },
    {
      "inputs": [],
      "name": "operator",
      "outputs": [
        {
          "internalType": "address",
          "name": "",
          "type": "address"
        }
      ],
      "stateMutability": "view",
      "type": "function",
      "constant": true
    },
    {
      "inputs": [],
      "name": "premiumPercent",
      "outputs": [
        {
          "internalType": "uint256",
          "name": "",
          "type": "uint256"
        }
      ],
      "stateMutability": "view",
      "type": "function",
      "constant": true
    },
    {
      "inputs": [],
      "name": "premiumThreshold",
      "outputs": [
        {
          "internalType": "uint256",
          "name": "",
          "type": "uint256"
        }
      ],
      "stateMutability": "view",
      "type": "function",
      "constant": true
    },
    {
      "inputs": [],
      "name": "previousEpochSvnPrice",
      "outputs": [
        {
          "internalType": "uint256",
          "name": "",
          "type": "uint256"
        }
      ],
      "stateMutability": "view",
      "type": "function",
      "constant": true
    },
    {
      "inputs": [],
      "name": "seigniorageExpansionFloorPercent",
      "outputs": [
        {
          "internalType": "uint256",
          "name": "",
          "type": "uint256"
        }
      ],
      "stateMutability": "view",
      "type": "function",
      "constant": true
    },
    {
      "inputs": [],
      "name": "seigniorageSaved",
      "outputs": [
        {
          "internalType": "uint256",
          "name": "",
          "type": "uint256"
        }
      ],
      "stateMutability": "view",
      "type": "function",
      "constant": true
    },
    {
      "inputs": [],
      "name": "startTime",
      "outputs": [
        {
          "internalType": "uint256",
          "name": "",
          "type": "uint256"
        }
      ],
      "stateMutability": "view",
      "type": "function",
      "constant": true
    },
    {
      "inputs": [
        {
          "internalType": "uint256",
          "name": "",
          "type": "uint256"
        }
      ],
      "name": "supplyTiers",
      "outputs": [
        {
          "internalType": "uint256",
          "name": "",
          "type": "uint256"
        }
      ],
      "stateMutability": "view",
      "type": "function",
      "constant": true
    },
    {
      "inputs": [],
      "name": "svn",
      "outputs": [
        {
          "internalType": "address",
          "name": "",
          "type": "address"
        }
      ],
      "stateMutability": "view",
      "type": "function",
      "constant": true
    },
    {
      "inputs": [],
      "name": "svnOracle",
      "outputs": [
        {
          "internalType": "address",
          "name": "",
          "type": "address"
        }
      ],
      "stateMutability": "view",
      "type": "function",
      "constant": true
    },
    {
      "inputs": [],
      "name": "svnPriceCeiling",
      "outputs": [
        {
          "internalType": "uint256",
          "name": "",
          "type": "uint256"
        }
      ],
      "stateMutability": "view",
      "type": "function",
      "constant": true
    },
    {
      "inputs": [],
      "name": "svnPriceOne",
      "outputs": [
        {
          "internalType": "uint256",
          "name": "",
          "type": "uint256"
        }
      ],
      "stateMutability": "view",
      "type": "function",
      "constant": true
    },
    {
      "inputs": [],
      "name": "svnWheel",
      "outputs": [
        {
          "internalType": "address",
          "name": "",
          "type": "address"
        }
      ],
      "stateMutability": "view",
      "type": "function",
      "constant": true
    },
    {
      "inputs": [],
      "name": "svnbond",
      "outputs": [
        {
          "internalType": "address",
          "name": "",
          "type": "address"
        }
      ],
      "stateMutability": "view",
      "type": "function",
      "constant": true
    },
    {
      "inputs": [],
      "name": "svnshare",
      "outputs": [
        {
          "internalType": "address",
          "name": "",
          "type": "address"
        }
      ],
      "stateMutability": "view",
      "type": "function",
      "constant": true
    },
    {
      "inputs": [],
      "name": "getBurnableSvnLeft",
      "outputs": [
        {
          "internalType": "uint256",
          "name": "_burnableSvnLeft",
          "type": "uint256"
        }
      ],
      "stateMutability": "view",
      "type": "function",
      "constant": true
    },
    {
      "inputs": [],
      "name": "getSvnUpdatedPrice",
      "outputs": [
        {
          "internalType": "uint256",
          "name": "_svnPrice",
          "type": "uint256"
        }
      ],
      "stateMutability": "view",
      "type": "function",
      "constant": true
    },
    {
      "inputs": [],
      "name": "getRedeemableBonds",
      "outputs": [
        {
          "internalType": "uint256",
          "name": "_redeemableBonds",
          "type": "uint256"
        }
      ],
      "stateMutability": "view",
      "type": "function",
      "constant": true
    },
    {
      "inputs": [],
      "name": "getReserve",
      "outputs": [
        {
          "internalType": "uint256",
          "name": "",
          "type": "uint256"
        }
      ],
      "stateMutability": "view",
      "type": "function",
      "constant": true
    },
    {
      "inputs": [],
      "name": "isInitialized",
      "outputs": [
        {
          "internalType": "bool",
          "name": "",
          "type": "bool"
        }
      ],
      "stateMutability": "view",
      "type": "function",
      "constant": true
    },
    {
      "inputs": [],
      "name": "getBondDiscountRate",
      "outputs": [
        {
          "internalType": "uint256",
          "name": "_rate",
          "type": "uint256"
        }
      ],
      "stateMutability": "view",
      "type": "function",
      "constant": true
    },
    {
      "inputs": [],
      "name": "getBondPremiumRate",
      "outputs": [
        {
          "internalType": "uint256",
          "name": "_rate",
          "type": "uint256"
        }
      ],
      "stateMutability": "view",
      "type": "function",
      "constant": true
    },
    {
      "inputs": [],
      "name": "getSvnCirculatingSupply",
      "outputs": [
        {
          "internalType": "uint256",
          "name": "",
          "type": "uint256"
        }
      ],
      "stateMutability": "view",
      "type": "function",
      "constant": true
    },
    {
      "inputs": [],
      "name": "getSvnPrice",
      "outputs": [
        {
          "internalType": "uint256",
          "name": "svnPrice",
          "type": "uint256"
        }
      ],
      "stateMutability": "view",
      "type": "function",
      "constant": true
    },
    {
      "inputs": [],
      "name": "nextEpochPoint",
      "outputs": [
        {
          "internalType": "uint256",
          "name": "",
          "type": "uint256"
        }
      ],
      "stateMutability": "view",
      "type": "function",
      "constant": true
    },
    {
      "inputs": [],
      "name": "allocateSeigniorage",
      "outputs": [],
      "stateMutability": "nonpayable",
      "type": "function"
    },
    {
      "inputs": [
        {
          "internalType": "uint256",
          "name": "_svnAmount",
          "type": "uint256"
        },
        {
          "internalType": "uint256",
          "name": "targetPrice",
          "type": "uint256"
        }
      ],
      "name": "buyBonds",
      "outputs": [],
      "stateMutability": "nonpayable",
      "type": "function"
    },
    {
      "inputs": [
        {
          "internalType": "contract IERC20",
          "name": "_token",
          "type": "address"
        },
        {
          "internalType": "uint256",
          "name": "_amount",
          "type": "uint256"
        },
        {
          "internalType": "address",
          "name": "_to",
          "type": "address"
        }
      ],
      "name": "governanceRecoverUnsupported",
      "outputs": [],
      "stateMutability": "nonpayable",
      "type": "function"
    },
    {
      "inputs": [
        {
          "internalType": "uint256",
          "name": "amount",
          "type": "uint256"
        }
      ],
      "name": "svnWheelAllocateSeigniorage",
      "outputs": [],
      "stateMutability": "nonpayable",
      "type": "function"
    },
    {
      "inputs": [
        {
          "internalType": "address",
          "name": "_token",
          "type": "address"
        },
        {
          "internalType": "uint256",
          "name": "_amount",
          "type": "uint256"
        },
        {
          "internalType": "address",
          "name": "_to",
          "type": "address"
        }
      ],
      "name": "svnWheelGovernanceRecoverUnsupported",
      "outputs": [],
      "stateMutability": "nonpayable",
      "type": "function"
    },
    {
      "inputs": [
        {
          "internalType": "uint256",
          "name": "_withdrawLockupEpochs",
          "type": "uint256"
        },
        {
          "internalType": "uint256",
          "name": "_rewardLockupEpochs",
          "type": "uint256"
        }
      ],
      "name": "svnWheelSetLockUp",
      "outputs": [],
      "stateMutability": "nonpayable",
      "type": "function"
    },
    {
      "inputs": [
        {
          "internalType": "address",
          "name": "_operator",
          "type": "address"
        }
      ],
      "name": "svnWheelSetOperator",
      "outputs": [],
      "stateMutability": "nonpayable",
      "type": "function"
    },
    {
      "inputs": [
        {
          "internalType": "address",
          "name": "_svn",
          "type": "address"
        },
        {
          "internalType": "address",
          "name": "_svnbond",
          "type": "address"
        },
        {
          "internalType": "address",
          "name": "_svnshare",
          "type": "address"
        },
        {
          "internalType": "address",
          "name": "_svnOracle",
          "type": "address"
        },
        {
          "internalType": "address",
          "name": "_svnWheel",
          "type": "address"
        },
        {
          "internalType": "uint256",
          "name": "_startTime",
          "type": "uint256"
        },
        {
          "internalType": "address[]",
          "name": "excludedFromTotalSupply_",
          "type": "address[]"
        }
      ],
      "name": "initialize",
      "outputs": [],
      "stateMutability": "nonpayable",
      "type": "function"
    },
    {
      "inputs": [
        {
          "internalType": "uint256",
          "name": "_bondAmount",
          "type": "uint256"
        },
        {
          "internalType": "uint256",
          "name": "targetPrice",
          "type": "uint256"
        }
      ],
      "name": "redeemBonds",
      "outputs": [],
      "stateMutability": "nonpayable",
      "type": "function"
    },
    {
      "inputs": [
        {
          "internalType": "uint256",
          "name": "_bondDepletionFloorPercent",
          "type": "uint256"
        }
      ],
      "name": "setBondDepletionFloorPercent",
      "outputs": [],
      "stateMutability": "nonpayable",
      "type": "function"
    },
    {
      "inputs": [
        {
          "internalType": "uint256",
          "name": "_bootstrapEpochs",
          "type": "uint256"
        },
        {
          "internalType": "uint256",
          "name": "_bootstrapSupplyExpansionPercent",
          "type": "uint256"
        }
      ],
      "name": "setBootstrap",
      "outputs": [],
      "stateMutability": "nonpayable",
      "type": "function"
    },
    {
      "inputs": [
        {
          "internalType": "uint256",
          "name": "_discountPercent",
          "type": "uint256"
        }
      ],
      "name": "setDiscountPercent",
      "outputs": [],
      "stateMutability": "nonpayable",
      "type": "function"
    },
    {
      "inputs": [
        {
          "internalType": "address",
          "name": "_daoFund",
          "type": "address"
        },
        {
          "internalType": "uint256",
          "name": "_daoFundSharedPercent",
          "type": "uint256"
        },
        {
          "internalType": "address",
          "name": "_devFund",
          "type": "address"
        },
        {
          "internalType": "uint256",
          "name": "_devFundSharedPercent",
          "type": "uint256"
        }
      ],
      "name": "setExtraFunds",
      "outputs": [],
      "stateMutability": "nonpayable",
      "type": "function"
    },
    {
      "inputs": [
        {
          "internalType": "address",
          "name": "_svnOracle",
          "type": "address"
        }
      ],
      "name": "setSvnOracle",
      "outputs": [],
      "stateMutability": "nonpayable",
      "type": "function"
    },
    {
      "inputs": [
        {
          "internalType": "uint256",
          "name": "_svnPriceCeiling",
          "type": "uint256"
        }
      ],
      "name": "setSvnPriceCeiling",
      "outputs": [],
      "stateMutability": "nonpayable",
      "type": "function"
    },
    {
      "inputs": [
        {
          "internalType": "address",
          "name": "_svnWheel",
          "type": "address"
        }
      ],
      "name": "setSvnWheel",
      "outputs": [],
      "stateMutability": "nonpayable",
      "type": "function"
    },
    {
      "inputs": [
        {
          "internalType": "uint256",
          "name": "_maxDebtRatioPercent",
          "type": "uint256"
        }
      ],
      "name": "setMaxDebtRatioPercent",
      "outputs": [],
      "stateMutability": "nonpayable",
      "type": "function"
    },
    {
      "inputs": [
        {
          "internalType": "uint256",
          "name": "_maxDiscountRate",
          "type": "uint256"
        }
      ],
      "name": "setMaxDiscountRate",
      "outputs": [],
      "stateMutability": "nonpayable",
      "type": "function"
    },
    {
      "inputs": [
        {
          "internalType": "uint8",
          "name": "_index",
          "type": "uint8"
        },
        {
          "internalType": "uint256",
          "name": "_value",
          "type": "uint256"
        }
      ],
      "name": "setMaxExpansionTiersEntry",
      "outputs": [
        {
          "internalType": "bool",
          "name": "",
          "type": "bool"
        }
      ],
      "stateMutability": "nonpayable",
      "type": "function"
    },
    {
      "inputs": [
        {
          "internalType": "uint256",
          "name": "_maxPremiumRate",
          "type": "uint256"
        }
      ],
      "name": "setMaxPremiumRate",
      "outputs": [],
      "stateMutability": "nonpayable",
      "type": "function"
    },
    {
      "inputs": [
        {
          "internalType": "uint256",
          "name": "_maxSupplyContractionPercent",
          "type": "uint256"
        }
      ],
      "name": "setMaxSupplyContractionPercent",
      "outputs": [],
      "stateMutability": "nonpayable",
      "type": "function"
    },
    {
      "inputs": [
        {
          "internalType": "uint256",
          "name": "_maxSupplyExpansionPercent",
          "type": "uint256"
        }
      ],
      "name": "setMaxSupplyExpansionPercents",
      "outputs": [],
      "stateMutability": "nonpayable",
      "type": "function"
    },
    {
      "inputs": [
        {
          "internalType": "uint256",
          "name": "_mintingFactorForPayingDebt",
          "type": "uint256"
        }
      ],
      "name": "setMintingFactorForPayingDebt",
      "outputs": [],
      "stateMutability": "nonpayable",
      "type": "function"
    },
    {
      "inputs": [
        {
          "internalType": "address",
          "name": "_operator",
          "type": "address"
        }
      ],
      "name": "setOperator",
      "outputs": [],
      "stateMutability": "nonpayable",
      "type": "function"
    },
    {
      "inputs": [
        {
          "internalType": "uint256",
          "name": "_premiumPercent",
          "type": "uint256"
        }
      ],
      "name": "setPremiumPercent",
      "outputs": [],
      "stateMutability": "nonpayable",
      "type": "function"
    },
    {
      "inputs": [
        {
          "internalType": "uint256",
          "name": "_premiumThreshold",
          "type": "uint256"
        }
      ],
      "name": "setPremiumThreshold",
      "outputs": [],
      "stateMutability": "nonpayable",
      "type": "function"
    },
    {
      "inputs": [
        {
          "internalType": "uint8",
          "name": "_index",
          "type": "uint8"
        },
        {
          "internalType": "uint256",
          "name": "_value",
          "type": "uint256"
        }
      ],
      "name": "setSupplyTiersEntry",
      "outputs": [
        {
          "internalType": "bool",
          "name": "",
          "type": "bool"
        }
      ],
      "stateMutability": "nonpayable",
      "type": "function"
    }
  ],
  "bytecode": "0x60806040526001805460ff60a01b191690556000600381905560045534801561002757600080fd5b50615c5c80620000386000396000f3fe608060405234801561001057600080fd5b50600436106104a85760003560e01c8063874106cc1161026b578063c5967c2611610150578063da64fc27116100c8578063f14698de11610097578063f5f9eebe1161007c578063f5f9eebe14610afa578063f9eaf7af14610b17578063fcb6f00814610b5a576104a8565b8063f14698de14610aea578063f487a6ca14610af2576104a8565b8063da64fc27146109ea578063ddff6e2d14610ad2578063e90b245414610ada578063f10e9b8c14610ae2576104a8565b8063cf3d55f01161011f578063d4b1494411610104578063d4b14944146109b4578063d98f2495146109da578063da3ed419146109e2576104a8565b8063cf3d55f014610979578063d4a9c63c146109ac576104a8565b8063c5967c2614610944578063c8412d021461094c578063c8f987f314610954578063cecce38e1461095c576104a8565b8063a204452b116101e3578063b4d1d795116101b2578063b8950cae11610197578063b8950cae146108ed578063b8a878f9146108f5578063bcc81f19146108fd576104a8565b8063b4d1d795146108b2578063b56ed706146108ba576104a8565b8063a204452b14610827578063a8bef88814610844578063aa8f07de1461084c578063b3ab15fb1461087f576104a8565b806391bbfed51161023a57806398b762a11161021f57806398b762a1146107d057806399820025146107ed578063a0487eea1461080a576104a8565b806391bbfed514610787578063940e6064146107aa576104a8565b8063874106cc146107525780638c664db61461075a5780638d934f7414610777578063900cf0cf1461077f576104a8565b80634390d2a81161039157806359bf5d391161030957806378e97925116102d857806381d11eaf116102bd57806381d11eaf14610725578063829a7a701461072d57806382cad83814610735576104a8565b806378e97925146107155780637f6c54131461071d576104a8565b806359bf5d39146106f55780635a0fc79c146106fd5780635b7561791461070557806372c054f91461070d576104a8565b806354575af41161036057806355ebdeef1161034557806355ebdeef146106c8578063570ca735146106d0578063591663e1146106d8576104a8565b806354575af41461066257806354f04a11146106a5576104a8565b80634390d2a81461061857806347a4e6f614610620578063499f3f191461062857806353002d9d14610645576104a8565b8063209f868a116104245780632b652489116103f3578063392e53cd116103d8578063392e53cd146105eb5780634013a08e146105f357806340af7ba5146105fb576104a8565b80632b652489146105b25780632e9c7b65146105e3576104a8565b8063209f868a1461057757806322f832cd1461059a578063247e3e9d146105a257806329ef1919146105aa576104a8565b80630db7eb0b1161047b578063132bd74811610460578063132bd74814610536578063154ec2db1461053e578063158ef93e1461055b576104a8565b80630db7eb0b1461050b578063118ebbf914610513576104a8565b806303be7e76146104ad57806304e5c7b1146104c75780630b5bcec7146104e65780630cf6017514610503575b600080fd5b6104b5610b62565b60408051918252519081900360200190f35b6104e4600480360360208110156104dd57600080fd5b5035610b68565b005b6104e4600480360360208110156104fc57600080fd5b5035610c92565b6104b5610d6f565b6104b5610e21565b6104e46004803603604081101561052957600080fd5b5080359060200135610ec3565b6104b561175d565b6104e46004803603602081101561055457600080fd5b5035611763565b610563611849565b604080519115158252519081900360200190f35b6104e46004803603604081101561058d57600080fd5b508035906020013561186a565b6104b5611970565b6104b5611976565b6104b5611a97565b6105ba611a9d565b6040805173ffffffffffffffffffffffffffffffffffffffff9092168252519081900360200190f35b6104b5611ab9565b610563611abf565b6104b5611ae1565b6104e46004803603602081101561061157600080fd5b5035611ae7565b6105ba611bcd565b6105ba611be9565b6104e46004803603602081101561063e57600080fd5b5035611c05565b6104e46004803603602081101561065b57600080fd5b5035611ce3565b6104e46004803603606081101561067857600080fd5b5073ffffffffffffffffffffffffffffffffffffffff813581169160208101359160409091013516611de1565b6104e4600480360360408110156106bb57600080fd5b5080359060200135612017565b6104b56129c4565b6105ba6129ca565b6104e4600480360360208110156106ee57600080fd5b50356129e6565b6104b5612ada565b6104b5612ae0565b6104e4612ae6565b6104b561335c565b6104b5613442565b6104b5613448565b6104b56135e0565b6104b56135e6565b6105ba6004803603602081101561074b57600080fd5b50356135ec565b6104b5613620565b6104e46004803603602081101561077057600080fd5b5035613626565b6105ba61371a565b6104b5613736565b6104e46004803603604081101561079d57600080fd5b508035906020013561373c565b610563600480360360408110156107c057600080fd5b5060ff813516906020013561388f565b6104e4600480360360208110156107e657600080fd5b50356139ec565b6104b56004803603602081101561080357600080fd5b5035613a61565b6104b56004803603602081101561082057600080fd5b5035613a7f565b6104e46004803603602081101561083d57600080fd5b5035613a8c565b6105ba613b01565b6104e46004803603602081101561086257600080fd5b503573ffffffffffffffffffffffffffffffffffffffff16613b1d565b6104e46004803603602081101561089557600080fd5b503573ffffffffffffffffffffffffffffffffffffffff16613bd4565b6104b5613c8b565b6104e4600480360360208110156108d057600080fd5b503573ffffffffffffffffffffffffffffffffffffffff16613c91565b6105ba613d75565b6104b5613d91565b6104e46004803603608081101561091357600080fd5b5073ffffffffffffffffffffffffffffffffffffffff81358116916020810135916040820135169060600135613d97565b6104b561404e565b6104b5614078565b6104b561407e565b6104e46004803603602081101561097257600080fd5b5035614084565b6104e46004803603602081101561098f57600080fd5b503573ffffffffffffffffffffffffffffffffffffffff16614177565b6104b561422e565b610563600480360360408110156109ca57600080fd5b5060ff813516906020013561434b565b6104b56144a9565b6104b56144af565b6104e4600480360360e0811015610a0057600080fd5b73ffffffffffffffffffffffffffffffffffffffff823581169260208101358216926040820135831692606083013581169260808101359091169160a0820135919081019060e0810160c0820135640100000000811115610a6057600080fd5b820183602082011115610a7257600080fd5b80359060200191846020830284011164010000000083111715610a9457600080fd5b9190808060200260200160405190810160405280939291908181526020018383602002808284376000920191909152509295506144b5945050505050565b6105ba6148e2565b6104b56148fe565b6104b5614904565b6104b561490a565b6104b5614910565b6104e460048036036020811015610b1057600080fd5b5035614998565b6104e460048036036060811015610b2d57600080fd5b5073ffffffffffffffffffffffffffffffffffffffff813581169160208101359160409091013516614aa4565b6104b5614bb4565b60215481565b60015473ffffffffffffffffffffffffffffffffffffffff163314610bd8576040517f08c379a0000000000000000000000000000000000000000000000000000000008152600401808060200182810382526024815260200180615af06024913960400191505060405180910390fd5b600c54811015610c33576040517f08c379a000000000000000000000000000000000000000000000000000000000815260040180806020018281038252602981526020018061595f6029913960400191505060405180910390fd5b6096811115610c8d576040517f08c379a00000000000000000000000000000000000000000000000000000000081526004018080602001828103825260248152602001806159b66024913960400191505060405180910390fd5b601b55565b60015473ffffffffffffffffffffffffffffffffffffffff163314610d02576040517f08c379a0000000000000000000000000000000000000000000000000000000008152600401808060200182810382526024815260200180615af06024913960400191505060405180910390fd5b600a8110158015610d1557506103e88111155b610d6a576040517f08c379a0000000000000000000000000000000000000000000000000000000008152600401808060200182810382526028815260200180615a9f6028913960400191505060405180910390fd5b601055565b600080610d7a61422e565b9050600b548111610e1d57601a54610d9657600b549150610e1d565b6000610dbf82610db9670de0b6b3a7640000600b54614bba90919063ffffffff16565b90614c34565b90506000610dea612710610db9601a54610de4600b5487614cb590919063ffffffff16565b90614bba565b600b54909150610dfa9082614d2c565b93506000601854118015610e0f575060185484115b15610e1a5760185493505b50505b5090565b600080610e2c61422e565b9050600c54811115610e1d576000610e566064610db9601b54600b54614bba90919063ffffffff16565b9050808210610eb8576000610e82612710610db9601c54610de4600b5488614cb590919063ffffffff16565b600b54909150610e929082614d2c565b93506000601954118015610ea7575060195484115b15610eb25760195493505b50610ebe565b600b5492505b505090565b610ecb614da0565b15610f21576040517f08c379a0000000000000000000000000000000000000000000000000000000008152600401808060200182810382526026815260200180615b3e6026913960400191505060405180910390fd5b610f29614dbf565b15610f7f576040517f08c379a0000000000000000000000000000000000000000000000000000000008152600401808060200182810382526026815260200180615b3e6026913960400191505060405180910390fd5b600254421015610ff057604080517f08c379a000000000000000000000000000000000000000000000000000000000815260206004820152601960248201527f54726561737572793a206e6f7420737461727465642079657400000000000000604482015290519081900360640190fd5b600654604080517f570ca7350000000000000000000000000000000000000000000000000000000081529051309273ffffffffffffffffffffffffffffffffffffffff169163570ca735916004808301926020929190829003018186803b15801561105a57600080fd5b505afa15801561106e573d6000803e3d6000fd5b505050506040513d602081101561108457600080fd5b505173ffffffffffffffffffffffffffffffffffffffff161480156111525750600754604080517f570ca7350000000000000000000000000000000000000000000000000000000081529051309273ffffffffffffffffffffffffffffffffffffffff169163570ca735916004808301926020929190829003018186803b15801561110e57600080fd5b505afa158015611122573d6000803e3d6000fd5b505050506040513d602081101561113857600080fd5b505173ffffffffffffffffffffffffffffffffffffffff16145b80156112075750600854604080517f570ca7350000000000000000000000000000000000000000000000000000000081529051309273ffffffffffffffffffffffffffffffffffffffff169163570ca735916004808301926020929190829003018186803b1580156111c357600080fd5b505afa1580156111d7573d6000803e3d6000fd5b505050506040513d60208110156111ed57600080fd5b505173ffffffffffffffffffffffffffffffffffffffff16145b80156112bc5750600954604080517f570ca7350000000000000000000000000000000000000000000000000000000081529051309273ffffffffffffffffffffffffffffffffffffffff169163570ca735916004808301926020929190829003018186803b15801561127857600080fd5b505afa15801561128c573d6000803e3d6000fd5b505050506040513d60208110156112a257600080fd5b505173ffffffffffffffffffffffffffffffffffffffff16145b61132757604080517f08c379a000000000000000000000000000000000000000000000000000000000815260206004820152601e60248201527f54726561737572793a206e656564206d6f7265207065726d697373696f6e0000604482015290519081900360640190fd5b60008211611380576040517f08c379a000000000000000000000000000000000000000000000000000000000815260040180806020018281038252602e815260200180615988602e913960400191505060405180910390fd5b600061138a61422e565b90508181146113fa57604080517f08c379a000000000000000000000000000000000000000000000000000000000815260206004820152601960248201527f54726561737572793a2053564e207072696365206d6f76656400000000000000604482015290519081900360640190fd5b600c548111611454576040517f08c379a000000000000000000000000000000000000000000000000000000000815260040180806020018281038252603181526020018061592e6031913960400191505060405180910390fd5b600061145e610e21565b9050600081116114cf57604080517f08c379a000000000000000000000000000000000000000000000000000000000815260206004820152601b60248201527f54726561737572793a20696e76616c696420626f6e6420726174650000000000604482015290519081900360640190fd5b60006114e7670de0b6b3a7640000610db98785614bba565b600654604080517f70a082310000000000000000000000000000000000000000000000000000000081523060048201529051929350839273ffffffffffffffffffffffffffffffffffffffff909216916370a0823191602480820192602092909190829003018186803b15801561155d57600080fd5b505afa158015611571573d6000803e3d6000fd5b505050506040513d602081101561158757600080fd5b505110156115e0576040517f08c379a0000000000000000000000000000000000000000000000000000000008152600401808060200182810382526025815260200180615a006025913960400191505060405180910390fd5b6115f86115ef600d5483614dde565b600d5490614cb5565b600d55600754604080517f79cc679000000000000000000000000000000000000000000000000000000000815233600482015260248101889052905173ffffffffffffffffffffffffffffffffffffffff909216916379cc67909160448082019260009290919082900301818387803b15801561167457600080fd5b505af1158015611688573d6000803e3d6000fd5b50506006546116b1925073ffffffffffffffffffffffffffffffffffffffff1690503383614df4565b6116b9614e81565b6003546040805183815260208101889052808201929092525133917ffb022ee3f7ee9ba7d34060a1d2f8f89495c7b7c4171fefb17c3755c0257357a9919081900360600190a2505043600090815260208181526040808320328452909152808220805460017fffffffffffffffffffffffffffffffffffffffffffffffffffffffffffffff0091821681179092553384529190922080549091169091179055505050565b60175481565b60015473ffffffffffffffffffffffffffffffffffffffff1633146117d3576040517f08c379a0000000000000000000000000000000000000000000000000000000008152600401808060200182810382526024815260200180615af06024913960400191505060405180910390fd5b614e2081111561184457604080517f08c379a000000000000000000000000000000000000000000000000000000000815260206004820152601d60248201527f5f646973636f756e7450657263656e74206973206f7665722032303025000000604482015290519081900360640190fd5b601a55565b60015474010000000000000000000000000000000000000000900460ff1681565b60015473ffffffffffffffffffffffffffffffffffffffff1633146118da576040517f08c379a0000000000000000000000000000000000000000000000000000000008152600401808060200182810382526024815260200180615af06024913960400191505060405180910390fd5b600954604080517f2ffaaa090000000000000000000000000000000000000000000000000000000081526004810185905260248101849052905173ffffffffffffffffffffffffffffffffffffffff90921691632ffaaa099160448082019260009290919082900301818387803b15801561195457600080fd5b505af1158015611968573d6000803e3d6000fd5b505050505050565b60125481565b60008061198161422e565b9050600b548111610e1d576000611996613448565b905060006119b5612710610db960145485614bba90919063ffffffff16565b90506000600760009054906101000a900473ffffffffffffffffffffffffffffffffffffffff1673ffffffffffffffffffffffffffffffffffffffff166318160ddd6040518163ffffffff1660e01b815260040160206040518083038186803b158015611a2157600080fd5b505afa158015611a35573d6000803e3d6000fd5b505050506040513d6020811015611a4b57600080fd5b5051905080821115611a90576000611a638383614cb5565b90506000611a7d670de0b6b3a7640000610db98489614bba565b9050611a8b60045482614dde565b965050505b5050505090565b601a5481565b60075473ffffffffffffffffffffffffffffffffffffffff1681565b60195481565b60015474010000000000000000000000000000000000000000900460ff165b90565b601d5481565b60015473ffffffffffffffffffffffffffffffffffffffff163314611b57576040517f08c379a0000000000000000000000000000000000000000000000000000000008152600401808060200182810382526024815260200180615af06024913960400191505060405180910390fd5b614e20811115611bc857604080517f08c379a000000000000000000000000000000000000000000000000000000000815260206004820152601c60248201527f5f7072656d69756d50657263656e74206973206f766572203230302500000000604482015290519081900360640190fd5b601c55565b60205473ffffffffffffffffffffffffffffffffffffffff1681565b60095473ffffffffffffffffffffffffffffffffffffffff1681565b60015473ffffffffffffffffffffffffffffffffffffffff163314611c75576040517f08c379a0000000000000000000000000000000000000000000000000000000008152600401808060200182810382526024815260200180615af06024913960400191505060405180910390fd5b6127108110158015611c895750614e208111155b611cde576040517f08c379a0000000000000000000000000000000000000000000000000000000008152600401808060200182810382526029815260200180615a766029913960400191505060405180910390fd5b601d55565b60015473ffffffffffffffffffffffffffffffffffffffff163314611d53576040517f08c379a0000000000000000000000000000000000000000000000000000000008152600401808060200182810382526024815260200180615af06024913960400191505060405180910390fd5b600954604080517f97ffe1d700000000000000000000000000000000000000000000000000000000815260048101849052905173ffffffffffffffffffffffffffffffffffffffff909216916397ffe1d79160248082019260009290919082900301818387803b158015611dc657600080fd5b505af1158015611dda573d6000803e3d6000fd5b5050505050565b60015473ffffffffffffffffffffffffffffffffffffffff163314611e51576040517f08c379a0000000000000000000000000000000000000000000000000000000008152600401808060200182810382526024815260200180615af06024913960400191505060405180910390fd5b60065473ffffffffffffffffffffffffffffffffffffffff84811691161415611edb57604080517f08c379a000000000000000000000000000000000000000000000000000000000815260206004820152600360248201527f73766e0000000000000000000000000000000000000000000000000000000000604482015290519081900360640190fd5b60075473ffffffffffffffffffffffffffffffffffffffff84811691161415611f6757604080517f08c379a0000000000000000000000000000000000000000000000000000000008152602060048083019190915260248201527f626f6e6400000000000000000000000000000000000000000000000000000000604482015290519081900360640190fd5b60085473ffffffffffffffffffffffffffffffffffffffff84811691161415611ff157604080517f08c379a000000000000000000000000000000000000000000000000000000000815260206004820152600560248201527f7368617265000000000000000000000000000000000000000000000000000000604482015290519081900360640190fd5b61201273ffffffffffffffffffffffffffffffffffffffff84168284614df4565b505050565b61201f614da0565b15612075576040517f08c379a0000000000000000000000000000000000000000000000000000000008152600401808060200182810382526026815260200180615b3e6026913960400191505060405180910390fd5b61207d614dbf565b156120d3576040517f08c379a0000000000000000000000000000000000000000000000000000000008152600401808060200182810382526026815260200180615b3e6026913960400191505060405180910390fd5b60025442101561214457604080517f08c379a000000000000000000000000000000000000000000000000000000000815260206004820152601960248201527f54726561737572793a206e6f7420737461727465642079657400000000000000604482015290519081900360640190fd5b600654604080517f570ca7350000000000000000000000000000000000000000000000000000000081529051309273ffffffffffffffffffffffffffffffffffffffff169163570ca735916004808301926020929190829003018186803b1580156121ae57600080fd5b505afa1580156121c2573d6000803e3d6000fd5b505050506040513d60208110156121d857600080fd5b505173ffffffffffffffffffffffffffffffffffffffff161480156122a65750600754604080517f570ca7350000000000000000000000000000000000000000000000000000000081529051309273ffffffffffffffffffffffffffffffffffffffff169163570ca735916004808301926020929190829003018186803b15801561226257600080fd5b505afa158015612276573d6000803e3d6000fd5b505050506040513d602081101561228c57600080fd5b505173ffffffffffffffffffffffffffffffffffffffff16145b801561235b5750600854604080517f570ca7350000000000000000000000000000000000000000000000000000000081529051309273ffffffffffffffffffffffffffffffffffffffff169163570ca735916004808301926020929190829003018186803b15801561231757600080fd5b505afa15801561232b573d6000803e3d6000fd5b505050506040513d602081101561234157600080fd5b505173ffffffffffffffffffffffffffffffffffffffff16145b80156124105750600954604080517f570ca7350000000000000000000000000000000000000000000000000000000081529051309273ffffffffffffffffffffffffffffffffffffffff169163570ca735916004808301926020929190829003018186803b1580156123cc57600080fd5b505afa1580156123e0573d6000803e3d6000fd5b505050506040513d60208110156123f657600080fd5b505173ffffffffffffffffffffffffffffffffffffffff16145b61247b57604080517f08c379a000000000000000000000000000000000000000000000000000000000815260206004820152601e60248201527f54726561737572793a206e656564206d6f7265207065726d697373696f6e0000604482015290519081900360640190fd5b600082116124d4576040517f08c379a0000000000000000000000000000000000000000000000000000000008152600401808060200182810382526030815260200180615a466030913960400191505060405180910390fd5b60006124de61422e565b905081811461254e57604080517f08c379a000000000000000000000000000000000000000000000000000000000815260206004820152601960248201527f54726561737572793a2053564e207072696365206d6f76656400000000000000604482015290519081900360640190fd5b600b5481106125a8576040517f08c379a000000000000000000000000000000000000000000000000000000000815260040180806020018281038252603181526020018061592e6031913960400191505060405180910390fd5b600454831115612603576040517f08c379a000000000000000000000000000000000000000000000000000000000815260040180806020018281038252602a815260200180615bcf602a913960400191505060405180910390fd5b600061260d610d6f565b90506000811161267e57604080517f08c379a000000000000000000000000000000000000000000000000000000000815260206004820152601b60248201527f54726561737572793a20696e76616c696420626f6e6420726174650000000000604482015290519081900360640190fd5b6000612696670de0b6b3a7640000610db98785614bba565b905060006126a2613448565b9050600061274483600760009054906101000a900473ffffffffffffffffffffffffffffffffffffffff1673ffffffffffffffffffffffffffffffffffffffff166318160ddd6040518163ffffffff1660e01b815260040160206040518083038186803b15801561271257600080fd5b505afa158015612726573d6000803e3d6000fd5b505050506040513d602081101561273c57600080fd5b505190614d2c565b9050612761612710610db960145485614bba90919063ffffffff16565b8111156127cf57604080517f08c379a000000000000000000000000000000000000000000000000000000000815260206004820152601360248201527f6f766572206d6178206465627420726174696f00000000000000000000000000604482015290519081900360640190fd5b600654604080517f79cc6790000000000000000000000000000000000000000000000000000000008152336004820152602481018a9052905173ffffffffffffffffffffffffffffffffffffffff909216916379cc67909160448082019260009290919082900301818387803b15801561284857600080fd5b505af115801561285c573d6000803e3d6000fd5b5050600754604080517f40c10f1900000000000000000000000000000000000000000000000000000000815233600482015260248101889052905173ffffffffffffffffffffffffffffffffffffffff90921693506340c10f1992506044808201926020929091908290030181600087803b1580156128da57600080fd5b505af11580156128ee573d6000803e3d6000fd5b505050506040513d602081101561290457600080fd5b50506004546129139088614cb5565b60045561291e614e81565b6003546040805189815260208101869052808201929092525133917fa86b4ae149813f0b5b4bae0377f5b265f21164f956d6c594b535e7b7e4522980919081900360600190a2505043600090815260208181526040808320328452909152808220805460017fffffffffffffffffffffffffffffffffffffffffffffffffffffffffffffff00918216811790925533845291909220805490911690911790555050505050565b601f5481565b60015473ffffffffffffffffffffffffffffffffffffffff1681565b60015473ffffffffffffffffffffffffffffffffffffffff163314612a56576040517f08c379a0000000000000000000000000000000000000000000000000000000008152600401808060200182810382526024815260200180615af06024913960400191505060405180910390fd5b6103e88110158015612a6a57506127108111155b612ad557604080517f08c379a000000000000000000000000000000000000000000000000000000000815260206004820152600c60248201527f6f7574206f662072616e67650000000000000000000000000000000000000000604482015290519081900360640190fd5b601455565b600d5490565b600d5481565b612aee614da0565b15612b44576040517f08c379a0000000000000000000000000000000000000000000000000000000008152600401808060200182810382526026815260200180615b3e6026913960400191505060405180910390fd5b612b4c614dbf565b15612ba2576040517f08c379a0000000000000000000000000000000000000000000000000000000008152600401808060200182810382526026815260200180615b3e6026913960400191505060405180910390fd5b600254421015612c1357604080517f08c379a000000000000000000000000000000000000000000000000000000000815260206004820152601960248201527f54726561737572793a206e6f7420737461727465642079657400000000000000604482015290519081900360640190fd5b612c1b61404e565b421015612c8957604080517f08c379a000000000000000000000000000000000000000000000000000000000815260206004820152601860248201527f54726561737572793a206e6f74206f70656e6564207965740000000000000000604482015290519081900360640190fd5b600654604080517f570ca7350000000000000000000000000000000000000000000000000000000081529051309273ffffffffffffffffffffffffffffffffffffffff169163570ca735916004808301926020929190829003018186803b158015612cf357600080fd5b505afa158015612d07573d6000803e3d6000fd5b505050506040513d6020811015612d1d57600080fd5b505173ffffffffffffffffffffffffffffffffffffffff16148015612deb5750600754604080517f570ca7350000000000000000000000000000000000000000000000000000000081529051309273ffffffffffffffffffffffffffffffffffffffff169163570ca735916004808301926020929190829003018186803b158015612da757600080fd5b505afa158015612dbb573d6000803e3d6000fd5b505050506040513d6020811015612dd157600080fd5b505173ffffffffffffffffffffffffffffffffffffffff16145b8015612ea05750600854604080517f570ca7350000000000000000000000000000000000000000000000000000000081529051309273ffffffffffffffffffffffffffffffffffffffff169163570ca735916004808301926020929190829003018186803b158015612e5c57600080fd5b505afa158015612e70573d6000803e3d6000fd5b505050506040513d6020811015612e8657600080fd5b505173ffffffffffffffffffffffffffffffffffffffff16145b8015612f555750600954604080517f570ca7350000000000000000000000000000000000000000000000000000000081529051309273ffffffffffffffffffffffffffffffffffffffff169163570ca735916004808301926020929190829003018186803b158015612f1157600080fd5b505afa158015612f25573d6000803e3d6000fd5b505050506040513d6020811015612f3b57600080fd5b505173ffffffffffffffffffffffffffffffffffffffff16145b612fc057604080517f08c379a000000000000000000000000000000000000000000000000000000000815260206004820152601e60248201527f54726561737572793a206e656564206d6f7265207065726d697373696f6e0000604482015290519081900360640190fd5b612fc8614e81565b612fd061422e565b601755600d54600090612feb90612fe5613448565b90614cb5565b905060155460035410156130215761301c613017612710610db960165485614bba90919063ffffffff16565b614eff565b6132c2565b600c5460175411156132c257600754604080517f18160ddd000000000000000000000000000000000000000000000000000000008152905160009273ffffffffffffffffffffffffffffffffffffffff16916318160ddd916004808301926020929190829003018186803b15801561309857600080fd5b505afa1580156130ac573d6000803e3d6000fd5b505050506040513d60208110156130c257600080fd5b5051600b546017549192506000916130d991614cb5565b905060008060006130f3655af3107a4000610de48861530a565b905080841115613101578093505b61311c612710610db960115488614bba90919063ffffffff16565b600d54106131415761313a670de0b6b3a7640000610db98887614bba565b91506131ad565b6000613159670de0b6b3a7640000610db98988614bba565b9050613176612710610db960125484614bba90919063ffffffff16565b92506131828184614cb5565b601d54909450156131ab576131a8612710610db9601d5487614bba90919063ffffffff16565b93505b505b81156131bc576131bc82614eff565b82156132bc57600d546131cf9084614d2c565b600d55600654604080517f40c10f1900000000000000000000000000000000000000000000000000000000815230600482015260248101869052905173ffffffffffffffffffffffffffffffffffffffff909216916340c10f19916044808201926020929091908290030181600087803b15801561324c57600080fd5b505af1158015613260573d6000803e3d6000fd5b505050506040513d602081101561327657600080fd5b5050600354604080514281526020810186905280820192909252517ffb19ddad7f1f934ddc14e65f6c91a77a115c441aa314553321238688db8207349181900360600190a15b50505050505b506003546132d1906001614d2c565b600355600c546132df61422e565b116132fd576132f8612710610db9601354610de4613448565b613300565b60005b60045543600090815260208181526040808320328452909152808220805460017fffffffffffffffffffffffffffffffffffffffffffffffffffffffffffffff0091821681179092553384529190922080549091169091179055565b60008061336761422e565b9050600c54811115610e1d57600654604080517f70a08231000000000000000000000000000000000000000000000000000000008152306004820152905160009273ffffffffffffffffffffffffffffffffffffffff16916370a08231916024808301926020929190829003018186803b1580156133e457600080fd5b505afa1580156133f8573d6000803e3d6000fd5b505050506040513d602081101561340e57600080fd5b50519050600061341c610e21565b90508015610e1a5761343a81610db984670de0b6b3a7640000614bba565b935050505090565b60025481565b600654604080517f18160ddd000000000000000000000000000000000000000000000000000000008152905160009273ffffffffffffffffffffffffffffffffffffffff1691839183916318160ddd916004808301926020929190829003018186803b1580156134b757600080fd5b505afa1580156134cb573d6000803e3d6000fd5b505050506040513d60208110156134e157600080fd5b505190506000805b60055460ff821610156135d5576135cb8473ffffffffffffffffffffffffffffffffffffffff166370a0823160058460ff168154811061352557fe5b60009182526020918290200154604080517fffffffff0000000000000000000000000000000000000000000000000000000060e086901b16815273ffffffffffffffffffffffffffffffffffffffff90921660048301525160248083019392829003018186803b15801561359857600080fd5b505afa1580156135ac573d6000803e3d6000fd5b505050506040513d60208110156135c257600080fd5b50518390614d2c565b91506001016134e9565b5061343a8282614cb5565b60115481565b600c5481565b600581815481106135f957fe5b60009182526020909120015473ffffffffffffffffffffffffffffffffffffffff16905081565b60165481565b60015473ffffffffffffffffffffffffffffffffffffffff163314613696576040517f08c379a0000000000000000000000000000000000000000000000000000000008152600401808060200182810382526024815260200180615af06024913960400191505060405180910390fd5b6101f481101580156136aa57506127108111155b61371557604080517f08c379a000000000000000000000000000000000000000000000000000000000815260206004820152600c60248201527f6f7574206f662072616e67650000000000000000000000000000000000000000604482015290519081900360640190fd5b601155565b601e5473ffffffffffffffffffffffffffffffffffffffff1681565b60035481565b60015473ffffffffffffffffffffffffffffffffffffffff1633146137ac576040517f08c379a0000000000000000000000000000000000000000000000000000000008152600401808060200182810382526024815260200180615af06024913960400191505060405180910390fd5b607882111561381c57604080517f08c379a000000000000000000000000000000000000000000000000000000000815260206004820152601e60248201527f5f626f6f74737472617045706f6368733a206f7574206f662072616e67650000604482015290519081900360640190fd5b6064811015801561382f57506103e88111155b613884576040517f08c379a000000000000000000000000000000000000000000000000000000000815260040180806020018281038252602e815260200180615bf9602e913960400191505060405180910390fd5b601591909155601655565b60015460009073ffffffffffffffffffffffffffffffffffffffff163314613902576040517f08c379a0000000000000000000000000000000000000000000000000000000008152600401808060200182810382526024815260200180615af06024913960400191505060405180910390fd5b60098360ff161061395e576040517f08c379a0000000000000000000000000000000000000000000000000000000008152600401808060200182810382526029815260200180615ac76029913960400191505060405180910390fd5b60ff83161561399057600e6001840360ff168154811061397a57fe5b9060005260206000200154821161399057600080fd5b60088360ff1610156139c557600e8360010160ff16815481106139af57fe5b906000526020600020015482106139c557600080fd5b81600e8460ff16815481106139d657fe5b6000918252602090912001555060015b92915050565b60015473ffffffffffffffffffffffffffffffffffffffff163314613a5c576040517f08c379a0000000000000000000000000000000000000000000000000000000008152600401808060200182810382526024815260200180615af06024913960400191505060405180910390fd5b601855565b600e8181548110613a6e57fe5b600091825260209091200154905081565b600f8181548110613a6e57fe5b60015473ffffffffffffffffffffffffffffffffffffffff163314613afc576040517f08c379a0000000000000000000000000000000000000000000000000000000008152600401808060200182810382526024815260200180615af06024913960400191505060405180910390fd5b601955565b600a5473ffffffffffffffffffffffffffffffffffffffff1681565b60015473ffffffffffffffffffffffffffffffffffffffff163314613b8d576040517f08c379a0000000000000000000000000000000000000000000000000000000008152600401808060200182810382526024815260200180615af06024913960400191505060405180910390fd5b600980547fffffffffffffffffffffffff00000000000000000000000000000000000000001673ffffffffffffffffffffffffffffffffffffffff92909216919091179055565b60015473ffffffffffffffffffffffffffffffffffffffff163314613c44576040517f08c379a0000000000000000000000000000000000000000000000000000000008152600401808060200182810382526024815260200180615af06024913960400191505060405180910390fd5b600180547fffffffffffffffffffffffff00000000000000000000000000000000000000001673ffffffffffffffffffffffffffffffffffffffff92909216919091179055565b61546081565b60015473ffffffffffffffffffffffffffffffffffffffff163314613d01576040517f08c379a0000000000000000000000000000000000000000000000000000000008152600401808060200182810382526024815260200180615af06024913960400191505060405180910390fd5b600954604080517fb3ab15fb00000000000000000000000000000000000000000000000000000000815273ffffffffffffffffffffffffffffffffffffffff84811660048301529151919092169163b3ab15fb91602480830192600092919082900301818387803b158015611dc657600080fd5b60065473ffffffffffffffffffffffffffffffffffffffff1681565b60185481565b60015473ffffffffffffffffffffffffffffffffffffffff163314613e07576040517f08c379a0000000000000000000000000000000000000000000000000000000008152600401808060200182810382526024815260200180615af06024913960400191505060405180910390fd5b73ffffffffffffffffffffffffffffffffffffffff8416613e8b57604080517f08c379a0000000000000000000000000000000000000000000000000000000008152602060048083019190915260248201527f7a65726f00000000000000000000000000000000000000000000000000000000604482015290519081900360640190fd5b610bb8831115613efc57604080517f08c379a000000000000000000000000000000000000000000000000000000000815260206004820152600c60248201527f6f7574206f662072616e67650000000000000000000000000000000000000000604482015290519081900360640190fd5b73ffffffffffffffffffffffffffffffffffffffff8216613f8057604080517f08c379a0000000000000000000000000000000000000000000000000000000008152602060048083019190915260248201527f7a65726f00000000000000000000000000000000000000000000000000000000604482015290519081900360640190fd5b6103e8811115613ff157604080517f08c379a000000000000000000000000000000000000000000000000000000000815260206004820152600c60248201527f6f7574206f662072616e67650000000000000000000000000000000000000000604482015290519081900360640190fd5b601e80547fffffffffffffffffffffffff000000000000000000000000000000000000000090811673ffffffffffffffffffffffffffffffffffffffff96871617909155601f939093556020805490931691909316179055602155565b600061407361406a615460600354614bba90919063ffffffff16565b60025490614d2c565b905090565b601c5481565b601b5481565b60015473ffffffffffffffffffffffffffffffffffffffff1633146140f4576040517f08c379a0000000000000000000000000000000000000000000000000000000008152600401808060200182810382526024815260200180615af06024913960400191505060405180910390fd5b6064811015801561410757506105dc8111155b61417257604080517f08c379a000000000000000000000000000000000000000000000000000000000815260206004820152600c60248201527f6f7574206f662072616e67650000000000000000000000000000000000000000604482015290519081900360640190fd5b601355565b60015473ffffffffffffffffffffffffffffffffffffffff1633146141e7576040517f08c379a0000000000000000000000000000000000000000000000000000000008152600401808060200182810382526024815260200180615af06024913960400191505060405180910390fd5b600a80547fffffffffffffffffffffffff00000000000000000000000000000000000000001673ffffffffffffffffffffffffffffffffffffffff92909216919091179055565b600a54600654604080517f3ddac95300000000000000000000000000000000000000000000000000000000815273ffffffffffffffffffffffffffffffffffffffff9283166004820152670de0b6b3a7640000602482015290516000939290921691633ddac95391604480820192602092909190829003018186803b1580156142b657600080fd5b505afa9250505080156142db57506040513d60208110156142d657600080fd5b505160015b614330576040517f08c379a0000000000000000000000000000000000000000000000000000000008152600401808060200182810382526035815260200180615b646035913960400191505060405180910390fd5b71ffffffffffffffffffffffffffffffffffff169050611ade565b60015460009073ffffffffffffffffffffffffffffffffffffffff1633146143be576040517f08c379a0000000000000000000000000000000000000000000000000000000008152600401808060200182810382526024815260200180615af06024913960400191505060405180910390fd5b60098360ff161061441a576040517f08c379a0000000000000000000000000000000000000000000000000000000008152600401808060200182810382526029815260200180615ac76029913960400191505060405180910390fd5b600a821015801561442d57506103e88211155b61449857604080517f08c379a000000000000000000000000000000000000000000000000000000000815260206004820152601460248201527f5f76616c75653a206f7574206f662072616e6765000000000000000000000000604482015290519081900360640190fd5b81600f8460ff16815481106139d657fe5b60105481565b60145481565b60015474010000000000000000000000000000000000000000900460ff161561453f57604080517f08c379a000000000000000000000000000000000000000000000000000000000815260206004820152601d60248201527f54726561737572793a20616c726561647920696e697469616c697a6564000000604482015290519081900360640190fd5b600680547fffffffffffffffffffffffff000000000000000000000000000000000000000090811673ffffffffffffffffffffffffffffffffffffffff8a811691909117909255600780548216898416179055600880548216888416179055600a80548216878416179055600980549091169185169190911790556002829055670de0b6b3a7640000600b8190556145df90606490610db9906065614bba565b600c556040805161012081018252600081526969e10de76676d0800000602082015269d3c21bcecceda1000000918101919091526a013da329b633647180000060608201526a01a784379d99db4200000060808201526a0422ca8b0a00a42500000060a08201526a084595161401484a00000060c08201526a108b2a2c2802909400000060e08201526a295be96e6406697200000061010082015261468890600e906009615881565b5060408051610120810182526101c28152610190602082015261015e9181019190915261012c606082015260fa608082015260c860a0820152609660c0820152607d60e082015260646101008201526146e590600f9060096158d7565b50610190601055612710601155610dac601281905561012c601355601455606e601b55611b58601c9081556015556101c2601655600654604080517f70a08231000000000000000000000000000000000000000000000000000000008152306004820152905173ffffffffffffffffffffffffffffffffffffffff909216916370a0823191602480820192602092909190829003018186803b15801561478a57600080fd5b505afa15801561479e573d6000803e3d6000fd5b505050506040513d60208110156147b457600080fd5b5051600d55600180547fffffffffffffffffffffffff00000000000000000000000000000000000000007fffffffffffffffffffffff00ffffffffffffffffffffffffffffffffffffffff9091167401000000000000000000000000000000000000000017163317905560005b81518110156148a257600582828151811061483857fe5b60209081029190910181015182546001808201855560009485529290932090920180547fffffffffffffffffffffffff00000000000000000000000000000000000000001673ffffffffffffffffffffffffffffffffffffffff9093169290921790915501614821565b5060408051438152905133917f25ff68dd81b34665b5ba7e553ee5511bf6812e12adb4a7e2c0d9e26b3099ce79919081900360200190a250505050505050565b60085473ffffffffffffffffffffffffffffffffffffffff1681565b60135481565b600b5481565b60155481565b600a54600654604080517f6808a12800000000000000000000000000000000000000000000000000000000815273ffffffffffffffffffffffffffffffffffffffff9283166004820152670de0b6b3a7640000602482015290516000939290921691636808a12891604480820192602092909190829003018186803b1580156142b657600080fd5b60015473ffffffffffffffffffffffffffffffffffffffff163314614a08576040517f08c379a0000000000000000000000000000000000000000000000000000000008152600401808060200182810382526024815260200180615af06024913960400191505060405180910390fd5b600b548110158015614a345750614a306064610db96078600b54614bba90919063ffffffff16565b8111155b614a9f57604080517f08c379a000000000000000000000000000000000000000000000000000000000815260206004820152600c60248201527f6f7574206f662072616e67650000000000000000000000000000000000000000604482015290519081900360640190fd5b600c55565b60015473ffffffffffffffffffffffffffffffffffffffff163314614b14576040517f08c379a0000000000000000000000000000000000000000000000000000000008152600401808060200182810382526024815260200180615af06024913960400191505060405180910390fd5b600954604080517f54575af400000000000000000000000000000000000000000000000000000000815273ffffffffffffffffffffffffffffffffffffffff8681166004830152602482018690528481166044830152915191909216916354575af491606480830192600092919082900301818387803b158015614b9757600080fd5b505af1158015614bab573d6000803e3d6000fd5b50505050505050565b60045481565b600082614bc9575060006139e6565b82820282848281614bd657fe5b0414614c2d576040517f08c379a0000000000000000000000000000000000000000000000000000000008152600401808060200182810382526021815260200180615a256021913960400191505060405180910390fd5b9392505050565b6000808211614ca457604080517f08c379a000000000000000000000000000000000000000000000000000000000815260206004820152601a60248201527f536166654d6174683a206469766973696f6e206279207a65726f000000000000604482015290519081900360640190fd5b818381614cad57fe5b049392505050565b600082821115614d2657604080517f08c379a000000000000000000000000000000000000000000000000000000000815260206004820152601e60248201527f536166654d6174683a207375627472616374696f6e206f766572666c6f770000604482015290519081900360640190fd5b50900390565b600082820183811015614c2d57604080517f08c379a000000000000000000000000000000000000000000000000000000000815260206004820152601b60248201527f536166654d6174683a206164646974696f6e206f766572666c6f770000000000604482015290519081900360640190fd5b4360009081526020818152604080832032845290915290205460ff1690565b4360009081526020818152604080832033845290915290205460ff1690565b6000818310614ded5781614c2d565b5090919050565b6040805173ffffffffffffffffffffffffffffffffffffffff8416602482015260448082018490528251808303909101815260649091019091526020810180517bffffffffffffffffffffffffffffffffffffffffffffffffffffffff167fa9059cbb00000000000000000000000000000000000000000000000000000000179052612012908490615385565b600a60009054906101000a900473ffffffffffffffffffffffffffffffffffffffff1673ffffffffffffffffffffffffffffffffffffffff1663a2e620456040518163ffffffff1660e01b8152600401600060405180830381600087803b158015614eeb57600080fd5b505af1925050508015614efc575060015b50565b600654604080517f40c10f1900000000000000000000000000000000000000000000000000000000815230600482015260248101849052905173ffffffffffffffffffffffffffffffffffffffff909216916340c10f19916044808201926020929091908290030181600087803b158015614f7957600080fd5b505af1158015614f8d573d6000803e3d6000fd5b505050506040513d6020811015614fa357600080fd5b5050601f54600090156150bc57614fcb612710610db9601f5485614bba90919063ffffffff16565b600654601e54604080517fa9059cbb00000000000000000000000000000000000000000000000000000000815273ffffffffffffffffffffffffffffffffffffffff928316600482015260248101859052905193945091169163a9059cbb916044808201926020929091908290030181600087803b15801561504c57600080fd5b505af1158015615060573d6000803e3d6000fd5b505050506040513d602081101561507657600080fd5b5050600354604080514281526020810184905280820192909252517fdce953494e40a43cb86b65abee291f6a2db245a9e33e078c65f5ccbae02712299181900360600190a15b602154600090156151d0576150e2612710610db960215486614bba90919063ffffffff16565b60065460208054604080517fa9059cbb00000000000000000000000000000000000000000000000000000000815273ffffffffffffffffffffffffffffffffffffffff928316600482015260248101869052905194955092169263a9059cbb9260448082019392918290030181600087803b15801561516057600080fd5b505af1158015615174573d6000803e3d6000fd5b505050506040513d602081101561518a57600080fd5b5050600354604080514281526020810184905280820192909252517f2e9e3acd24a2d0f6ccfc394c595bf579e39f97d5f0c33d43b09938033de7995f9181900360600190a15b6151de81612fe58585614cb5565b60095460065491945061520c9173ffffffffffffffffffffffffffffffffffffffff9081169116600061545d565b6009546006546152369173ffffffffffffffffffffffffffffffffffffffff91821691168561545d565b600954604080517f97ffe1d700000000000000000000000000000000000000000000000000000000815260048101869052905173ffffffffffffffffffffffffffffffffffffffff909216916397ffe1d79160248082019260009290919082900301818387803b1580156152a957600080fd5b505af11580156152bd573d6000803e3d6000fd5b5050600354604080514281526020810188905280820192909252517f3159eceb34f8f4e53e0ab0cedd17da227a6cdc2b84e3f1b28661e1052f8ff6df9350908190036060019150a1505050565b600060085b600e8160ff168154811061531f57fe5b9060005260206000200154831061535457600f8160ff168154811061534057fe5b60009182526020909120015460105561537b565b7fffffffffffffffffffffffffffffffffffffffffffffffffffffffffffffffff0161530f565b5050601054919050565b60606153e7826040518060400160405280602081526020017f5361666545524332303a206c6f772d6c6576656c2063616c6c206661696c65648152508573ffffffffffffffffffffffffffffffffffffffff166155eb9092919063ffffffff16565b8051909150156120125780806020019051602081101561540657600080fd5b5051612012576040517f08c379a000000000000000000000000000000000000000000000000000000000815260040180806020018281038252602a815260200180615b14602a913960400191505060405180910390fd5b8015806155095750604080517fdd62ed3e00000000000000000000000000000000000000000000000000000000815230600482015273ffffffffffffffffffffffffffffffffffffffff848116602483015291519185169163dd62ed3e91604480820192602092909190829003018186803b1580156154db57600080fd5b505afa1580156154ef573d6000803e3d6000fd5b505050506040513d602081101561550557600080fd5b5051155b61555e576040517f08c379a0000000000000000000000000000000000000000000000000000000008152600401808060200182810382526036815260200180615b996036913960400191505060405180910390fd5b6040805173ffffffffffffffffffffffffffffffffffffffff8416602482015260448082018490528251808303909101815260649091019091526020810180517bffffffffffffffffffffffffffffffffffffffffffffffffffffffff167f095ea7b300000000000000000000000000000000000000000000000000000000179052612012908490615385565b60606155fa8484600085615602565b949350505050565b60608247101561565d576040517f08c379a00000000000000000000000000000000000000000000000000000000081526004018080602001828103825260268152602001806159da6026913960400191505060405180910390fd5b615666856157bd565b6156d157604080517f08c379a000000000000000000000000000000000000000000000000000000000815260206004820152601d60248201527f416464726573733a2063616c6c20746f206e6f6e2d636f6e7472616374000000604482015290519081900360640190fd5b600060608673ffffffffffffffffffffffffffffffffffffffff1685876040518082805190602001908083835b6020831061573b57805182527fffffffffffffffffffffffffffffffffffffffffffffffffffffffffffffffe090920191602091820191016156fe565b6001836020036101000a03801982511681845116808217855250505050505090500191505060006040518083038185875af1925050503d806000811461579d576040519150601f19603f3d011682016040523d82523d6000602084013e6157a2565b606091505b50915091506157b28282866157c3565b979650505050505050565b3b151590565b606083156157d2575081614c2d565b8251156157e25782518084602001fd5b816040517f08c379a00000000000000000000000000000000000000000000000000000000081526004018080602001828103825283818151815260200191508051906020019080838360005b8381101561584657818101518382015260200161582e565b50505050905090810190601f1680156158735780820380516001836020036101000a031916815260200191505b509250505060405180910390fd5b8280548282559060005260206000209081019282156158cb579160200282015b828111156158cb57825182906affffffffffffffffffffff169055916020019190600101906158a1565b50610e1d929150615918565b8280548282559060005260206000209081019282156158cb579160200282015b828111156158cb578251829061ffff169055916020019190600101906158f7565b5b80821115610e1d576000815560010161591956fe54726561737572793a2073766e5072696365206e6f7420656c696769626c6520666f7220626f6e642070757263686173655f7072656d69756d5468726573686f6c6420657863656564732073766e50726963654365696c696e6754726561737572793a2063616e6e6f742072656465656d20626f6e64732077697468207a65726f20616d6f756e745f7072656d69756d5468726573686f6c6420697320686967686572207468616e20312e35416464726573733a20696e73756666696369656e742062616c616e636520666f722063616c6c54726561737572793a20747265617375727920686173206e6f206d6f726520627564676574536166654d6174683a206d756c7469706c69636174696f6e206f766572666c6f7754726561737572793a2063616e6e6f7420707572636861736520626f6e64732077697468207a65726f20616d6f756e745f6d696e74696e67466163746f72466f72506179696e67446562743a206f7574206f662072616e67655f6d6178537570706c79457870616e73696f6e50657263656e743a206f7574206f662072616e6765496e6465782068617320746f206265206c6f776572207468616e20636f756e74206f6620746965727354726561737572793a2063616c6c6572206973206e6f7420746865206f70657261746f725361666545524332303a204552433230206f7065726174696f6e20646964206e6f742073756363656564436f6e747261637447756172643a206f6e6520626c6f636b2c206f6e652066756e6374696f6e54726561737572793a206661696c656420746f20636f6e73756c742053564e2070726963652066726f6d20746865206f7261636c655361666545524332303a20617070726f76652066726f6d206e6f6e2d7a65726f20746f206e6f6e2d7a65726f20616c6c6f77616e636554726561737572793a206e6f7420656e6f75676820626f6e64206c65667420746f2070757263686173655f626f6f747374726170537570706c79457870616e73696f6e50657263656e743a206f7574206f662072616e6765a2646970667358221220eb0e4fe4dde2e342326c453e139d1687a55c18d2c2cdbf52d331c11bd46a5d3164736f6c634300060c0033",
  "immutableReferences": {},
  "source": "// SPDX-License-Identifier: MIT\npragma solidity 0.6.12;\n\nimport \"@openzeppelin/contracts/math/Math.sol\";\nimport \"@openzeppelin/contracts/token/ERC20/SafeERC20.sol\";\nimport \"./Operator.sol\";\nimport \"./ContractGuard.sol\";\nimport \"./IBasisAsset.sol\";\nimport \"./IOracle.sol\";\nimport \"./IBoardroom.sol\";\n\ncontract Treasury is ContractGuard {\n    using SafeMath for uint256;\n    using Address for address;\n    using SafeERC20 for IERC20;\n\n    uint256 public constant PERIOD = 6 hours;\n    address public operator;\n    bool public initialized = false;\n    uint256 public startTime;\n    uint256 public epoch = 0;\n    uint256 public epochSupplyContractionLeft = 0;\n    address[] public excludedFromTotalSupply;\n    address public svn;\n    address public svnbond;\n    address public svnshare;\n    address public svnWheel;\n    address public svnOracle;\n    uint256 public svnPriceOne;\n    uint256 public svnPriceCeiling;\n    uint256 public seigniorageSaved;\n    uint256[] public supplyTiers;\n    uint256[] public maxExpansionTiers;\n    uint256 public maxSupplyExpansionPercent;\n    uint256 public bondDepletionFloorPercent;\n    uint256 public seigniorageExpansionFloorPercent;\n    uint256 public maxSupplyContractionPercent;\n    uint256 public maxDebtRatioPercent;\n    uint256 public bootstrapEpochs;\n    uint256 public bootstrapSupplyExpansionPercent;\n    uint256 public previousEpochSvnPrice;\n    uint256 public maxDiscountRate;\n    uint256 public maxPremiumRate;\n    uint256 public discountPercent;\n    uint256 public premiumThreshold;\n    uint256 public premiumPercent;\n    uint256 public mintingFactorForPayingDebt;\n    address public daoFund;\n    uint256 public daoFundSharedPercent;\n    address public devFund;\n    uint256 public devFundSharedPercent;\n\n    function getBurnableSvnLeft()\n        external\n        view\n        returns (uint256 _burnableSvnLeft)\n    {\n        uint256 _svnPrice = getSvnPrice();\n        if (_svnPrice <= svnPriceOne) {\n            uint256 _svnSupply = getSvnCirculatingSupply();\n            uint256 _bondMaxSupply = _svnSupply.mul(maxDebtRatioPercent).div(\n                10000\n            );\n            uint256 _bondSupply = IERC20(svnbond).totalSupply();\n            if (_bondMaxSupply > _bondSupply) {\n                uint256 _maxMintableBond = _bondMaxSupply.sub(_bondSupply);\n                uint256 _maxBurnableSvn = _maxMintableBond.mul(_svnPrice).div(\n                    1e18\n                );\n                _burnableSvnLeft = Math.min(\n                    epochSupplyContractionLeft,\n                    _maxBurnableSvn\n                );\n            }\n        }\n    }\n\n    function getSvnUpdatedPrice() external view returns (uint256 _svnPrice) {\n        try IOracle(svnOracle).twap(svn, 1e18) returns (uint144 price) {\n            return uint256(price);\n        } catch {\n            revert(\"Treasury: failed to consult SVN price from the oracle\");\n        }\n    }\n\n    function getRedeemableBonds()\n        external\n        view\n        returns (uint256 _redeemableBonds)\n    {\n        uint256 _svnPrice = getSvnPrice();\n        if (_svnPrice > svnPriceCeiling) {\n            uint256 _totalSvn = IERC20(svn).balanceOf(address(this));\n            uint256 _rate = getBondPremiumRate();\n            if (_rate > 0) {\n                _redeemableBonds = _totalSvn.mul(1e18).div(_rate);\n            }\n        }\n    }\n\n    function getReserve() external view returns (uint256) {\n        return seigniorageSaved;\n    }\n\n    function isInitialized() external view returns (bool) {\n        return initialized;\n    }\n\n    function getBondDiscountRate() public view returns (uint256 _rate) {\n        uint256 _svnPrice = getSvnPrice();\n        if (_svnPrice <= svnPriceOne) {\n            if (discountPercent == 0) {\n                _rate = svnPriceOne;\n            } else {\n                uint256 _bondAmount = svnPriceOne.mul(1e18).div(_svnPrice);\n                uint256 _discountAmount = _bondAmount\n                    .sub(svnPriceOne)\n                    .mul(discountPercent)\n                    .div(10000);\n                _rate = svnPriceOne.add(_discountAmount);\n                if (maxDiscountRate > 0 && _rate > maxDiscountRate) {\n                    _rate = maxDiscountRate;\n                }\n            }\n        }\n    }\n\n    function getBondPremiumRate() public view returns (uint256 _rate) {\n        uint256 _svnPrice = getSvnPrice();\n        if (_svnPrice > svnPriceCeiling) {\n            uint256 _svnPricePremiumThreshold = svnPriceOne\n                .mul(premiumThreshold)\n                .div(100);\n            if (_svnPrice >= _svnPricePremiumThreshold) {\n                uint256 _premiumAmount = _svnPrice\n                    .sub(svnPriceOne)\n                    .mul(premiumPercent)\n                    .div(10000);\n                _rate = svnPriceOne.add(_premiumAmount);\n                if (maxPremiumRate > 0 && _rate > maxPremiumRate) {\n                    _rate = maxPremiumRate;\n                }\n            } else {\n                _rate = svnPriceOne;\n            }\n        }\n    }\n\n    function getSvnCirculatingSupply() public view returns (uint256) {\n        IERC20 svnErc20 = IERC20(svn);\n        uint256 totalSupply = svnErc20.totalSupply();\n        uint256 balanceExcluded = 0;\n        for (\n            uint8 entryId = 0;\n            entryId < excludedFromTotalSupply.length;\n            ++entryId\n        ) {\n            balanceExcluded = balanceExcluded.add(\n                svnErc20.balanceOf(excludedFromTotalSupply[entryId])\n            );\n        }\n        return totalSupply.sub(balanceExcluded);\n    }\n\n    function getSvnPrice() public view returns (uint256 svnPrice) {\n        try IOracle(svnOracle).consult(svn, 1e18) returns (uint144 price) {\n            return uint256(price);\n        } catch {\n            revert(\"Treasury: failed to consult SVN price from the oracle\");\n        }\n    }\n\n    function nextEpochPoint() public view returns (uint256) {\n        return startTime.add(epoch.mul(PERIOD));\n    }\n\n    event Initialized(address indexed executor, uint256 at);\n    event BurnedBonds(address indexed from, uint256 bondAmount);\n    event RedeemedBonds(\n        address indexed from,\n        uint256 svnAmount,\n        uint256 bondAmount,\n        uint256 epochNumber\n    );\n    event BoughtBonds(\n        address indexed from,\n        uint256 svnAmount,\n        uint256 bondAmount,\n        uint256 epochNumber\n    );\n    event TreasuryFunded(\n        uint256 timestamp,\n        uint256 seigniorage,\n        uint256 epochNumber\n    );\n    event SvnWheelFunded(\n        uint256 timestamp,\n        uint256 seigniorage,\n        uint256 epochNumber\n    );\n    event DaoFundFunded(\n        uint256 timestamp,\n        uint256 seigniorage,\n        uint256 epochNumber\n    );\n    event DevFundFunded(\n        uint256 timestamp,\n        uint256 seigniorage,\n        uint256 epochNumber\n    );\n\n    function allocateSeigniorage()\n        external\n        onlyOneBlock\n        checkCondition\n        checkEpoch\n        checkOperator\n    {\n        _updateSvnPrice();\n        previousEpochSvnPrice = getSvnPrice();\n        uint256 svnSupply = getSvnCirculatingSupply().sub(seigniorageSaved);\n        if (epoch < bootstrapEpochs) {\n            _sendToSvnWheel(\n                svnSupply.mul(bootstrapSupplyExpansionPercent).div(10000)\n            );\n        } else {\n            if (previousEpochSvnPrice > svnPriceCeiling) {\n                uint256 bondSupply = IERC20(svnbond).totalSupply();\n                uint256 _percentage = previousEpochSvnPrice.sub(svnPriceOne);\n                uint256 _savedForBond;\n                uint256 _savedForSvnWheel;\n                uint256 _mse = _calculateMaxSupplyExpansionPercent(svnSupply)\n                    .mul(1e14);\n                if (_percentage > _mse) {\n                    _percentage = _mse;\n                }\n                if (\n                    seigniorageSaved >=\n                    bondSupply.mul(bondDepletionFloorPercent).div(10000)\n                ) {\n                    _savedForSvnWheel = svnSupply.mul(_percentage).div(1e18);\n                } else {\n                    uint256 _seigniorage = svnSupply.mul(_percentage).div(1e18);\n                    _savedForSvnWheel = _seigniorage\n                        .mul(seigniorageExpansionFloorPercent)\n                        .div(10000);\n                    _savedForBond = _seigniorage.sub(_savedForSvnWheel);\n                    if (mintingFactorForPayingDebt > 0) {\n                        _savedForBond = _savedForBond\n                            .mul(mintingFactorForPayingDebt)\n                            .div(10000);\n                    }\n                }\n                if (_savedForSvnWheel > 0) {\n                    _sendToSvnWheel(_savedForSvnWheel);\n                }\n                if (_savedForBond > 0) {\n                    seigniorageSaved = seigniorageSaved.add(_savedForBond);\n                    IBasisAsset(svn).mint(address(this), _savedForBond);\n                    emit TreasuryFunded(now, _savedForBond, epoch);\n                }\n            }\n        }\n    }\n\n    function buyBonds(uint256 _svnAmount, uint256 targetPrice)\n        external\n        onlyOneBlock\n        checkCondition\n        checkOperator\n    {\n        require(\n            _svnAmount > 0,\n            \"Treasury: cannot purchase bonds with zero amount\"\n        );\n        uint256 svnPrice = getSvnPrice();\n        require(svnPrice == targetPrice, \"Treasury: SVN price moved\");\n        require(\n            svnPrice < svnPriceOne,\n            \"Treasury: svnPrice not eligible for bond purchase\"\n        );\n        require(\n            _svnAmount <= epochSupplyContractionLeft,\n            \"Treasury: not enough bond left to purchase\"\n        );\n        uint256 _rate = getBondDiscountRate();\n        require(_rate > 0, \"Treasury: invalid bond rate\");\n        uint256 _bondAmount = _svnAmount.mul(_rate).div(1e18);\n        uint256 svnSupply = getSvnCirculatingSupply();\n        uint256 newBondSupply = IERC20(svnbond).totalSupply().add(_bondAmount);\n        require(\n            newBondSupply <= svnSupply.mul(maxDebtRatioPercent).div(10000),\n            \"over max debt ratio\"\n        );\n        IBasisAsset(svn).burnFrom(msg.sender, _svnAmount);\n        IBasisAsset(svnbond).mint(msg.sender, _bondAmount);\n        epochSupplyContractionLeft = epochSupplyContractionLeft.sub(_svnAmount);\n        _updateSvnPrice();\n        emit BoughtBonds(msg.sender, _svnAmount, _bondAmount, epoch);\n    }\n\n    function governanceRecoverUnsupported(\n        IERC20 _token,\n        uint256 _amount,\n        address _to\n    ) external onlyOperator {\n        require(address(_token) != address(svn), \"svn\");\n        require(address(_token) != address(svnbond), \"bond\");\n        require(address(_token) != address(svnshare), \"share\");\n        _token.safeTransfer(_to, _amount);\n    }\n\n    function svnWheelAllocateSeigniorage(uint256 amount) external onlyOperator {\n        IBoardroom(svnWheel).allocateSeigniorage(amount);\n    }\n\n    function svnWheelGovernanceRecoverUnsupported(\n        address _token,\n        uint256 _amount,\n        address _to\n    ) external onlyOperator {\n        IBoardroom(svnWheel).governanceRecoverUnsupported(_token, _amount, _to);\n    }\n\n    function svnWheelSetLockUp(\n        uint256 _withdrawLockupEpochs,\n        uint256 _rewardLockupEpochs\n    ) external onlyOperator {\n        IBoardroom(svnWheel).setLockUp(\n            _withdrawLockupEpochs,\n            _rewardLockupEpochs\n        );\n    }\n\n    function svnWheelSetOperator(address _operator) external onlyOperator {\n        IBoardroom(svnWheel).setOperator(_operator);\n    }\n\n    function initialize(\n        address _svn,\n        address _svnbond,\n        address _svnshare,\n        address _svnOracle,\n        address _svnWheel,\n        uint256 _startTime,\n        address[] memory excludedFromTotalSupply_\n    ) external notInitialized {\n        svn = _svn;\n        svnbond = _svnbond;\n        svnshare = _svnshare;\n        svnOracle = _svnOracle;\n        svnWheel = _svnWheel;\n        startTime = _startTime;\n        svnPriceOne = 10**18;\n        svnPriceCeiling = svnPriceOne.mul(101).div(100);\n        supplyTiers = [\n            0 ether,\n            500000 ether,\n            1000000 ether,\n            1500000 ether,\n            2000000 ether,\n            5000000 ether,\n            10000000 ether,\n            20000000 ether,\n            50000000 ether\n        ];\n        maxExpansionTiers = [450, 400, 350, 300, 250, 200, 150, 125, 100];\n        maxSupplyExpansionPercent = 400;\n        bondDepletionFloorPercent = 10000;\n        seigniorageExpansionFloorPercent = 3500;\n        maxSupplyContractionPercent = 300;\n        maxDebtRatioPercent = 3500;\n        premiumThreshold = 110;\n        premiumPercent = 7000;\n        bootstrapEpochs = 28;\n        bootstrapSupplyExpansionPercent = 450;\n        seigniorageSaved = IERC20(svn).balanceOf(address(this));\n        initialized = true;\n        operator = msg.sender;\n        for (uint256 i = 0; i < excludedFromTotalSupply_.length; i++) {\n            excludedFromTotalSupply.push(excludedFromTotalSupply_[i]);\n            // SvnGenesisPool && SvnRewardPool\n        }\n        emit Initialized(msg.sender, block.number);\n    }\n\n    function redeemBonds(uint256 _bondAmount, uint256 targetPrice)\n        external\n        onlyOneBlock\n        checkCondition\n        checkOperator\n    {\n        require(\n            _bondAmount > 0,\n            \"Treasury: cannot redeem bonds with zero amount\"\n        );\n        uint256 svnPrice = getSvnPrice();\n        require(svnPrice == targetPrice, \"Treasury: SVN price moved\");\n        require(\n            svnPrice > svnPriceCeiling,\n            \"Treasury: svnPrice not eligible for bond purchase\"\n        );\n        uint256 _rate = getBondPremiumRate();\n        require(_rate > 0, \"Treasury: invalid bond rate\");\n        uint256 _svnAmount = _bondAmount.mul(_rate).div(1e18);\n        require(\n            IERC20(svn).balanceOf(address(this)) >= _svnAmount,\n            \"Treasury: treasury has no more budget\"\n        );\n        seigniorageSaved = seigniorageSaved.sub(\n            Math.min(seigniorageSaved, _svnAmount)\n        );\n        IBasisAsset(svnbond).burnFrom(msg.sender, _bondAmount);\n        IERC20(svn).safeTransfer(msg.sender, _svnAmount);\n        _updateSvnPrice();\n        emit RedeemedBonds(msg.sender, _svnAmount, _bondAmount, epoch);\n    }\n\n    function setBondDepletionFloorPercent(uint256 _bondDepletionFloorPercent)\n        external\n        onlyOperator\n    {\n        require(\n            _bondDepletionFloorPercent >= 500 &&\n                _bondDepletionFloorPercent <= 10000,\n            \"out of range\"\n        );\n        bondDepletionFloorPercent = _bondDepletionFloorPercent;\n    }\n\n    function setBootstrap(\n        uint256 _bootstrapEpochs,\n        uint256 _bootstrapSupplyExpansionPercent\n    ) external onlyOperator {\n        require(_bootstrapEpochs <= 120, \"_bootstrapEpochs: out of range\");\n        require(\n            _bootstrapSupplyExpansionPercent >= 100 &&\n                _bootstrapSupplyExpansionPercent <= 1000,\n            \"_bootstrapSupplyExpansionPercent: out of range\"\n        );\n        bootstrapEpochs = _bootstrapEpochs;\n        bootstrapSupplyExpansionPercent = _bootstrapSupplyExpansionPercent;\n    }\n\n    function setDiscountPercent(uint256 _discountPercent)\n        external\n        onlyOperator\n    {\n        require(_discountPercent <= 20000, \"_discountPercent is over 200%\");\n        discountPercent = _discountPercent;\n    }\n\n    function setExtraFunds(\n        address _daoFund,\n        uint256 _daoFundSharedPercent,\n        address _devFund,\n        uint256 _devFundSharedPercent\n    ) external onlyOperator {\n        require(_daoFund != address(0), \"zero\");\n        require(_daoFundSharedPercent <= 3000, \"out of range\");\n        require(_devFund != address(0), \"zero\");\n        require(_devFundSharedPercent <= 1000, \"out of range\");\n        daoFund = _daoFund;\n        daoFundSharedPercent = _daoFundSharedPercent;\n        devFund = _devFund;\n        devFundSharedPercent = _devFundSharedPercent;\n    }\n\n    function setSvnOracle(address _svnOracle) external onlyOperator {\n        svnOracle = _svnOracle;\n    }\n\n    function setSvnPriceCeiling(uint256 _svnPriceCeiling)\n        external\n        onlyOperator\n    {\n        require(\n            _svnPriceCeiling >= svnPriceOne &&\n                _svnPriceCeiling <= svnPriceOne.mul(120).div(100),\n            \"out of range\"\n        );\n        svnPriceCeiling = _svnPriceCeiling;\n    }\n\n    function setSvnWheel(address _svnWheel) external onlyOperator {\n        svnWheel = _svnWheel;\n    }\n\n    function setMaxDebtRatioPercent(uint256 _maxDebtRatioPercent)\n        external\n        onlyOperator\n    {\n        require(\n            _maxDebtRatioPercent >= 1000 && _maxDebtRatioPercent <= 10000,\n            \"out of range\"\n        );\n        maxDebtRatioPercent = _maxDebtRatioPercent;\n    }\n\n    function setMaxDiscountRate(uint256 _maxDiscountRate)\n        external\n        onlyOperator\n    {\n        maxDiscountRate = _maxDiscountRate;\n    }\n\n    function setMaxExpansionTiersEntry(uint8 _index, uint256 _value)\n        external\n        onlyOperator\n        returns (bool)\n    {\n        require(_index >= 0, \"Index has to be higher than 0\");\n        require(_index < 9, \"Index has to be lower than count of tiers\");\n        require(_value >= 10 && _value <= 1000, \"_value: out of range\");\n        maxExpansionTiers[_index] = _value;\n        return true;\n    }\n\n    function setMaxPremiumRate(uint256 _maxPremiumRate) external onlyOperator {\n        maxPremiumRate = _maxPremiumRate;\n    }\n\n    function setMaxSupplyContractionPercent(\n        uint256 _maxSupplyContractionPercent\n    ) external onlyOperator {\n        require(\n            _maxSupplyContractionPercent >= 100 &&\n                _maxSupplyContractionPercent <= 1500,\n            \"out of range\"\n        );\n        maxSupplyContractionPercent = _maxSupplyContractionPercent;\n    }\n\n    function setMaxSupplyExpansionPercents(uint256 _maxSupplyExpansionPercent)\n        external\n        onlyOperator\n    {\n        require(\n            _maxSupplyExpansionPercent >= 10 &&\n                _maxSupplyExpansionPercent <= 1000,\n            \"_maxSupplyExpansionPercent: out of range\"\n        );\n        maxSupplyExpansionPercent = _maxSupplyExpansionPercent;\n    }\n\n    function setMintingFactorForPayingDebt(uint256 _mintingFactorForPayingDebt)\n        external\n        onlyOperator\n    {\n        require(\n            _mintingFactorForPayingDebt >= 10000 &&\n                _mintingFactorForPayingDebt <= 20000,\n            \"_mintingFactorForPayingDebt: out of range\"\n        );\n        mintingFactorForPayingDebt = _mintingFactorForPayingDebt;\n    }\n\n    function setOperator(address _operator) external onlyOperator {\n        operator = _operator;\n    }\n\n    function setPremiumPercent(uint256 _premiumPercent) external onlyOperator {\n        require(_premiumPercent <= 20000, \"_premiumPercent is over 200%\");\n        premiumPercent = _premiumPercent;\n    }\n\n    function setPremiumThreshold(uint256 _premiumThreshold)\n        external\n        onlyOperator\n    {\n        require(\n            _premiumThreshold >= svnPriceCeiling,\n            \"_premiumThreshold exceeds svnPriceCeiling\"\n        );\n        require(\n            _premiumThreshold <= 150,\n            \"_premiumThreshold is higher than 1.5\"\n        );\n        premiumThreshold = _premiumThreshold;\n    }\n\n    function setSupplyTiersEntry(uint8 _index, uint256 _value)\n        external\n        onlyOperator\n        returns (bool)\n    {\n        require(_index >= 0, \"Index has to be higher than 0\");\n        require(_index < 9, \"Index has to be lower than count of tiers\");\n        if (_index > 0) {\n            require(_value > supplyTiers[_index - 1]);\n        }\n        if (_index < 8) {\n            require(_value < supplyTiers[_index + 1]);\n        }\n        supplyTiers[_index] = _value;\n        return true;\n    }\n\n    function _calculateMaxSupplyExpansionPercent(uint256 _svnSupply)\n        internal\n        returns (uint256)\n    {\n        for (uint8 tierId = 8; tierId >= 0; --tierId) {\n            if (_svnSupply >= supplyTiers[tierId]) {\n                maxSupplyExpansionPercent = maxExpansionTiers[tierId];\n                break;\n            }\n        }\n        return maxSupplyExpansionPercent;\n    }\n\n    function _sendToSvnWheel(uint256 _amount) internal {\n        IBasisAsset(svn).mint(address(this), _amount);\n        uint256 _daoFundSharedAmount = 0;\n        if (daoFundSharedPercent > 0) {\n            _daoFundSharedAmount = _amount.mul(daoFundSharedPercent).div(10000);\n            IERC20(svn).transfer(daoFund, _daoFundSharedAmount);\n            emit DaoFundFunded(now, _daoFundSharedAmount, epoch);\n        }\n        uint256 _devFundSharedAmount = 0;\n        if (devFundSharedPercent > 0) {\n            _devFundSharedAmount = _amount.mul(devFundSharedPercent).div(10000);\n            IERC20(svn).transfer(devFund, _devFundSharedAmount);\n            emit DevFundFunded(now, _devFundSharedAmount, epoch);\n        }\n        _amount = _amount.sub(_daoFundSharedAmount).sub(_devFundSharedAmount);\n        IERC20(svn).safeApprove(svnWheel, 0);\n        IERC20(svn).safeApprove(svnWheel, _amount);\n        IBoardroom(svnWheel).allocateSeigniorage(_amount);\n        emit SvnWheelFunded(now, _amount, epoch);\n    }\n\n    function _updateSvnPrice() internal {\n        try IOracle(svnOracle).update() {} catch {}\n    }\n\n    modifier checkCondition() {\n        require(now >= startTime, \"Treasury: not started yet\");\n        _;\n    }\n\n    modifier checkEpoch() {\n        require(now >= nextEpochPoint(), \"Treasury: not opened yet\");\n        _;\n        epoch = epoch.add(1);\n        epochSupplyContractionLeft = (getSvnPrice() > svnPriceCeiling)\n            ? 0\n            : getSvnCirculatingSupply().mul(maxSupplyContractionPercent).div(\n                10000\n            );\n    }\n\n    modifier checkOperator() {\n        require(\n            IBasisAsset(svn).operator() == address(this) &&\n                IBasisAsset(svnbond).operator() == address(this) &&\n                IBasisAsset(svnshare).operator() == address(this) &&\n                Operator(svnWheel).operator() == address(this),\n            \"Treasury: need more permission\"\n        );\n        _;\n    }\n\n    modifier notInitialized() {\n        require(!initialized, \"Treasury: already initialized\");\n        _;\n    }\n\n    modifier onlyOperator() {\n        require(operator == msg.sender, \"Treasury: caller is not the operator\");\n        _;\n    }\n}\n",
  "sourcePath": "E:\\projects\\Blockchain\\Upwork\\defi_rent\\hamster-contracts-main\\contracts\\Treasury.sol",
  "compiler": {
    "name": "solc",
    "version": "0.6.12+commit.27d51765.Emscripten.clang"
  },
  "schemaVersion": "3.4.3",
  "updatedAt": "2022-03-21T18:40:38.790Z",
  "networkType": "ethereum",
  "devdoc": {
    "kind": "dev",
    "methods": {},
    "version": 1
  },
  "userdoc": {
    "kind": "user",
    "methods": {},
    "version": 1
  }
}